{
  "transactions": [
    {
      "hash": "0x965807037887770f521d5677019c1197d7e44a32a8a6ee0d3fd2f9308e858e35",
      "transactionType": "CALL",
      "contractName": null,
      "contractAddress": "0x2791bca1f2de4661ed88a30c99a7a9449aa84174",
      "function": "approve(address,uint256)",
      "arguments": [
        "0x4D97DCd97eC945f40cF65F87097ACe5EA0476045",
        "115792089237316195423570985008687907853269984665640564039457584007913129639935"
      ],
      "transaction": {
        "from": "0x1aa44c933a6718a4bc44064f0067a853c34be9b0",
        "to": "0x2791bca1f2de4661ed88a30c99a7a9449aa84174",
        "gas": "0xdc35",
        "value": "0x0",
        "input": "0x095ea7b30000000000000000000000004d97dcd97ec945f40cf65f87097ace5ea0476045ffffffffffffffffffffffffffffffffffffffffffffffffffffffffffffffff",
        "nonce": "0xb1",
        "chainId": "0x89"
      },
      "additionalContracts": [],
      "isFixedGasLimit": false
    },
    {
      "hash": "0x4cbfa936c53f68e1b4daf157dbc0282e1b3194f3b230d79cf3a0d4195c2e32da",
      "transactionType": "CALL",
      "contractName": null,
      "contractAddress": "0x4d97dcd97ec945f40cf65f87097ace5ea0476045",
      "function": "setApprovalForAll(address,bool)",
      "arguments": [
        "0xC01BbFC94C41F0D8Fc242cFe8465ea4dcD4f20C5",
        "true"
      ],
      "transaction": {
        "from": "0x1aa44c933a6718a4bc44064f0067a853c34be9b0",
        "to": "0x4d97dcd97ec945f40cf65f87097ace5ea0476045",
        "gas": "0x8ccd",
        "value": "0x0",
        "input": "0xa22cb465000000000000000000000000c01bbfc94c41f0d8fc242cfe8465ea4dcd4f20c50000000000000000000000000000000000000000000000000000000000000001",
        "nonce": "0xb2",
        "chainId": "0x89"
      },
      "additionalContracts": [],
      "isFixedGasLimit": false
    },
    {
      "hash": "0x1d8947213ef8d203ed95cf1cc44d3bf61a643f236c9736a36b4fced420cf07f7",
      "transactionType": "CALL",
      "contractName": null,
      "contractAddress": "0xc01bbfc94c41f0d8fc242cfe8465ea4dcd4f20c5",
      "function": "createIndex((address,bytes32[],uint256[],bytes,address),bytes)",
      "arguments": [
        "(0x7bcd278Bb230fF014149cE32c5a9663812Da9810, [0x23e8024f638844fc16d0ccde8416fdcfb91b2261c19a33a9325aa130d907d78c, 0x42d229e920b4b940905d0b2cc293e5c596b765360e261ea7d0fbe748ca4f7020, 0xc960789d6eb636756453f1d2cc30718c8a0d0fe90eedec1c2c35fcc3bf34c10a, 0x18be3e38f5a3d92d7a556afe7fa59ab3b2e8fb16a349596a516c908b8060f589], [1, 1, 1, 1], 0x00000000000000000000000000000000000000000000000000000000000000200000000000000000000000000000000000000000000000000000000000000025537570706f7274696e6720726f6c6573206272696e6720737461626c652070726f66697473000000000000000000000000000000000000000000000000000000, 0x3De278A5acdD0123eD668478ac8cCd2E178510BC)",
        "0x"
      ],
      "transaction": {
        "from": "0x1aa44c933a6718a4bc44064f0067a853c34be9b0",
        "to": "0xc01bbfc94c41f0d8fc242cfe8465ea4dcd4f20c5",
        "gas": "0x11fb04",
        "value": "0x0",
        "input": "0xd2f72136000000000000000000000000000000000000000000000000000000000000004000000000000000000000000000000000000000000000000000000000000002c00000000000000000000000007bcd278bb230ff014149ce32c5a9663812da981000000000000000000000000000000000000000000000000000000000000000a0000000000000000000000000000000000000000000000000000000000000014000000000000000000000000000000000000000000000000000000000000001e00000000000000000000000003de278a5acdd0123ed668478ac8ccd2e178510bc000000000000000000000000000000000000000000000000000000000000000423e8024f638844fc16d0ccde8416fdcfb91b2261c19a33a9325aa130d907d78c42d229e920b4b940905d0b2cc293e5c596b765360e261ea7d0fbe748ca4f7020c960789d6eb636756453f1d2cc30718c8a0d0fe90eedec1c2c35fcc3bf34c10a18be3e38f5a3d92d7a556afe7fa59ab3b2e8fb16a349596a516c908b8060f58900000000000000000000000000000000000000000000000000000000000000040000000000000000000000000000000000000000000000000000000000000001000000000000000000000000000000000000000000000000000000000000000100000000000000000000000000000000000000000000000000000000000000010000000000000000000000000000000000000000000000000000000000000001000000000000000000000000000000000000000000000000000000000000008000000000000000000000000000000000000000000000000000000000000000200000000000000000000000000000000000000000000000000000000000000025537570706f7274696e6720726f6c6573206272696e6720737461626c652070726f666974730000000000000000000000000000000000000000000000000000000000000000000000000000000000000000000000000000000000000000000000",
        "nonce": "0xb3",
        "chainId": "0x89"
      },
      "additionalContracts": [
        {
          "transactionType": "CREATE2",
          "address": "0x2f583fa67768b4d0c092ce35455202602ec60c76",
          "initCode": "0x6103ed3d81600a3d39f3363d3d373d3d3d363d737bcd278bb230ff014149ce32c5a9663812da98105af43d82803e903d91602b57fd5bf30000000000000000000000000000000000000000000000000000000000000020000000000000000000000000000000000000000000000000000000000000012000000000000000000000000000000000000000000000000000000000000001c000000000000000000000000000000000000000000000000000000000000002600000000000000000000000000000000000000000000000000000000000000300000000000000000000000000c01bbfc94c41f0d8fc242cfe8465ea4dcd4f20c50000000000000000000000004d97dcd97ec945f40cf65f87097ace5ea04760450000000000000000000000002791bca1f2de4661ed88a30c99a7a9449aa841740000000000000000000000007bcd278bb230ff014149ce32c5a9663812da98100000000000000000000000003de278a5acdd0123ed668478ac8ccd2e178510bc000000000000000000000000000000000000000000000000000000000000000415bf81a330bf158157d4d0685e9917523ee982106f26417d8ea4ccf281bc9dc35f5670e3ecc412d5eea6528f25fae759b0a9c1e46ea5ad70a06464f8f790c381c06b453fcf6f54e3b0e0779822457935923c102d703a5b0b40bf8174063eba17d827e6e1c4c64199c19b34d81f683cfa5f0156f04c01b875dab90c749b2bcb75000000000000000000000000000000000000000000000000000000000000000423e8024f638844fc16d0ccde8416fdcfb91b2261c19a33a9325aa130d907d78c42d229e920b4b940905d0b2cc293e5c596b765360e261ea7d0fbe748ca4f7020c960789d6eb636756453f1d2cc30718c8a0d0fe90eedec1c2c35fcc3bf34c10a18be3e38f5a3d92d7a556afe7fa59ab3b2e8fb16a349596a516c908b8060f58900000000000000000000000000000000000000000000000000000000000000040000000000000000000000000000000000000000000000000000000000000001000000000000000000000000000000000000000000000000000000000000000100000000000000000000000000000000000000000000000000000000000000010000000000000000000000000000000000000000000000000000000000000001000000000000000000000000000000000000000000000000000000000000008000000000000000000000000000000000000000000000000000000000000000200000000000000000000000000000000000000000000000000000000000000025537570706f7274696e6720726f6c6573206272696e6720737461626c652070726f66697473000000000000000000000000000000000000000000000000000000"
        }
      ],
      "isFixedGasLimit": false
    }
  ],
  "receipts": [
    {
      "status": "0x1",
      "cumulativeGasUsed": "0x6ef429",
      "logs": [
        {
          "address": "0x2791bca1f2de4661ed88a30c99a7a9449aa84174",
          "topics": [
            "0x8c5be1e5ebec7d5bd14f71427d1e84f3dd0314c0f7b2291e5b200ac8c7c3b925",
            "0x0000000000000000000000001aa44c933a6718a4bc44064f0067a853c34be9b0",
            "0x0000000000000000000000004d97dcd97ec945f40cf65f87097ace5ea0476045"
          ],
          "data": "0xffffffffffffffffffffffffffffffffffffffffffffffffffffffffffffffff",
          "blockHash": "0x5319d9f0d6cb34da8f2f3109a5881d87fda9ec70225d081d4cadf929c254dd0e",
          "blockNumber": "0x44447bd",
          "transactionHash": "0x965807037887770f521d5677019c1197d7e44a32a8a6ee0d3fd2f9308e858e35",
          "transactionIndex": "0x3f",
          "logIndex": "0x146",
          "removed": false
        },
        {
          "address": "0x0000000000000000000000000000000000001010",
          "topics": [
            "0x4dfe1bbbcf077ddc3e01291eea2d5c70c2b422b415d95645b9adcfd678cb1d63",
            "0x0000000000000000000000000000000000000000000000000000000000001010",
            "0x0000000000000000000000001aa44c933a6718a4bc44064f0067a853c34be9b0",
            "0x000000000000000000000000ce7fcb674ba27a952c71061b649fb5a5746f3b2b"
          ],
          "data": "0x0000000000000000000000000000000000000000000000000003c6e1f32ebe000000000000000000000000000000000000000000000000004da0252954bf5af9000000000000000000000000000000000000000000001d75c4aecf4ddf4dc50b0000000000000000000000000000000000000000000000004d9c5e4761909cf9000000000000000000000000000000000000000000001d75c4b2962fd27c830b",
          "blockHash": "0x5319d9f0d6cb34da8f2f3109a5881d87fda9ec70225d081d4cadf929c254dd0e",
          "blockNumber": "0x44447bd",
          "transactionHash": "0x965807037887770f521d5677019c1197d7e44a32a8a6ee0d3fd2f9308e858e35",
          "transactionIndex": "0x3f",
          "logIndex": "0x147",
          "removed": false
        }
      ],
      "logsBloom": "0x00000000000020000000000000000000000000000000000000000000000000000000000000000000000000000000000000008000000000000000000000200000000000000000000000000000000200800000000000000000000120000000000000000000000000000000000000000000000000000000000180000000000000000001000000000000000000001080000000000000000000000000000000000000220000000400000000000080000001000000000000000000000000000000004000000000004000000001000000000000000000000000000000100000000000000010008000000000000000000000000000000000000000000000000000100000",
      "type": "0x2",
      "transactionHash": "0x965807037887770f521d5677019c1197d7e44a32a8a6ee0d3fd2f9308e858e35",
      "transactionIndex": "0x3f",
      "blockHash": "0x5319d9f0d6cb34da8f2f3109a5881d87fda9ec70225d081d4cadf929c254dd0e",
      "blockNumber": "0x44447bd",
      "gasUsed": "0x9692",
      "effectiveGasPrice": "0xd0c69e82c",
      "from": "0x1aa44c933a6718a4bc44064f0067a853c34be9b0",
      "to": "0x2791bca1f2de4661ed88a30c99a7a9449aa84174",
      "contractAddress": null
    },
    {
      "status": "0x1",
      "cumulativeGasUsed": "0x6f5a19",
      "logs": [
        {
          "address": "0x4d97dcd97ec945f40cf65f87097ace5ea0476045",
          "topics": [
            "0x17307eab39ab6107e8899845ad3d59bd9653f200f220920489ca2b5937696c31",
            "0x0000000000000000000000001aa44c933a6718a4bc44064f0067a853c34be9b0",
            "0x000000000000000000000000c01bbfc94c41f0d8fc242cfe8465ea4dcd4f20c5"
          ],
          "data": "0x0000000000000000000000000000000000000000000000000000000000000001",
          "blockHash": "0x5319d9f0d6cb34da8f2f3109a5881d87fda9ec70225d081d4cadf929c254dd0e",
          "blockNumber": "0x44447bd",
          "transactionHash": "0x4cbfa936c53f68e1b4daf157dbc0282e1b3194f3b230d79cf3a0d4195c2e32da",
          "transactionIndex": "0x40",
          "logIndex": "0x148",
          "removed": false
        },
        {
          "address": "0x0000000000000000000000000000000000001010",
          "topics": [
            "0x4dfe1bbbcf077ddc3e01291eea2d5c70c2b422b415d95645b9adcfd678cb1d63",
            "0x0000000000000000000000000000000000000000000000000000000000001010",
            "0x0000000000000000000000001aa44c933a6718a4bc44064f0067a853c34be9b0",
            "0x000000000000000000000000ce7fcb674ba27a952c71061b649fb5a5746f3b2b"
          ],
          "data": "0x00000000000000000000000000000000000000000000000000028e96a8b390000000000000000000000000000000000000000000000000004d987872324f29e1000000000000000000000000000000000000000000001d75c4b2962fd27c830b0000000000000000000000000000000000000000000000004d95e9db899b99e1000000000000000000000000000000000000000000001d75c4b524c67b30130b",
          "blockHash": "0x5319d9f0d6cb34da8f2f3109a5881d87fda9ec70225d081d4cadf929c254dd0e",
          "blockNumber": "0x44447bd",
          "transactionHash": "0x4cbfa936c53f68e1b4daf157dbc0282e1b3194f3b230d79cf3a0d4195c2e32da",
          "transactionIndex": "0x40",
          "logIndex": "0x149",
          "removed": false
        }
      ],
      "logsBloom": "0x00000000000020000000000000000000000000000000000000000000000040000000000000000000000000000000000000008000000000000000000000000000000000000000000000200000000000800000000000000000000120000000000002000000000000000000000000000000000000000000000080001000000000000000000000000000000000001080000000000000000000000000000000000000200000000000000000000080000000000000000000000000000000000000004000000000004000000001000000000000000004000000000000100000000000000000200800000000040000000000000000000000000000000000000000100000",
      "type": "0x2",
      "transactionHash": "0x4cbfa936c53f68e1b4daf157dbc0282e1b3194f3b230d79cf3a0d4195c2e32da",
      "transactionIndex": "0x40",
      "blockHash": "0x5319d9f0d6cb34da8f2f3109a5881d87fda9ec70225d081d4cadf929c254dd0e",
      "blockNumber": "0x44447bd",
      "gasUsed": "0x65f0",
      "effectiveGasPrice": "0xd0c69e82c",
      "from": "0x1aa44c933a6718a4bc44064f0067a853c34be9b0",
      "to": "0x4d97dcd97ec945f40cf65f87097ace5ea0476045",
      "contractAddress": null
    },
    {
      "status": "0x1",
      "cumulativeGasUsed": "0x7c5e99",
      "logs": [
        {
          "address": "0x4d97dcd97ec945f40cf65f87097ace5ea0476045",
          "topics": [
            "0x17307eab39ab6107e8899845ad3d59bd9653f200f220920489ca2b5937696c31",
            "0x0000000000000000000000002f583fa67768b4d0c092ce35455202602ec60c76",
            "0x0000000000000000000000004d97dcd97ec945f40cf65f87097ace5ea0476045"
          ],
          "data": "0x0000000000000000000000000000000000000000000000000000000000000001",
          "blockHash": "0x5319d9f0d6cb34da8f2f3109a5881d87fda9ec70225d081d4cadf929c254dd0e",
          "blockNumber": "0x44447bd",
          "transactionHash": "0x1d8947213ef8d203ed95cf1cc44d3bf61a643f236c9736a36b4fced420cf07f7",
          "transactionIndex": "0x41",
          "logIndex": "0x14a",
          "removed": false
        },
        {
          "address": "0x2791bca1f2de4661ed88a30c99a7a9449aa84174",
          "topics": [
            "0x8c5be1e5ebec7d5bd14f71427d1e84f3dd0314c0f7b2291e5b200ac8c7c3b925",
            "0x0000000000000000000000002f583fa67768b4d0c092ce35455202602ec60c76",
            "0x0000000000000000000000004d97dcd97ec945f40cf65f87097ace5ea0476045"
          ],
          "data": "0xffffffffffffffffffffffffffffffffffffffffffffffffffffffffffffffff",
          "blockHash": "0x5319d9f0d6cb34da8f2f3109a5881d87fda9ec70225d081d4cadf929c254dd0e",
          "blockNumber": "0x44447bd",
          "transactionHash": "0x1d8947213ef8d203ed95cf1cc44d3bf61a643f236c9736a36b4fced420cf07f7",
          "transactionIndex": "0x41",
          "logIndex": "0x14b",
          "removed": false
        },
        {
          "address": "0xc01bbfc94c41f0d8fc242cfe8465ea4dcd4f20c5",
          "topics": [
            "0x750538103f64f9b5e2db539e5c1f7552a63aa9e68e07396b2b4b58f7cfef18ab",
            "0x0000000000000000000000002f583fa67768b4d0c092ce35455202602ec60c76"
          ],
          "data": "0x000000000000000000000000000000000000000000000000000000000000004000000000000000000000000000000000000000000000000000000000000000e0000000000000000000000000000000000000000000000000000000000000000415bf81a330bf158157d4d0685e9917523ee982106f26417d8ea4ccf281bc9dc35f5670e3ecc412d5eea6528f25fae759b0a9c1e46ea5ad70a06464f8f790c381c06b453fcf6f54e3b0e0779822457935923c102d703a5b0b40bf8174063eba17d827e6e1c4c64199c19b34d81f683cfa5f0156f04c01b875dab90c749b2bcb75000000000000000000000000000000000000000000000000000000000000008000000000000000000000000000000000000000000000000000000000000000200000000000000000000000000000000000000000000000000000000000000025537570706f7274696e6720726f6c6573206272696e6720737461626c652070726f66697473000000000000000000000000000000000000000000000000000000",
          "blockHash": "0x5319d9f0d6cb34da8f2f3109a5881d87fda9ec70225d081d4cadf929c254dd0e",
          "blockNumber": "0x44447bd",
          "transactionHash": "0x1d8947213ef8d203ed95cf1cc44d3bf61a643f236c9736a36b4fced420cf07f7",
          "transactionIndex": "0x41",
          "logIndex": "0x14c",
          "removed": false
        },
        {
          "address": "0x0000000000000000000000000000000000001010",
          "topics": [
            "0x4dfe1bbbcf077ddc3e01291eea2d5c70c2b422b415d95645b9adcfd678cb1d63",
            "0x0000000000000000000000000000000000000000000000000000000000001010",
            "0x0000000000000000000000001aa44c933a6718a4bc44064f0067a853c34be9b0",
            "0x000000000000000000000000ce7fcb674ba27a952c71061b649fb5a5746f3b2b"
          ],
          "data": "0x0000000000000000000000000000000000000000000000000053978bc34f80000000000000000000000000000000000000000000000000004d934650c66c24a1000000000000000000000000000000000000000000001d75c4b524c67b30130b0000000000000000000000000000000000000000000000004d3faec5031ca4a1000000000000000000000000000000000000000000001d75c508bc523e7f930b",
          "blockHash": "0x5319d9f0d6cb34da8f2f3109a5881d87fda9ec70225d081d4cadf929c254dd0e",
          "blockNumber": "0x44447bd",
          "transactionHash": "0x1d8947213ef8d203ed95cf1cc44d3bf61a643f236c9736a36b4fced420cf07f7",
          "transactionIndex": "0x41",
          "logIndex": "0x14d",
          "removed": false
        }
      ],
      "logsBloom": "0x00000000000020000000000000000000000000000000000000002000000040000000000000000000000000000000000010008000000000000000000000200000000000004000000000000000000200800000000000000000020120000000000002000040000000000000000000000000000000000000000180000000000000000001000000000000000000001080000000001000000000000000040000000000220000000400000000000080000001000000000000000000000000000000004000000000004000000001000000000000000004000000000000100000000000000010208800000000040000000000000000000000000000000000000000102000",
      "type": "0x2",
      "transactionHash": "0x1d8947213ef8d203ed95cf1cc44d3bf61a643f236c9736a36b4fced420cf07f7",
      "transactionIndex": "0x41",
      "blockHash": "0x5319d9f0d6cb34da8f2f3109a5881d87fda9ec70225d081d4cadf929c254dd0e",
      "blockNumber": "0x44447bd",
      "gasUsed": "0xd0480",
      "effectiveGasPrice": "0xd0c69e82c",
      "from": "0x1aa44c933a6718a4bc44064f0067a853c34be9b0",
      "to": "0xc01bbfc94c41f0d8fc242cfe8465ea4dcd4f20c5",
      "contractAddress": null
    }
  ],
  "libraries": [],
  "pending": [],
  "returns": {},
  "timestamp": 1747391801,
  "chain": 137,
  "commit": "d6a2b0f"
}