{
  "transactions": [
    {
      "hash": "0xbd82eb80d20305d3a84d165bc244ad30e10f30e224d56691a8b03bfb9d3a86ae",
      "transactionType": "CALL",
      "contractName": null,
      "contractAddress": "0x96d2577a1b5208147b3e592e5a19282a56f61c93",
      "function": "withdraw(uint256)",
      "arguments": [
        "5000000"
      ],
      "transaction": {
        "from": "0x1aa44c933a6718a4bc44064f0067a853c34be9b0",
        "to": "0x96d2577a1b5208147b3e592e5a19282a56f61c93",
        "gas": "0x33e4c",
        "value": "0x0",
        "input": "0x2e1a7d4d00000000000000000000000000000000000000000000000000000000004c4b40",
        "nonce": "0x52",
        "chainId": "0x89"
      },
      "additionalContracts": [],
      "isFixedGasLimit": false
    }
  ],
  "receipts": [
    {
      "status": "0x1",
      "cumulativeGasUsed": "0x6fcc89",
      "logs": [
        {
          "address": "0x96d2577a1b5208147b3e592e5a19282a56f61c93",
          "topics": [
            "0xddf252ad1be2c89b69c2b068fc378daa952ba7f163c4a11628f55a4df523b3ef",
            "0x0000000000000000000000001aa44c933a6718a4bc44064f0067a853c34be9b0",
            "0x0000000000000000000000000000000000000000000000000000000000000000"
          ],
          "data": "0x00000000000000000000000000000000000000000000000000000000004c4b40",
          "blockHash": "0xa906e72d63baac256434cab50c9effaf1cf8a883bbe97742c1ea1e8e5bfc506a",
          "blockNumber": "0x443e88a",
          "transactionHash": "0xbd82eb80d20305d3a84d165bc244ad30e10f30e224d56691a8b03bfb9d3a86ae",
          "transactionIndex": "0x2c",
          "logIndex": "0xc8",
          "removed": false
        },
        {
          "address": "0x4d97dcd97ec945f40cf65f87097ace5ea0476045",
          "topics": [
            "0x4a39dc06d4c0dbc64b70af90fd698a233a518aa5d07e595d983b8c0526c8f7fb",
            "0x00000000000000000000000096d2577a1b5208147b3e592e5a19282a56f61c93",
            "0x00000000000000000000000096d2577a1b5208147b3e592e5a19282a56f61c93",
            "0x0000000000000000000000001aa44c933a6718a4bc44064f0067a853c34be9b0"
          ],
          "data": "0x000000000000000000000000000000000000000000000000000000000000004000000000000000000000000000000000000000000000000000000000000000e00000000000000000000000000000000000000000000000000000000000000004274f483d89eae851d2dd7b8510d21a8b160bf24c4086684b5ffb997d9c84973d35d451cc82492f4ab9d2489892038bfe00ce089d310f513bd95d5755fa75851f55525a430e83ffbdb1b501cfde45aaadbe93869da7cd596ff6249f452bd7c0bb7bfc2a104e5c430be513e7d7d4a9792b6df8c227f4df2c741542b1942a1605d1000000000000000000000000000000000000000000000000000000000000000400000000000000000000000000000000000000000000000000000000004c4b4000000000000000000000000000000000000000000000000000000000004c4b4000000000000000000000000000000000000000000000000000000000004c4b4000000000000000000000000000000000000000000000000000000000004c4b40",
          "blockHash": "0xa906e72d63baac256434cab50c9effaf1cf8a883bbe97742c1ea1e8e5bfc506a",
          "blockNumber": "0x443e88a",
          "transactionHash": "0xbd82eb80d20305d3a84d165bc244ad30e10f30e224d56691a8b03bfb9d3a86ae",
          "transactionIndex": "0x2c",
          "logIndex": "0xc9",
          "removed": false
        },
        {
          "address": "0x0000000000000000000000000000000000001010",
          "topics": [
            "0x4dfe1bbbcf077ddc3e01291eea2d5c70c2b422b415d95645b9adcfd678cb1d63",
            "0x0000000000000000000000000000000000000000000000000000000000001010",
            "0x0000000000000000000000001aa44c933a6718a4bc44064f0067a853c34be9b0",
            "0x000000000000000000000000a8b52f02108aa5f4b675bdcc973760022d7c6020"
          ],
          "data": "0x000000000000000000000000000000000000000000000000000ebf2dd744e800000000000000000000000000000000000000000000000000732718a44eba94b5000000000000000000000000000000000000000000000068ad8badc637d65656000000000000000000000000000000000000000000000000731859767775acb5000000000000000000000000000000000000000000000068ad9a6cf40f1b3e56",
          "blockHash": "0xa906e72d63baac256434cab50c9effaf1cf8a883bbe97742c1ea1e8e5bfc506a",
          "blockNumber": "0x443e88a",
          "transactionHash": "0xbd82eb80d20305d3a84d165bc244ad30e10f30e224d56691a8b03bfb9d3a86ae",
          "transactionIndex": "0x2c",
          "logIndex": "0xca",
          "removed": false
        }
      ],
      "logsBloom": "0x00000000000020000000000000000000000000000000000000000000000040000000080000000000000000000002000000008000000000000000000000000000000000000000000000000008000000800000000000000000000100000000000000200000020000000000000000000800000000000800000080000010000000000000000000000000000000001000000000000000000000040000000000000000200000000000004000000080000001000000000000000000400000000000004000000002000000000001000000000000000404000000000000100000000020000000000000000000040000000000000000000000800000000000000002500000",
      "type": "0x2",
      "transactionHash": "0xbd82eb80d20305d3a84d165bc244ad30e10f30e224d56691a8b03bfb9d3a86ae",
      "transactionIndex": "0x2c",
      "blockHash": "0xa906e72d63baac256434cab50c9effaf1cf8a883bbe97742c1ea1e8e5bfc506a",
      "blockNumber": "0x443e88a",
      "gasUsed": "0x237ba",
      "effectiveGasPrice": "0x6a64f04f0",
      "from": "0x1aa44c933a6718a4bc44064f0067a853c34be9b0",
      "to": "0x96d2577a1b5208147b3e592e5a19282a56f61c93",
      "contractAddress": null
    }
  ],
  "libraries": [],
  "pending": [],
  "returns": {},
  "timestamp": 1747339202,
  "chain": 137,
  "commit": "5e7219b"
}