{
  "transactions": [
    {
      "hash": "0x5ab136d069df3f219601d1c9425e144ac72812cddb63cb33cd752f758b6c2caa",
      "transactionType": "CALL",
      "contractName": null,
      "contractAddress": "0x2791bca1f2de4661ed88a30c99a7a9449aa84174",
      "function": "approve(address,uint256)",
      "arguments": [
        "0x4D97DCd97eC945f40cF65F87097ACe5EA0476045",
        "115792089237316195423570985008687907853269984665640564039457584007913129639935"
      ],
      "transaction": {
        "from": "0x1aa44c933a6718a4bc44064f0067a853c34be9b0",
        "to": "0x2791bca1f2de4661ed88a30c99a7a9449aa84174",
        "gas": "0xdc35",
        "value": "0x0",
        "input": "0x095ea7b30000000000000000000000004d97dcd97ec945f40cf65f87097ace5ea0476045ffffffffffffffffffffffffffffffffffffffffffffffffffffffffffffffff",
        "nonce": "0xce",
        "chainId": "0x89"
      },
      "additionalContracts": [],
      "isFixedGasLimit": false
    },
    {
      "hash": "0x0cd67aefdf78e23cd01265517b3b3bcb591fbb86a09a9ca8c3325fcd35d32094",
      "transactionType": "CALL",
      "contractName": null,
      "contractAddress": "0x4d97dcd97ec945f40cf65f87097ace5ea0476045",
      "function": "setApprovalForAll(address,bool)",
      "arguments": [
        "0xC01BbFC94C41F0D8Fc242cFe8465ea4dcD4f20C5",
        "true"
      ],
      "transaction": {
        "from": "0x1aa44c933a6718a4bc44064f0067a853c34be9b0",
        "to": "0x4d97dcd97ec945f40cf65f87097ace5ea0476045",
        "gas": "0x8ccd",
        "value": "0x0",
        "input": "0xa22cb465000000000000000000000000c01bbfc94c41f0d8fc242cfe8465ea4dcd4f20c50000000000000000000000000000000000000000000000000000000000000001",
        "nonce": "0xcf",
        "chainId": "0x89"
      },
      "additionalContracts": [],
      "isFixedGasLimit": false
    },
    {
      "hash": "0x860ad77d63f8d4c7273b01c13c2eb6957905bc4cede05bd8d40c3a072d190665",
      "transactionType": "CALL",
      "contractName": null,
      "contractAddress": "0xc01bbfc94c41f0d8fc242cfe8465ea4dcd4f20c5",
      "function": "createIndex((address,bytes32[],uint256[],bytes,address),bytes)",
      "arguments": [
        "(0x7bcd278Bb230fF014149cE32c5a9663812Da9810, [0x41a7b02edc7e1e56661022289f4462a8870239e73b389b8eadd0b5ecde161a78, 0x0b9f873f001fa5ccf06fb55a21663401a86ba8af20c2452baea618a32c08c88f, 0x88fad6af135ca7cbd55a8bda5a1243125ded68b1e521066009cc990b13960b88, 0x22bfce8b3fc9e6b23088dad87c8b90771b3b47495d5f2dd76a0b8e45c2e5637b], [1, 1, 1, 1], 0x0000000000000000000000000000000000000000000000000000000000000020000000000000000000000000000000000000000000000000000000000000001a506f6c796e616e63652d41492d52616e646f6d2d73656c656374000000000000, 0x3De278A5acdD0123eD668478ac8cCd2E178510BC)",
        "0x"
      ],
      "transaction": {
        "from": "0x1aa44c933a6718a4bc44064f0067a853c34be9b0",
        "to": "0xc01bbfc94c41f0d8fc242cfe8465ea4dcd4f20c5",
        "gas": "0x101a7e",
        "value": "0x0",
        "input": "0xd2f72136000000000000000000000000000000000000000000000000000000000000004000000000000000000000000000000000000000000000000000000000000002a00000000000000000000000007bcd278bb230ff014149ce32c5a9663812da981000000000000000000000000000000000000000000000000000000000000000a0000000000000000000000000000000000000000000000000000000000000014000000000000000000000000000000000000000000000000000000000000001e00000000000000000000000003de278a5acdd0123ed668478ac8ccd2e178510bc000000000000000000000000000000000000000000000000000000000000000441a7b02edc7e1e56661022289f4462a8870239e73b389b8eadd0b5ecde161a780b9f873f001fa5ccf06fb55a21663401a86ba8af20c2452baea618a32c08c88f88fad6af135ca7cbd55a8bda5a1243125ded68b1e521066009cc990b13960b8822bfce8b3fc9e6b23088dad87c8b90771b3b47495d5f2dd76a0b8e45c2e5637b0000000000000000000000000000000000000000000000000000000000000004000000000000000000000000000000000000000000000000000000000000000100000000000000000000000000000000000000000000000000000000000000010000000000000000000000000000000000000000000000000000000000000001000000000000000000000000000000000000000000000000000000000000000100000000000000000000000000000000000000000000000000000000000000600000000000000000000000000000000000000000000000000000000000000020000000000000000000000000000000000000000000000000000000000000001a506f6c796e616e63652d41492d52616e646f6d2d73656c6563740000000000000000000000000000000000000000000000000000000000000000000000000000",
        "nonce": "0xd0",
        "chainId": "0x89"
      },
      "additionalContracts": [
        {
          "transactionType": "CREATE2",
          "address": "0x34cfc02b170d834506b36c44273b5421032baa31",
          "initCode": "0x6103cd3d81600a3d39f3363d3d373d3d3d363d737bcd278bb230ff014149ce32c5a9663812da98105af43d82803e903d91602b57fd5bf30000000000000000000000000000000000000000000000000000000000000020000000000000000000000000000000000000000000000000000000000000012000000000000000000000000000000000000000000000000000000000000001c000000000000000000000000000000000000000000000000000000000000002600000000000000000000000000000000000000000000000000000000000000300000000000000000000000000c01bbfc94c41f0d8fc242cfe8465ea4dcd4f20c50000000000000000000000004d97dcd97ec945f40cf65f87097ace5ea04760450000000000000000000000002791bca1f2de4661ed88a30c99a7a9449aa841740000000000000000000000007bcd278bb230ff014149ce32c5a9663812da98100000000000000000000000003de278a5acdd0123ed668478ac8ccd2e178510bc00000000000000000000000000000000000000000000000000000000000000041f3d12f7e50de8e5f679511a6241e6cfc60e6a58533027348470b6cc3ad86dfd3194161f48ddf3c0821047032dc0ae6395bb7220ed5d2100f65f68a74c4bd84534ce5249c3be97799029ce2befcd06c638bcd322d992ec088fbe9a634beabc395b79f88e2efa4fa33816dce55ffb3bfb3e85e1b0c5d529730eab6ff5050a6195000000000000000000000000000000000000000000000000000000000000000441a7b02edc7e1e56661022289f4462a8870239e73b389b8eadd0b5ecde161a780b9f873f001fa5ccf06fb55a21663401a86ba8af20c2452baea618a32c08c88f88fad6af135ca7cbd55a8bda5a1243125ded68b1e521066009cc990b13960b8822bfce8b3fc9e6b23088dad87c8b90771b3b47495d5f2dd76a0b8e45c2e5637b0000000000000000000000000000000000000000000000000000000000000004000000000000000000000000000000000000000000000000000000000000000100000000000000000000000000000000000000000000000000000000000000010000000000000000000000000000000000000000000000000000000000000001000000000000000000000000000000000000000000000000000000000000000100000000000000000000000000000000000000000000000000000000000000600000000000000000000000000000000000000000000000000000000000000020000000000000000000000000000000000000000000000000000000000000001a506f6c796e616e63652d41492d52616e646f6d2d73656c656374000000000000"
        }
      ],
      "isFixedGasLimit": false
    },
    {
      "hash": "0x657cd1812ae7bf623e4bb7e8dae219097673c7c4a775261652bc651a41d1f1ff",
      "transactionType": "CALL",
      "contractName": null,
      "contractAddress": "0x2791bca1f2de4661ed88a30c99a7a9449aa84174",
      "function": "approve(address,uint256)",
      "arguments": [
        "0x34CfC02b170d834506b36C44273b5421032BaA31",
        "115792089237316195423570985008687907853269984665640564039457584007913129639935"
      ],
      "transaction": {
        "from": "0x1aa44c933a6718a4bc44064f0067a853c34be9b0",
        "to": "0x2791bca1f2de4661ed88a30c99a7a9449aa84174",
        "gas": "0x13b57",
        "value": "0x0",
        "input": "0x095ea7b300000000000000000000000034cfc02b170d834506b36c44273b5421032baa31ffffffffffffffffffffffffffffffffffffffffffffffffffffffffffffffff",
        "nonce": "0xd1",
        "chainId": "0x89"
      },
      "additionalContracts": [],
      "isFixedGasLimit": false
    },
    {
      "hash": "0x5622e278ebc2db39b38c500a92c17da9eb03e309a91371b716b8a083fb862756",
      "transactionType": "CALL",
      "contractName": null,
      "contractAddress": "0x4d97dcd97ec945f40cf65f87097ace5ea0476045",
      "function": "setApprovalForAll(address,bool)",
      "arguments": [
        "0x34CfC02b170d834506b36C44273b5421032BaA31",
        "true"
      ],
      "transaction": {
        "from": "0x1aa44c933a6718a4bc44064f0067a853c34be9b0",
        "to": "0x4d97dcd97ec945f40cf65f87097ace5ea0476045",
        "gas": "0xf82b",
        "value": "0x0",
        "input": "0xa22cb46500000000000000000000000034cfc02b170d834506b36c44273b5421032baa310000000000000000000000000000000000000000000000000000000000000001",
        "nonce": "0xd2",
        "chainId": "0x89"
      },
      "additionalContracts": [],
      "isFixedGasLimit": false
    },
    {
      "hash": "0x8ce24aebf3f32550fbb36959cf0101fef928040e9ba80d673aab84572bb259e8",
      "transactionType": "CALL",
      "contractName": null,
      "contractAddress": "0x34cfc02b170d834506b36c44273b5421032baa31",
      "function": "deposit(uint256)",
      "arguments": [
        "4000000"
      ],
      "transaction": {
        "from": "0x1aa44c933a6718a4bc44064f0067a853c34be9b0",
        "to": "0x34cfc02b170d834506b36c44273b5421032baa31",
        "gas": "0xc0c70",
        "value": "0x0",
        "input": "0xb6b55f2500000000000000000000000000000000000000000000000000000000003d0900",
        "nonce": "0xd3",
        "chainId": "0x89"
      },
      "additionalContracts": [],
      "isFixedGasLimit": false
    }
  ],
  "receipts": [
    {
      "status": "0x1",
      "cumulativeGasUsed": "0x67a42e",
      "logs": [
        {
          "address": "0x2791bca1f2de4661ed88a30c99a7a9449aa84174",
          "topics": [
            "0x8c5be1e5ebec7d5bd14f71427d1e84f3dd0314c0f7b2291e5b200ac8c7c3b925",
            "0x0000000000000000000000001aa44c933a6718a4bc44064f0067a853c34be9b0",
            "0x0000000000000000000000004d97dcd97ec945f40cf65f87097ace5ea0476045"
          ],
          "data": "0xffffffffffffffffffffffffffffffffffffffffffffffffffffffffffffffff",
          "blockHash": "0x90791a9c52c1bd02ec2a162f807c2f6f06405e5f0dc4c84fa80ab0e902a82e4d",
          "blockNumber": "0x44486c2",
          "transactionHash": "0x5ab136d069df3f219601d1c9425e144ac72812cddb63cb33cd752f758b6c2caa",
          "transactionIndex": "0x2e",
          "logIndex": "0xb7",
          "removed": false
        },
        {
          "address": "0x0000000000000000000000000000000000001010",
          "topics": [
            "0x4dfe1bbbcf077ddc3e01291eea2d5c70c2b422b415d95645b9adcfd678cb1d63",
            "0x0000000000000000000000000000000000000000000000000000000000001010",
            "0x0000000000000000000000001aa44c933a6718a4bc44064f0067a853c34be9b0",
            "0x00000000000000000000000073632b875d37e12670c03e8ca17f471134b872fb"
          ],
          "data": "0x00000000000000000000000000000000000000000000000000041bb8b3201800000000000000000000000000000000000000000000000000488189ec367c8dad00000000000000000000000000000000000000000000000f624389df62ef7dc7000000000000000000000000000000000000000000000000487d6e33835c75ad00000000000000000000000000000000000000000000000f6247a598160f95c7",
          "blockHash": "0x90791a9c52c1bd02ec2a162f807c2f6f06405e5f0dc4c84fa80ab0e902a82e4d",
          "blockNumber": "0x44486c2",
          "transactionHash": "0x5ab136d069df3f219601d1c9425e144ac72812cddb63cb33cd752f758b6c2caa",
          "transactionIndex": "0x2e",
          "logIndex": "0xb8",
          "removed": false
        }
      ],
      "logsBloom": "0x00000000000020000000000000000000000000000000000000000000000000000000000000000000000000000000000000008000000000000000000000200000000000000000000000000000000200800000000000000000000100000000400000000000000000000000000000000000000000000000000180000000000000000001000000000000000002001000000000000000000000000000000000000000220000000400000000000080000001000000000000000000000000000000004000000000000000000001000000000000000000000000000000100000000000000010008000000000000000000000000000000000000000000000000002100000",
      "type": "0x2",
      "transactionHash": "0x5ab136d069df3f219601d1c9425e144ac72812cddb63cb33cd752f758b6c2caa",
      "transactionIndex": "0x2e",
      "blockHash": "0x90791a9c52c1bd02ec2a162f807c2f6f06405e5f0dc4c84fa80ab0e902a82e4d",
      "blockNumber": "0x44486c2",
      "gasUsed": "0x9692",
      "effectiveGasPrice": "0x6fc23ac1b",
      "from": "0x1aa44c933a6718a4bc44064f0067a853c34be9b0",
      "to": "0x2791bca1f2de4661ed88a30c99a7a9449aa84174",
      "contractAddress": null
    },
    {
      "status": "0x1",
      "cumulativeGasUsed": "0x680a1e",
      "logs": [
        {
          "address": "0x4d97dcd97ec945f40cf65f87097ace5ea0476045",
          "topics": [
            "0x17307eab39ab6107e8899845ad3d59bd9653f200f220920489ca2b5937696c31",
            "0x0000000000000000000000001aa44c933a6718a4bc44064f0067a853c34be9b0",
            "0x000000000000000000000000c01bbfc94c41f0d8fc242cfe8465ea4dcd4f20c5"
          ],
          "data": "0x0000000000000000000000000000000000000000000000000000000000000001",
          "blockHash": "0x90791a9c52c1bd02ec2a162f807c2f6f06405e5f0dc4c84fa80ab0e902a82e4d",
          "blockNumber": "0x44486c2",
          "transactionHash": "0x0cd67aefdf78e23cd01265517b3b3bcb591fbb86a09a9ca8c3325fcd35d32094",
          "transactionIndex": "0x2f",
          "logIndex": "0xb9",
          "removed": false
        },
        {
          "address": "0x0000000000000000000000000000000000001010",
          "topics": [
            "0x4dfe1bbbcf077ddc3e01291eea2d5c70c2b422b415d95645b9adcfd678cb1d63",
            "0x0000000000000000000000000000000000000000000000000000000000001010",
            "0x0000000000000000000000001aa44c933a6718a4bc44064f0067a853c34be9b0",
            "0x00000000000000000000000073632b875d37e12670c03e8ca17f471134b872fb"
          ],
          "data": "0x0000000000000000000000000000000000000000000000000002c806744d4000000000000000000000000000000000000000000000000000487d6e33834c944700000000000000000000000000000000000000000000000f6247a598160f95c7000000000000000000000000000000000000000000000000487aa62d0eff544700000000000000000000000000000000000000000000000f624a6d9e8a5cd5c7",
          "blockHash": "0x90791a9c52c1bd02ec2a162f807c2f6f06405e5f0dc4c84fa80ab0e902a82e4d",
          "blockNumber": "0x44486c2",
          "transactionHash": "0x0cd67aefdf78e23cd01265517b3b3bcb591fbb86a09a9ca8c3325fcd35d32094",
          "transactionIndex": "0x2f",
          "logIndex": "0xba",
          "removed": false
        }
      ],
      "logsBloom": "0x00000000000020000000000000000000000000000000000000000000000040000000000000000000000000000000000000008000000000000000000000000000000000000000000000200000000000800000000000000000000100000000400002000000000000000000000000000000000000000000000080001000000000000000000000000000000002001000000000000000000000000000000000000000200000000000000000000080000000000000000000000000000000000000004000000000000000000001000000000000000004000000000000100000000000000000200800000000040000000000000000000000000000000000000002100000",
      "type": "0x2",
      "transactionHash": "0x0cd67aefdf78e23cd01265517b3b3bcb591fbb86a09a9ca8c3325fcd35d32094",
      "transactionIndex": "0x2f",
      "blockHash": "0x90791a9c52c1bd02ec2a162f807c2f6f06405e5f0dc4c84fa80ab0e902a82e4d",
      "blockNumber": "0x44486c2",
      "gasUsed": "0x65f0",
      "effectiveGasPrice": "0x6fc23ac1b",
      "from": "0x1aa44c933a6718a4bc44064f0067a853c34be9b0",
      "to": "0x4d97dcd97ec945f40cf65f87097ace5ea0476045",
      "contractAddress": null
    },
    {
      "status": "0x1",
      "cumulativeGasUsed": "0x73b2bb",
      "logs": [
        {
          "address": "0x4d97dcd97ec945f40cf65f87097ace5ea0476045",
          "topics": [
            "0x17307eab39ab6107e8899845ad3d59bd9653f200f220920489ca2b5937696c31",
            "0x00000000000000000000000034cfc02b170d834506b36c44273b5421032baa31",
            "0x0000000000000000000000004d97dcd97ec945f40cf65f87097ace5ea0476045"
          ],
          "data": "0x0000000000000000000000000000000000000000000000000000000000000001",
          "blockHash": "0x90791a9c52c1bd02ec2a162f807c2f6f06405e5f0dc4c84fa80ab0e902a82e4d",
          "blockNumber": "0x44486c2",
          "transactionHash": "0x860ad77d63f8d4c7273b01c13c2eb6957905bc4cede05bd8d40c3a072d190665",
          "transactionIndex": "0x30",
          "logIndex": "0xbb",
          "removed": false
        },
        {
          "address": "0x2791bca1f2de4661ed88a30c99a7a9449aa84174",
          "topics": [
            "0x8c5be1e5ebec7d5bd14f71427d1e84f3dd0314c0f7b2291e5b200ac8c7c3b925",
            "0x00000000000000000000000034cfc02b170d834506b36c44273b5421032baa31",
            "0x0000000000000000000000004d97dcd97ec945f40cf65f87097ace5ea0476045"
          ],
          "data": "0xffffffffffffffffffffffffffffffffffffffffffffffffffffffffffffffff",
          "blockHash": "0x90791a9c52c1bd02ec2a162f807c2f6f06405e5f0dc4c84fa80ab0e902a82e4d",
          "blockNumber": "0x44486c2",
          "transactionHash": "0x860ad77d63f8d4c7273b01c13c2eb6957905bc4cede05bd8d40c3a072d190665",
          "transactionIndex": "0x30",
          "logIndex": "0xbc",
          "removed": false
        },
        {
          "address": "0xc01bbfc94c41f0d8fc242cfe8465ea4dcd4f20c5",
          "topics": [
            "0x750538103f64f9b5e2db539e5c1f7552a63aa9e68e07396b2b4b58f7cfef18ab",
            "0x00000000000000000000000034cfc02b170d834506b36c44273b5421032baa31"
          ],
          "data": "0x000000000000000000000000000000000000000000000000000000000000004000000000000000000000000000000000000000000000000000000000000000e000000000000000000000000000000000000000000000000000000000000000041f3d12f7e50de8e5f679511a6241e6cfc60e6a58533027348470b6cc3ad86dfd3194161f48ddf3c0821047032dc0ae6395bb7220ed5d2100f65f68a74c4bd84534ce5249c3be97799029ce2befcd06c638bcd322d992ec088fbe9a634beabc395b79f88e2efa4fa33816dce55ffb3bfb3e85e1b0c5d529730eab6ff5050a619500000000000000000000000000000000000000000000000000000000000000600000000000000000000000000000000000000000000000000000000000000020000000000000000000000000000000000000000000000000000000000000001a506f6c796e616e63652d41492d52616e646f6d2d73656c656374000000000000",
          "blockHash": "0x90791a9c52c1bd02ec2a162f807c2f6f06405e5f0dc4c84fa80ab0e902a82e4d",
          "blockNumber": "0x44486c2",
          "transactionHash": "0x860ad77d63f8d4c7273b01c13c2eb6957905bc4cede05bd8d40c3a072d190665",
          "transactionIndex": "0x30",
          "logIndex": "0xbd",
          "removed": false
        },
        {
          "address": "0x0000000000000000000000000000000000001010",
          "topics": [
            "0x4dfe1bbbcf077ddc3e01291eea2d5c70c2b422b415d95645b9adcfd678cb1d63",
            "0x0000000000000000000000000000000000000000000000000000000000001010",
            "0x0000000000000000000000001aa44c933a6718a4bc44064f0067a853c34be9b0",
            "0x00000000000000000000000073632b875d37e12670c03e8ca17f471134b872fb"
          ],
          "data": "0x00000000000000000000000000000000000000000000000000516f486ec07c00000000000000000000000000000000000000000000000000487aa62d0ef493f700000000000000000000000000000000000000000000000f624a6d9e8a5cd5c7000000000000000000000000000000000000000000000000482936e4a03417f700000000000000000000000000000000000000000000000f629bdce6f91d51c7",
          "blockHash": "0x90791a9c52c1bd02ec2a162f807c2f6f06405e5f0dc4c84fa80ab0e902a82e4d",
          "blockNumber": "0x44486c2",
          "transactionHash": "0x860ad77d63f8d4c7273b01c13c2eb6957905bc4cede05bd8d40c3a072d190665",
          "transactionIndex": "0x30",
          "logIndex": "0xbe",
          "removed": false
        }
      ],
      "logsBloom": "0x00000000000020000000000000000000000000000000010000000000000040000000000000000000000000000000000010008000000000000000000000200000000000004000000000000000000200800000000000000000020102000000400002000040000000000000000000000000000000000000000180000000000000000011000000000000000002001000000000001000000000000000000000000000220000000400000000000080000001000000000000000000000000000000004000000000000000000001000000000000000004000000000000100000000000000010208800000000040000000000000000000000000000000000000002100000",
      "type": "0x2",
      "transactionHash": "0x860ad77d63f8d4c7273b01c13c2eb6957905bc4cede05bd8d40c3a072d190665",
      "transactionIndex": "0x30",
      "blockHash": "0x90791a9c52c1bd02ec2a162f807c2f6f06405e5f0dc4c84fa80ab0e902a82e4d",
      "blockNumber": "0x44486c2",
      "gasUsed": "0xba89d",
      "effectiveGasPrice": "0x6fc23ac1b",
      "from": "0x1aa44c933a6718a4bc44064f0067a853c34be9b0",
      "to": "0xc01bbfc94c41f0d8fc242cfe8465ea4dcd4f20c5",
      "contractAddress": null
    },
    {
      "status": "0x1",
      "cumulativeGasUsed": "0x749709",
      "logs": [
        {
          "address": "0x2791bca1f2de4661ed88a30c99a7a9449aa84174",
          "topics": [
            "0x8c5be1e5ebec7d5bd14f71427d1e84f3dd0314c0f7b2291e5b200ac8c7c3b925",
            "0x0000000000000000000000001aa44c933a6718a4bc44064f0067a853c34be9b0",
            "0x00000000000000000000000034cfc02b170d834506b36c44273b5421032baa31"
          ],
          "data": "0xffffffffffffffffffffffffffffffffffffffffffffffffffffffffffffffff",
          "blockHash": "0x90791a9c52c1bd02ec2a162f807c2f6f06405e5f0dc4c84fa80ab0e902a82e4d",
          "blockNumber": "0x44486c2",
          "transactionHash": "0x657cd1812ae7bf623e4bb7e8dae219097673c7c4a775261652bc651a41d1f1ff",
          "transactionIndex": "0x31",
          "logIndex": "0xbf",
          "removed": false
        },
        {
          "address": "0x0000000000000000000000000000000000001010",
          "topics": [
            "0x4dfe1bbbcf077ddc3e01291eea2d5c70c2b422b415d95645b9adcfd678cb1d63",
            "0x0000000000000000000000000000000000000000000000000000000000001010",
            "0x0000000000000000000000001aa44c933a6718a4bc44064f0067a853c34be9b0",
            "0x00000000000000000000000073632b875d37e12670c03e8ca17f471134b872fb"
          ],
          "data": "0x00000000000000000000000000000000000000000000000000063ab0980e6800000000000000000000000000000000000000000000000000482936e49ef94f6800000000000000000000000000000000000000000000000f629bdce6f91d51c70000000000000000000000000000000000000000000000004822fc3406eae76800000000000000000000000000000000000000000000000f62a21797912bb9c7",
          "blockHash": "0x90791a9c52c1bd02ec2a162f807c2f6f06405e5f0dc4c84fa80ab0e902a82e4d",
          "blockNumber": "0x44486c2",
          "transactionHash": "0x657cd1812ae7bf623e4bb7e8dae219097673c7c4a775261652bc651a41d1f1ff",
          "transactionIndex": "0x31",
          "logIndex": "0xc0",
          "removed": false
        }
      ],
      "logsBloom": "0x00000000000020000000000000000000000000000000010000000000000000000000000000000000000000000000000000008000000000000000000000200000000000000000000000000000000000800000000000000000000102000000400000000000000000000000000000000000000000000000000180000000000000000011000000000000000002001000000000000000000000000000000000000000220000000000000000000080000000000000000000000000000000000000004000000000000000000001000000000000000000000000000000100000000000000010008000000000000000000000000000000000000000000000000002100000",
      "type": "0x2",
      "transactionHash": "0x657cd1812ae7bf623e4bb7e8dae219097673c7c4a775261652bc651a41d1f1ff",
      "transactionIndex": "0x31",
      "blockHash": "0x90791a9c52c1bd02ec2a162f807c2f6f06405e5f0dc4c84fa80ab0e902a82e4d",
      "blockNumber": "0x44486c2",
      "gasUsed": "0xe44e",
      "effectiveGasPrice": "0x6fc23ac1b",
      "from": "0x1aa44c933a6718a4bc44064f0067a853c34be9b0",
      "to": "0x2791bca1f2de4661ed88a30c99a7a9449aa84174",
      "contractAddress": null
    },
    {
      "status": "0x1",
      "cumulativeGasUsed": "0x754ab5",
      "logs": [
        {
          "address": "0x4d97dcd97ec945f40cf65f87097ace5ea0476045",
          "topics": [
            "0x17307eab39ab6107e8899845ad3d59bd9653f200f220920489ca2b5937696c31",
            "0x0000000000000000000000001aa44c933a6718a4bc44064f0067a853c34be9b0",
            "0x00000000000000000000000034cfc02b170d834506b36c44273b5421032baa31"
          ],
          "data": "0x0000000000000000000000000000000000000000000000000000000000000001",
          "blockHash": "0x90791a9c52c1bd02ec2a162f807c2f6f06405e5f0dc4c84fa80ab0e902a82e4d",
          "blockNumber": "0x44486c2",
          "transactionHash": "0x5622e278ebc2db39b38c500a92c17da9eb03e309a91371b716b8a083fb862756",
          "transactionIndex": "0x32",
          "logIndex": "0xc1",
          "removed": false
        },
        {
          "address": "0x0000000000000000000000000000000000001010",
          "topics": [
            "0x4dfe1bbbcf077ddc3e01291eea2d5c70c2b422b415d95645b9adcfd678cb1d63",
            "0x0000000000000000000000000000000000000000000000000000000000001010",
            "0x0000000000000000000000001aa44c933a6718a4bc44064f0067a853c34be9b0",
            "0x00000000000000000000000073632b875d37e12670c03e8ca17f471134b872fb"
          ],
          "data": "0x0000000000000000000000000000000000000000000000000004e6fe593b90000000000000000000000000000000000000000000000000004822fc3406d2d32e00000000000000000000000000000000000000000000000f62a21797912bb9c7000000000000000000000000000000000000000000000000481e1535ad97432e00000000000000000000000000000000000000000000000f62a6fe95ea6749c7",
          "blockHash": "0x90791a9c52c1bd02ec2a162f807c2f6f06405e5f0dc4c84fa80ab0e902a82e4d",
          "blockNumber": "0x44486c2",
          "transactionHash": "0x5622e278ebc2db39b38c500a92c17da9eb03e309a91371b716b8a083fb862756",
          "transactionIndex": "0x32",
          "logIndex": "0xc2",
          "removed": false
        }
      ],
      "logsBloom": "0x00000000000020000000000000000000000000000000010000000000000040000000000000000000000000000000000000008000000000000000000000000000000000000000000000000000000000800000000000000000000102000000400002000000000000000000000000000000000000000000000080000000000000000010000000000000000002001000000000000000000000000000000000000000200000000000000000000080000000000000000000000000000000000000004000000000000000000001000000000000000004000000000000100000000000000000200800000000040000000000000000000000000000000000000002100000",
      "type": "0x2",
      "transactionHash": "0x5622e278ebc2db39b38c500a92c17da9eb03e309a91371b716b8a083fb862756",
      "transactionIndex": "0x32",
      "blockHash": "0x90791a9c52c1bd02ec2a162f807c2f6f06405e5f0dc4c84fa80ab0e902a82e4d",
      "blockNumber": "0x44486c2",
      "gasUsed": "0xb3ac",
      "effectiveGasPrice": "0x6fc23ac1b",
      "from": "0x1aa44c933a6718a4bc44064f0067a853c34be9b0",
      "to": "0x4d97dcd97ec945f40cf65f87097ace5ea0476045",
      "contractAddress": null
    },
    {
      "status": "0x1",
      "cumulativeGasUsed": "0x7e03c9",
      "logs": [
        {
          "address": "0x2791bca1f2de4661ed88a30c99a7a9449aa84174",
          "topics": [
            "0xddf252ad1be2c89b69c2b068fc378daa952ba7f163c4a11628f55a4df523b3ef",
            "0x0000000000000000000000001aa44c933a6718a4bc44064f0067a853c34be9b0",
            "0x00000000000000000000000034cfc02b170d834506b36c44273b5421032baa31"
          ],
          "data": "0x00000000000000000000000000000000000000000000000000000000003d0900",
          "blockHash": "0x90791a9c52c1bd02ec2a162f807c2f6f06405e5f0dc4c84fa80ab0e902a82e4d",
          "blockNumber": "0x44486c2",
          "transactionHash": "0x8ce24aebf3f32550fbb36959cf0101fef928040e9ba80d673aab84572bb259e8",
          "transactionIndex": "0x33",
          "logIndex": "0xc3",
          "removed": false
        },
        {
          "address": "0x2791bca1f2de4661ed88a30c99a7a9449aa84174",
          "topics": [
            "0x8c5be1e5ebec7d5bd14f71427d1e84f3dd0314c0f7b2291e5b200ac8c7c3b925",
            "0x0000000000000000000000001aa44c933a6718a4bc44064f0067a853c34be9b0",
            "0x00000000000000000000000034cfc02b170d834506b36c44273b5421032baa31"
          ],
          "data": "0xffffffffffffffffffffffffffffffffffffffffffffffffffffffffffc2f6ff",
          "blockHash": "0x90791a9c52c1bd02ec2a162f807c2f6f06405e5f0dc4c84fa80ab0e902a82e4d",
          "blockNumber": "0x44486c2",
          "transactionHash": "0x8ce24aebf3f32550fbb36959cf0101fef928040e9ba80d673aab84572bb259e8",
          "transactionIndex": "0x33",
          "logIndex": "0xc4",
          "removed": false
        },
        {
          "address": "0x2791bca1f2de4661ed88a30c99a7a9449aa84174",
          "topics": [
            "0xddf252ad1be2c89b69c2b068fc378daa952ba7f163c4a11628f55a4df523b3ef",
            "0x00000000000000000000000034cfc02b170d834506b36c44273b5421032baa31",
            "0x0000000000000000000000004d97dcd97ec945f40cf65f87097ace5ea0476045"
          ],
          "data": "0x00000000000000000000000000000000000000000000000000000000000f4240",
          "blockHash": "0x90791a9c52c1bd02ec2a162f807c2f6f06405e5f0dc4c84fa80ab0e902a82e4d",
          "blockNumber": "0x44486c2",
          "transactionHash": "0x8ce24aebf3f32550fbb36959cf0101fef928040e9ba80d673aab84572bb259e8",
          "transactionIndex": "0x33",
          "logIndex": "0xc5",
          "removed": false
        },
        {
          "address": "0x2791bca1f2de4661ed88a30c99a7a9449aa84174",
          "topics": [
            "0x8c5be1e5ebec7d5bd14f71427d1e84f3dd0314c0f7b2291e5b200ac8c7c3b925",
            "0x00000000000000000000000034cfc02b170d834506b36c44273b5421032baa31",
            "0x0000000000000000000000004d97dcd97ec945f40cf65f87097ace5ea0476045"
          ],
          "data": "0xfffffffffffffffffffffffffffffffffffffffffffffffffffffffffff0bdbf",
          "blockHash": "0x90791a9c52c1bd02ec2a162f807c2f6f06405e5f0dc4c84fa80ab0e902a82e4d",
          "blockNumber": "0x44486c2",
          "transactionHash": "0x8ce24aebf3f32550fbb36959cf0101fef928040e9ba80d673aab84572bb259e8",
          "transactionIndex": "0x33",
          "logIndex": "0xc6",
          "removed": false
        },
        {
          "address": "0x4d97dcd97ec945f40cf65f87097ace5ea0476045",
          "topics": [
            "0x4a39dc06d4c0dbc64b70af90fd698a233a518aa5d07e595d983b8c0526c8f7fb",
            "0x00000000000000000000000034cfc02b170d834506b36c44273b5421032baa31",
            "0x0000000000000000000000000000000000000000000000000000000000000000",
            "0x00000000000000000000000034cfc02b170d834506b36c44273b5421032baa31"
          ],
          "data": "0x000000000000000000000000000000000000000000000000000000000000004000000000000000000000000000000000000000000000000000000000000000a000000000000000000000000000000000000000000000000000000000000000025b79f88e2efa4fa33816dce55ffb3bfb3e85e1b0c5d529730eab6ff5050a61952a240277a66b5190cb9672e61eba43a202e4e996f3bfe2fa374477fe45605d24000000000000000000000000000000000000000000000000000000000000000200000000000000000000000000000000000000000000000000000000000f424000000000000000000000000000000000000000000000000000000000000f4240",
          "blockHash": "0x90791a9c52c1bd02ec2a162f807c2f6f06405e5f0dc4c84fa80ab0e902a82e4d",
          "blockNumber": "0x44486c2",
          "transactionHash": "0x8ce24aebf3f32550fbb36959cf0101fef928040e9ba80d673aab84572bb259e8",
          "transactionIndex": "0x33",
          "logIndex": "0xc7",
          "removed": false
        },
        {
          "address": "0x4d97dcd97ec945f40cf65f87097ace5ea0476045",
          "topics": [
            "0x2e6bb91f8cbcda0c93623c54d0403a43514fabc40084ec96b6d5379a74786298",
            "0x00000000000000000000000034cfc02b170d834506b36c44273b5421032baa31",
            "0x0000000000000000000000000000000000000000000000000000000000000000",
            "0x41a7b02edc7e1e56661022289f4462a8870239e73b389b8eadd0b5ecde161a78"
          ],
          "data": "0x0000000000000000000000002791bca1f2de4661ed88a30c99a7a9449aa84174000000000000000000000000000000000000000000000000000000000000006000000000000000000000000000000000000000000000000000000000000f4240000000000000000000000000000000000000000000000000000000000000000200000000000000000000000000000000000000000000000000000000000000010000000000000000000000000000000000000000000000000000000000000002",
          "blockHash": "0x90791a9c52c1bd02ec2a162f807c2f6f06405e5f0dc4c84fa80ab0e902a82e4d",
          "blockNumber": "0x44486c2",
          "transactionHash": "0x8ce24aebf3f32550fbb36959cf0101fef928040e9ba80d673aab84572bb259e8",
          "transactionIndex": "0x33",
          "logIndex": "0xc8",
          "removed": false
        },
        {
          "address": "0x2791bca1f2de4661ed88a30c99a7a9449aa84174",
          "topics": [
            "0xddf252ad1be2c89b69c2b068fc378daa952ba7f163c4a11628f55a4df523b3ef",
            "0x00000000000000000000000034cfc02b170d834506b36c44273b5421032baa31",
            "0x0000000000000000000000004d97dcd97ec945f40cf65f87097ace5ea0476045"
          ],
          "data": "0x00000000000000000000000000000000000000000000000000000000000f4240",
          "blockHash": "0x90791a9c52c1bd02ec2a162f807c2f6f06405e5f0dc4c84fa80ab0e902a82e4d",
          "blockNumber": "0x44486c2",
          "transactionHash": "0x8ce24aebf3f32550fbb36959cf0101fef928040e9ba80d673aab84572bb259e8",
          "transactionIndex": "0x33",
          "logIndex": "0xc9",
          "removed": false
        },
        {
          "address": "0x2791bca1f2de4661ed88a30c99a7a9449aa84174",
          "topics": [
            "0x8c5be1e5ebec7d5bd14f71427d1e84f3dd0314c0f7b2291e5b200ac8c7c3b925",
            "0x00000000000000000000000034cfc02b170d834506b36c44273b5421032baa31",
            "0x0000000000000000000000004d97dcd97ec945f40cf65f87097ace5ea0476045"
          ],
          "data": "0xffffffffffffffffffffffffffffffffffffffffffffffffffffffffffe17b7f",
          "blockHash": "0x90791a9c52c1bd02ec2a162f807c2f6f06405e5f0dc4c84fa80ab0e902a82e4d",
          "blockNumber": "0x44486c2",
          "transactionHash": "0x8ce24aebf3f32550fbb36959cf0101fef928040e9ba80d673aab84572bb259e8",
          "transactionIndex": "0x33",
          "logIndex": "0xca",
          "removed": false
        },
        {
          "address": "0x4d97dcd97ec945f40cf65f87097ace5ea0476045",
          "topics": [
            "0x4a39dc06d4c0dbc64b70af90fd698a233a518aa5d07e595d983b8c0526c8f7fb",
            "0x00000000000000000000000034cfc02b170d834506b36c44273b5421032baa31",
            "0x0000000000000000000000000000000000000000000000000000000000000000",
            "0x00000000000000000000000034cfc02b170d834506b36c44273b5421032baa31"
          ],
          "data": "0x000000000000000000000000000000000000000000000000000000000000004000000000000000000000000000000000000000000000000000000000000000a000000000000000000000000000000000000000000000000000000000000000021f3d12f7e50de8e5f679511a6241e6cfc60e6a58533027348470b6cc3ad86dfdcb2efae5229def53d080cdcf423dd4a92b272aeb992f5d648744e65c16f2edb1000000000000000000000000000000000000000000000000000000000000000200000000000000000000000000000000000000000000000000000000000f424000000000000000000000000000000000000000000000000000000000000f4240",
          "blockHash": "0x90791a9c52c1bd02ec2a162f807c2f6f06405e5f0dc4c84fa80ab0e902a82e4d",
          "blockNumber": "0x44486c2",
          "transactionHash": "0x8ce24aebf3f32550fbb36959cf0101fef928040e9ba80d673aab84572bb259e8",
          "transactionIndex": "0x33",
          "logIndex": "0xcb",
          "removed": false
        },
        {
          "address": "0x4d97dcd97ec945f40cf65f87097ace5ea0476045",
          "topics": [
            "0x2e6bb91f8cbcda0c93623c54d0403a43514fabc40084ec96b6d5379a74786298",
            "0x00000000000000000000000034cfc02b170d834506b36c44273b5421032baa31",
            "0x0000000000000000000000000000000000000000000000000000000000000000",
            "0x0b9f873f001fa5ccf06fb55a21663401a86ba8af20c2452baea618a32c08c88f"
          ],
          "data": "0x0000000000000000000000002791bca1f2de4661ed88a30c99a7a9449aa84174000000000000000000000000000000000000000000000000000000000000006000000000000000000000000000000000000000000000000000000000000f4240000000000000000000000000000000000000000000000000000000000000000200000000000000000000000000000000000000000000000000000000000000010000000000000000000000000000000000000000000000000000000000000002",
          "blockHash": "0x90791a9c52c1bd02ec2a162f807c2f6f06405e5f0dc4c84fa80ab0e902a82e4d",
          "blockNumber": "0x44486c2",
          "transactionHash": "0x8ce24aebf3f32550fbb36959cf0101fef928040e9ba80d673aab84572bb259e8",
          "transactionIndex": "0x33",
          "logIndex": "0xcc",
          "removed": false
        },
        {
          "address": "0x2791bca1f2de4661ed88a30c99a7a9449aa84174",
          "topics": [
            "0xddf252ad1be2c89b69c2b068fc378daa952ba7f163c4a11628f55a4df523b3ef",
            "0x00000000000000000000000034cfc02b170d834506b36c44273b5421032baa31",
            "0x0000000000000000000000004d97dcd97ec945f40cf65f87097ace5ea0476045"
          ],
          "data": "0x00000000000000000000000000000000000000000000000000000000000f4240",
          "blockHash": "0x90791a9c52c1bd02ec2a162f807c2f6f06405e5f0dc4c84fa80ab0e902a82e4d",
          "blockNumber": "0x44486c2",
          "transactionHash": "0x8ce24aebf3f32550fbb36959cf0101fef928040e9ba80d673aab84572bb259e8",
          "transactionIndex": "0x33",
          "logIndex": "0xcd",
          "removed": false
        },
        {
          "address": "0x2791bca1f2de4661ed88a30c99a7a9449aa84174",
          "topics": [
            "0x8c5be1e5ebec7d5bd14f71427d1e84f3dd0314c0f7b2291e5b200ac8c7c3b925",
            "0x00000000000000000000000034cfc02b170d834506b36c44273b5421032baa31",
            "0x0000000000000000000000004d97dcd97ec945f40cf65f87097ace5ea0476045"
          ],
          "data": "0xffffffffffffffffffffffffffffffffffffffffffffffffffffffffffd2393f",
          "blockHash": "0x90791a9c52c1bd02ec2a162f807c2f6f06405e5f0dc4c84fa80ab0e902a82e4d",
          "blockNumber": "0x44486c2",
          "transactionHash": "0x8ce24aebf3f32550fbb36959cf0101fef928040e9ba80d673aab84572bb259e8",
          "transactionIndex": "0x33",
          "logIndex": "0xce",
          "removed": false
        },
        {
          "address": "0x4d97dcd97ec945f40cf65f87097ace5ea0476045",
          "topics": [
            "0x4a39dc06d4c0dbc64b70af90fd698a233a518aa5d07e595d983b8c0526c8f7fb",
            "0x00000000000000000000000034cfc02b170d834506b36c44273b5421032baa31",
            "0x0000000000000000000000000000000000000000000000000000000000000000",
            "0x00000000000000000000000034cfc02b170d834506b36c44273b5421032baa31"
          ],
          "data": "0x000000000000000000000000000000000000000000000000000000000000004000000000000000000000000000000000000000000000000000000000000000a0000000000000000000000000000000000000000000000000000000000000000234ce5249c3be97799029ce2befcd06c638bcd322d992ec088fbe9a634beabc392fcd7b2761cebe2d949d02a24176f4d02936d2901d74cc58d6aa286cd7c2ea62000000000000000000000000000000000000000000000000000000000000000200000000000000000000000000000000000000000000000000000000000f424000000000000000000000000000000000000000000000000000000000000f4240",
          "blockHash": "0x90791a9c52c1bd02ec2a162f807c2f6f06405e5f0dc4c84fa80ab0e902a82e4d",
          "blockNumber": "0x44486c2",
          "transactionHash": "0x8ce24aebf3f32550fbb36959cf0101fef928040e9ba80d673aab84572bb259e8",
          "transactionIndex": "0x33",
          "logIndex": "0xcf",
          "removed": false
        },
        {
          "address": "0x4d97dcd97ec945f40cf65f87097ace5ea0476045",
          "topics": [
            "0x2e6bb91f8cbcda0c93623c54d0403a43514fabc40084ec96b6d5379a74786298",
            "0x00000000000000000000000034cfc02b170d834506b36c44273b5421032baa31",
            "0x0000000000000000000000000000000000000000000000000000000000000000",
            "0x88fad6af135ca7cbd55a8bda5a1243125ded68b1e521066009cc990b13960b88"
          ],
          "data": "0x0000000000000000000000002791bca1f2de4661ed88a30c99a7a9449aa84174000000000000000000000000000000000000000000000000000000000000006000000000000000000000000000000000000000000000000000000000000f4240000000000000000000000000000000000000000000000000000000000000000200000000000000000000000000000000000000000000000000000000000000010000000000000000000000000000000000000000000000000000000000000002",
          "blockHash": "0x90791a9c52c1bd02ec2a162f807c2f6f06405e5f0dc4c84fa80ab0e902a82e4d",
          "blockNumber": "0x44486c2",
          "transactionHash": "0x8ce24aebf3f32550fbb36959cf0101fef928040e9ba80d673aab84572bb259e8",
          "transactionIndex": "0x33",
          "logIndex": "0xd0",
          "removed": false
        },
        {
          "address": "0x2791bca1f2de4661ed88a30c99a7a9449aa84174",
          "topics": [
            "0xddf252ad1be2c89b69c2b068fc378daa952ba7f163c4a11628f55a4df523b3ef",
            "0x00000000000000000000000034cfc02b170d834506b36c44273b5421032baa31",
            "0x0000000000000000000000004d97dcd97ec945f40cf65f87097ace5ea0476045"
          ],
          "data": "0x00000000000000000000000000000000000000000000000000000000000f4240",
          "blockHash": "0x90791a9c52c1bd02ec2a162f807c2f6f06405e5f0dc4c84fa80ab0e902a82e4d",
          "blockNumber": "0x44486c2",
          "transactionHash": "0x8ce24aebf3f32550fbb36959cf0101fef928040e9ba80d673aab84572bb259e8",
          "transactionIndex": "0x33",
          "logIndex": "0xd1",
          "removed": false
        },
        {
          "address": "0x2791bca1f2de4661ed88a30c99a7a9449aa84174",
          "topics": [
            "0x8c5be1e5ebec7d5bd14f71427d1e84f3dd0314c0f7b2291e5b200ac8c7c3b925",
            "0x00000000000000000000000034cfc02b170d834506b36c44273b5421032baa31",
            "0x0000000000000000000000004d97dcd97ec945f40cf65f87097ace5ea0476045"
          ],
          "data": "0xffffffffffffffffffffffffffffffffffffffffffffffffffffffffffc2f6ff",
          "blockHash": "0x90791a9c52c1bd02ec2a162f807c2f6f06405e5f0dc4c84fa80ab0e902a82e4d",
          "blockNumber": "0x44486c2",
          "transactionHash": "0x8ce24aebf3f32550fbb36959cf0101fef928040e9ba80d673aab84572bb259e8",
          "transactionIndex": "0x33",
          "logIndex": "0xd2",
          "removed": false
        },
        {
          "address": "0x4d97dcd97ec945f40cf65f87097ace5ea0476045",
          "topics": [
            "0x4a39dc06d4c0dbc64b70af90fd698a233a518aa5d07e595d983b8c0526c8f7fb",
            "0x00000000000000000000000034cfc02b170d834506b36c44273b5421032baa31",
            "0x0000000000000000000000000000000000000000000000000000000000000000",
            "0x00000000000000000000000034cfc02b170d834506b36c44273b5421032baa31"
          ],
          "data": "0x000000000000000000000000000000000000000000000000000000000000004000000000000000000000000000000000000000000000000000000000000000a000000000000000000000000000000000000000000000000000000000000000023194161f48ddf3c0821047032dc0ae6395bb7220ed5d2100f65f68a74c4bd845c3565e47113545c3ac18086bb3b7339b8a13e072c36cd6fcb26aeefed53c4937000000000000000000000000000000000000000000000000000000000000000200000000000000000000000000000000000000000000000000000000000f424000000000000000000000000000000000000000000000000000000000000f4240",
          "blockHash": "0x90791a9c52c1bd02ec2a162f807c2f6f06405e5f0dc4c84fa80ab0e902a82e4d",
          "blockNumber": "0x44486c2",
          "transactionHash": "0x8ce24aebf3f32550fbb36959cf0101fef928040e9ba80d673aab84572bb259e8",
          "transactionIndex": "0x33",
          "logIndex": "0xd3",
          "removed": false
        },
        {
          "address": "0x4d97dcd97ec945f40cf65f87097ace5ea0476045",
          "topics": [
            "0x2e6bb91f8cbcda0c93623c54d0403a43514fabc40084ec96b6d5379a74786298",
            "0x00000000000000000000000034cfc02b170d834506b36c44273b5421032baa31",
            "0x0000000000000000000000000000000000000000000000000000000000000000",
            "0x22bfce8b3fc9e6b23088dad87c8b90771b3b47495d5f2dd76a0b8e45c2e5637b"
          ],
          "data": "0x0000000000000000000000002791bca1f2de4661ed88a30c99a7a9449aa84174000000000000000000000000000000000000000000000000000000000000006000000000000000000000000000000000000000000000000000000000000f4240000000000000000000000000000000000000000000000000000000000000000200000000000000000000000000000000000000000000000000000000000000010000000000000000000000000000000000000000000000000000000000000002",
          "blockHash": "0x90791a9c52c1bd02ec2a162f807c2f6f06405e5f0dc4c84fa80ab0e902a82e4d",
          "blockNumber": "0x44486c2",
          "transactionHash": "0x8ce24aebf3f32550fbb36959cf0101fef928040e9ba80d673aab84572bb259e8",
          "transactionIndex": "0x33",
          "logIndex": "0xd4",
          "removed": false
        },
        {
          "address": "0x34cfc02b170d834506b36c44273b5421032baa31",
          "topics": [
            "0xddf252ad1be2c89b69c2b068fc378daa952ba7f163c4a11628f55a4df523b3ef",
            "0x0000000000000000000000000000000000000000000000000000000000000000",
            "0x0000000000000000000000001aa44c933a6718a4bc44064f0067a853c34be9b0"
          ],
          "data": "0x00000000000000000000000000000000000000000000000000000000000f4240",
          "blockHash": "0x90791a9c52c1bd02ec2a162f807c2f6f06405e5f0dc4c84fa80ab0e902a82e4d",
          "blockNumber": "0x44486c2",
          "transactionHash": "0x8ce24aebf3f32550fbb36959cf0101fef928040e9ba80d673aab84572bb259e8",
          "transactionIndex": "0x33",
          "logIndex": "0xd5",
          "removed": false
        },
        {
          "address": "0x34cfc02b170d834506b36c44273b5421032baa31",
          "topics": [
            "0xe1fffcc4923d04b559f4d29a8bfc6cda04eb5b0d3c460751c2402c5c5cc9109c",
            "0x0000000000000000000000001aa44c933a6718a4bc44064f0067a853c34be9b0"
          ],
          "data": "0x00000000000000000000000000000000000000000000000000000000000f4240",
          "blockHash": "0x90791a9c52c1bd02ec2a162f807c2f6f06405e5f0dc4c84fa80ab0e902a82e4d",
          "blockNumber": "0x44486c2",
          "transactionHash": "0x8ce24aebf3f32550fbb36959cf0101fef928040e9ba80d673aab84572bb259e8",
          "transactionIndex": "0x33",
          "logIndex": "0xd6",
          "removed": false
        },
        {
          "address": "0x0000000000000000000000000000000000001010",
          "topics": [
            "0x4dfe1bbbcf077ddc3e01291eea2d5c70c2b422b415d95645b9adcfd678cb1d63",
            "0x0000000000000000000000000000000000000000000000000000000000001010",
            "0x0000000000000000000000001aa44c933a6718a4bc44064f0067a853c34be9b0",
            "0x00000000000000000000000073632b875d37e12670c03e8ca17f471134b872fb"
          ],
          "data": "0x000000000000000000000000000000000000000000000000003ceddeda157000000000000000000000000000000000000000000000000000481e1535ad84500a00000000000000000000000000000000000000000000000f62a6fe95ea6749c700000000000000000000000000000000000000000000000047e12756d36ee00a00000000000000000000000000000000000000000000000f62e3ec74c47cb9c7",
          "blockHash": "0x90791a9c52c1bd02ec2a162f807c2f6f06405e5f0dc4c84fa80ab0e902a82e4d",
          "blockNumber": "0x44486c2",
          "transactionHash": "0x8ce24aebf3f32550fbb36959cf0101fef928040e9ba80d673aab84572bb259e8",
          "transactionIndex": "0x33",
          "logIndex": "0xd7",
          "removed": false
        }
      ],
      "logsBloom": "0x00000000000020008000000020000000000000000008010000000000000440000000000000000000010000002000000000008000000000000000000000200000000000000000000000200008000200800000000000000000000102008000400000000000020000000001000080000800000000000800000180000010000000000011000000000000000002001000000000000001002000000000000000000000220000800400000000800080000001000000000000000000000000000000004000000002000000000001000000000000000404000000000000100080000020000010008000000000040000000000000000080004080000400020001002100000",
      "type": "0x2",
      "transactionHash": "0x8ce24aebf3f32550fbb36959cf0101fef928040e9ba80d673aab84572bb259e8",
      "transactionIndex": "0x33",
      "blockHash": "0x90791a9c52c1bd02ec2a162f807c2f6f06405e5f0dc4c84fa80ab0e902a82e4d",
      "blockNumber": "0x44486c2",
      "gasUsed": "0x8b914",
      "effectiveGasPrice": "0x6fc23ac1b",
      "from": "0x1aa44c933a6718a4bc44064f0067a853c34be9b0",
      "to": "0x34cfc02b170d834506b36c44273b5421032baa31",
      "contractAddress": null
    }
  ],
  "libraries": [],
  "pending": [],
  "returns": {},
  "timestamp": 1747426119,
  "chain": 137,
  "commit": "d6a2b0f"
}