{
  "transactions": [
    {
      "hash": "0x0a72c3177680a2934c5052917621a9a9a1430f3b7f76a3c30065cdef430ee37d",
      "transactionType": "CALL",
      "contractName": null,
      "contractAddress": "0x2791bca1f2de4661ed88a30c99a7a9449aa84174",
      "function": "approve(address,uint256)",
      "arguments": [
        "0x4D97DCd97eC945f40cF65F87097ACe5EA0476045",
        "115792089237316195423570985008687907853269984665640564039457584007913129639935"
      ],
      "transaction": {
        "from": "0x1aa44c933a6718a4bc44064f0067a853c34be9b0",
        "to": "0x2791bca1f2de4661ed88a30c99a7a9449aa84174",
        "gas": "0xdc35",
        "value": "0x0",
        "input": "0x095ea7b30000000000000000000000004d97dcd97ec945f40cf65f87097ace5ea0476045ffffffffffffffffffffffffffffffffffffffffffffffffffffffffffffffff",
        "nonce": "0x65",
        "chainId": "0x89"
      },
      "additionalContracts": [],
      "isFixedGasLimit": false
    },
    {
      "hash": "0x683ae2b91727585aae4d02b99341d02c00ab0e53a5cea31eb527599e8e2afb75",
      "transactionType": "CALL",
      "contractName": null,
      "contractAddress": "0x4d97dcd97ec945f40cf65f87097ace5ea0476045",
      "function": "setApprovalForAll(address,bool)",
      "arguments": [
        "0x934ED1a863BB08d68b74939cF4D8ad644AbC1d85",
        "true"
      ],
      "transaction": {
        "from": "0x1aa44c933a6718a4bc44064f0067a853c34be9b0",
        "to": "0x4d97dcd97ec945f40cf65f87097ace5ea0476045",
        "gas": "0x8ccd",
        "value": "0x0",
        "input": "0xa22cb465000000000000000000000000934ed1a863bb08d68b74939cf4d8ad644abc1d850000000000000000000000000000000000000000000000000000000000000001",
        "nonce": "0x66",
        "chainId": "0x89"
      },
      "additionalContracts": [],
      "isFixedGasLimit": false
    },
    {
      "hash": "0xb07232056982413efde36761ef39566156d6a8aa96d26b5188b23dc802a6428f",
      "transactionType": "CALL",
      "contractName": null,
      "contractAddress": "0x4d97dcd97ec945f40cf65f87097ace5ea0476045",
      "function": "setApprovalForAll(address,bool)",
      "arguments": [
        "0x9a3A8FaD75af102201A2CfFBEfC3443B3497420F",
        "true"
      ],
      "transaction": {
        "from": "0x1aa44c933a6718a4bc44064f0067a853c34be9b0",
        "to": "0x4d97dcd97ec945f40cf65f87097ace5ea0476045",
        "gas": "0xf82b",
        "value": "0x0",
        "input": "0xa22cb4650000000000000000000000009a3a8fad75af102201a2cffbefc3443b3497420f0000000000000000000000000000000000000000000000000000000000000001",
        "nonce": "0x67",
        "chainId": "0x89"
      },
      "additionalContracts": [],
      "isFixedGasLimit": false
    },
    {
      "hash": "0x5dc96e5c7579f4482442254aeaec05a8b2c752113d80cba041775404ab9e7e44",
      "transactionType": "CALL",
      "contractName": null,
      "contractAddress": "0x4d97dcd97ec945f40cf65f87097ace5ea0476045",
      "function": "setApprovalForAll(address,bool)",
      "arguments": [
        "0xE07fB832185fF0E9c8bB13b69f778aED8dE76c58",
        "true"
      ],
      "transaction": {
        "from": "0x1aa44c933a6718a4bc44064f0067a853c34be9b0",
        "to": "0x4d97dcd97ec945f40cf65f87097ace5ea0476045",
        "gas": "0xf82b",
        "value": "0x0",
        "input": "0xa22cb465000000000000000000000000e07fb832185ff0e9c8bb13b69f778aed8de76c580000000000000000000000000000000000000000000000000000000000000001",
        "nonce": "0x68",
        "chainId": "0x89"
      },
      "additionalContracts": [],
      "isFixedGasLimit": false
    },
    {
      "hash": "0x88d69400793c9b3ed0a959c7a234c88f6759954d23c43f5c9287a3e6367136ff",
      "transactionType": "CALL",
      "contractName": null,
      "contractAddress": "0x9a3a8fad75af102201a2cffbefc3443b3497420f",
      "function": "deposit(uint256)",
      "arguments": [
        "5000000"
      ],
      "transaction": {
        "from": "0x1aa44c933a6718a4bc44064f0067a853c34be9b0",
        "to": "0x9a3a8fad75af102201a2cffbefc3443b3497420f",
        "gas": "0x4580f",
        "value": "0x0",
        "input": "0xb6b55f2500000000000000000000000000000000000000000000000000000000004c4b40",
        "nonce": "0x69",
        "chainId": "0x89"
      },
      "additionalContracts": [],
      "isFixedGasLimit": false
    },
    {
      "hash": "0xd17010cd1a6f301996582b9833b63dc4fcb44a79ed29a5c58ce70fa868883e9d",
      "transactionType": "CALL",
      "contractName": null,
      "contractAddress": "0xe07fb832185ff0e9c8bb13b69f778aed8de76c58",
      "function": "deposit(uint256)",
      "arguments": [
        "5000000"
      ],
      "transaction": {
        "from": "0x1aa44c933a6718a4bc44064f0067a853c34be9b0",
        "to": "0xe07fb832185ff0e9c8bb13b69f778aed8de76c58",
        "gas": "0x4580f",
        "value": "0x0",
        "input": "0xb6b55f2500000000000000000000000000000000000000000000000000000000004c4b40",
        "nonce": "0x6a",
        "chainId": "0x89"
      },
      "additionalContracts": [],
      "isFixedGasLimit": false
    }
  ],
  "receipts": [
    {
      "status": "0x1",
      "cumulativeGasUsed": "0x412131",
      "logs": [
        {
          "address": "0x2791bca1f2de4661ed88a30c99a7a9449aa84174",
          "topics": [
            "0x8c5be1e5ebec7d5bd14f71427d1e84f3dd0314c0f7b2291e5b200ac8c7c3b925",
            "0x0000000000000000000000001aa44c933a6718a4bc44064f0067a853c34be9b0",
            "0x0000000000000000000000004d97dcd97ec945f40cf65f87097ace5ea0476045"
          ],
          "data": "0xffffffffffffffffffffffffffffffffffffffffffffffffffffffffffffffff",
          "blockHash": "0x42d9439bd42c6c6642a0fafde7f107a07584c7dd523e420046d150b44640b8c6",
          "blockNumber": "0x443ed5e",
          "transactionHash": "0x0a72c3177680a2934c5052917621a9a9a1430f3b7f76a3c30065cdef430ee37d",
          "transactionIndex": "0x1f",
          "logIndex": "0x80",
          "removed": false
        },
        {
          "address": "0x0000000000000000000000000000000000001010",
          "topics": [
            "0x4dfe1bbbcf077ddc3e01291eea2d5c70c2b422b415d95645b9adcfd678cb1d63",
            "0x0000000000000000000000000000000000000000000000000000000000001010",
            "0x0000000000000000000000001aa44c933a6718a4bc44064f0067a853c34be9b0",
            "0x0000000000000000000000009ead03f7136fc6b4bdb0780b00a1c14ae5a8b6d0"
          ],
          "data": "0x0000000000000000000000000000000000000000000000000004167afbc9aaae00000000000000000000000000000000000000000000000070fe8dfffcc3783a000000000000000000000000000000000000000000000af803fd65b0db22217600000000000000000000000000000000000000000000000070fa778500f9cd8c000000000000000000000000000000000000000000000af804017c2bd6ebcc24",
          "blockHash": "0x42d9439bd42c6c6642a0fafde7f107a07584c7dd523e420046d150b44640b8c6",
          "blockNumber": "0x443ed5e",
          "transactionHash": "0x0a72c3177680a2934c5052917621a9a9a1430f3b7f76a3c30065cdef430ee37d",
          "transactionIndex": "0x1f",
          "logIndex": "0x81",
          "removed": false
        }
      ],
      "logsBloom": "0x00000000000020000000000000000000000000000000000000000000000000000000000000000000000000000000000000008000000000000000000000200000000000000000000000000000000200800000000000000000000100000000000000000000000000000000000000000000000000000000000180000000000000000041000000040000000000001000000000000000000000000000000000000000220000000400000000000080000001000000000000000000000000000000004000000000000000000001000000000000000000000000000000120000000000000010008000000000000000000000000000000000000000000000000000100000",
      "type": "0x2",
      "transactionHash": "0x0a72c3177680a2934c5052917621a9a9a1430f3b7f76a3c30065cdef430ee37d",
      "transactionIndex": "0x1f",
      "blockHash": "0x42d9439bd42c6c6642a0fafde7f107a07584c7dd523e420046d150b44640b8c6",
      "blockNumber": "0x443ed5e",
      "gasUsed": "0x9692",
      "effectiveGasPrice": "0x6f33a7bbe",
      "from": "0x1aa44c933a6718a4bc44064f0067a853c34be9b0",
      "to": "0x2791bca1f2de4661ed88a30c99a7a9449aa84174",
      "contractAddress": null
    },
    {
      "status": "0x1",
      "cumulativeGasUsed": "0x418721",
      "logs": [
        {
          "address": "0x4d97dcd97ec945f40cf65f87097ace5ea0476045",
          "topics": [
            "0x17307eab39ab6107e8899845ad3d59bd9653f200f220920489ca2b5937696c31",
            "0x0000000000000000000000001aa44c933a6718a4bc44064f0067a853c34be9b0",
            "0x000000000000000000000000934ed1a863bb08d68b74939cf4d8ad644abc1d85"
          ],
          "data": "0x0000000000000000000000000000000000000000000000000000000000000001",
          "blockHash": "0x42d9439bd42c6c6642a0fafde7f107a07584c7dd523e420046d150b44640b8c6",
          "blockNumber": "0x443ed5e",
          "transactionHash": "0x683ae2b91727585aae4d02b99341d02c00ab0e53a5cea31eb527599e8e2afb75",
          "transactionIndex": "0x20",
          "logIndex": "0x82",
          "removed": false
        },
        {
          "address": "0x0000000000000000000000000000000000001010",
          "topics": [
            "0x4dfe1bbbcf077ddc3e01291eea2d5c70c2b422b415d95645b9adcfd678cb1d63",
            "0x0000000000000000000000000000000000000000000000000000000000001010",
            "0x0000000000000000000000001aa44c933a6718a4bc44064f0067a853c34be9b0",
            "0x0000000000000000000000009ead03f7136fc6b4bdb0780b00a1c14ae5a8b6d0"
          ],
          "data": "0x0000000000000000000000000000000000000000000000000002c47a1999a01000000000000000000000000000000000000000000000000070fa778500e791de000000000000000000000000000000000000000000000af804017c2bd6ebcc2400000000000000000000000000000000000000000000000070f7b30ae74df1ce000000000000000000000000000000000000000000000af8040440a5f0856c34",
          "blockHash": "0x42d9439bd42c6c6642a0fafde7f107a07584c7dd523e420046d150b44640b8c6",
          "blockNumber": "0x443ed5e",
          "transactionHash": "0x683ae2b91727585aae4d02b99341d02c00ab0e53a5cea31eb527599e8e2afb75",
          "transactionIndex": "0x20",
          "logIndex": "0x83",
          "removed": false
        }
      ],
      "logsBloom": "0x00000000000020000000000000000000000000000000000000000000000040000000000000000000000000000000000000008000000000000000000000000000000000000000000000000000000000800000000000000000000100000000000002000000000000000000000000000000000000000000000080000000000000000040000000040800000000001000000000000000000000000000000002000000200000000000000000000080000000000000000000000000000000000000004000000000000000000001000000000000000004000000000000120000000000000004200800000000040000000000000000000000000000000000000000100000",
      "type": "0x2",
      "transactionHash": "0x683ae2b91727585aae4d02b99341d02c00ab0e53a5cea31eb527599e8e2afb75",
      "transactionIndex": "0x20",
      "blockHash": "0x42d9439bd42c6c6642a0fafde7f107a07584c7dd523e420046d150b44640b8c6",
      "blockNumber": "0x443ed5e",
      "gasUsed": "0x65f0",
      "effectiveGasPrice": "0x6f33a7bbe",
      "from": "0x1aa44c933a6718a4bc44064f0067a853c34be9b0",
      "to": "0x4d97dcd97ec945f40cf65f87097ace5ea0476045",
      "contractAddress": null
    },
    {
      "status": "0x1",
      "cumulativeGasUsed": "0x423acd",
      "logs": [
        {
          "address": "0x4d97dcd97ec945f40cf65f87097ace5ea0476045",
          "topics": [
            "0x17307eab39ab6107e8899845ad3d59bd9653f200f220920489ca2b5937696c31",
            "0x0000000000000000000000001aa44c933a6718a4bc44064f0067a853c34be9b0",
            "0x0000000000000000000000009a3a8fad75af102201a2cffbefc3443b3497420f"
          ],
          "data": "0x0000000000000000000000000000000000000000000000000000000000000001",
          "blockHash": "0x42d9439bd42c6c6642a0fafde7f107a07584c7dd523e420046d150b44640b8c6",
          "blockNumber": "0x443ed5e",
          "transactionHash": "0xb07232056982413efde36761ef39566156d6a8aa96d26b5188b23dc802a6428f",
          "transactionIndex": "0x21",
          "logIndex": "0x84",
          "removed": false
        },
        {
          "address": "0x0000000000000000000000000000000000001010",
          "topics": [
            "0x4dfe1bbbcf077ddc3e01291eea2d5c70c2b422b415d95645b9adcfd678cb1d63",
            "0x0000000000000000000000000000000000000000000000000000000000001010",
            "0x0000000000000000000000001aa44c933a6718a4bc44064f0067a853c34be9b0",
            "0x0000000000000000000000009ead03f7136fc6b4bdb0780b00a1c14ae5a8b6d0"
          ],
          "data": "0x0000000000000000000000000000000000000000000000000004e0bd4fbb3bd400000000000000000000000000000000000000000000000070f7b30ae74199be000000000000000000000000000000000000000000000af8040440a5f0856c3400000000000000000000000000000000000000000000000070f2d24d97865dea000000000000000000000000000000000000000000000af8040921634040a808",
          "blockHash": "0x42d9439bd42c6c6642a0fafde7f107a07584c7dd523e420046d150b44640b8c6",
          "blockNumber": "0x443ed5e",
          "transactionHash": "0xb07232056982413efde36761ef39566156d6a8aa96d26b5188b23dc802a6428f",
          "transactionIndex": "0x21",
          "logIndex": "0x85",
          "removed": false
        }
      ],
      "logsBloom": "0x00000000000020000000000000000000000000000000000000000000000040000000000000000000000000000000000000008000000000000000000000000000000000000000000000000000000000800000000000000000000100000000000002000000000000000000000000000000000000000000000080000000000000000140000000040000000000001000000000000000000000000000000000000000200000000000000000000080000000000000000000000000000000000000004004000000000000000001000000000000000004000000000000120000000000000000200800000000040000000000000000000000000000000000000000100004",
      "type": "0x2",
      "transactionHash": "0xb07232056982413efde36761ef39566156d6a8aa96d26b5188b23dc802a6428f",
      "transactionIndex": "0x21",
      "blockHash": "0x42d9439bd42c6c6642a0fafde7f107a07584c7dd523e420046d150b44640b8c6",
      "blockNumber": "0x443ed5e",
      "gasUsed": "0xb3ac",
      "effectiveGasPrice": "0x6f33a7bbe",
      "from": "0x1aa44c933a6718a4bc44064f0067a853c34be9b0",
      "to": "0x4d97dcd97ec945f40cf65f87097ace5ea0476045",
      "contractAddress": null
    },
    {
      "status": "0x1",
      "cumulativeGasUsed": "0x42ee79",
      "logs": [
        {
          "address": "0x4d97dcd97ec945f40cf65f87097ace5ea0476045",
          "topics": [
            "0x17307eab39ab6107e8899845ad3d59bd9653f200f220920489ca2b5937696c31",
            "0x0000000000000000000000001aa44c933a6718a4bc44064f0067a853c34be9b0",
            "0x000000000000000000000000e07fb832185ff0e9c8bb13b69f778aed8de76c58"
          ],
          "data": "0x0000000000000000000000000000000000000000000000000000000000000001",
          "blockHash": "0x42d9439bd42c6c6642a0fafde7f107a07584c7dd523e420046d150b44640b8c6",
          "blockNumber": "0x443ed5e",
          "transactionHash": "0x5dc96e5c7579f4482442254aeaec05a8b2c752113d80cba041775404ab9e7e44",
          "transactionIndex": "0x22",
          "logIndex": "0x86",
          "removed": false
        },
        {
          "address": "0x0000000000000000000000000000000000001010",
          "topics": [
            "0x4dfe1bbbcf077ddc3e01291eea2d5c70c2b422b415d95645b9adcfd678cb1d63",
            "0x0000000000000000000000000000000000000000000000000000000000001010",
            "0x0000000000000000000000001aa44c933a6718a4bc44064f0067a853c34be9b0",
            "0x0000000000000000000000009ead03f7136fc6b4bdb0780b00a1c14ae5a8b6d0"
          ],
          "data": "0x0000000000000000000000000000000000000000000000000004e0bd4fbb3bd400000000000000000000000000000000000000000000000070f2d24d97709c16000000000000000000000000000000000000000000000af8040921634040a80800000000000000000000000000000000000000000000000070edf19047b56042000000000000000000000000000000000000000000000af8040e02208ffbe3dc",
          "blockHash": "0x42d9439bd42c6c6642a0fafde7f107a07584c7dd523e420046d150b44640b8c6",
          "blockNumber": "0x443ed5e",
          "transactionHash": "0x5dc96e5c7579f4482442254aeaec05a8b2c752113d80cba041775404ab9e7e44",
          "transactionIndex": "0x22",
          "logIndex": "0x87",
          "removed": false
        }
      ],
      "logsBloom": "0x00000000000020000000000000000000000000000000000000000000000040000000000000000000000000000000000000008000000000000000000000000000000000000000000000000000000000800000000000000000000100000000000002000000000000000000000000000000000000000000000080000000000000000040000000040000000000001000000000000000000000000000000000000000200000000000000000000080000000000000000000000000000000000000004000000000000800000001200000000000000004000008000000120000000000000000200800000000040000000000000000000000000000000000000000100000",
      "type": "0x2",
      "transactionHash": "0x5dc96e5c7579f4482442254aeaec05a8b2c752113d80cba041775404ab9e7e44",
      "transactionIndex": "0x22",
      "blockHash": "0x42d9439bd42c6c6642a0fafde7f107a07584c7dd523e420046d150b44640b8c6",
      "blockNumber": "0x443ed5e",
      "gasUsed": "0xb3ac",
      "effectiveGasPrice": "0x6f33a7bbe",
      "from": "0x1aa44c933a6718a4bc44064f0067a853c34be9b0",
      "to": "0x4d97dcd97ec945f40cf65f87097ace5ea0476045",
      "contractAddress": null
    },
    {
      "status": "0x1",
      "cumulativeGasUsed": "0x45e6db",
      "logs": [
        {
          "address": "0x9a3a8fad75af102201a2cffbefc3443b3497420f",
          "topics": [
            "0xddf252ad1be2c89b69c2b068fc378daa952ba7f163c4a11628f55a4df523b3ef",
            "0x0000000000000000000000000000000000000000000000000000000000000000",
            "0x0000000000000000000000001aa44c933a6718a4bc44064f0067a853c34be9b0"
          ],
          "data": "0x00000000000000000000000000000000000000000000000000000000004c4b40",
          "blockHash": "0x42d9439bd42c6c6642a0fafde7f107a07584c7dd523e420046d150b44640b8c6",
          "blockNumber": "0x443ed5e",
          "transactionHash": "0x88d69400793c9b3ed0a959c7a234c88f6759954d23c43f5c9287a3e6367136ff",
          "transactionIndex": "0x23",
          "logIndex": "0x88",
          "removed": false
        },
        {
          "address": "0x4d97dcd97ec945f40cf65f87097ace5ea0476045",
          "topics": [
            "0x4a39dc06d4c0dbc64b70af90fd698a233a518aa5d07e595d983b8c0526c8f7fb",
            "0x0000000000000000000000009a3a8fad75af102201a2cffbefc3443b3497420f",
            "0x0000000000000000000000001aa44c933a6718a4bc44064f0067a853c34be9b0",
            "0x0000000000000000000000009a3a8fad75af102201a2cffbefc3443b3497420f"
          ],
          "data": "0x000000000000000000000000000000000000000000000000000000000000004000000000000000000000000000000000000000000000000000000000000000e00000000000000000000000000000000000000000000000000000000000000004a3d592d6002f1d275821d74d4dc1b736e054edb4f4f503fc7daf64433f3a8783b765739b68f91a6b8343c453dd500db1fd1211730bcfa6c0cf8dd2458871a3efbe87dd6f32f14ea56a7a67271dc7cba3e29a480106e24a00f7f05a055a397145f3eb7f4cd29dc80955819251ae49aae29ec5d4a4a9f1b19b1bfb87edd5520690000000000000000000000000000000000000000000000000000000000000000400000000000000000000000000000000000000000000000000000000004c4b4000000000000000000000000000000000000000000000000000000000004c4b4000000000000000000000000000000000000000000000000000000000004c4b4000000000000000000000000000000000000000000000000000000000004c4b40",
          "blockHash": "0x42d9439bd42c6c6642a0fafde7f107a07584c7dd523e420046d150b44640b8c6",
          "blockNumber": "0x443ed5e",
          "transactionHash": "0x88d69400793c9b3ed0a959c7a234c88f6759954d23c43f5c9287a3e6367136ff",
          "transactionIndex": "0x23",
          "logIndex": "0x89",
          "removed": false
        },
        {
          "address": "0x0000000000000000000000000000000000001010",
          "topics": [
            "0x4dfe1bbbcf077ddc3e01291eea2d5c70c2b422b415d95645b9adcfd678cb1d63",
            "0x0000000000000000000000000000000000000000000000000000000000001010",
            "0x0000000000000000000000001aa44c933a6718a4bc44064f0067a853c34be9b0",
            "0x0000000000000000000000009ead03f7136fc6b4bdb0780b00a1c14ae5a8b6d0"
          ],
          "data": "0x0000000000000000000000000000000000000000000000000014a4bebb635ade00000000000000000000000000000000000000000000000070edf190479f9e6e000000000000000000000000000000000000000000000af8040e02208ffbe3dc00000000000000000000000000000000000000000000000070d94cd18c3c4390000000000000000000000000000000000000000000000af80422a6df4b5f3eba",
          "blockHash": "0x42d9439bd42c6c6642a0fafde7f107a07584c7dd523e420046d150b44640b8c6",
          "blockNumber": "0x443ed5e",
          "transactionHash": "0x88d69400793c9b3ed0a959c7a234c88f6759954d23c43f5c9287a3e6367136ff",
          "transactionIndex": "0x23",
          "logIndex": "0x8a",
          "removed": false
        }
      ],
      "logsBloom": "0x00000000000020000000000000000000000000000000000000010000000040000000000000000000000000000000000000008000000000000000000000000000000000000000000000000008000000800000000000000000000100008000000000000000020000000000000000000800000000000800000080000010000000000140000000040000000000001000000000000000000000100000000000000000200000000000000000000080000000000000000000000000000000000000004004000002000000000001000000000000000404000000000000120000000020000000000000000000040000000000000000000000000000000000000002100004",
      "type": "0x2",
      "transactionHash": "0x88d69400793c9b3ed0a959c7a234c88f6759954d23c43f5c9287a3e6367136ff",
      "transactionIndex": "0x23",
      "blockHash": "0x42d9439bd42c6c6642a0fafde7f107a07584c7dd523e420046d150b44640b8c6",
      "blockNumber": "0x443ed5e",
      "gasUsed": "0x2f862",
      "effectiveGasPrice": "0x6f33a7bbe",
      "from": "0x1aa44c933a6718a4bc44064f0067a853c34be9b0",
      "to": "0x9a3a8fad75af102201a2cffbefc3443b3497420f",
      "contractAddress": null
    },
    {
      "status": "0x1",
      "cumulativeGasUsed": "0x48df3d",
      "logs": [
        {
          "address": "0xe07fb832185ff0e9c8bb13b69f778aed8de76c58",
          "topics": [
            "0xddf252ad1be2c89b69c2b068fc378daa952ba7f163c4a11628f55a4df523b3ef",
            "0x0000000000000000000000000000000000000000000000000000000000000000",
            "0x0000000000000000000000001aa44c933a6718a4bc44064f0067a853c34be9b0"
          ],
          "data": "0x00000000000000000000000000000000000000000000000000000000004c4b40",
          "blockHash": "0x42d9439bd42c6c6642a0fafde7f107a07584c7dd523e420046d150b44640b8c6",
          "blockNumber": "0x443ed5e",
          "transactionHash": "0xd17010cd1a6f301996582b9833b63dc4fcb44a79ed29a5c58ce70fa868883e9d",
          "transactionIndex": "0x24",
          "logIndex": "0x8b",
          "removed": false
        },
        {
          "address": "0x4d97dcd97ec945f40cf65f87097ace5ea0476045",
          "topics": [
            "0x4a39dc06d4c0dbc64b70af90fd698a233a518aa5d07e595d983b8c0526c8f7fb",
            "0x000000000000000000000000e07fb832185ff0e9c8bb13b69f778aed8de76c58",
            "0x0000000000000000000000001aa44c933a6718a4bc44064f0067a853c34be9b0",
            "0x000000000000000000000000e07fb832185ff0e9c8bb13b69f778aed8de76c58"
          ],
          "data": "0x000000000000000000000000000000000000000000000000000000000000004000000000000000000000000000000000000000000000000000000000000000e00000000000000000000000000000000000000000000000000000000000000004274f483d89eae851d2dd7b8510d21a8b160bf24c4086684b5ffb997d9c84973d35d451cc82492f4ab9d2489892038bfe00ce089d310f513bd95d5755fa75851f55525a430e83ffbdb1b501cfde45aaadbe93869da7cd596ff6249f452bd7c0bb7bfc2a104e5c430be513e7d7d4a9792b6df8c227f4df2c741542b1942a1605d1000000000000000000000000000000000000000000000000000000000000000400000000000000000000000000000000000000000000000000000000004c4b4000000000000000000000000000000000000000000000000000000000004c4b4000000000000000000000000000000000000000000000000000000000004c4b4000000000000000000000000000000000000000000000000000000000004c4b40",
          "blockHash": "0x42d9439bd42c6c6642a0fafde7f107a07584c7dd523e420046d150b44640b8c6",
          "blockNumber": "0x443ed5e",
          "transactionHash": "0xd17010cd1a6f301996582b9833b63dc4fcb44a79ed29a5c58ce70fa868883e9d",
          "transactionIndex": "0x24",
          "logIndex": "0x8c",
          "removed": false
        },
        {
          "address": "0x0000000000000000000000000000000000001010",
          "topics": [
            "0x4dfe1bbbcf077ddc3e01291eea2d5c70c2b422b415d95645b9adcfd678cb1d63",
            "0x0000000000000000000000000000000000000000000000000000000000001010",
            "0x0000000000000000000000001aa44c933a6718a4bc44064f0067a853c34be9b0",
            "0x0000000000000000000000009ead03f7136fc6b4bdb0780b00a1c14ae5a8b6d0"
          ],
          "data": "0x0000000000000000000000000000000000000000000000000014a4bebb635ade00000000000000000000000000000000000000000000000070d94cd18be02fb2000000000000000000000000000000000000000000000af80422a6df4b5f3eba00000000000000000000000000000000000000000000000070c4a812d07cd4d4000000000000000000000000000000000000000000000af804374b9e06c29998",
          "blockHash": "0x42d9439bd42c6c6642a0fafde7f107a07584c7dd523e420046d150b44640b8c6",
          "blockNumber": "0x443ed5e",
          "transactionHash": "0xd17010cd1a6f301996582b9833b63dc4fcb44a79ed29a5c58ce70fa868883e9d",
          "transactionIndex": "0x24",
          "logIndex": "0x8d",
          "removed": false
        }
      ],
      "logsBloom": "0x00000000000020000000000000000000000000000000000000000000000040000000000000000000000000000000000000008000000000000000000200000000000000000000000000000008000000800000000000000000000100000000000000000000020000000000000000000800000000000800000080000010000000000040000000040000000000001000000000000000000000000000000000000000200000000000000000000080000000000000000000000000000000010000004000000002000880000001200000000000000404000008000000120000000020000000000000000000040000000000000000000000000000000000000002100000",
      "type": "0x2",
      "transactionHash": "0xd17010cd1a6f301996582b9833b63dc4fcb44a79ed29a5c58ce70fa868883e9d",
      "transactionIndex": "0x24",
      "blockHash": "0x42d9439bd42c6c6642a0fafde7f107a07584c7dd523e420046d150b44640b8c6",
      "blockNumber": "0x443ed5e",
      "gasUsed": "0x2f862",
      "effectiveGasPrice": "0x6f33a7bbe",
      "from": "0x1aa44c933a6718a4bc44064f0067a853c34be9b0",
      "to": "0xe07fb832185ff0e9c8bb13b69f778aed8de76c58",
      "contractAddress": null
    }
  ],
  "libraries": [],
  "pending": [],
  "returns": {},
  "timestamp": 1747341829,
  "chain": 137,
  "commit": "5e7219b"
}