{
  "transactions": [
    {
      "hash": "0x081c1df57aff5daaea42c2a89cff40c6308e614d3ea4c5c0e25ca2cbd32ff97c",
      "transactionType": "CALL",
      "contractName": null,
      "contractAddress": "0x2791bca1f2de4661ed88a30c99a7a9449aa84174",
      "function": "approve(address,uint256)",
      "arguments": [
        "0x4D97DCd97eC945f40cF65F87097ACe5EA0476045",
        "115792089237316195423570985008687907853269984665640564039457584007913129639935"
      ],
      "transaction": {
        "from": "0x1aa44c933a6718a4bc44064f0067a853c34be9b0",
        "to": "0x2791bca1f2de4661ed88a30c99a7a9449aa84174",
        "gas": "0xdc35",
        "value": "0x0",
        "input": "0x095ea7b30000000000000000000000004d97dcd97ec945f40cf65f87097ace5ea0476045ffffffffffffffffffffffffffffffffffffffffffffffffffffffffffffffff",
        "nonce": "0xa8",
        "chainId": "0x89"
      },
      "additionalContracts": [],
      "isFixedGasLimit": false
    },
    {
      "hash": "0x42b1634ef9502fe7d9e401d588c5f285b659c282ac73cf29ec4eec7adcba903a",
      "transactionType": "CALL",
      "contractName": null,
      "contractAddress": "0x4d97dcd97ec945f40cf65f87097ace5ea0476045",
      "function": "setApprovalForAll(address,bool)",
      "arguments": [
        "0xC01BbFC94C41F0D8Fc242cFe8465ea4dcD4f20C5",
        "true"
      ],
      "transaction": {
        "from": "0x1aa44c933a6718a4bc44064f0067a853c34be9b0",
        "to": "0x4d97dcd97ec945f40cf65f87097ace5ea0476045",
        "gas": "0x8ccd",
        "value": "0x0",
        "input": "0xa22cb465000000000000000000000000c01bbfc94c41f0d8fc242cfe8465ea4dcd4f20c50000000000000000000000000000000000000000000000000000000000000001",
        "nonce": "0xa9",
        "chainId": "0x89"
      },
      "additionalContracts": [],
      "isFixedGasLimit": false
    },
    {
      "hash": "0xf330c009f5afaa4b2dc929c3afaedeb6b9e70c8e1cc27c6854fce28e22a44746",
      "transactionType": "CALL",
      "contractName": null,
      "contractAddress": "0xc01bbfc94c41f0d8fc242cfe8465ea4dcd4f20c5",
      "function": "createIndex((address,bytes32[],uint256[],bytes,address),bytes)",
      "arguments": [
        "(0x7bcd278Bb230fF014149cE32c5a9663812Da9810, [0xf9425f69ce7fbde7ee54887ea24b164d2d4c06b594c4d4f94b1921cd79321b19, 0x5ce0d897bd66142c43a38204a67ad85bc3e0643382258411a5aa58ca3e825082, 0x23e8024f638844fc16d0ccde8416fdcfb91b2261c19a33a9325aa130d907d78c, 0x42d229e920b4b940905d0b2cc293e5c596b765360e261ea7d0fbe748ca4f7020], [1, 1, 1, 1], 0x00000000000000000000000000000000000000000000000000000000000000200000000000000000000000000000000000000000000000000000000000000025537570706f7274696e6720726f6c6573206272696e6720737461626c652070726f66697473000000000000000000000000000000000000000000000000000000, 0x3De278A5acdD0123eD668478ac8cCd2E178510BC)",
        "0x"
      ],
      "transaction": {
        "from": "0x1aa44c933a6718a4bc44064f0067a853c34be9b0",
        "to": "0xc01bbfc94c41f0d8fc242cfe8465ea4dcd4f20c5",
        "gas": "0x140981",
        "value": "0x0",
        "input": "0xd2f72136000000000000000000000000000000000000000000000000000000000000004000000000000000000000000000000000000000000000000000000000000002c00000000000000000000000007bcd278bb230ff014149ce32c5a9663812da981000000000000000000000000000000000000000000000000000000000000000a0000000000000000000000000000000000000000000000000000000000000014000000000000000000000000000000000000000000000000000000000000001e00000000000000000000000003de278a5acdd0123ed668478ac8ccd2e178510bc0000000000000000000000000000000000000000000000000000000000000004f9425f69ce7fbde7ee54887ea24b164d2d4c06b594c4d4f94b1921cd79321b195ce0d897bd66142c43a38204a67ad85bc3e0643382258411a5aa58ca3e82508223e8024f638844fc16d0ccde8416fdcfb91b2261c19a33a9325aa130d907d78c42d229e920b4b940905d0b2cc293e5c596b765360e261ea7d0fbe748ca4f702000000000000000000000000000000000000000000000000000000000000000040000000000000000000000000000000000000000000000000000000000000001000000000000000000000000000000000000000000000000000000000000000100000000000000000000000000000000000000000000000000000000000000010000000000000000000000000000000000000000000000000000000000000001000000000000000000000000000000000000000000000000000000000000008000000000000000000000000000000000000000000000000000000000000000200000000000000000000000000000000000000000000000000000000000000025537570706f7274696e6720726f6c6573206272696e6720737461626c652070726f666974730000000000000000000000000000000000000000000000000000000000000000000000000000000000000000000000000000000000000000000000",
        "nonce": "0xaa",
        "chainId": "0x89"
      },
      "additionalContracts": [
        {
          "transactionType": "CREATE2",
          "address": "0xd99a750b0c77dbad294941ef819329c246b5e32d",
          "initCode": "0x6103ed3d81600a3d39f3363d3d373d3d3d363d737bcd278bb230ff014149ce32c5a9663812da98105af43d82803e903d91602b57fd5bf30000000000000000000000000000000000000000000000000000000000000020000000000000000000000000000000000000000000000000000000000000012000000000000000000000000000000000000000000000000000000000000001c000000000000000000000000000000000000000000000000000000000000002600000000000000000000000000000000000000000000000000000000000000300000000000000000000000000c01bbfc94c41f0d8fc242cfe8465ea4dcd4f20c50000000000000000000000004d97dcd97ec945f40cf65f87097ace5ea04760450000000000000000000000002791bca1f2de4661ed88a30c99a7a9449aa841740000000000000000000000007bcd278bb230ff014149ce32c5a9663812da98100000000000000000000000003de278a5acdd0123ed668478ac8ccd2e178510bc000000000000000000000000000000000000000000000000000000000000000415bf81a330bf158157d4d0685e9917523ee982106f26417d8ea4ccf281bc9dc3ceac2e16fa28c00ab8ed1d9ab44fd63de0186c3a56d6a5356039ec5e8461b5f9d827e6e1c4c64199c19b34d81f683cfa5f0156f04c01b875dab90c749b2bcb75ee45eb80bdc3b94cf430dff8a138db5e4d4435c19cec8585a337839364b351020000000000000000000000000000000000000000000000000000000000000004f9425f69ce7fbde7ee54887ea24b164d2d4c06b594c4d4f94b1921cd79321b195ce0d897bd66142c43a38204a67ad85bc3e0643382258411a5aa58ca3e82508223e8024f638844fc16d0ccde8416fdcfb91b2261c19a33a9325aa130d907d78c42d229e920b4b940905d0b2cc293e5c596b765360e261ea7d0fbe748ca4f702000000000000000000000000000000000000000000000000000000000000000040000000000000000000000000000000000000000000000000000000000000001000000000000000000000000000000000000000000000000000000000000000100000000000000000000000000000000000000000000000000000000000000010000000000000000000000000000000000000000000000000000000000000001000000000000000000000000000000000000000000000000000000000000008000000000000000000000000000000000000000000000000000000000000000200000000000000000000000000000000000000000000000000000000000000025537570706f7274696e6720726f6c6573206272696e6720737461626c652070726f66697473000000000000000000000000000000000000000000000000000000"
        }
      ],
      "isFixedGasLimit": false
    }
  ],
  "receipts": [
    {
      "status": "0x1",
      "cumulativeGasUsed": "0x1ca846c",
      "logs": [
        {
          "address": "0x2791bca1f2de4661ed88a30c99a7a9449aa84174",
          "topics": [
            "0x8c5be1e5ebec7d5bd14f71427d1e84f3dd0314c0f7b2291e5b200ac8c7c3b925",
            "0x0000000000000000000000001aa44c933a6718a4bc44064f0067a853c34be9b0",
            "0x0000000000000000000000004d97dcd97ec945f40cf65f87097ace5ea0476045"
          ],
          "data": "0xffffffffffffffffffffffffffffffffffffffffffffffffffffffffffffffff",
          "blockHash": "0xfec8e18d035909a8af48760323ff0af3750256369a78155ee55c43589f67dd57",
          "blockNumber": "0x44444d1",
          "transactionHash": "0x081c1df57aff5daaea42c2a89cff40c6308e614d3ea4c5c0e25ca2cbd32ff97c",
          "transactionIndex": "0x77",
          "logIndex": "0x289",
          "removed": false
        },
        {
          "address": "0x0000000000000000000000000000000000001010",
          "topics": [
            "0x4dfe1bbbcf077ddc3e01291eea2d5c70c2b422b415d95645b9adcfd678cb1d63",
            "0x0000000000000000000000000000000000000000000000000000000000001010",
            "0x0000000000000000000000001aa44c933a6718a4bc44064f0067a853c34be9b0",
            "0x00000000000000000000000067b94473d81d0cd00849d563c94d0432ac988b49"
          ],
          "data": "0x0000000000000000000000000000000000000000000000000003f4de0b4b1ff00000000000000000000000000000000000000000000000004f4dbde79915e72b000000000000000000000000000000000000000000000d46d50c14ff192965b50000000000000000000000000000000000000000000000004f49c9098dcac73b000000000000000000000000000000000000000000000d46d51009dd247485a5",
          "blockHash": "0xfec8e18d035909a8af48760323ff0af3750256369a78155ee55c43589f67dd57",
          "blockNumber": "0x44444d1",
          "transactionHash": "0x081c1df57aff5daaea42c2a89cff40c6308e614d3ea4c5c0e25ca2cbd32ff97c",
          "transactionIndex": "0x77",
          "logIndex": "0x28a",
          "removed": false
        }
      ],
      "logsBloom": "0x00000000000020000000000000000000000000000000000000000000000000000000000000000000000000000000000000008000000000000000000000200000000000000000000000000000000200800000000000000000000100000000000000000000000000000000000000000000000000000000000180000000000000000001000000000000000000001000000000000000000000000000000000000000220000000400000000000080000001000000000000000000000000000000004000800000000000000001000000008000000000000000000000100000000000000010028000000000000000000000000000000000000000000000000000100000",
      "type": "0x2",
      "transactionHash": "0x081c1df57aff5daaea42c2a89cff40c6308e614d3ea4c5c0e25ca2cbd32ff97c",
      "transactionIndex": "0x77",
      "blockHash": "0xfec8e18d035909a8af48760323ff0af3750256369a78155ee55c43589f67dd57",
      "blockNumber": "0x44444d1",
      "gasUsed": "0x9692",
      "effectiveGasPrice": "0x90119ce9d",
      "from": "0x1aa44c933a6718a4bc44064f0067a853c34be9b0",
      "to": "0x2791bca1f2de4661ed88a30c99a7a9449aa84174",
      "contractAddress": null
    },
    {
      "status": "0x1",
      "cumulativeGasUsed": "0x1caea5c",
      "logs": [
        {
          "address": "0x4d97dcd97ec945f40cf65f87097ace5ea0476045",
          "topics": [
            "0x17307eab39ab6107e8899845ad3d59bd9653f200f220920489ca2b5937696c31",
            "0x0000000000000000000000001aa44c933a6718a4bc44064f0067a853c34be9b0",
            "0x000000000000000000000000c01bbfc94c41f0d8fc242cfe8465ea4dcd4f20c5"
          ],
          "data": "0x0000000000000000000000000000000000000000000000000000000000000001",
          "blockHash": "0xfec8e18d035909a8af48760323ff0af3750256369a78155ee55c43589f67dd57",
          "blockNumber": "0x44444d1",
          "transactionHash": "0x42b1634ef9502fe7d9e401d588c5f285b659c282ac73cf29ec4eec7adcba903a",
          "transactionIndex": "0x78",
          "logIndex": "0x28b",
          "removed": false
        },
        {
          "address": "0x0000000000000000000000000000000000001010",
          "topics": [
            "0x4dfe1bbbcf077ddc3e01291eea2d5c70c2b422b415d95645b9adcfd678cb1d63",
            "0x0000000000000000000000000000000000000000000000000000000000001010",
            "0x0000000000000000000000001aa44c933a6718a4bc44064f0067a853c34be9b0",
            "0x00000000000000000000000067b94473d81d0cd00849d563c94d0432ac988b49"
          ],
          "data": "0x0000000000000000000000000000000000000000000000000002adb879e0cc800000000000000000000000000000000000000000000000004f48721fd94e13a1000000000000000000000000000000000000000000000d46d51009dd247485a50000000000000000000000000000000000000000000000004f45c4675f6d4721000000000000000000000000000000000000000000000d46d512b7959e555225",
          "blockHash": "0xfec8e18d035909a8af48760323ff0af3750256369a78155ee55c43589f67dd57",
          "blockNumber": "0x44444d1",
          "transactionHash": "0x42b1634ef9502fe7d9e401d588c5f285b659c282ac73cf29ec4eec7adcba903a",
          "transactionIndex": "0x78",
          "logIndex": "0x28c",
          "removed": false
        }
      ],
      "logsBloom": "0x00000000000020000000000000000000000000000000000000000000000040000000000000000000000000000000000000008000000000000000000000000000000000000000000000200000000000800000000000000000000100000000000002000000000000000000000000000000000000000000000080001000000000000000000000000000000000001000000000000000000000000000000000000000200000000000000000000080000000000000000000000000000000000000004000800000000000000001000000008000000004000000000000100000000000000000220800000000040000000000000000000000000000000000000000100000",
      "type": "0x2",
      "transactionHash": "0x42b1634ef9502fe7d9e401d588c5f285b659c282ac73cf29ec4eec7adcba903a",
      "transactionIndex": "0x78",
      "blockHash": "0xfec8e18d035909a8af48760323ff0af3750256369a78155ee55c43589f67dd57",
      "blockNumber": "0x44444d1",
      "gasUsed": "0x65f0",
      "effectiveGasPrice": "0x90119ce9d",
      "from": "0x1aa44c933a6718a4bc44064f0067a853c34be9b0",
      "to": "0x4d97dcd97ec945f40cf65f87097ace5ea0476045",
      "contractAddress": null
    },
    {
      "status": "0x1",
      "cumulativeGasUsed": "0xf82803",
      "logs": [
        {
          "address": "0x4d97dcd97ec945f40cf65f87097ace5ea0476045",
          "topics": [
            "0x17307eab39ab6107e8899845ad3d59bd9653f200f220920489ca2b5937696c31",
            "0x000000000000000000000000d99a750b0c77dbad294941ef819329c246b5e32d",
            "0x0000000000000000000000004d97dcd97ec945f40cf65f87097ace5ea0476045"
          ],
          "data": "0x0000000000000000000000000000000000000000000000000000000000000001",
          "blockHash": "0xec5b0d7987fe6e3712bbd556eb2fdab728933c34ba5c237e5c6cc83185238a98",
          "blockNumber": "0x44444d2",
          "transactionHash": "0xf330c009f5afaa4b2dc929c3afaedeb6b9e70c8e1cc27c6854fce28e22a44746",
          "transactionIndex": "0x38",
          "logIndex": "0x349",
          "removed": false
        },
        {
          "address": "0x2791bca1f2de4661ed88a30c99a7a9449aa84174",
          "topics": [
            "0x8c5be1e5ebec7d5bd14f71427d1e84f3dd0314c0f7b2291e5b200ac8c7c3b925",
            "0x000000000000000000000000d99a750b0c77dbad294941ef819329c246b5e32d",
            "0x0000000000000000000000004d97dcd97ec945f40cf65f87097ace5ea0476045"
          ],
          "data": "0xffffffffffffffffffffffffffffffffffffffffffffffffffffffffffffffff",
          "blockHash": "0xec5b0d7987fe6e3712bbd556eb2fdab728933c34ba5c237e5c6cc83185238a98",
          "blockNumber": "0x44444d2",
          "transactionHash": "0xf330c009f5afaa4b2dc929c3afaedeb6b9e70c8e1cc27c6854fce28e22a44746",
          "transactionIndex": "0x38",
          "logIndex": "0x34a",
          "removed": false
        },
        {
          "address": "0xc01bbfc94c41f0d8fc242cfe8465ea4dcd4f20c5",
          "topics": [
            "0x750538103f64f9b5e2db539e5c1f7552a63aa9e68e07396b2b4b58f7cfef18ab",
            "0x000000000000000000000000d99a750b0c77dbad294941ef819329c246b5e32d"
          ],
          "data": "0x000000000000000000000000000000000000000000000000000000000000004000000000000000000000000000000000000000000000000000000000000000e0000000000000000000000000000000000000000000000000000000000000000415bf81a330bf158157d4d0685e9917523ee982106f26417d8ea4ccf281bc9dc3ceac2e16fa28c00ab8ed1d9ab44fd63de0186c3a56d6a5356039ec5e8461b5f9d827e6e1c4c64199c19b34d81f683cfa5f0156f04c01b875dab90c749b2bcb75ee45eb80bdc3b94cf430dff8a138db5e4d4435c19cec8585a337839364b35102000000000000000000000000000000000000000000000000000000000000008000000000000000000000000000000000000000000000000000000000000000200000000000000000000000000000000000000000000000000000000000000025537570706f7274696e6720726f6c6573206272696e6720737461626c652070726f66697473000000000000000000000000000000000000000000000000000000",
          "blockHash": "0xec5b0d7987fe6e3712bbd556eb2fdab728933c34ba5c237e5c6cc83185238a98",
          "blockNumber": "0x44444d2",
          "transactionHash": "0xf330c009f5afaa4b2dc929c3afaedeb6b9e70c8e1cc27c6854fce28e22a44746",
          "transactionIndex": "0x38",
          "logIndex": "0x34b",
          "removed": false
        },
        {
          "address": "0x0000000000000000000000000000000000001010",
          "topics": [
            "0x4dfe1bbbcf077ddc3e01291eea2d5c70c2b422b415d95645b9adcfd678cb1d63",
            "0x0000000000000000000000000000000000000000000000000000000000001010",
            "0x0000000000000000000000001aa44c933a6718a4bc44064f0067a853c34be9b0",
            "0x00000000000000000000000067b94473d81d0cd00849d563c94d0432ac988b49"
          ],
          "data": "0x000000000000000000000000000000000000000000000000005c2988d9c283e80000000000000000000000000000000000000000000000004f44dc3fa2986f71000000000000000000000000000000000000000000000d46dd79928b9d9e61f00000000000000000000000000000000000000000000000004ee8b2b6c8d5eb89000000000000000000000000000000000000000000000d46ddd5bc147760e5d8",
          "blockHash": "0xec5b0d7987fe6e3712bbd556eb2fdab728933c34ba5c237e5c6cc83185238a98",
          "blockNumber": "0x44444d2",
          "transactionHash": "0xf330c009f5afaa4b2dc929c3afaedeb6b9e70c8e1cc27c6854fce28e22a44746",
          "transactionIndex": "0x38",
          "logIndex": "0x34c",
          "removed": false
        }
      ],
      "logsBloom": "0x00000000000020000000000000000000000000000000000000000000000040000000000000000000000000000000000010008000000000000000000000200000000000004000000000000000000200800000000000000000020100000000000002000040000000000000000080000000000000000000000180000000000000000001000000000000000000001000400000001000000000000000000000000000220000000400000000000080000001800000000000000000000000000000004000800000000000000001000000008000000004000000000000100000000000000010228800000000040000000000000000000000000000000000000000100000",
      "type": "0x2",
      "transactionHash": "0xf330c009f5afaa4b2dc929c3afaedeb6b9e70c8e1cc27c6854fce28e22a44746",
      "transactionIndex": "0x38",
      "blockHash": "0xec5b0d7987fe6e3712bbd556eb2fdab728933c34ba5c237e5c6cc83185238a98",
      "blockNumber": "0x44444d2",
      "gasUsed": "0xdb35b",
      "effectiveGasPrice": "0x92477e1c8",
      "from": "0x1aa44c933a6718a4bc44064f0067a853c34be9b0",
      "to": "0xc01bbfc94c41f0d8fc242cfe8465ea4dcd4f20c5",
      "contractAddress": null
    }
  ],
  "libraries": [],
  "pending": [],
  "returns": {},
  "timestamp": 1747390213,
  "chain": 137,
  "commit": "d6a2b0f"
}