{
  "transactions": [
    {
      "hash": "0xf119f92fbbb97320b9bb068b81c2ed609e4d877d452d53a0e181bc4ab109903c",
      "transactionType": "CALL",
      "contractName": null,
      "contractAddress": "0x2791bca1f2de4661ed88a30c99a7a9449aa84174",
      "function": "approve(address,uint256)",
      "arguments": [
        "0x4D97DCd97eC945f40cF65F87097ACe5EA0476045",
        "115792089237316195423570985008687907853269984665640564039457584007913129639935"
      ],
      "transaction": {
        "from": "0x1aa44c933a6718a4bc44064f0067a853c34be9b0",
        "to": "0x2791bca1f2de4661ed88a30c99a7a9449aa84174",
        "gas": "0xdc35",
        "value": "0x0",
        "input": "0x095ea7b30000000000000000000000004d97dcd97ec945f40cf65f87097ace5ea0476045ffffffffffffffffffffffffffffffffffffffffffffffffffffffffffffffff",
        "nonce": "0x61",
        "chainId": "0x89"
      },
      "additionalContracts": [],
      "isFixedGasLimit": false
    }
  ],
  "receipts": [
    {
      "status": "0x1",
      "cumulativeGasUsed": "0x6e5822",
      "logs": [
        {
          "address": "0x2791bca1f2de4661ed88a30c99a7a9449aa84174",
          "topics": [
            "0x8c5be1e5ebec7d5bd14f71427d1e84f3dd0314c0f7b2291e5b200ac8c7c3b925",
            "0x0000000000000000000000001aa44c933a6718a4bc44064f0067a853c34be9b0",
            "0x0000000000000000000000004d97dcd97ec945f40cf65f87097ace5ea0476045"
          ],
          "data": "0xffffffffffffffffffffffffffffffffffffffffffffffffffffffffffffffff",
          "blockHash": "0x3b5db7b0cc50b3e0fd924cf8787d53e78f2ab369dd30cd4eb7bb9c354cd41e86",
          "blockNumber": "0x443ec01",
          "transactionHash": "0xf119f92fbbb97320b9bb068b81c2ed609e4d877d452d53a0e181bc4ab109903c",
          "transactionIndex": "0x38",
          "logIndex": "0xfd",
          "removed": false
        },
        {
          "address": "0x0000000000000000000000000000000000001010",
          "topics": [
            "0x4dfe1bbbcf077ddc3e01291eea2d5c70c2b422b415d95645b9adcfd678cb1d63",
            "0x0000000000000000000000000000000000000000000000000000000000001010",
            "0x0000000000000000000000001aa44c933a6718a4bc44064f0067a853c34be9b0",
            "0x000000000000000000000000ce7fcb674ba27a952c71061b649fb5a5746f3b2b"
          ],
          "data": "0x00000000000000000000000000000000000000000000000000041bb8b32145240000000000000000000000000000000000000000000000007125c07dcb9ae86e000000000000000000000000000000000000000000001d4bc2df6a64bbe1d9230000000000000000000000000000000000000000000000007121a4c51879a34a000000000000000000000000000000000000000000001d4bc2e3861d6f031e47",
          "blockHash": "0x3b5db7b0cc50b3e0fd924cf8787d53e78f2ab369dd30cd4eb7bb9c354cd41e86",
          "blockNumber": "0x443ec01",
          "transactionHash": "0xf119f92fbbb97320b9bb068b81c2ed609e4d877d452d53a0e181bc4ab109903c",
          "transactionIndex": "0x38",
          "logIndex": "0xfe",
          "removed": false
        }
      ],
      "logsBloom": "0x00000000000020000000000000000000000000000000000000000000000000000000000000000000000000000000000000008000000000000000000000200000000000000000000000000000000200800000000000000000000120000000000000000000000000000000000000000000000000000000000180000000000000000001000000000000000000001080000000000000000000000000000000000000220000000400000000000080000001000000000000000000000000000000004000000000004000000001000000000000000000000000000000100000000000000010008000000000000000000000000000000000000000000000000000100000",
      "type": "0x2",
      "transactionHash": "0xf119f92fbbb97320b9bb068b81c2ed609e4d877d452d53a0e181bc4ab109903c",
      "transactionIndex": "0x38",
      "blockHash": "0x3b5db7b0cc50b3e0fd924cf8787d53e78f2ab369dd30cd4eb7bb9c354cd41e86",
      "blockNumber": "0x443ec01",
      "gasUsed": "0x9692",
      "effectiveGasPrice": "0x6fc23ac3e",
      "from": "0x1aa44c933a6718a4bc44064f0067a853c34be9b0",
      "to": "0x2791bca1f2de4661ed88a30c99a7a9449aa84174",
      "contractAddress": null
    }
  ],
  "libraries": [],
  "pending": [],
  "returns": {},
  "timestamp": 1747341090,
  "chain": 137,
  "commit": "5e7219b"
}