{
  "transactions": [
    {
      "hash": "0xcb26e09f8ddebdce79d85ad4b5674bb3f3da033c2ed022124c7a8c4b120ad1e3",
      "transactionType": "CALL",
      "contractName": null,
      "contractAddress": "0x2791bca1f2de4661ed88a30c99a7a9449aa84174",
      "function": "approve(address,uint256)",
      "arguments": [
        "0x4D97DCd97eC945f40cF65F87097ACe5EA0476045",
        "115792089237316195423570985008687907853269984665640564039457584007913129639935"
      ],
      "transaction": {
        "from": "0x1aa44c933a6718a4bc44064f0067a853c34be9b0",
        "to": "0x2791bca1f2de4661ed88a30c99a7a9449aa84174",
        "gas": "0xec34",
        "value": "0x0",
        "input": "0x095ea7b30000000000000000000000004d97dcd97ec945f40cf65f87097ace5ea0476045ffffffffffffffffffffffffffffffffffffffffffffffffffffffffffffffff",
        "nonce": "0x4c",
        "chainId": "0x89"
      },
      "additionalContracts": [],
      "isFixedGasLimit": false
    },
    {
      "hash": "0xadb1653a3f6749f1612d4d82ea4f0c3b878d20737df3a782d0be3e30eece105d",
      "transactionType": "CALL",
      "contractName": null,
      "contractAddress": "0x4d97dcd97ec945f40cf65f87097ace5ea0476045",
      "function": "setApprovalForAll(address,bool)",
      "arguments": [
        "0xf0a2a229f1A00A3ADA30ECC279cFbA836De115B0",
        "true"
      ],
      "transaction": {
        "from": "0x1aa44c933a6718a4bc44064f0067a853c34be9b0",
        "to": "0x4d97dcd97ec945f40cf65f87097ace5ea0476045",
        "gas": "0xf82b",
        "value": "0x0",
        "input": "0xa22cb465000000000000000000000000f0a2a229f1a00a3ada30ecc279cfba836de115b00000000000000000000000000000000000000000000000000000000000000001",
        "nonce": "0x4d",
        "chainId": "0x89"
      },
      "additionalContracts": [],
      "isFixedGasLimit": false
    },
    {
      "hash": "0xe50de03c9100544e7479bbd765cc29150dec8801ebc613cf57ac6ac016646441",
      "transactionType": "CALL",
      "contractName": null,
      "contractAddress": "0xf0a2a229f1a00a3ada30ecc279cfba836de115b0",
      "function": "createIndex((address,bytes32[],uint256[],bytes),bytes,uint256)",
      "arguments": [
        "(0x9F878c58969755aFD93A381168e1f8ea0d22a9cF, [0x3cade829b69b30436629ac0c2494d475211ba6f7e00e192a920653ba00b7db36, 0x553728bcacf78928f84c20141df3927eba4e76846d67db8d354a111619501a6b, 0x354b6793f25222186de8d3c9ca1e444e71a6d7b7db276bf1aa50b95b8d47cb65, 0x5bf33c43674b2bc7452acca8d971ff8a84ccee5fbce29b9d4b75f8f895aa52c2], [1, 1, 1, 1], 0x3531375570)",
        "0x",
        "5000000"
      ],
      "transaction": {
        "from": "0x1aa44c933a6718a4bc44064f0067a853c34be9b0",
        "to": "0xf0a2a229f1a00a3ada30ecc279cfba836de115b0",
        "gas": "0xca255",
        "value": "0x0",
        "input": "0x30229a130000000000000000000000000000000000000000000000000000000000000060000000000000000000000000000000000000000000000000000000000000026000000000000000000000000000000000000000000000000000000000004c4b400000000000000000000000009f878c58969755afd93a381168e1f8ea0d22a9cf0000000000000000000000000000000000000000000000000000000000000080000000000000000000000000000000000000000000000000000000000000012000000000000000000000000000000000000000000000000000000000000001c000000000000000000000000000000000000000000000000000000000000000043cade829b69b30436629ac0c2494d475211ba6f7e00e192a920653ba00b7db36553728bcacf78928f84c20141df3927eba4e76846d67db8d354a111619501a6b354b6793f25222186de8d3c9ca1e444e71a6d7b7db276bf1aa50b95b8d47cb655bf33c43674b2bc7452acca8d971ff8a84ccee5fbce29b9d4b75f8f895aa52c200000000000000000000000000000000000000000000000000000000000000040000000000000000000000000000000000000000000000000000000000000001000000000000000000000000000000000000000000000000000000000000000100000000000000000000000000000000000000000000000000000000000000010000000000000000000000000000000000000000000000000000000000000001000000000000000000000000000000000000000000000000000000000000000535313755700000000000000000000000000000000000000000000000000000000000000000000000000000000000000000000000000000000000000000000000",
        "nonce": "0x4e",
        "chainId": "0x89"
      },
      "additionalContracts": [
        {
          "transactionType": "CREATE2",
          "address": "0x9ca154ba8a0a245aabdab3bf445547862690ccf6",
          "initCode": "0x61036d3d81600a3d39f3363d3d373d3d3d363d739f878c58969755afd93a381168e1f8ea0d22a9cf5af43d82803e903d91602b57fd5bf30000000000000000000000000000000000000000000000000000000000000020000000000000000000000000000000000000000000000000000000000000010000000000000000000000000000000000000000000000000000000000000001a0000000000000000000000000000000000000000000000000000000000000024000000000000000000000000000000000000000000000000000000000000002e0000000000000000000000000f0a2a229f1a00a3ada30ecc279cfba836de115b00000000000000000000000004d97dcd97ec945f40cf65f87097ace5ea04760450000000000000000000000002791bca1f2de4661ed88a30c99a7a9449aa841740000000000000000000000009f878c58969755afd93a381168e1f8ea0d22a9cf0000000000000000000000000000000000000000000000000000000000000004a3d592d6002f1d275821d74d4dc1b736e054edb4f4f503fc7daf64433f3a8783b765739b68f91a6b8343c453dd500db1fd1211730bcfa6c0cf8dd2458871a3efbe87dd6f32f14ea56a7a67271dc7cba3e29a480106e24a00f7f05a055a397145f3eb7f4cd29dc80955819251ae49aae29ec5d4a4a9f1b19b1bfb87edd552069000000000000000000000000000000000000000000000000000000000000000043cade829b69b30436629ac0c2494d475211ba6f7e00e192a920653ba00b7db36553728bcacf78928f84c20141df3927eba4e76846d67db8d354a111619501a6b354b6793f25222186de8d3c9ca1e444e71a6d7b7db276bf1aa50b95b8d47cb655bf33c43674b2bc7452acca8d971ff8a84ccee5fbce29b9d4b75f8f895aa52c20000000000000000000000000000000000000000000000000000000000000004000000000000000000000000000000000000000000000000000000000000000100000000000000000000000000000000000000000000000000000000000000010000000000000000000000000000000000000000000000000000000000000001000000000000000000000000000000000000000000000000000000000000000100000000000000000000000000000000000000000000000000000000000000053531375570000000000000000000000000000000000000000000000000000000"
        }
      ],
      "isFixedGasLimit": false
    },
    {
      "hash": "0x02e36e70b27630c67888e70f80a58c0d75e50f69497f3996870a5b95186744ce",
      "transactionType": "CALL",
      "contractName": null,
      "contractAddress": "0xf0a2a229f1a00a3ada30ecc279cfba836de115b0",
      "function": "createIndex((address,bytes32[],uint256[],bytes),bytes,uint256)",
      "arguments": [
        "(0x9F878c58969755aFD93A381168e1f8ea0d22a9cF, [0x3cade829b69b30436629ac0c2494d475211ba6f7e00e192a920653ba00b7db36, 0x553728bcacf78928f84c20141df3927eba4e76846d67db8d354a111619501a6b, 0x354b6793f25222186de8d3c9ca1e444e71a6d7b7db276bf1aa50b95b8d47cb65, 0x5bf33c43674b2bc7452acca8d971ff8a84ccee5fbce29b9d4b75f8f895aa52c2], [2, 2, 2, 2], 0x353137446f776e)",
        "0x",
        "5000000"
      ],
      "transaction": {
        "from": "0x1aa44c933a6718a4bc44064f0067a853c34be9b0",
        "to": "0xf0a2a229f1a00a3ada30ecc279cfba836de115b0",
        "gas": "0xc7639",
        "value": "0x0",
        "input": "0x30229a130000000000000000000000000000000000000000000000000000000000000060000000000000000000000000000000000000000000000000000000000000026000000000000000000000000000000000000000000000000000000000004c4b400000000000000000000000009f878c58969755afd93a381168e1f8ea0d22a9cf0000000000000000000000000000000000000000000000000000000000000080000000000000000000000000000000000000000000000000000000000000012000000000000000000000000000000000000000000000000000000000000001c000000000000000000000000000000000000000000000000000000000000000043cade829b69b30436629ac0c2494d475211ba6f7e00e192a920653ba00b7db36553728bcacf78928f84c20141df3927eba4e76846d67db8d354a111619501a6b354b6793f25222186de8d3c9ca1e444e71a6d7b7db276bf1aa50b95b8d47cb655bf33c43674b2bc7452acca8d971ff8a84ccee5fbce29b9d4b75f8f895aa52c2000000000000000000000000000000000000000000000000000000000000000400000000000000000000000000000000000000000000000000000000000000020000000000000000000000000000000000000000000000000000000000000002000000000000000000000000000000000000000000000000000000000000000200000000000000000000000000000000000000000000000000000000000000020000000000000000000000000000000000000000000000000000000000000007353137446f776e000000000000000000000000000000000000000000000000000000000000000000000000000000000000000000000000000000000000000000",
        "nonce": "0x4f",
        "chainId": "0x89"
      },
      "additionalContracts": [
        {
          "transactionType": "CREATE2",
          "address": "0x96d2577a1b5208147b3e592e5a19282a56f61c93",
          "initCode": "0x61036d3d81600a3d39f3363d3d373d3d3d363d739f878c58969755afd93a381168e1f8ea0d22a9cf5af43d82803e903d91602b57fd5bf30000000000000000000000000000000000000000000000000000000000000020000000000000000000000000000000000000000000000000000000000000010000000000000000000000000000000000000000000000000000000000000001a0000000000000000000000000000000000000000000000000000000000000024000000000000000000000000000000000000000000000000000000000000002e0000000000000000000000000f0a2a229f1a00a3ada30ecc279cfba836de115b00000000000000000000000004d97dcd97ec945f40cf65f87097ace5ea04760450000000000000000000000002791bca1f2de4661ed88a30c99a7a9449aa841740000000000000000000000009f878c58969755afd93a381168e1f8ea0d22a9cf0000000000000000000000000000000000000000000000000000000000000004274f483d89eae851d2dd7b8510d21a8b160bf24c4086684b5ffb997d9c84973d35d451cc82492f4ab9d2489892038bfe00ce089d310f513bd95d5755fa75851f55525a430e83ffbdb1b501cfde45aaadbe93869da7cd596ff6249f452bd7c0bb7bfc2a104e5c430be513e7d7d4a9792b6df8c227f4df2c741542b1942a1605d100000000000000000000000000000000000000000000000000000000000000043cade829b69b30436629ac0c2494d475211ba6f7e00e192a920653ba00b7db36553728bcacf78928f84c20141df3927eba4e76846d67db8d354a111619501a6b354b6793f25222186de8d3c9ca1e444e71a6d7b7db276bf1aa50b95b8d47cb655bf33c43674b2bc7452acca8d971ff8a84ccee5fbce29b9d4b75f8f895aa52c2000000000000000000000000000000000000000000000000000000000000000400000000000000000000000000000000000000000000000000000000000000020000000000000000000000000000000000000000000000000000000000000002000000000000000000000000000000000000000000000000000000000000000200000000000000000000000000000000000000000000000000000000000000020000000000000000000000000000000000000000000000000000000000000007353137446f776e00000000000000000000000000000000000000000000000000"
        }
      ],
      "isFixedGasLimit": false
    }
  ],
  "receipts": [
    {
      "status": "0x1",
      "cumulativeGasUsed": "0x6641d4",
      "logs": [
        {
          "address": "0x2791bca1f2de4661ed88a30c99a7a9449aa84174",
          "topics": [
            "0x8c5be1e5ebec7d5bd14f71427d1e84f3dd0314c0f7b2291e5b200ac8c7c3b925",
            "0x0000000000000000000000001aa44c933a6718a4bc44064f0067a853c34be9b0",
            "0x0000000000000000000000004d97dcd97ec945f40cf65f87097ace5ea0476045"
          ],
          "data": "0xffffffffffffffffffffffffffffffffffffffffffffffffffffffffffffffff",
          "blockHash": "0xeabf7478970b38238b6358c6776bc163d8e08f1ddafae82f92f66c17f321e605",
          "blockNumber": "0x443e77c",
          "transactionHash": "0xcb26e09f8ddebdce79d85ad4b5674bb3f3da033c2ed022124c7a8c4b120ad1e3",
          "transactionIndex": "0x2d",
          "logIndex": "0x96",
          "removed": false
        },
        {
          "address": "0x0000000000000000000000000000000000001010",
          "topics": [
            "0x4dfe1bbbcf077ddc3e01291eea2d5c70c2b422b415d95645b9adcfd678cb1d63",
            "0x0000000000000000000000000000000000000000000000000000000000001010",
            "0x0000000000000000000000001aa44c933a6718a4bc44064f0067a853c34be9b0",
            "0x00000000000000000000000025b9fc2ed95bbaa9c030e57c860545a17694f90d"
          ],
          "data": "0x0000000000000000000000000000000000000000000000000004681e7949580000000000000000000000000000000000000000000000000074a9545f3b7e04710000000000000000000000000000000000000000000003fc6c53a18dd8c35c0f00000000000000000000000000000000000000000000000074a4ec40c234ac710000000000000000000000000000000000000000000003fc6c5809ac520cb40f",
          "blockHash": "0xeabf7478970b38238b6358c6776bc163d8e08f1ddafae82f92f66c17f321e605",
          "blockNumber": "0x443e77c",
          "transactionHash": "0xcb26e09f8ddebdce79d85ad4b5674bb3f3da033c2ed022124c7a8c4b120ad1e3",
          "transactionIndex": "0x2d",
          "logIndex": "0x97",
          "removed": false
        }
      ],
      "logsBloom": "0x00000000000020000000000000000000000000000000000000000000000000000000000000000000000000000000000000008000000000000000000000200000000000000000000000000000000200800000000000000000000100000000000000000000000000000000000000000000000000000000000180000000000000000001000000000000000000001000000000000080000000000000000000000000220000000400000000000080000001000000200000000000000000000000004000000000000000000001000000000000000000000000000000110000000000000010008000000000000000000000000000000000000000000000000000100000",
      "type": "0x2",
      "transactionHash": "0xcb26e09f8ddebdce79d85ad4b5674bb3f3da033c2ed022124c7a8c4b120ad1e3",
      "transactionIndex": "0x2d",
      "blockHash": "0xeabf7478970b38238b6358c6776bc163d8e08f1ddafae82f92f66c17f321e605",
      "blockNumber": "0x443e77c",
      "gasUsed": "0xa182",
      "effectiveGasPrice": "0x6fc23afeb",
      "from": "0x1aa44c933a6718a4bc44064f0067a853c34be9b0",
      "to": "0x2791bca1f2de4661ed88a30c99a7a9449aa84174",
      "contractAddress": null
    },
    {
      "status": "0x1",
      "cumulativeGasUsed": "0x66f580",
      "logs": [
        {
          "address": "0x4d97dcd97ec945f40cf65f87097ace5ea0476045",
          "topics": [
            "0x17307eab39ab6107e8899845ad3d59bd9653f200f220920489ca2b5937696c31",
            "0x0000000000000000000000001aa44c933a6718a4bc44064f0067a853c34be9b0",
            "0x000000000000000000000000f0a2a229f1a00a3ada30ecc279cfba836de115b0"
          ],
          "data": "0x0000000000000000000000000000000000000000000000000000000000000001",
          "blockHash": "0xeabf7478970b38238b6358c6776bc163d8e08f1ddafae82f92f66c17f321e605",
          "blockNumber": "0x443e77c",
          "transactionHash": "0xadb1653a3f6749f1612d4d82ea4f0c3b878d20737df3a782d0be3e30eece105d",
          "transactionIndex": "0x2e",
          "logIndex": "0x98",
          "removed": false
        },
        {
          "address": "0x0000000000000000000000000000000000001010",
          "topics": [
            "0x4dfe1bbbcf077ddc3e01291eea2d5c70c2b422b415d95645b9adcfd678cb1d63",
            "0x0000000000000000000000000000000000000000000000000000000000001010",
            "0x0000000000000000000000001aa44c933a6718a4bc44064f0067a853c34be9b0",
            "0x00000000000000000000000025b9fc2ed95bbaa9c030e57c860545a17694f90d"
          ],
          "data": "0x0000000000000000000000000000000000000000000000000004e6fe593b900000000000000000000000000000000000000000000000000074a4ec40bfbbe41b0000000000000000000000000000000000000000000003fc6c5809ac520cb40f00000000000000000000000000000000000000000000000074a005426680541b0000000000000000000000000000000000000000000003fc6c5cf0aaab48440f",
          "blockHash": "0xeabf7478970b38238b6358c6776bc163d8e08f1ddafae82f92f66c17f321e605",
          "blockNumber": "0x443e77c",
          "transactionHash": "0xadb1653a3f6749f1612d4d82ea4f0c3b878d20737df3a782d0be3e30eece105d",
          "transactionIndex": "0x2e",
          "logIndex": "0x99",
          "removed": false
        }
      ],
      "logsBloom": "0x00000000000020000000000000000000000000000000000000000000000040000000000000000000000000000000000000008000000000000000000000000000000000000000000000000000000000800000000000000000000100000000000002000000000000000000000000000000000000000000000080000000000000000000000000000000000000001000000008000080000000000000000000000000208000000000000000000080000000000000200000000000000000000000004000000000000000000001000001000000000004000000000000110000000000000000200800000000040000000000000000000000000000000000000000100000",
      "type": "0x2",
      "transactionHash": "0xadb1653a3f6749f1612d4d82ea4f0c3b878d20737df3a782d0be3e30eece105d",
      "transactionIndex": "0x2e",
      "blockHash": "0xeabf7478970b38238b6358c6776bc163d8e08f1ddafae82f92f66c17f321e605",
      "blockNumber": "0x443e77c",
      "gasUsed": "0xb3ac",
      "effectiveGasPrice": "0x6fc23afeb",
      "from": "0x1aa44c933a6718a4bc44064f0067a853c34be9b0",
      "to": "0x4d97dcd97ec945f40cf65f87097ace5ea0476045",
      "contractAddress": null
    },
    {
      "status": "0x1",
      "cumulativeGasUsed": "0x6f9903",
      "logs": [
        {
          "address": "0xf0a2a229f1a00a3ada30ecc279cfba836de115b0",
          "topics": [
            "0x750538103f64f9b5e2db539e5c1f7552a63aa9e68e07396b2b4b58f7cfef18ab",
            "0x0000000000000000000000009ca154ba8a0a245aabdab3bf445547862690ccf6"
          ],
          "data": "0x000000000000000000000000000000000000000000000000000000000000004000000000000000000000000000000000000000000000000000000000000000e00000000000000000000000000000000000000000000000000000000000000004a3d592d6002f1d275821d74d4dc1b736e054edb4f4f503fc7daf64433f3a8783b765739b68f91a6b8343c453dd500db1fd1211730bcfa6c0cf8dd2458871a3efbe87dd6f32f14ea56a7a67271dc7cba3e29a480106e24a00f7f05a055a397145f3eb7f4cd29dc80955819251ae49aae29ec5d4a4a9f1b19b1bfb87edd552069000000000000000000000000000000000000000000000000000000000000000053531375570000000000000000000000000000000000000000000000000000000",
          "blockHash": "0xeabf7478970b38238b6358c6776bc163d8e08f1ddafae82f92f66c17f321e605",
          "blockNumber": "0x443e77c",
          "transactionHash": "0xe50de03c9100544e7479bbd765cc29150dec8801ebc613cf57ac6ac016646441",
          "transactionIndex": "0x2f",
          "logIndex": "0x9a",
          "removed": false
        },
        {
          "address": "0x4d97dcd97ec945f40cf65f87097ace5ea0476045",
          "topics": [
            "0x4a39dc06d4c0dbc64b70af90fd698a233a518aa5d07e595d983b8c0526c8f7fb",
            "0x000000000000000000000000f0a2a229f1a00a3ada30ecc279cfba836de115b0",
            "0x0000000000000000000000001aa44c933a6718a4bc44064f0067a853c34be9b0",
            "0x000000000000000000000000f0a2a229f1a00a3ada30ecc279cfba836de115b0"
          ],
          "data": "0x000000000000000000000000000000000000000000000000000000000000004000000000000000000000000000000000000000000000000000000000000000e00000000000000000000000000000000000000000000000000000000000000004a3d592d6002f1d275821d74d4dc1b736e054edb4f4f503fc7daf64433f3a8783b765739b68f91a6b8343c453dd500db1fd1211730bcfa6c0cf8dd2458871a3efbe87dd6f32f14ea56a7a67271dc7cba3e29a480106e24a00f7f05a055a397145f3eb7f4cd29dc80955819251ae49aae29ec5d4a4a9f1b19b1bfb87edd5520690000000000000000000000000000000000000000000000000000000000000000400000000000000000000000000000000000000000000000000000000004c4b4000000000000000000000000000000000000000000000000000000000004c4b4000000000000000000000000000000000000000000000000000000000004c4b4000000000000000000000000000000000000000000000000000000000004c4b40",
          "blockHash": "0xeabf7478970b38238b6358c6776bc163d8e08f1ddafae82f92f66c17f321e605",
          "blockNumber": "0x443e77c",
          "transactionHash": "0xe50de03c9100544e7479bbd765cc29150dec8801ebc613cf57ac6ac016646441",
          "transactionIndex": "0x2f",
          "logIndex": "0x9b",
          "removed": false
        },
        {
          "address": "0x4d97dcd97ec945f40cf65f87097ace5ea0476045",
          "topics": [
            "0x17307eab39ab6107e8899845ad3d59bd9653f200f220920489ca2b5937696c31",
            "0x000000000000000000000000f0a2a229f1a00a3ada30ecc279cfba836de115b0",
            "0x0000000000000000000000009ca154ba8a0a245aabdab3bf445547862690ccf6"
          ],
          "data": "0x0000000000000000000000000000000000000000000000000000000000000001",
          "blockHash": "0xeabf7478970b38238b6358c6776bc163d8e08f1ddafae82f92f66c17f321e605",
          "blockNumber": "0x443e77c",
          "transactionHash": "0xe50de03c9100544e7479bbd765cc29150dec8801ebc613cf57ac6ac016646441",
          "transactionIndex": "0x2f",
          "logIndex": "0x9c",
          "removed": false
        },
        {
          "address": "0x9ca154ba8a0a245aabdab3bf445547862690ccf6",
          "topics": [
            "0xddf252ad1be2c89b69c2b068fc378daa952ba7f163c4a11628f55a4df523b3ef",
            "0x0000000000000000000000000000000000000000000000000000000000000000",
            "0x000000000000000000000000f0a2a229f1a00a3ada30ecc279cfba836de115b0"
          ],
          "data": "0x00000000000000000000000000000000000000000000000000000000004c4b40",
          "blockHash": "0xeabf7478970b38238b6358c6776bc163d8e08f1ddafae82f92f66c17f321e605",
          "blockNumber": "0x443e77c",
          "transactionHash": "0xe50de03c9100544e7479bbd765cc29150dec8801ebc613cf57ac6ac016646441",
          "transactionIndex": "0x2f",
          "logIndex": "0x9d",
          "removed": false
        },
        {
          "address": "0x4d97dcd97ec945f40cf65f87097ace5ea0476045",
          "topics": [
            "0x4a39dc06d4c0dbc64b70af90fd698a233a518aa5d07e595d983b8c0526c8f7fb",
            "0x0000000000000000000000009ca154ba8a0a245aabdab3bf445547862690ccf6",
            "0x000000000000000000000000f0a2a229f1a00a3ada30ecc279cfba836de115b0",
            "0x0000000000000000000000009ca154ba8a0a245aabdab3bf445547862690ccf6"
          ],
          "data": "0x000000000000000000000000000000000000000000000000000000000000004000000000000000000000000000000000000000000000000000000000000000e00000000000000000000000000000000000000000000000000000000000000004a3d592d6002f1d275821d74d4dc1b736e054edb4f4f503fc7daf64433f3a8783b765739b68f91a6b8343c453dd500db1fd1211730bcfa6c0cf8dd2458871a3efbe87dd6f32f14ea56a7a67271dc7cba3e29a480106e24a00f7f05a055a397145f3eb7f4cd29dc80955819251ae49aae29ec5d4a4a9f1b19b1bfb87edd5520690000000000000000000000000000000000000000000000000000000000000000400000000000000000000000000000000000000000000000000000000004c4b4000000000000000000000000000000000000000000000000000000000004c4b4000000000000000000000000000000000000000000000000000000000004c4b4000000000000000000000000000000000000000000000000000000000004c4b40",
          "blockHash": "0xeabf7478970b38238b6358c6776bc163d8e08f1ddafae82f92f66c17f321e605",
          "blockNumber": "0x443e77c",
          "transactionHash": "0xe50de03c9100544e7479bbd765cc29150dec8801ebc613cf57ac6ac016646441",
          "transactionIndex": "0x2f",
          "logIndex": "0x9e",
          "removed": false
        },
        {
          "address": "0x9ca154ba8a0a245aabdab3bf445547862690ccf6",
          "topics": [
            "0xddf252ad1be2c89b69c2b068fc378daa952ba7f163c4a11628f55a4df523b3ef",
            "0x000000000000000000000000f0a2a229f1a00a3ada30ecc279cfba836de115b0",
            "0x0000000000000000000000001aa44c933a6718a4bc44064f0067a853c34be9b0"
          ],
          "data": "0x00000000000000000000000000000000000000000000000000000000004c4b40",
          "blockHash": "0xeabf7478970b38238b6358c6776bc163d8e08f1ddafae82f92f66c17f321e605",
          "blockNumber": "0x443e77c",
          "transactionHash": "0xe50de03c9100544e7479bbd765cc29150dec8801ebc613cf57ac6ac016646441",
          "transactionIndex": "0x2f",
          "logIndex": "0x9f",
          "removed": false
        },
        {
          "address": "0x0000000000000000000000000000000000001010",
          "topics": [
            "0x4dfe1bbbcf077ddc3e01291eea2d5c70c2b422b415d95645b9adcfd678cb1d63",
            "0x0000000000000000000000000000000000000000000000000000000000001010",
            "0x0000000000000000000000001aa44c933a6718a4bc44064f0067a853c34be9b0",
            "0x00000000000000000000000025b9fc2ed95bbaa9c030e57c860545a17694f90d"
          ],
          "data": "0x000000000000000000000000000000000000000000000000003c573b1cc5040000000000000000000000000000000000000000000000000074a0054263c061370000000000000000000000000000000000000000000003fc6c5cf0aaab48440f0000000000000000000000000000000000000000000000007463ae0746fb5d370000000000000000000000000000000000000000000003fc6c9947e5c80d480f",
          "blockHash": "0xeabf7478970b38238b6358c6776bc163d8e08f1ddafae82f92f66c17f321e605",
          "blockNumber": "0x443e77c",
          "transactionHash": "0xe50de03c9100544e7479bbd765cc29150dec8801ebc613cf57ac6ac016646441",
          "transactionIndex": "0x2f",
          "logIndex": "0xa0",
          "removed": false
        }
      ],
      "logsBloom": "0x0000000000002000000000000000000000000000000000000000000000004000000000000000000000000000000000009000800000000000000000000000000000000000000000000000000800000080000000000000000000010000000000000200200002000000000000000000080000000000080000018400001000000000000000000000000000000000100000000800108000001080000000000000000020a000000000000000000080000000000000200000000000000000000080004000000002000000000001000001000000000404000200000000110000000820000000200800000000040000000000000000000000000000000000000002100000",
      "type": "0x2",
      "transactionHash": "0xe50de03c9100544e7479bbd765cc29150dec8801ebc613cf57ac6ac016646441",
      "transactionIndex": "0x2f",
      "blockHash": "0xeabf7478970b38238b6358c6776bc163d8e08f1ddafae82f92f66c17f321e605",
      "blockNumber": "0x443e77c",
      "gasUsed": "0x8a383",
      "effectiveGasPrice": "0x6fc23afeb",
      "from": "0x1aa44c933a6718a4bc44064f0067a853c34be9b0",
      "to": "0xf0a2a229f1a00a3ada30ecc279cfba836de115b0",
      "contractAddress": null
    },
    {
      "status": "0x1",
      "cumulativeGasUsed": "0x781e5d",
      "logs": [
        {
          "address": "0xf0a2a229f1a00a3ada30ecc279cfba836de115b0",
          "topics": [
            "0x750538103f64f9b5e2db539e5c1f7552a63aa9e68e07396b2b4b58f7cfef18ab",
            "0x00000000000000000000000096d2577a1b5208147b3e592e5a19282a56f61c93"
          ],
          "data": "0x000000000000000000000000000000000000000000000000000000000000004000000000000000000000000000000000000000000000000000000000000000e00000000000000000000000000000000000000000000000000000000000000004274f483d89eae851d2dd7b8510d21a8b160bf24c4086684b5ffb997d9c84973d35d451cc82492f4ab9d2489892038bfe00ce089d310f513bd95d5755fa75851f55525a430e83ffbdb1b501cfde45aaadbe93869da7cd596ff6249f452bd7c0bb7bfc2a104e5c430be513e7d7d4a9792b6df8c227f4df2c741542b1942a1605d10000000000000000000000000000000000000000000000000000000000000007353137446f776e00000000000000000000000000000000000000000000000000",
          "blockHash": "0xeabf7478970b38238b6358c6776bc163d8e08f1ddafae82f92f66c17f321e605",
          "blockNumber": "0x443e77c",
          "transactionHash": "0x02e36e70b27630c67888e70f80a58c0d75e50f69497f3996870a5b95186744ce",
          "transactionIndex": "0x30",
          "logIndex": "0xa1",
          "removed": false
        },
        {
          "address": "0x4d97dcd97ec945f40cf65f87097ace5ea0476045",
          "topics": [
            "0x4a39dc06d4c0dbc64b70af90fd698a233a518aa5d07e595d983b8c0526c8f7fb",
            "0x000000000000000000000000f0a2a229f1a00a3ada30ecc279cfba836de115b0",
            "0x0000000000000000000000001aa44c933a6718a4bc44064f0067a853c34be9b0",
            "0x000000000000000000000000f0a2a229f1a00a3ada30ecc279cfba836de115b0"
          ],
          "data": "0x000000000000000000000000000000000000000000000000000000000000004000000000000000000000000000000000000000000000000000000000000000e00000000000000000000000000000000000000000000000000000000000000004274f483d89eae851d2dd7b8510d21a8b160bf24c4086684b5ffb997d9c84973d35d451cc82492f4ab9d2489892038bfe00ce089d310f513bd95d5755fa75851f55525a430e83ffbdb1b501cfde45aaadbe93869da7cd596ff6249f452bd7c0bb7bfc2a104e5c430be513e7d7d4a9792b6df8c227f4df2c741542b1942a1605d1000000000000000000000000000000000000000000000000000000000000000400000000000000000000000000000000000000000000000000000000004c4b4000000000000000000000000000000000000000000000000000000000004c4b4000000000000000000000000000000000000000000000000000000000004c4b4000000000000000000000000000000000000000000000000000000000004c4b40",
          "blockHash": "0xeabf7478970b38238b6358c6776bc163d8e08f1ddafae82f92f66c17f321e605",
          "blockNumber": "0x443e77c",
          "transactionHash": "0x02e36e70b27630c67888e70f80a58c0d75e50f69497f3996870a5b95186744ce",
          "transactionIndex": "0x30",
          "logIndex": "0xa2",
          "removed": false
        },
        {
          "address": "0x4d97dcd97ec945f40cf65f87097ace5ea0476045",
          "topics": [
            "0x17307eab39ab6107e8899845ad3d59bd9653f200f220920489ca2b5937696c31",
            "0x000000000000000000000000f0a2a229f1a00a3ada30ecc279cfba836de115b0",
            "0x00000000000000000000000096d2577a1b5208147b3e592e5a19282a56f61c93"
          ],
          "data": "0x0000000000000000000000000000000000000000000000000000000000000001",
          "blockHash": "0xeabf7478970b38238b6358c6776bc163d8e08f1ddafae82f92f66c17f321e605",
          "blockNumber": "0x443e77c",
          "transactionHash": "0x02e36e70b27630c67888e70f80a58c0d75e50f69497f3996870a5b95186744ce",
          "transactionIndex": "0x30",
          "logIndex": "0xa3",
          "removed": false
        },
        {
          "address": "0x96d2577a1b5208147b3e592e5a19282a56f61c93",
          "topics": [
            "0xddf252ad1be2c89b69c2b068fc378daa952ba7f163c4a11628f55a4df523b3ef",
            "0x0000000000000000000000000000000000000000000000000000000000000000",
            "0x000000000000000000000000f0a2a229f1a00a3ada30ecc279cfba836de115b0"
          ],
          "data": "0x00000000000000000000000000000000000000000000000000000000004c4b40",
          "blockHash": "0xeabf7478970b38238b6358c6776bc163d8e08f1ddafae82f92f66c17f321e605",
          "blockNumber": "0x443e77c",
          "transactionHash": "0x02e36e70b27630c67888e70f80a58c0d75e50f69497f3996870a5b95186744ce",
          "transactionIndex": "0x30",
          "logIndex": "0xa4",
          "removed": false
        },
        {
          "address": "0x4d97dcd97ec945f40cf65f87097ace5ea0476045",
          "topics": [
            "0x4a39dc06d4c0dbc64b70af90fd698a233a518aa5d07e595d983b8c0526c8f7fb",
            "0x00000000000000000000000096d2577a1b5208147b3e592e5a19282a56f61c93",
            "0x000000000000000000000000f0a2a229f1a00a3ada30ecc279cfba836de115b0",
            "0x00000000000000000000000096d2577a1b5208147b3e592e5a19282a56f61c93"
          ],
          "data": "0x000000000000000000000000000000000000000000000000000000000000004000000000000000000000000000000000000000000000000000000000000000e00000000000000000000000000000000000000000000000000000000000000004274f483d89eae851d2dd7b8510d21a8b160bf24c4086684b5ffb997d9c84973d35d451cc82492f4ab9d2489892038bfe00ce089d310f513bd95d5755fa75851f55525a430e83ffbdb1b501cfde45aaadbe93869da7cd596ff6249f452bd7c0bb7bfc2a104e5c430be513e7d7d4a9792b6df8c227f4df2c741542b1942a1605d1000000000000000000000000000000000000000000000000000000000000000400000000000000000000000000000000000000000000000000000000004c4b4000000000000000000000000000000000000000000000000000000000004c4b4000000000000000000000000000000000000000000000000000000000004c4b4000000000000000000000000000000000000000000000000000000000004c4b40",
          "blockHash": "0xeabf7478970b38238b6358c6776bc163d8e08f1ddafae82f92f66c17f321e605",
          "blockNumber": "0x443e77c",
          "transactionHash": "0x02e36e70b27630c67888e70f80a58c0d75e50f69497f3996870a5b95186744ce",
          "transactionIndex": "0x30",
          "logIndex": "0xa5",
          "removed": false
        },
        {
          "address": "0x96d2577a1b5208147b3e592e5a19282a56f61c93",
          "topics": [
            "0xddf252ad1be2c89b69c2b068fc378daa952ba7f163c4a11628f55a4df523b3ef",
            "0x000000000000000000000000f0a2a229f1a00a3ada30ecc279cfba836de115b0",
            "0x0000000000000000000000001aa44c933a6718a4bc44064f0067a853c34be9b0"
          ],
          "data": "0x00000000000000000000000000000000000000000000000000000000004c4b40",
          "blockHash": "0xeabf7478970b38238b6358c6776bc163d8e08f1ddafae82f92f66c17f321e605",
          "blockNumber": "0x443e77c",
          "transactionHash": "0x02e36e70b27630c67888e70f80a58c0d75e50f69497f3996870a5b95186744ce",
          "transactionIndex": "0x30",
          "logIndex": "0xa6",
          "removed": false
        },
        {
          "address": "0x0000000000000000000000000000000000001010",
          "topics": [
            "0x4dfe1bbbcf077ddc3e01291eea2d5c70c2b422b415d95645b9adcfd678cb1d63",
            "0x0000000000000000000000000000000000000000000000000000000000001010",
            "0x0000000000000000000000001aa44c933a6718a4bc44064f0067a853c34be9b0",
            "0x00000000000000000000000025b9fc2ed95bbaa9c030e57c860545a17694f90d"
          ],
          "data": "0x000000000000000000000000000000000000000000000000003b84908ce678000000000000000000000000000000000000000000000000007463ae072522baf60000000000000000000000000000000000000000000003fc6c9947e5c80d480f00000000000000000000000000000000000000000000000074282976983c42f60000000000000000000000000000000000000000000003fc6cd4cc7654f3c00f",
          "blockHash": "0xeabf7478970b38238b6358c6776bc163d8e08f1ddafae82f92f66c17f321e605",
          "blockNumber": "0x443e77c",
          "transactionHash": "0x02e36e70b27630c67888e70f80a58c0d75e50f69497f3996870a5b95186744ce",
          "transactionIndex": "0x30",
          "logIndex": "0xa7",
          "removed": false
        }
      ],
      "logsBloom": "0x0000000000002000000000000000000000000000000000000000000000004000000008000000000000000000000000001000800000000000000000000000000000000000000000000000000800000080000000000000000000010000000000000220200002000000000000000000080000000000080000018000001000000000000000000000000000000000100000000800108000000000000000000000000020a000000000000000000080000001000000200000000000400000000080004000000002000000000001000001000000000404000000000000110000000020000000200800000000040000000000000000000000800000000000000002500000",
      "type": "0x2",
      "transactionHash": "0x02e36e70b27630c67888e70f80a58c0d75e50f69497f3996870a5b95186744ce",
      "transactionIndex": "0x30",
      "blockHash": "0xeabf7478970b38238b6358c6776bc163d8e08f1ddafae82f92f66c17f321e605",
      "blockNumber": "0x443e77c",
      "gasUsed": "0x8855a",
      "effectiveGasPrice": "0x6fc23afeb",
      "from": "0x1aa44c933a6718a4bc44064f0067a853c34be9b0",
      "to": "0xf0a2a229f1a00a3ada30ecc279cfba836de115b0",
      "contractAddress": null
    }
  ],
  "libraries": [],
  "pending": [],
  "returns": {},
  "timestamp": 1747338630,
  "chain": 137,
  "commit": "5e7219b"
}