{
  "transactions": [
    {
      "hash": "0x44ce0ebf4a021653665879f5423cee92391811fb319ced949fc5ce31dc22dd77",
      "transactionType": "CALL",
      "contractName": null,
      "contractAddress": "0x2791bca1f2de4661ed88a30c99a7a9449aa84174",
      "function": "approve(address,uint256)",
      "arguments": [
        "0x4D97DCd97eC945f40cF65F87097ACe5EA0476045",
        "115792089237316195423570985008687907853269984665640564039457584007913129639935"
      ],
      "transaction": {
        "from": "0x1aa44c933a6718a4bc44064f0067a853c34be9b0",
        "to": "0x2791bca1f2de4661ed88a30c99a7a9449aa84174",
        "gas": "0xdc35",
        "value": "0x0",
        "input": "0x095ea7b30000000000000000000000004d97dcd97ec945f40cf65f87097ace5ea0476045ffffffffffffffffffffffffffffffffffffffffffffffffffffffffffffffff",
        "nonce": "0x57",
        "chainId": "0x89"
      },
      "additionalContracts": [],
      "isFixedGasLimit": false
    },
    {
      "hash": "0xd6e8b4ddfce6339c9206299af78c49c349d52b4e3887a97a0df70104957f6943",
      "transactionType": "CALL",
      "contractName": null,
      "contractAddress": "0x4d97dcd97ec945f40cf65f87097ace5ea0476045",
      "function": "setApprovalForAll(address,bool)",
      "arguments": [
        "0x934ED1a863BB08d68b74939cF4D8ad644AbC1d85",
        "true"
      ],
      "transaction": {
        "from": "0x1aa44c933a6718a4bc44064f0067a853c34be9b0",
        "to": "0x4d97dcd97ec945f40cf65f87097ace5ea0476045",
        "gas": "0xf82b",
        "value": "0x0",
        "input": "0xa22cb465000000000000000000000000934ed1a863bb08d68b74939cf4d8ad644abc1d850000000000000000000000000000000000000000000000000000000000000001",
        "nonce": "0x58",
        "chainId": "0x89"
      },
      "additionalContracts": [],
      "isFixedGasLimit": false
    },
    {
      "hash": "0x9044f7e8594275f78a4a379c44ad75c7a721b3de207ed321f1043710d2d22e0e",
      "transactionType": "CALL",
      "contractName": null,
      "contractAddress": "0x934ed1a863bb08d68b74939cf4d8ad644abc1d85",
      "function": "createIndex((address,bytes32[],uint256[],bytes),bytes,uint256)",
      "arguments": [
        "(0x70f7f2299B254e2E53ae7D67eb85d7bBE10CaDde, [0x3cade829b69b30436629ac0c2494d475211ba6f7e00e192a920653ba00b7db36, 0x553728bcacf78928f84c20141df3927eba4e76846d67db8d354a111619501a6b, 0x354b6793f25222186de8d3c9ca1e444e71a6d7b7db276bf1aa50b95b8d47cb65, 0x5bf33c43674b2bc7452acca8d971ff8a84ccee5fbce29b9d4b75f8f895aa52c2], [1, 1, 1, 1], 0x3531375570)",
        "0x",
        "5000000"
      ],
      "transaction": {
        "from": "0x1aa44c933a6718a4bc44064f0067a853c34be9b0",
        "to": "0x934ed1a863bb08d68b74939cf4d8ad644abc1d85",
        "gas": "0xc0278",
        "value": "0x0",
        "input": "0x30229a130000000000000000000000000000000000000000000000000000000000000060000000000000000000000000000000000000000000000000000000000000026000000000000000000000000000000000000000000000000000000000004c4b4000000000000000000000000070f7f2299b254e2e53ae7d67eb85d7bbe10cadde0000000000000000000000000000000000000000000000000000000000000080000000000000000000000000000000000000000000000000000000000000012000000000000000000000000000000000000000000000000000000000000001c000000000000000000000000000000000000000000000000000000000000000043cade829b69b30436629ac0c2494d475211ba6f7e00e192a920653ba00b7db36553728bcacf78928f84c20141df3927eba4e76846d67db8d354a111619501a6b354b6793f25222186de8d3c9ca1e444e71a6d7b7db276bf1aa50b95b8d47cb655bf33c43674b2bc7452acca8d971ff8a84ccee5fbce29b9d4b75f8f895aa52c200000000000000000000000000000000000000000000000000000000000000040000000000000000000000000000000000000000000000000000000000000001000000000000000000000000000000000000000000000000000000000000000100000000000000000000000000000000000000000000000000000000000000010000000000000000000000000000000000000000000000000000000000000001000000000000000000000000000000000000000000000000000000000000000535313755700000000000000000000000000000000000000000000000000000000000000000000000000000000000000000000000000000000000000000000000",
        "nonce": "0x59",
        "chainId": "0x89"
      },
      "additionalContracts": [
        {
          "transactionType": "CREATE2",
          "address": "0x9a3a8fad75af102201a2cffbefc3443b3497420f",
          "initCode": "0x61036d3d81600a3d39f3363d3d373d3d3d363d7370f7f2299b254e2e53ae7d67eb85d7bbe10cadde5af43d82803e903d91602b57fd5bf30000000000000000000000000000000000000000000000000000000000000020000000000000000000000000000000000000000000000000000000000000010000000000000000000000000000000000000000000000000000000000000001a0000000000000000000000000000000000000000000000000000000000000024000000000000000000000000000000000000000000000000000000000000002e0000000000000000000000000934ed1a863bb08d68b74939cf4d8ad644abc1d850000000000000000000000004d97dcd97ec945f40cf65f87097ace5ea04760450000000000000000000000002791bca1f2de4661ed88a30c99a7a9449aa8417400000000000000000000000070f7f2299b254e2e53ae7d67eb85d7bbe10cadde0000000000000000000000000000000000000000000000000000000000000004a3d592d6002f1d275821d74d4dc1b736e054edb4f4f503fc7daf64433f3a8783b765739b68f91a6b8343c453dd500db1fd1211730bcfa6c0cf8dd2458871a3efbe87dd6f32f14ea56a7a67271dc7cba3e29a480106e24a00f7f05a055a397145f3eb7f4cd29dc80955819251ae49aae29ec5d4a4a9f1b19b1bfb87edd552069000000000000000000000000000000000000000000000000000000000000000043cade829b69b30436629ac0c2494d475211ba6f7e00e192a920653ba00b7db36553728bcacf78928f84c20141df3927eba4e76846d67db8d354a111619501a6b354b6793f25222186de8d3c9ca1e444e71a6d7b7db276bf1aa50b95b8d47cb655bf33c43674b2bc7452acca8d971ff8a84ccee5fbce29b9d4b75f8f895aa52c20000000000000000000000000000000000000000000000000000000000000004000000000000000000000000000000000000000000000000000000000000000100000000000000000000000000000000000000000000000000000000000000010000000000000000000000000000000000000000000000000000000000000001000000000000000000000000000000000000000000000000000000000000000100000000000000000000000000000000000000000000000000000000000000053531375570000000000000000000000000000000000000000000000000000000"
        }
      ],
      "isFixedGasLimit": false
    },
    {
      "hash": "0xf8055fea878662fb29d9c48421e14e8154fdfba6c3ea81b1744846abf6093ad5",
      "transactionType": "CALL",
      "contractName": null,
      "contractAddress": "0x934ed1a863bb08d68b74939cf4d8ad644abc1d85",
      "function": "createIndex((address,bytes32[],uint256[],bytes),bytes,uint256)",
      "arguments": [
        "(0x70f7f2299B254e2E53ae7D67eb85d7bBE10CaDde, [0x3cade829b69b30436629ac0c2494d475211ba6f7e00e192a920653ba00b7db36, 0x553728bcacf78928f84c20141df3927eba4e76846d67db8d354a111619501a6b, 0x354b6793f25222186de8d3c9ca1e444e71a6d7b7db276bf1aa50b95b8d47cb65, 0x5bf33c43674b2bc7452acca8d971ff8a84ccee5fbce29b9d4b75f8f895aa52c2], [2, 2, 2, 2], 0x353137446f776e)",
        "0x",
        "5000000"
      ],
      "transaction": {
        "from": "0x1aa44c933a6718a4bc44064f0067a853c34be9b0",
        "to": "0x934ed1a863bb08d68b74939cf4d8ad644abc1d85",
        "gas": "0xbd8d0",
        "value": "0x0",
        "input": "0x30229a130000000000000000000000000000000000000000000000000000000000000060000000000000000000000000000000000000000000000000000000000000026000000000000000000000000000000000000000000000000000000000004c4b4000000000000000000000000070f7f2299b254e2e53ae7d67eb85d7bbe10cadde0000000000000000000000000000000000000000000000000000000000000080000000000000000000000000000000000000000000000000000000000000012000000000000000000000000000000000000000000000000000000000000001c000000000000000000000000000000000000000000000000000000000000000043cade829b69b30436629ac0c2494d475211ba6f7e00e192a920653ba00b7db36553728bcacf78928f84c20141df3927eba4e76846d67db8d354a111619501a6b354b6793f25222186de8d3c9ca1e444e71a6d7b7db276bf1aa50b95b8d47cb655bf33c43674b2bc7452acca8d971ff8a84ccee5fbce29b9d4b75f8f895aa52c2000000000000000000000000000000000000000000000000000000000000000400000000000000000000000000000000000000000000000000000000000000020000000000000000000000000000000000000000000000000000000000000002000000000000000000000000000000000000000000000000000000000000000200000000000000000000000000000000000000000000000000000000000000020000000000000000000000000000000000000000000000000000000000000007353137446f776e000000000000000000000000000000000000000000000000000000000000000000000000000000000000000000000000000000000000000000",
        "nonce": "0x5a",
        "chainId": "0x89"
      },
      "additionalContracts": [
        {
          "transactionType": "CREATE2",
          "address": "0xe07fb832185ff0e9c8bb13b69f778aed8de76c58",
          "initCode": "0x61036d3d81600a3d39f3363d3d373d3d3d363d7370f7f2299b254e2e53ae7d67eb85d7bbe10cadde5af43d82803e903d91602b57fd5bf30000000000000000000000000000000000000000000000000000000000000020000000000000000000000000000000000000000000000000000000000000010000000000000000000000000000000000000000000000000000000000000001a0000000000000000000000000000000000000000000000000000000000000024000000000000000000000000000000000000000000000000000000000000002e0000000000000000000000000934ed1a863bb08d68b74939cf4d8ad644abc1d850000000000000000000000004d97dcd97ec945f40cf65f87097ace5ea04760450000000000000000000000002791bca1f2de4661ed88a30c99a7a9449aa8417400000000000000000000000070f7f2299b254e2e53ae7d67eb85d7bbe10cadde0000000000000000000000000000000000000000000000000000000000000004274f483d89eae851d2dd7b8510d21a8b160bf24c4086684b5ffb997d9c84973d35d451cc82492f4ab9d2489892038bfe00ce089d310f513bd95d5755fa75851f55525a430e83ffbdb1b501cfde45aaadbe93869da7cd596ff6249f452bd7c0bb7bfc2a104e5c430be513e7d7d4a9792b6df8c227f4df2c741542b1942a1605d100000000000000000000000000000000000000000000000000000000000000043cade829b69b30436629ac0c2494d475211ba6f7e00e192a920653ba00b7db36553728bcacf78928f84c20141df3927eba4e76846d67db8d354a111619501a6b354b6793f25222186de8d3c9ca1e444e71a6d7b7db276bf1aa50b95b8d47cb655bf33c43674b2bc7452acca8d971ff8a84ccee5fbce29b9d4b75f8f895aa52c2000000000000000000000000000000000000000000000000000000000000000400000000000000000000000000000000000000000000000000000000000000020000000000000000000000000000000000000000000000000000000000000002000000000000000000000000000000000000000000000000000000000000000200000000000000000000000000000000000000000000000000000000000000020000000000000000000000000000000000000000000000000000000000000007353137446f776e00000000000000000000000000000000000000000000000000"
        }
      ],
      "isFixedGasLimit": false
    }
  ],
  "receipts": [
    {
      "status": "0x1",
      "cumulativeGasUsed": "0x7ddc77",
      "logs": [
        {
          "address": "0x2791bca1f2de4661ed88a30c99a7a9449aa84174",
          "topics": [
            "0x8c5be1e5ebec7d5bd14f71427d1e84f3dd0314c0f7b2291e5b200ac8c7c3b925",
            "0x0000000000000000000000001aa44c933a6718a4bc44064f0067a853c34be9b0",
            "0x0000000000000000000000004d97dcd97ec945f40cf65f87097ace5ea0476045"
          ],
          "data": "0xffffffffffffffffffffffffffffffffffffffffffffffffffffffffffffffff",
          "blockHash": "0x797a2f3a397b733cf40a93525751f0f4357d7ce2ff87640bc48f18b92b7eb6bd",
          "blockNumber": "0x443ea27",
          "transactionHash": "0x44ce0ebf4a021653665879f5423cee92391811fb319ced949fc5ce31dc22dd77",
          "transactionIndex": "0x2b",
          "logIndex": "0x2f2",
          "removed": false
        },
        {
          "address": "0x0000000000000000000000000000000000001010",
          "topics": [
            "0x4dfe1bbbcf077ddc3e01291eea2d5c70c2b422b415d95645b9adcfd678cb1d63",
            "0x0000000000000000000000000000000000000000000000000000000000001010",
            "0x0000000000000000000000001aa44c933a6718a4bc44064f0067a853c34be9b0",
            "0x000000000000000000000000b9ede6f94d192073d8eaf85f8db677133d483249"
          ],
          "data": "0x00000000000000000000000000000000000000000000000000040f19cfb2240000000000000000000000000000000000000000000000000071fd78f4c9b3003400000000000000000000000000000000000000000000015ba1b7a1ccb539fb8200000000000000000000000000000000000000000000000071f969dafa00dc3400000000000000000000000000000000000000000000015ba1bbb0e684ec1f82",
          "blockHash": "0x797a2f3a397b733cf40a93525751f0f4357d7ce2ff87640bc48f18b92b7eb6bd",
          "blockNumber": "0x443ea27",
          "transactionHash": "0x44ce0ebf4a021653665879f5423cee92391811fb319ced949fc5ce31dc22dd77",
          "transactionIndex": "0x2b",
          "logIndex": "0x2f3",
          "removed": false
        }
      ],
      "logsBloom": "0x00000000000020000000000000000000000000000000000000000000000000000000000000000000000000000000000000008000000000000000000000200000000000000000000000000000000200800000000000000000000100000000000000000000000000000000000000000000000000000000000180000000000100000001000000000000000000001000000000000000000000000000000000000000220000000400000000000080000001000000000000000000000000000000004000000000000000000001000000000000000000000000000000100000000000000010008000000000100000000000000000000000000000200000000000100000",
      "type": "0x2",
      "transactionHash": "0x44ce0ebf4a021653665879f5423cee92391811fb319ced949fc5ce31dc22dd77",
      "transactionIndex": "0x2b",
      "blockHash": "0x797a2f3a397b733cf40a93525751f0f4357d7ce2ff87640bc48f18b92b7eb6bd",
      "blockNumber": "0x443ea27",
      "gasUsed": "0x9692",
      "effectiveGasPrice": "0x6e6ae829e",
      "from": "0x1aa44c933a6718a4bc44064f0067a853c34be9b0",
      "to": "0x2791bca1f2de4661ed88a30c99a7a9449aa84174",
      "contractAddress": null
    },
    {
      "status": "0x1",
      "cumulativeGasUsed": "0x7e9023",
      "logs": [
        {
          "address": "0x4d97dcd97ec945f40cf65f87097ace5ea0476045",
          "topics": [
            "0x17307eab39ab6107e8899845ad3d59bd9653f200f220920489ca2b5937696c31",
            "0x0000000000000000000000001aa44c933a6718a4bc44064f0067a853c34be9b0",
            "0x000000000000000000000000934ed1a863bb08d68b74939cf4d8ad644abc1d85"
          ],
          "data": "0x0000000000000000000000000000000000000000000000000000000000000001",
          "blockHash": "0x797a2f3a397b733cf40a93525751f0f4357d7ce2ff87640bc48f18b92b7eb6bd",
          "blockNumber": "0x443ea27",
          "transactionHash": "0xd6e8b4ddfce6339c9206299af78c49c349d52b4e3887a97a0df70104957f6943",
          "transactionIndex": "0x2c",
          "logIndex": "0x2f4",
          "removed": false
        },
        {
          "address": "0x0000000000000000000000000000000000001010",
          "topics": [
            "0x4dfe1bbbcf077ddc3e01291eea2d5c70c2b422b415d95645b9adcfd678cb1d63",
            "0x0000000000000000000000000000000000000000000000000000000000001010",
            "0x0000000000000000000000001aa44c933a6718a4bc44064f0067a853c34be9b0",
            "0x000000000000000000000000b9ede6f94d192073d8eaf85f8db677133d483249"
          ],
          "data": "0x0000000000000000000000000000000000000000000000000004d7ef0225580000000000000000000000000000000000000000000000000071f969daf9a3ee1800000000000000000000000000000000000000000000015ba1bbb0e684ec1f8200000000000000000000000000000000000000000000000071f491ebf77e961800000000000000000000000000000000000000000000015ba1c088d587117782",
          "blockHash": "0x797a2f3a397b733cf40a93525751f0f4357d7ce2ff87640bc48f18b92b7eb6bd",
          "blockNumber": "0x443ea27",
          "transactionHash": "0xd6e8b4ddfce6339c9206299af78c49c349d52b4e3887a97a0df70104957f6943",
          "transactionIndex": "0x2c",
          "logIndex": "0x2f5",
          "removed": false
        }
      ],
      "logsBloom": "0x00000000000020000000000000000000000000000000000000000000000040000000000000000000000000000000000000008000000000000000000000000000000000000000000000000000000000800000000000000000000100000000000002000000000000000000000000000000000000000000000080000000000100000000000000000800000000001000000000000000000000000000000002000000200000000000000000000080000000000000000000000000000000000000004000000000000000000001000000000000000004000000000000100000000000000004200800000000140000000000000000000000000000200000000000100000",
      "type": "0x2",
      "transactionHash": "0xd6e8b4ddfce6339c9206299af78c49c349d52b4e3887a97a0df70104957f6943",
      "transactionIndex": "0x2c",
      "blockHash": "0x797a2f3a397b733cf40a93525751f0f4357d7ce2ff87640bc48f18b92b7eb6bd",
      "blockNumber": "0x443ea27",
      "gasUsed": "0xb3ac",
      "effectiveGasPrice": "0x6e6ae829e",
      "from": "0x1aa44c933a6718a4bc44064f0067a853c34be9b0",
      "to": "0x4d97dcd97ec945f40cf65f87097ace5ea0476045",
      "contractAddress": null
    },
    {
      "status": "0x1",
      "cumulativeGasUsed": "0x874200",
      "logs": [
        {
          "address": "0x934ed1a863bb08d68b74939cf4d8ad644abc1d85",
          "topics": [
            "0x750538103f64f9b5e2db539e5c1f7552a63aa9e68e07396b2b4b58f7cfef18ab",
            "0x0000000000000000000000009a3a8fad75af102201a2cffbefc3443b3497420f"
          ],
          "data": "0x000000000000000000000000000000000000000000000000000000000000004000000000000000000000000000000000000000000000000000000000000000e00000000000000000000000000000000000000000000000000000000000000004a3d592d6002f1d275821d74d4dc1b736e054edb4f4f503fc7daf64433f3a8783b765739b68f91a6b8343c453dd500db1fd1211730bcfa6c0cf8dd2458871a3efbe87dd6f32f14ea56a7a67271dc7cba3e29a480106e24a00f7f05a055a397145f3eb7f4cd29dc80955819251ae49aae29ec5d4a4a9f1b19b1bfb87edd552069000000000000000000000000000000000000000000000000000000000000000053531375570000000000000000000000000000000000000000000000000000000",
          "blockHash": "0x797a2f3a397b733cf40a93525751f0f4357d7ce2ff87640bc48f18b92b7eb6bd",
          "blockNumber": "0x443ea27",
          "transactionHash": "0x9044f7e8594275f78a4a379c44ad75c7a721b3de207ed321f1043710d2d22e0e",
          "transactionIndex": "0x2d",
          "logIndex": "0x2f6",
          "removed": false
        },
        {
          "address": "0x4d97dcd97ec945f40cf65f87097ace5ea0476045",
          "topics": [
            "0x4a39dc06d4c0dbc64b70af90fd698a233a518aa5d07e595d983b8c0526c8f7fb",
            "0x000000000000000000000000934ed1a863bb08d68b74939cf4d8ad644abc1d85",
            "0x0000000000000000000000001aa44c933a6718a4bc44064f0067a853c34be9b0",
            "0x000000000000000000000000934ed1a863bb08d68b74939cf4d8ad644abc1d85"
          ],
          "data": "0x000000000000000000000000000000000000000000000000000000000000004000000000000000000000000000000000000000000000000000000000000000e00000000000000000000000000000000000000000000000000000000000000004a3d592d6002f1d275821d74d4dc1b736e054edb4f4f503fc7daf64433f3a8783b765739b68f91a6b8343c453dd500db1fd1211730bcfa6c0cf8dd2458871a3efbe87dd6f32f14ea56a7a67271dc7cba3e29a480106e24a00f7f05a055a397145f3eb7f4cd29dc80955819251ae49aae29ec5d4a4a9f1b19b1bfb87edd5520690000000000000000000000000000000000000000000000000000000000000000400000000000000000000000000000000000000000000000000000000004c4b4000000000000000000000000000000000000000000000000000000000004c4b4000000000000000000000000000000000000000000000000000000000004c4b4000000000000000000000000000000000000000000000000000000000004c4b40",
          "blockHash": "0x797a2f3a397b733cf40a93525751f0f4357d7ce2ff87640bc48f18b92b7eb6bd",
          "blockNumber": "0x443ea27",
          "transactionHash": "0x9044f7e8594275f78a4a379c44ad75c7a721b3de207ed321f1043710d2d22e0e",
          "transactionIndex": "0x2d",
          "logIndex": "0x2f7",
          "removed": false
        },
        {
          "address": "0x4d97dcd97ec945f40cf65f87097ace5ea0476045",
          "topics": [
            "0x17307eab39ab6107e8899845ad3d59bd9653f200f220920489ca2b5937696c31",
            "0x000000000000000000000000934ed1a863bb08d68b74939cf4d8ad644abc1d85",
            "0x0000000000000000000000009a3a8fad75af102201a2cffbefc3443b3497420f"
          ],
          "data": "0x0000000000000000000000000000000000000000000000000000000000000001",
          "blockHash": "0x797a2f3a397b733cf40a93525751f0f4357d7ce2ff87640bc48f18b92b7eb6bd",
          "blockNumber": "0x443ea27",
          "transactionHash": "0x9044f7e8594275f78a4a379c44ad75c7a721b3de207ed321f1043710d2d22e0e",
          "transactionIndex": "0x2d",
          "logIndex": "0x2f8",
          "removed": false
        },
        {
          "address": "0x9a3a8fad75af102201a2cffbefc3443b3497420f",
          "topics": [
            "0xddf252ad1be2c89b69c2b068fc378daa952ba7f163c4a11628f55a4df523b3ef",
            "0x0000000000000000000000000000000000000000000000000000000000000000",
            "0x000000000000000000000000934ed1a863bb08d68b74939cf4d8ad644abc1d85"
          ],
          "data": "0x00000000000000000000000000000000000000000000000000000000004c4b40",
          "blockHash": "0x797a2f3a397b733cf40a93525751f0f4357d7ce2ff87640bc48f18b92b7eb6bd",
          "blockNumber": "0x443ea27",
          "transactionHash": "0x9044f7e8594275f78a4a379c44ad75c7a721b3de207ed321f1043710d2d22e0e",
          "transactionIndex": "0x2d",
          "logIndex": "0x2f9",
          "removed": false
        },
        {
          "address": "0x4d97dcd97ec945f40cf65f87097ace5ea0476045",
          "topics": [
            "0x4a39dc06d4c0dbc64b70af90fd698a233a518aa5d07e595d983b8c0526c8f7fb",
            "0x0000000000000000000000009a3a8fad75af102201a2cffbefc3443b3497420f",
            "0x000000000000000000000000934ed1a863bb08d68b74939cf4d8ad644abc1d85",
            "0x0000000000000000000000009a3a8fad75af102201a2cffbefc3443b3497420f"
          ],
          "data": "0x000000000000000000000000000000000000000000000000000000000000004000000000000000000000000000000000000000000000000000000000000000e00000000000000000000000000000000000000000000000000000000000000004a3d592d6002f1d275821d74d4dc1b736e054edb4f4f503fc7daf64433f3a8783b765739b68f91a6b8343c453dd500db1fd1211730bcfa6c0cf8dd2458871a3efbe87dd6f32f14ea56a7a67271dc7cba3e29a480106e24a00f7f05a055a397145f3eb7f4cd29dc80955819251ae49aae29ec5d4a4a9f1b19b1bfb87edd5520690000000000000000000000000000000000000000000000000000000000000000400000000000000000000000000000000000000000000000000000000004c4b4000000000000000000000000000000000000000000000000000000000004c4b4000000000000000000000000000000000000000000000000000000000004c4b4000000000000000000000000000000000000000000000000000000000004c4b40",
          "blockHash": "0x797a2f3a397b733cf40a93525751f0f4357d7ce2ff87640bc48f18b92b7eb6bd",
          "blockNumber": "0x443ea27",
          "transactionHash": "0x9044f7e8594275f78a4a379c44ad75c7a721b3de207ed321f1043710d2d22e0e",
          "transactionIndex": "0x2d",
          "logIndex": "0x2fa",
          "removed": false
        },
        {
          "address": "0x9a3a8fad75af102201a2cffbefc3443b3497420f",
          "topics": [
            "0xddf252ad1be2c89b69c2b068fc378daa952ba7f163c4a11628f55a4df523b3ef",
            "0x000000000000000000000000934ed1a863bb08d68b74939cf4d8ad644abc1d85",
            "0x0000000000000000000000001aa44c933a6718a4bc44064f0067a853c34be9b0"
          ],
          "data": "0x00000000000000000000000000000000000000000000000000000000004c4b40",
          "blockHash": "0x797a2f3a397b733cf40a93525751f0f4357d7ce2ff87640bc48f18b92b7eb6bd",
          "blockNumber": "0x443ea27",
          "transactionHash": "0x9044f7e8594275f78a4a379c44ad75c7a721b3de207ed321f1043710d2d22e0e",
          "transactionIndex": "0x2d",
          "logIndex": "0x2fb",
          "removed": false
        },
        {
          "address": "0x0000000000000000000000000000000000001010",
          "topics": [
            "0x4dfe1bbbcf077ddc3e01291eea2d5c70c2b422b415d95645b9adcfd678cb1d63",
            "0x0000000000000000000000000000000000000000000000000000000000001010",
            "0x0000000000000000000000001aa44c933a6718a4bc44064f0067a853c34be9b0",
            "0x000000000000000000000000b9ede6f94d192073d8eaf85f8db677133d483249"
          ],
          "data": "0x000000000000000000000000000000000000000000000000003c00e7dc883a0000000000000000000000000000000000000000000000000071f491ebf70fb1f000000000000000000000000000000000000000000000015ba1c088d58711778200000000000000000000000000000000000000000000000071b891041a8777f000000000000000000000000000000000000000000000015ba1fc89bd6399b182",
          "blockHash": "0x797a2f3a397b733cf40a93525751f0f4357d7ce2ff87640bc48f18b92b7eb6bd",
          "blockNumber": "0x443ea27",
          "transactionHash": "0x9044f7e8594275f78a4a379c44ad75c7a721b3de207ed321f1043710d2d22e0e",
          "transactionIndex": "0x2d",
          "logIndex": "0x2fc",
          "removed": false
        }
      ],
      "logsBloom": "0x00000000000020000000000000000000000000000000000000010000000040000000000000040000000000000000000010008000000000000000000000000000000000000000000000000008000000800000000000000000000100008000000002000000020000000000000000000800000000000800040180000010000100000100000000000800000000001000000000001000000000100000000002000000200000000000000000000080000000000000000000000000000000000000004004000002000000000001000000000000000404000000000000100000000020000004200800000000140000000000000000000000000000200000000002100004",
      "type": "0x2",
      "transactionHash": "0x9044f7e8594275f78a4a379c44ad75c7a721b3de207ed321f1043710d2d22e0e",
      "transactionIndex": "0x2d",
      "blockHash": "0x797a2f3a397b733cf40a93525751f0f4357d7ce2ff87640bc48f18b92b7eb6bd",
      "blockNumber": "0x443ea27",
      "gasUsed": "0x8b1dd",
      "effectiveGasPrice": "0x6e6ae829e",
      "from": "0x1aa44c933a6718a4bc44064f0067a853c34be9b0",
      "to": "0x934ed1a863bb08d68b74939cf4d8ad644abc1d85",
      "contractAddress": null
    },
    {
      "status": "0x1",
      "cumulativeGasUsed": "0xa90fdb",
      "logs": [
        {
          "address": "0x934ed1a863bb08d68b74939cf4d8ad644abc1d85",
          "topics": [
            "0x750538103f64f9b5e2db539e5c1f7552a63aa9e68e07396b2b4b58f7cfef18ab",
            "0x000000000000000000000000e07fb832185ff0e9c8bb13b69f778aed8de76c58"
          ],
          "data": "0x000000000000000000000000000000000000000000000000000000000000004000000000000000000000000000000000000000000000000000000000000000e00000000000000000000000000000000000000000000000000000000000000004274f483d89eae851d2dd7b8510d21a8b160bf24c4086684b5ffb997d9c84973d35d451cc82492f4ab9d2489892038bfe00ce089d310f513bd95d5755fa75851f55525a430e83ffbdb1b501cfde45aaadbe93869da7cd596ff6249f452bd7c0bb7bfc2a104e5c430be513e7d7d4a9792b6df8c227f4df2c741542b1942a1605d10000000000000000000000000000000000000000000000000000000000000007353137446f776e00000000000000000000000000000000000000000000000000",
          "blockHash": "0x797a2f3a397b733cf40a93525751f0f4357d7ce2ff87640bc48f18b92b7eb6bd",
          "blockNumber": "0x443ea27",
          "transactionHash": "0xf8055fea878662fb29d9c48421e14e8154fdfba6c3ea81b1744846abf6093ad5",
          "transactionIndex": "0x2f",
          "logIndex": "0x333",
          "removed": false
        },
        {
          "address": "0x4d97dcd97ec945f40cf65f87097ace5ea0476045",
          "topics": [
            "0x4a39dc06d4c0dbc64b70af90fd698a233a518aa5d07e595d983b8c0526c8f7fb",
            "0x000000000000000000000000934ed1a863bb08d68b74939cf4d8ad644abc1d85",
            "0x0000000000000000000000001aa44c933a6718a4bc44064f0067a853c34be9b0",
            "0x000000000000000000000000934ed1a863bb08d68b74939cf4d8ad644abc1d85"
          ],
          "data": "0x000000000000000000000000000000000000000000000000000000000000004000000000000000000000000000000000000000000000000000000000000000e00000000000000000000000000000000000000000000000000000000000000004274f483d89eae851d2dd7b8510d21a8b160bf24c4086684b5ffb997d9c84973d35d451cc82492f4ab9d2489892038bfe00ce089d310f513bd95d5755fa75851f55525a430e83ffbdb1b501cfde45aaadbe93869da7cd596ff6249f452bd7c0bb7bfc2a104e5c430be513e7d7d4a9792b6df8c227f4df2c741542b1942a1605d1000000000000000000000000000000000000000000000000000000000000000400000000000000000000000000000000000000000000000000000000004c4b4000000000000000000000000000000000000000000000000000000000004c4b4000000000000000000000000000000000000000000000000000000000004c4b4000000000000000000000000000000000000000000000000000000000004c4b40",
          "blockHash": "0x797a2f3a397b733cf40a93525751f0f4357d7ce2ff87640bc48f18b92b7eb6bd",
          "blockNumber": "0x443ea27",
          "transactionHash": "0xf8055fea878662fb29d9c48421e14e8154fdfba6c3ea81b1744846abf6093ad5",
          "transactionIndex": "0x2f",
          "logIndex": "0x334",
          "removed": false
        },
        {
          "address": "0x4d97dcd97ec945f40cf65f87097ace5ea0476045",
          "topics": [
            "0x17307eab39ab6107e8899845ad3d59bd9653f200f220920489ca2b5937696c31",
            "0x000000000000000000000000934ed1a863bb08d68b74939cf4d8ad644abc1d85",
            "0x000000000000000000000000e07fb832185ff0e9c8bb13b69f778aed8de76c58"
          ],
          "data": "0x0000000000000000000000000000000000000000000000000000000000000001",
          "blockHash": "0x797a2f3a397b733cf40a93525751f0f4357d7ce2ff87640bc48f18b92b7eb6bd",
          "blockNumber": "0x443ea27",
          "transactionHash": "0xf8055fea878662fb29d9c48421e14e8154fdfba6c3ea81b1744846abf6093ad5",
          "transactionIndex": "0x2f",
          "logIndex": "0x335",
          "removed": false
        },
        {
          "address": "0xe07fb832185ff0e9c8bb13b69f778aed8de76c58",
          "topics": [
            "0xddf252ad1be2c89b69c2b068fc378daa952ba7f163c4a11628f55a4df523b3ef",
            "0x0000000000000000000000000000000000000000000000000000000000000000",
            "0x000000000000000000000000934ed1a863bb08d68b74939cf4d8ad644abc1d85"
          ],
          "data": "0x00000000000000000000000000000000000000000000000000000000004c4b40",
          "blockHash": "0x797a2f3a397b733cf40a93525751f0f4357d7ce2ff87640bc48f18b92b7eb6bd",
          "blockNumber": "0x443ea27",
          "transactionHash": "0xf8055fea878662fb29d9c48421e14e8154fdfba6c3ea81b1744846abf6093ad5",
          "transactionIndex": "0x2f",
          "logIndex": "0x336",
          "removed": false
        },
        {
          "address": "0x4d97dcd97ec945f40cf65f87097ace5ea0476045",
          "topics": [
            "0x4a39dc06d4c0dbc64b70af90fd698a233a518aa5d07e595d983b8c0526c8f7fb",
            "0x000000000000000000000000e07fb832185ff0e9c8bb13b69f778aed8de76c58",
            "0x000000000000000000000000934ed1a863bb08d68b74939cf4d8ad644abc1d85",
            "0x000000000000000000000000e07fb832185ff0e9c8bb13b69f778aed8de76c58"
          ],
          "data": "0x000000000000000000000000000000000000000000000000000000000000004000000000000000000000000000000000000000000000000000000000000000e00000000000000000000000000000000000000000000000000000000000000004274f483d89eae851d2dd7b8510d21a8b160bf24c4086684b5ffb997d9c84973d35d451cc82492f4ab9d2489892038bfe00ce089d310f513bd95d5755fa75851f55525a430e83ffbdb1b501cfde45aaadbe93869da7cd596ff6249f452bd7c0bb7bfc2a104e5c430be513e7d7d4a9792b6df8c227f4df2c741542b1942a1605d1000000000000000000000000000000000000000000000000000000000000000400000000000000000000000000000000000000000000000000000000004c4b4000000000000000000000000000000000000000000000000000000000004c4b4000000000000000000000000000000000000000000000000000000000004c4b4000000000000000000000000000000000000000000000000000000000004c4b40",
          "blockHash": "0x797a2f3a397b733cf40a93525751f0f4357d7ce2ff87640bc48f18b92b7eb6bd",
          "blockNumber": "0x443ea27",
          "transactionHash": "0xf8055fea878662fb29d9c48421e14e8154fdfba6c3ea81b1744846abf6093ad5",
          "transactionIndex": "0x2f",
          "logIndex": "0x337",
          "removed": false
        },
        {
          "address": "0xe07fb832185ff0e9c8bb13b69f778aed8de76c58",
          "topics": [
            "0xddf252ad1be2c89b69c2b068fc378daa952ba7f163c4a11628f55a4df523b3ef",
            "0x000000000000000000000000934ed1a863bb08d68b74939cf4d8ad644abc1d85",
            "0x0000000000000000000000001aa44c933a6718a4bc44064f0067a853c34be9b0"
          ],
          "data": "0x00000000000000000000000000000000000000000000000000000000004c4b40",
          "blockHash": "0x797a2f3a397b733cf40a93525751f0f4357d7ce2ff87640bc48f18b92b7eb6bd",
          "blockNumber": "0x443ea27",
          "transactionHash": "0xf8055fea878662fb29d9c48421e14e8154fdfba6c3ea81b1744846abf6093ad5",
          "transactionIndex": "0x2f",
          "logIndex": "0x338",
          "removed": false
        },
        {
          "address": "0x0000000000000000000000000000000000001010",
          "topics": [
            "0x4dfe1bbbcf077ddc3e01291eea2d5c70c2b422b415d95645b9adcfd678cb1d63",
            "0x0000000000000000000000000000000000000000000000000000000000001010",
            "0x0000000000000000000000001aa44c933a6718a4bc44064f0067a853c34be9b0",
            "0x000000000000000000000000b9ede6f94d192073d8eaf85f8db677133d483249"
          ],
          "data": "0x000000000000000000000000000000000000000000000000003b30c47759680000000000000000000000000000000000000000000000000071b891041529b18a00000000000000000000000000000000000000000000015ba2aaa218c3a37f82000000000000000000000000000000000000000000000000717d603f9dd0498a00000000000000000000000000000000000000000000015ba2e5d2dd3afce782",
          "blockHash": "0x797a2f3a397b733cf40a93525751f0f4357d7ce2ff87640bc48f18b92b7eb6bd",
          "blockNumber": "0x443ea27",
          "transactionHash": "0xf8055fea878662fb29d9c48421e14e8154fdfba6c3ea81b1744846abf6093ad5",
          "transactionIndex": "0x2f",
          "logIndex": "0x339",
          "removed": false
        }
      ],
      "logsBloom": "0x00000000000020000000000000000000000000000000000000000000000040000000000000040000000000000000000010008000000000000000000200000000000000000000000000000008000000800000000000000000000100000000000002000000020000000000000000000800000000000800040180000010000100000000000000000800000000001000000000001000000000000000000002000000200000000000000000000080000000000000000000000000000000010000004000000002000880000001200000000000000404000008000000100000000020000004200800000000140000000000000000000000000000200000000002100000",
      "type": "0x2",
      "transactionHash": "0xf8055fea878662fb29d9c48421e14e8154fdfba6c3ea81b1744846abf6093ad5",
      "transactionIndex": "0x2f",
      "blockHash": "0x797a2f3a397b733cf40a93525751f0f4357d7ce2ff87640bc48f18b92b7eb6bd",
      "blockNumber": "0x443ea27",
      "gasUsed": "0x893b4",
      "effectiveGasPrice": "0x6e6ae829e",
      "from": "0x1aa44c933a6718a4bc44064f0067a853c34be9b0",
      "to": "0x934ed1a863bb08d68b74939cf4d8ad644abc1d85",
      "contractAddress": null
    }
  ],
  "libraries": [],
  "pending": [],
  "returns": {},
  "timestamp": 1747340081,
  "chain": 137,
  "commit": "5e7219b"
}