{
  "transactions": [
    {
      "hash": "0x1250360214bbc91e9d0407429c1b38f0501241892753d663383cd574ce19062d",
      "transactionType": "CALL",
      "contractName": null,
      "contractAddress": "0x2791bca1f2de4661ed88a30c99a7a9449aa84174",
      "function": "approve(address,uint256)",
      "arguments": [
        "0x4D97DCd97eC945f40cF65F87097ACe5EA0476045",
        "115792089237316195423570985008687907853269984665640564039457584007913129639935"
      ],
      "transaction": {
        "from": "0x1aa44c933a6718a4bc44064f0067a853c34be9b0",
        "to": "0x2791bca1f2de4661ed88a30c99a7a9449aa84174",
        "gas": "0xdc35",
        "value": "0x0",
        "input": "0x095ea7b30000000000000000000000004d97dcd97ec945f40cf65f87097ace5ea0476045ffffffffffffffffffffffffffffffffffffffffffffffffffffffffffffffff",
        "nonce": "0x6b",
        "chainId": "0x89"
      },
      "additionalContracts": [],
      "isFixedGasLimit": false
    },
    {
      "hash": "0xe0c34d0430c02c8277a4c7012b4359f62e70b43283c611991b1762c9d58921f9",
      "transactionType": "CALL",
      "contractName": null,
      "contractAddress": "0x4d97dcd97ec945f40cf65f87097ace5ea0476045",
      "function": "setApprovalForAll(address,bool)",
      "arguments": [
        "0x934ED1a863BB08d68b74939cF4D8ad644AbC1d85",
        "true"
      ],
      "transaction": {
        "from": "0x1aa44c933a6718a4bc44064f0067a853c34be9b0",
        "to": "0x4d97dcd97ec945f40cf65f87097ace5ea0476045",
        "gas": "0x8ccd",
        "value": "0x0",
        "input": "0xa22cb465000000000000000000000000934ed1a863bb08d68b74939cf4d8ad644abc1d850000000000000000000000000000000000000000000000000000000000000001",
        "nonce": "0x6c",
        "chainId": "0x89"
      },
      "additionalContracts": [],
      "isFixedGasLimit": false
    },
    {
      "hash": "0x5232e9f6843f710a9b7ecd721ccc7d025d301ad527e21bb0e52b55cf00a766fc",
      "transactionType": "CALL",
      "contractName": null,
      "contractAddress": "0x4d97dcd97ec945f40cf65f87097ace5ea0476045",
      "function": "setApprovalForAll(address,bool)",
      "arguments": [
        "0x9a3A8FaD75af102201A2CfFBEfC3443B3497420F",
        "true"
      ],
      "transaction": {
        "from": "0x1aa44c933a6718a4bc44064f0067a853c34be9b0",
        "to": "0x4d97dcd97ec945f40cf65f87097ace5ea0476045",
        "gas": "0x8ccd",
        "value": "0x0",
        "input": "0xa22cb4650000000000000000000000009a3a8fad75af102201a2cffbefc3443b3497420f0000000000000000000000000000000000000000000000000000000000000001",
        "nonce": "0x6d",
        "chainId": "0x89"
      },
      "additionalContracts": [],
      "isFixedGasLimit": false
    },
    {
      "hash": "0xeb8e50ff8cc592fc9de8ec9753a297eb2936616296620c713755248614e03ccb",
      "transactionType": "CALL",
      "contractName": null,
      "contractAddress": "0x9a3a8fad75af102201a2cffbefc3443b3497420f",
      "function": "withdraw(uint256)",
      "arguments": [
        "5000000"
      ],
      "transaction": {
        "from": "0x1aa44c933a6718a4bc44064f0067a853c34be9b0",
        "to": "0x9a3a8fad75af102201a2cffbefc3443b3497420f",
        "gas": "0x33e4c",
        "value": "0x0",
        "input": "0x2e1a7d4d00000000000000000000000000000000000000000000000000000000004c4b40",
        "nonce": "0x6e",
        "chainId": "0x89"
      },
      "additionalContracts": [],
      "isFixedGasLimit": false
    },
    {
      "hash": "0xe9af091203daa64a88bbc104e9d20d4aaed7a1036ccfcab4aebbec41ce08132f",
      "transactionType": "CALL",
      "contractName": null,
      "contractAddress": "0xe07fb832185ff0e9c8bb13b69f778aed8de76c58",
      "function": "withdraw(uint256)",
      "arguments": [
        "5000000"
      ],
      "transaction": {
        "from": "0x1aa44c933a6718a4bc44064f0067a853c34be9b0",
        "to": "0xe07fb832185ff0e9c8bb13b69f778aed8de76c58",
        "gas": "0x33e4c",
        "value": "0x0",
        "input": "0x2e1a7d4d00000000000000000000000000000000000000000000000000000000004c4b40",
        "nonce": "0x6f",
        "chainId": "0x89"
      },
      "additionalContracts": [],
      "isFixedGasLimit": false
    }
  ],
  "receipts": [
    {
      "status": "0x1",
      "cumulativeGasUsed": "0xc0f366",
      "logs": [
        {
          "address": "0x2791bca1f2de4661ed88a30c99a7a9449aa84174",
          "topics": [
            "0x8c5be1e5ebec7d5bd14f71427d1e84f3dd0314c0f7b2291e5b200ac8c7c3b925",
            "0x0000000000000000000000001aa44c933a6718a4bc44064f0067a853c34be9b0",
            "0x0000000000000000000000004d97dcd97ec945f40cf65f87097ace5ea0476045"
          ],
          "data": "0xffffffffffffffffffffffffffffffffffffffffffffffffffffffffffffffff",
          "blockHash": "0x4ff28e65d4e4e1104bc4e10bc47c41585456035dc4805cf770d58847272755c5",
          "blockNumber": "0x443ed91",
          "transactionHash": "0x1250360214bbc91e9d0407429c1b38f0501241892753d663383cd574ce19062d",
          "transactionIndex": "0x5e",
          "logIndex": "0x18a",
          "removed": false
        },
        {
          "address": "0x0000000000000000000000000000000000001010",
          "topics": [
            "0x4dfe1bbbcf077ddc3e01291eea2d5c70c2b422b415d95645b9adcfd678cb1d63",
            "0x0000000000000000000000000000000000000000000000000000000000001010",
            "0x0000000000000000000000001aa44c933a6718a4bc44064f0067a853c34be9b0",
            "0x000000000000000000000000eedba2484aaf940f37cd3cd21a5d7c4a7dafbfc0"
          ],
          "data": "0x00000000000000000000000000000000000000000000000000041569417159fc00000000000000000000000000000000000000000000000070c4a812d020c0f600000000000000000000000000000000000000000002087b5989933117d07dd600000000000000000000000000000000000000000000000070c092a98eaf66fa00000000000000000000000000000000000000000002087b598da89a5941d7d2",
          "blockHash": "0x4ff28e65d4e4e1104bc4e10bc47c41585456035dc4805cf770d58847272755c5",
          "blockNumber": "0x443ed91",
          "transactionHash": "0x1250360214bbc91e9d0407429c1b38f0501241892753d663383cd574ce19062d",
          "transactionIndex": "0x5e",
          "logIndex": "0x18b",
          "removed": false
        }
      ],
      "logsBloom": "0x00000000000020000000000000000000000000000000000000000000000000000000000000000000000000000000000000008000000000000000000000200000000000000000000000000000000200800000000000000000000100000000000000000000000000000000000000000000000000000100000180000000000000000001004000000000000000001000000000000000000000000000000000000000220000000400000000000080000001000000000000000000000020000000004000000000000000000001000000000000000000000000000000100000000000000010008000000000000000000000000000000000000000000000000000100000",
      "type": "0x2",
      "transactionHash": "0x1250360214bbc91e9d0407429c1b38f0501241892753d663383cd574ce19062d",
      "transactionIndex": "0x5e",
      "blockHash": "0x4ff28e65d4e4e1104bc4e10bc47c41585456035dc4805cf770d58847272755c5",
      "blockNumber": "0x443ed91",
      "gasUsed": "0x9692",
      "effectiveGasPrice": "0x6f1691728",
      "from": "0x1aa44c933a6718a4bc44064f0067a853c34be9b0",
      "to": "0x2791bca1f2de4661ed88a30c99a7a9449aa84174",
      "contractAddress": null
    },
    {
      "status": "0x1",
      "cumulativeGasUsed": "0xc15956",
      "logs": [
        {
          "address": "0x4d97dcd97ec945f40cf65f87097ace5ea0476045",
          "topics": [
            "0x17307eab39ab6107e8899845ad3d59bd9653f200f220920489ca2b5937696c31",
            "0x0000000000000000000000001aa44c933a6718a4bc44064f0067a853c34be9b0",
            "0x000000000000000000000000934ed1a863bb08d68b74939cf4d8ad644abc1d85"
          ],
          "data": "0x0000000000000000000000000000000000000000000000000000000000000001",
          "blockHash": "0x4ff28e65d4e4e1104bc4e10bc47c41585456035dc4805cf770d58847272755c5",
          "blockNumber": "0x443ed91",
          "transactionHash": "0xe0c34d0430c02c8277a4c7012b4359f62e70b43283c611991b1762c9d58921f9",
          "transactionIndex": "0x5f",
          "logIndex": "0x18c",
          "removed": false
        },
        {
          "address": "0x0000000000000000000000000000000000001010",
          "topics": [
            "0x4dfe1bbbcf077ddc3e01291eea2d5c70c2b422b415d95645b9adcfd678cb1d63",
            "0x0000000000000000000000000000000000000000000000000000000000001010",
            "0x0000000000000000000000001aa44c933a6718a4bc44064f0067a853c34be9b0",
            "0x000000000000000000000000eedba2484aaf940f37cd3cd21a5d7c4a7dafbfc0"
          ],
          "data": "0x0000000000000000000000000000000000000000000000000002c3c0c89e232000000000000000000000000000000000000000000000000070c092a98ea01c2600000000000000000000000000000000000000000002087b598da89a5941d7d200000000000000000000000000000000000000000000000070bdcee8c601f90600000000000000000000000000000000000000000002087b59906c5b21dffaf2",
          "blockHash": "0x4ff28e65d4e4e1104bc4e10bc47c41585456035dc4805cf770d58847272755c5",
          "blockNumber": "0x443ed91",
          "transactionHash": "0xe0c34d0430c02c8277a4c7012b4359f62e70b43283c611991b1762c9d58921f9",
          "transactionIndex": "0x5f",
          "logIndex": "0x18d",
          "removed": false
        }
      ],
      "logsBloom": "0x00000000000020000000000000000000000000000000000000000000000040000000000000000000000000000000000000008000000000000000000000000000000000000000000000000000000000800000000000000000000100000000000002000000000000000000000000000000000000000100000080000000000000000000004000000800000000001000000000000000000000000000000002000000200000000000000000000080000000000000000000000000000020000000004000000000000000000001000000000000000004000000000000100000000000000004200800000000040000000000000000000000000000000000000000100000",
      "type": "0x2",
      "transactionHash": "0xe0c34d0430c02c8277a4c7012b4359f62e70b43283c611991b1762c9d58921f9",
      "transactionIndex": "0x5f",
      "blockHash": "0x4ff28e65d4e4e1104bc4e10bc47c41585456035dc4805cf770d58847272755c5",
      "blockNumber": "0x443ed91",
      "gasUsed": "0x65f0",
      "effectiveGasPrice": "0x6f1691728",
      "from": "0x1aa44c933a6718a4bc44064f0067a853c34be9b0",
      "to": "0x4d97dcd97ec945f40cf65f87097ace5ea0476045",
      "contractAddress": null
    },
    {
      "status": "0x1",
      "cumulativeGasUsed": "0xc1bf46",
      "logs": [
        {
          "address": "0x4d97dcd97ec945f40cf65f87097ace5ea0476045",
          "topics": [
            "0x17307eab39ab6107e8899845ad3d59bd9653f200f220920489ca2b5937696c31",
            "0x0000000000000000000000001aa44c933a6718a4bc44064f0067a853c34be9b0",
            "0x0000000000000000000000009a3a8fad75af102201a2cffbefc3443b3497420f"
          ],
          "data": "0x0000000000000000000000000000000000000000000000000000000000000001",
          "blockHash": "0x4ff28e65d4e4e1104bc4e10bc47c41585456035dc4805cf770d58847272755c5",
          "blockNumber": "0x443ed91",
          "transactionHash": "0x5232e9f6843f710a9b7ecd721ccc7d025d301ad527e21bb0e52b55cf00a766fc",
          "transactionIndex": "0x60",
          "logIndex": "0x18e",
          "removed": false
        },
        {
          "address": "0x0000000000000000000000000000000000001010",
          "topics": [
            "0x4dfe1bbbcf077ddc3e01291eea2d5c70c2b422b415d95645b9adcfd678cb1d63",
            "0x0000000000000000000000000000000000000000000000000000000000001010",
            "0x0000000000000000000000001aa44c933a6718a4bc44064f0067a853c34be9b0",
            "0x000000000000000000000000eedba2484aaf940f37cd3cd21a5d7c4a7dafbfc0"
          ],
          "data": "0x0000000000000000000000000000000000000000000000000002c3c0c89e232000000000000000000000000000000000000000000000000070bdcee8c5f79ea600000000000000000000000000000000000000000002087b59906c5b21dffaf200000000000000000000000000000000000000000000000070bb0b27fd597b8600000000000000000000000000000000000000000002087b5993301bea7e1e12",
          "blockHash": "0x4ff28e65d4e4e1104bc4e10bc47c41585456035dc4805cf770d58847272755c5",
          "blockNumber": "0x443ed91",
          "transactionHash": "0x5232e9f6843f710a9b7ecd721ccc7d025d301ad527e21bb0e52b55cf00a766fc",
          "transactionIndex": "0x60",
          "logIndex": "0x18f",
          "removed": false
        }
      ],
      "logsBloom": "0x00000000000020000000000000000000000000000000000000000000000040000000000000000000000000000000000000008000000000000000000000000000000000000000000000000000000000800000000000000000000100000000000002000000000000000000000000000000000000000100000080000000000000000100004000000000000000001000000000000000000000000000000000000000200000000000000000000080000000000000000000000000000020000000004004000000000000000001000000000000000004000000000000100000000000000000200800000000040000000000000000000000000000000000000000100004",
      "type": "0x2",
      "transactionHash": "0x5232e9f6843f710a9b7ecd721ccc7d025d301ad527e21bb0e52b55cf00a766fc",
      "transactionIndex": "0x60",
      "blockHash": "0x4ff28e65d4e4e1104bc4e10bc47c41585456035dc4805cf770d58847272755c5",
      "blockNumber": "0x443ed91",
      "gasUsed": "0x65f0",
      "effectiveGasPrice": "0x6f1691728",
      "from": "0x1aa44c933a6718a4bc44064f0067a853c34be9b0",
      "to": "0x4d97dcd97ec945f40cf65f87097ace5ea0476045",
      "contractAddress": null
    },
    {
      "status": "0x1",
      "cumulativeGasUsed": "0xc3f700",
      "logs": [
        {
          "address": "0x9a3a8fad75af102201a2cffbefc3443b3497420f",
          "topics": [
            "0xddf252ad1be2c89b69c2b068fc378daa952ba7f163c4a11628f55a4df523b3ef",
            "0x0000000000000000000000001aa44c933a6718a4bc44064f0067a853c34be9b0",
            "0x0000000000000000000000000000000000000000000000000000000000000000"
          ],
          "data": "0x00000000000000000000000000000000000000000000000000000000004c4b40",
          "blockHash": "0x4ff28e65d4e4e1104bc4e10bc47c41585456035dc4805cf770d58847272755c5",
          "blockNumber": "0x443ed91",
          "transactionHash": "0xeb8e50ff8cc592fc9de8ec9753a297eb2936616296620c713755248614e03ccb",
          "transactionIndex": "0x61",
          "logIndex": "0x190",
          "removed": false
        },
        {
          "address": "0x4d97dcd97ec945f40cf65f87097ace5ea0476045",
          "topics": [
            "0x4a39dc06d4c0dbc64b70af90fd698a233a518aa5d07e595d983b8c0526c8f7fb",
            "0x0000000000000000000000009a3a8fad75af102201a2cffbefc3443b3497420f",
            "0x0000000000000000000000009a3a8fad75af102201a2cffbefc3443b3497420f",
            "0x0000000000000000000000001aa44c933a6718a4bc44064f0067a853c34be9b0"
          ],
          "data": "0x000000000000000000000000000000000000000000000000000000000000004000000000000000000000000000000000000000000000000000000000000000e00000000000000000000000000000000000000000000000000000000000000004a3d592d6002f1d275821d74d4dc1b736e054edb4f4f503fc7daf64433f3a8783b765739b68f91a6b8343c453dd500db1fd1211730bcfa6c0cf8dd2458871a3efbe87dd6f32f14ea56a7a67271dc7cba3e29a480106e24a00f7f05a055a397145f3eb7f4cd29dc80955819251ae49aae29ec5d4a4a9f1b19b1bfb87edd5520690000000000000000000000000000000000000000000000000000000000000000400000000000000000000000000000000000000000000000000000000004c4b4000000000000000000000000000000000000000000000000000000000004c4b4000000000000000000000000000000000000000000000000000000000004c4b4000000000000000000000000000000000000000000000000000000000004c4b40",
          "blockHash": "0x4ff28e65d4e4e1104bc4e10bc47c41585456035dc4805cf770d58847272755c5",
          "blockNumber": "0x443ed91",
          "transactionHash": "0xeb8e50ff8cc592fc9de8ec9753a297eb2936616296620c713755248614e03ccb",
          "transactionIndex": "0x61",
          "logIndex": "0x191",
          "removed": false
        },
        {
          "address": "0x0000000000000000000000000000000000001010",
          "topics": [
            "0x4dfe1bbbcf077ddc3e01291eea2d5c70c2b422b415d95645b9adcfd678cb1d63",
            "0x0000000000000000000000000000000000000000000000000000000000001010",
            "0x0000000000000000000000001aa44c933a6718a4bc44064f0067a853c34be9b0",
            "0x000000000000000000000000eedba2484aaf940f37cd3cd21a5d7c4a7dafbfc0"
          ],
          "data": "0x000000000000000000000000000000000000000000000000000f65bb286ac22c00000000000000000000000000000000000000000000000070bb0b27fd4f212600000000000000000000000000000000000000000002087b5993301bea7e1e1200000000000000000000000000000000000000000000000070aba56cd4e45efa00000000000000000000000000000000000000000002087b59a295d712e8e03e",
          "blockHash": "0x4ff28e65d4e4e1104bc4e10bc47c41585456035dc4805cf770d58847272755c5",
          "blockNumber": "0x443ed91",
          "transactionHash": "0xeb8e50ff8cc592fc9de8ec9753a297eb2936616296620c713755248614e03ccb",
          "transactionIndex": "0x61",
          "logIndex": "0x192",
          "removed": false
        }
      ],
      "logsBloom": "0x00000000000020000000000000000000000000000000000000010000000040000000000000000000000000000000000000008000000000000000000000000000000000000000000000000008000000800000000000000000000100008000000000000000020000000000000000000800000000000900000080000010000000000100004000000000000000001000000000000000000000100000000000000000200000000000000000000080000000000000000000000000000020000000004004000002000000000001000000000000000404000000000000100000000020000000000000000000040000000000000000000000000000000000000002100004",
      "type": "0x2",
      "transactionHash": "0xeb8e50ff8cc592fc9de8ec9753a297eb2936616296620c713755248614e03ccb",
      "transactionIndex": "0x61",
      "blockHash": "0x4ff28e65d4e4e1104bc4e10bc47c41585456035dc4805cf770d58847272755c5",
      "blockNumber": "0x443ed91",
      "gasUsed": "0x237ba",
      "effectiveGasPrice": "0x6f1691728",
      "from": "0x1aa44c933a6718a4bc44064f0067a853c34be9b0",
      "to": "0x9a3a8fad75af102201a2cffbefc3443b3497420f",
      "contractAddress": null
    },
    {
      "status": "0x1",
      "cumulativeGasUsed": "0xc62eba",
      "logs": [
        {
          "address": "0xe07fb832185ff0e9c8bb13b69f778aed8de76c58",
          "topics": [
            "0xddf252ad1be2c89b69c2b068fc378daa952ba7f163c4a11628f55a4df523b3ef",
            "0x0000000000000000000000001aa44c933a6718a4bc44064f0067a853c34be9b0",
            "0x0000000000000000000000000000000000000000000000000000000000000000"
          ],
          "data": "0x00000000000000000000000000000000000000000000000000000000004c4b40",
          "blockHash": "0x4ff28e65d4e4e1104bc4e10bc47c41585456035dc4805cf770d58847272755c5",
          "blockNumber": "0x443ed91",
          "transactionHash": "0xe9af091203daa64a88bbc104e9d20d4aaed7a1036ccfcab4aebbec41ce08132f",
          "transactionIndex": "0x62",
          "logIndex": "0x193",
          "removed": false
        },
        {
          "address": "0x4d97dcd97ec945f40cf65f87097ace5ea0476045",
          "topics": [
            "0x4a39dc06d4c0dbc64b70af90fd698a233a518aa5d07e595d983b8c0526c8f7fb",
            "0x000000000000000000000000e07fb832185ff0e9c8bb13b69f778aed8de76c58",
            "0x000000000000000000000000e07fb832185ff0e9c8bb13b69f778aed8de76c58",
            "0x0000000000000000000000001aa44c933a6718a4bc44064f0067a853c34be9b0"
          ],
          "data": "0x000000000000000000000000000000000000000000000000000000000000004000000000000000000000000000000000000000000000000000000000000000e00000000000000000000000000000000000000000000000000000000000000004274f483d89eae851d2dd7b8510d21a8b160bf24c4086684b5ffb997d9c84973d35d451cc82492f4ab9d2489892038bfe00ce089d310f513bd95d5755fa75851f55525a430e83ffbdb1b501cfde45aaadbe93869da7cd596ff6249f452bd7c0bb7bfc2a104e5c430be513e7d7d4a9792b6df8c227f4df2c741542b1942a1605d1000000000000000000000000000000000000000000000000000000000000000400000000000000000000000000000000000000000000000000000000004c4b4000000000000000000000000000000000000000000000000000000000004c4b4000000000000000000000000000000000000000000000000000000000004c4b4000000000000000000000000000000000000000000000000000000000004c4b40",
          "blockHash": "0x4ff28e65d4e4e1104bc4e10bc47c41585456035dc4805cf770d58847272755c5",
          "blockNumber": "0x443ed91",
          "transactionHash": "0xe9af091203daa64a88bbc104e9d20d4aaed7a1036ccfcab4aebbec41ce08132f",
          "transactionIndex": "0x62",
          "logIndex": "0x194",
          "removed": false
        },
        {
          "address": "0x0000000000000000000000000000000000001010",
          "topics": [
            "0x4dfe1bbbcf077ddc3e01291eea2d5c70c2b422b415d95645b9adcfd678cb1d63",
            "0x0000000000000000000000000000000000000000000000000000000000001010",
            "0x0000000000000000000000001aa44c933a6718a4bc44064f0067a853c34be9b0",
            "0x000000000000000000000000eedba2484aaf940f37cd3cd21a5d7c4a7dafbfc0"
          ],
          "data": "0x000000000000000000000000000000000000000000000000000f65bb286ac22c00000000000000000000000000000000000000000000000070aba56cd4aab61600000000000000000000000000000000000000000002087b59a295d712e8e03e000000000000000000000000000000000000000000000000709c3fb1ac3ff3ea00000000000000000000000000000000000000000002087b59b1fb923b53a26a",
          "blockHash": "0x4ff28e65d4e4e1104bc4e10bc47c41585456035dc4805cf770d58847272755c5",
          "blockNumber": "0x443ed91",
          "transactionHash": "0xe9af091203daa64a88bbc104e9d20d4aaed7a1036ccfcab4aebbec41ce08132f",
          "transactionIndex": "0x62",
          "logIndex": "0x195",
          "removed": false
        }
      ],
      "logsBloom": "0x00000000000020000000000000000000000000000000000000000000000040000000000000000000000000000000000000008000000000000000000200000000000000000000000000000008000000800000000000000000000100000000000000000000020000000000000000000800000000000900000080000010000000000000004000000000000000001000000000000000000000000000000000000000200000000000000000000080000000000000000000000000000020010000004000000002000880000001200000000000000404000008000000100000000020000000000000000000040000000000000000000000000000000000000002100000",
      "type": "0x2",
      "transactionHash": "0xe9af091203daa64a88bbc104e9d20d4aaed7a1036ccfcab4aebbec41ce08132f",
      "transactionIndex": "0x62",
      "blockHash": "0x4ff28e65d4e4e1104bc4e10bc47c41585456035dc4805cf770d58847272755c5",
      "blockNumber": "0x443ed91",
      "gasUsed": "0x237ba",
      "effectiveGasPrice": "0x6f1691728",
      "from": "0x1aa44c933a6718a4bc44064f0067a853c34be9b0",
      "to": "0xe07fb832185ff0e9c8bb13b69f778aed8de76c58",
      "contractAddress": null
    }
  ],
  "libraries": [],
  "pending": [],
  "returns": {},
  "timestamp": 1747341939,
  "chain": 137,
  "commit": "5e7219b"
}