{
  "transactions": [
    {
      "hash": "0x1ab44302e4e55c8a542bff20c76e80510740769722a1a42177001c8cf346c6b7",
      "transactionType": "CALL",
      "contractName": null,
      "contractAddress": "0x2791bca1f2de4661ed88a30c99a7a9449aa84174",
      "function": "approve(address,uint256)",
      "arguments": [
        "0x4D97DCd97eC945f40cF65F87097ACe5EA0476045",
        "115792089237316195423570985008687907853269984665640564039457584007913129639935"
      ],
      "transaction": {
        "from": "0x1aa44c933a6718a4bc44064f0067a853c34be9b0",
        "to": "0x2791bca1f2de4661ed88a30c99a7a9449aa84174",
        "gas": "0xdc35",
        "value": "0x0",
        "input": "0x095ea7b30000000000000000000000004d97dcd97ec945f40cf65f87097ace5ea0476045ffffffffffffffffffffffffffffffffffffffffffffffffffffffffffffffff",
        "nonce": "0xdc",
        "chainId": "0x89"
      },
      "additionalContracts": [],
      "isFixedGasLimit": false
    },
    {
      "hash": "0x3cb7bbcd2964b510316a765b578d2baaa1e06cdf97b42199fe73cc582fec6db1",
      "transactionType": "CALL",
      "contractName": null,
      "contractAddress": "0x4d97dcd97ec945f40cf65f87097ace5ea0476045",
      "function": "setApprovalForAll(address,bool)",
      "arguments": [
        "0xC01BbFC94C41F0D8Fc242cFe8465ea4dcD4f20C5",
        "true"
      ],
      "transaction": {
        "from": "0x1aa44c933a6718a4bc44064f0067a853c34be9b0",
        "to": "0x4d97dcd97ec945f40cf65f87097ace5ea0476045",
        "gas": "0x8ccd",
        "value": "0x0",
        "input": "0xa22cb465000000000000000000000000c01bbfc94c41f0d8fc242cfe8465ea4dcd4f20c50000000000000000000000000000000000000000000000000000000000000001",
        "nonce": "0xdd",
        "chainId": "0x89"
      },
      "additionalContracts": [],
      "isFixedGasLimit": false
    },
    {
      "hash": "0x8f0585735494f79250ba511f0c9bd635888c2a177a74b158032e940b133faf34",
      "transactionType": "CALL",
      "contractName": null,
      "contractAddress": "0xc01bbfc94c41f0d8fc242cfe8465ea4dcd4f20c5",
      "function": "createIndex((address,bytes32[],uint256[],bytes,address),bytes)",
      "arguments": [
        "(0x7bcd278Bb230fF014149cE32c5a9663812Da9810, [0x41a7b02edc7e1e56661022289f4462a8870239e73b389b8eadd0b5ecde161a78, 0x0b9f873f001fa5ccf06fb55a21663401a86ba8af20c2452baea618a32c08c88f, 0x88fad6af135ca7cbd55a8bda5a1243125ded68b1e521066009cc990b13960b88, 0x22bfce8b3fc9e6b23088dad87c8b90771b3b47495d5f2dd76a0b8e45c2e5637b], [1, 1, 1, 1], 0x00000000000000000000000000000000000000000000000000000000000000200000000000000000000000000000000000000000000000000000000000000018436f732053696d696c617269747920302e37204a6170616e0000000000000000, 0x3De278A5acdD0123eD668478ac8cCd2E178510BC)",
        "0x"
      ],
      "transaction": {
        "from": "0x1aa44c933a6718a4bc44064f0067a853c34be9b0",
        "to": "0xc01bbfc94c41f0d8fc242cfe8465ea4dcd4f20c5",
        "gas": "0x101a5d",
        "value": "0x0",
        "input": "0xd2f72136000000000000000000000000000000000000000000000000000000000000004000000000000000000000000000000000000000000000000000000000000002a00000000000000000000000007bcd278bb230ff014149ce32c5a9663812da981000000000000000000000000000000000000000000000000000000000000000a0000000000000000000000000000000000000000000000000000000000000014000000000000000000000000000000000000000000000000000000000000001e00000000000000000000000003de278a5acdd0123ed668478ac8ccd2e178510bc000000000000000000000000000000000000000000000000000000000000000441a7b02edc7e1e56661022289f4462a8870239e73b389b8eadd0b5ecde161a780b9f873f001fa5ccf06fb55a21663401a86ba8af20c2452baea618a32c08c88f88fad6af135ca7cbd55a8bda5a1243125ded68b1e521066009cc990b13960b8822bfce8b3fc9e6b23088dad87c8b90771b3b47495d5f2dd76a0b8e45c2e5637b00000000000000000000000000000000000000000000000000000000000000040000000000000000000000000000000000000000000000000000000000000001000000000000000000000000000000000000000000000000000000000000000100000000000000000000000000000000000000000000000000000000000000010000000000000000000000000000000000000000000000000000000000000001000000000000000000000000000000000000000000000000000000000000006000000000000000000000000000000000000000000000000000000000000000200000000000000000000000000000000000000000000000000000000000000018436f732053696d696c617269747920302e37204a6170616e00000000000000000000000000000000000000000000000000000000000000000000000000000000",
        "nonce": "0xde",
        "chainId": "0x89"
      },
      "additionalContracts": [
        {
          "transactionType": "CREATE2",
          "address": "0xd189321231b8a71493506ec87b959bed191e8f4d",
          "initCode": "0x6103cd3d81600a3d39f3363d3d373d3d3d363d737bcd278bb230ff014149ce32c5a9663812da98105af43d82803e903d91602b57fd5bf30000000000000000000000000000000000000000000000000000000000000020000000000000000000000000000000000000000000000000000000000000012000000000000000000000000000000000000000000000000000000000000001c000000000000000000000000000000000000000000000000000000000000002600000000000000000000000000000000000000000000000000000000000000300000000000000000000000000c01bbfc94c41f0d8fc242cfe8465ea4dcd4f20c50000000000000000000000004d97dcd97ec945f40cf65f87097ace5ea04760450000000000000000000000002791bca1f2de4661ed88a30c99a7a9449aa841740000000000000000000000007bcd278bb230ff014149ce32c5a9663812da98100000000000000000000000003de278a5acdd0123ed668478ac8ccd2e178510bc00000000000000000000000000000000000000000000000000000000000000041f3d12f7e50de8e5f679511a6241e6cfc60e6a58533027348470b6cc3ad86dfd3194161f48ddf3c0821047032dc0ae6395bb7220ed5d2100f65f68a74c4bd84534ce5249c3be97799029ce2befcd06c638bcd322d992ec088fbe9a634beabc395b79f88e2efa4fa33816dce55ffb3bfb3e85e1b0c5d529730eab6ff5050a6195000000000000000000000000000000000000000000000000000000000000000441a7b02edc7e1e56661022289f4462a8870239e73b389b8eadd0b5ecde161a780b9f873f001fa5ccf06fb55a21663401a86ba8af20c2452baea618a32c08c88f88fad6af135ca7cbd55a8bda5a1243125ded68b1e521066009cc990b13960b8822bfce8b3fc9e6b23088dad87c8b90771b3b47495d5f2dd76a0b8e45c2e5637b00000000000000000000000000000000000000000000000000000000000000040000000000000000000000000000000000000000000000000000000000000001000000000000000000000000000000000000000000000000000000000000000100000000000000000000000000000000000000000000000000000000000000010000000000000000000000000000000000000000000000000000000000000001000000000000000000000000000000000000000000000000000000000000006000000000000000000000000000000000000000000000000000000000000000200000000000000000000000000000000000000000000000000000000000000018436f732053696d696c617269747920302e37204a6170616e0000000000000000"
        }
      ],
      "isFixedGasLimit": false
    },
    {
      "hash": "0x03d8c25812198eabd65f6c31c9d9d16658628c9183d3db5668f3af59ae972cfc",
      "transactionType": "CALL",
      "contractName": null,
      "contractAddress": "0x2791bca1f2de4661ed88a30c99a7a9449aa84174",
      "function": "approve(address,uint256)",
      "arguments": [
        "0xd189321231B8A71493506eC87b959bed191E8f4d",
        "115792089237316195423570985008687907853269984665640564039457584007913129639935"
      ],
      "transaction": {
        "from": "0x1aa44c933a6718a4bc44064f0067a853c34be9b0",
        "to": "0x2791bca1f2de4661ed88a30c99a7a9449aa84174",
        "gas": "0x13b57",
        "value": "0x0",
        "input": "0x095ea7b3000000000000000000000000d189321231b8a71493506ec87b959bed191e8f4dffffffffffffffffffffffffffffffffffffffffffffffffffffffffffffffff",
        "nonce": "0xdf",
        "chainId": "0x89"
      },
      "additionalContracts": [],
      "isFixedGasLimit": false
    },
    {
      "hash": "0x4786dd5694f663f0584213143163c17df6ec5183f9b0650a6b5200b3847ecd10",
      "transactionType": "CALL",
      "contractName": null,
      "contractAddress": "0x4d97dcd97ec945f40cf65f87097ace5ea0476045",
      "function": "setApprovalForAll(address,bool)",
      "arguments": [
        "0xd189321231B8A71493506eC87b959bed191E8f4d",
        "true"
      ],
      "transaction": {
        "from": "0x1aa44c933a6718a4bc44064f0067a853c34be9b0",
        "to": "0x4d97dcd97ec945f40cf65f87097ace5ea0476045",
        "gas": "0xf82b",
        "value": "0x0",
        "input": "0xa22cb465000000000000000000000000d189321231b8a71493506ec87b959bed191e8f4d0000000000000000000000000000000000000000000000000000000000000001",
        "nonce": "0xe0",
        "chainId": "0x89"
      },
      "additionalContracts": [],
      "isFixedGasLimit": false
    },
    {
      "hash": "0x20269a529d6734c6de241c0fda8439355323aaa2c8218b25fe5447988b325657",
      "transactionType": "CALL",
      "contractName": null,
      "contractAddress": "0xd189321231b8a71493506ec87b959bed191e8f4d",
      "function": "deposit(uint256)",
      "arguments": [
        "1000000"
      ],
      "transaction": {
        "from": "0x1aa44c933a6718a4bc44064f0067a853c34be9b0",
        "to": "0xd189321231b8a71493506ec87b959bed191e8f4d",
        "gas": "0xc0c81",
        "value": "0x0",
        "input": "0xb6b55f2500000000000000000000000000000000000000000000000000000000000f4240",
        "nonce": "0xe1",
        "chainId": "0x89"
      },
      "additionalContracts": [],
      "isFixedGasLimit": false
    }
  ],
  "receipts": [
    {
      "status": "0x1",
      "cumulativeGasUsed": "0x86133a",
      "logs": [
        {
          "address": "0x2791bca1f2de4661ed88a30c99a7a9449aa84174",
          "topics": [
            "0x8c5be1e5ebec7d5bd14f71427d1e84f3dd0314c0f7b2291e5b200ac8c7c3b925",
            "0x0000000000000000000000001aa44c933a6718a4bc44064f0067a853c34be9b0",
            "0x0000000000000000000000004d97dcd97ec945f40cf65f87097ace5ea0476045"
          ],
          "data": "0xffffffffffffffffffffffffffffffffffffffffffffffffffffffffffffffff",
          "blockHash": "0x28fa3783a3d644fada6382cdd45a25933d6080af122e4df721edd0428695ab7f",
          "blockNumber": "0x4448b31",
          "transactionHash": "0x1ab44302e4e55c8a542bff20c76e80510740769722a1a42177001c8cf346c6b7",
          "transactionIndex": "0x3e",
          "logIndex": "0x153",
          "removed": false
        },
        {
          "address": "0x0000000000000000000000000000000000001010",
          "topics": [
            "0x4dfe1bbbcf077ddc3e01291eea2d5c70c2b422b415d95645b9adcfd678cb1d63",
            "0x0000000000000000000000000000000000000000000000000000000000001010",
            "0x0000000000000000000000001aa44c933a6718a4bc44064f0067a853c34be9b0",
            "0x000000000000000000000000eedba2484aaf940f37cd3cd21a5d7c4a7dafbfc0"
          ],
          "data": "0x0000000000000000000000000000000000000000000000000003ca7524ee1526000000000000000000000000000000000000000000000000474d71d9d3425e280000000000000000000000000000000000000000000208ed5fdc139fab6dfe070000000000000000000000000000000000000000000000004749a764ae5449020000000000000000000000000000000000000000000208ed5fdfde14d05c132d",
          "blockHash": "0x28fa3783a3d644fada6382cdd45a25933d6080af122e4df721edd0428695ab7f",
          "blockNumber": "0x4448b31",
          "transactionHash": "0x1ab44302e4e55c8a542bff20c76e80510740769722a1a42177001c8cf346c6b7",
          "transactionIndex": "0x3e",
          "logIndex": "0x154",
          "removed": false
        }
      ],
      "logsBloom": "0x00000000000020000000000000000000000000000000000000000000000000000000000000000000000000000000000000008000000000000000000000200000000000000000000000000000000200800000000000000000000100000000000000000000000000000000000000000000000000000100000180000000000000000001004000000000000000001000000000000000000000000000000000000000220000000400000000000080000001000000000000000000000020000000004000000000000000000001000000000000000000000000000000100000000000000010008000000000000000000000000000000000000000000000000000100000",
      "type": "0x2",
      "transactionHash": "0x1ab44302e4e55c8a542bff20c76e80510740769722a1a42177001c8cf346c6b7",
      "transactionIndex": "0x3e",
      "blockHash": "0x28fa3783a3d644fada6382cdd45a25933d6080af122e4df721edd0428695ab7f",
      "blockNumber": "0x4448b31",
      "gasUsed": "0x9692",
      "effectiveGasPrice": "0x671f96b17",
      "from": "0x1aa44c933a6718a4bc44064f0067a853c34be9b0",
      "to": "0x2791bca1f2de4661ed88a30c99a7a9449aa84174",
      "contractAddress": null
    },
    {
      "status": "0x1",
      "cumulativeGasUsed": "0x86792a",
      "logs": [
        {
          "address": "0x4d97dcd97ec945f40cf65f87097ace5ea0476045",
          "topics": [
            "0x17307eab39ab6107e8899845ad3d59bd9653f200f220920489ca2b5937696c31",
            "0x0000000000000000000000001aa44c933a6718a4bc44064f0067a853c34be9b0",
            "0x000000000000000000000000c01bbfc94c41f0d8fc242cfe8465ea4dcd4f20c5"
          ],
          "data": "0x0000000000000000000000000000000000000000000000000000000000000001",
          "blockHash": "0x28fa3783a3d644fada6382cdd45a25933d6080af122e4df721edd0428695ab7f",
          "blockNumber": "0x4448b31",
          "transactionHash": "0x3cb7bbcd2964b510316a765b578d2baaa1e06cdf97b42199fe73cc582fec6db1",
          "transactionIndex": "0x3f",
          "logIndex": "0x155",
          "removed": false
        },
        {
          "address": "0x0000000000000000000000000000000000001010",
          "topics": [
            "0x4dfe1bbbcf077ddc3e01291eea2d5c70c2b422b415d95645b9adcfd678cb1d63",
            "0x0000000000000000000000000000000000000000000000000000000000001010",
            "0x0000000000000000000000001aa44c933a6718a4bc44064f0067a853c34be9b0",
            "0x000000000000000000000000eedba2484aaf940f37cd3cd21a5d7c4a7dafbfc0"
          ],
          "data": "0x00000000000000000000000000000000000000000000000000029102410952500000000000000000000000000000000000000000000000004749a764ae43d10a0000000000000000000000000000000000000000000208ed5fdfde14d05c132d000000000000000000000000000000000000000000000000474716626d3a7eba0000000000000000000000000000000000000000000208ed5fe26f171165657d",
          "blockHash": "0x28fa3783a3d644fada6382cdd45a25933d6080af122e4df721edd0428695ab7f",
          "blockNumber": "0x4448b31",
          "transactionHash": "0x3cb7bbcd2964b510316a765b578d2baaa1e06cdf97b42199fe73cc582fec6db1",
          "transactionIndex": "0x3f",
          "logIndex": "0x156",
          "removed": false
        }
      ],
      "logsBloom": "0x00000000000020000000000000000000000000000000000000000000000040000000000000000000000000000000000000008000000000000000000000000000000000000000000000200000000000800000000000000000000100000000000002000000000000000000000000000000000000000100000080001000000000000000004000000000000000001000000000000000000000000000000000000000200000000000000000000080000000000000000000000000000020000000004000000000000000000001000000000000000004000000000000100000000000000000200800000000040000000000000000000000000000000000000000100000",
      "type": "0x2",
      "transactionHash": "0x3cb7bbcd2964b510316a765b578d2baaa1e06cdf97b42199fe73cc582fec6db1",
      "transactionIndex": "0x3f",
      "blockHash": "0x28fa3783a3d644fada6382cdd45a25933d6080af122e4df721edd0428695ab7f",
      "blockNumber": "0x4448b31",
      "gasUsed": "0x65f0",
      "effectiveGasPrice": "0x671f96b17",
      "from": "0x1aa44c933a6718a4bc44064f0067a853c34be9b0",
      "to": "0x4d97dcd97ec945f40cf65f87097ace5ea0476045",
      "contractAddress": null
    },
    {
      "status": "0x1",
      "cumulativeGasUsed": "0x9221af",
      "logs": [
        {
          "address": "0x4d97dcd97ec945f40cf65f87097ace5ea0476045",
          "topics": [
            "0x17307eab39ab6107e8899845ad3d59bd9653f200f220920489ca2b5937696c31",
            "0x000000000000000000000000d189321231b8a71493506ec87b959bed191e8f4d",
            "0x0000000000000000000000004d97dcd97ec945f40cf65f87097ace5ea0476045"
          ],
          "data": "0x0000000000000000000000000000000000000000000000000000000000000001",
          "blockHash": "0x28fa3783a3d644fada6382cdd45a25933d6080af122e4df721edd0428695ab7f",
          "blockNumber": "0x4448b31",
          "transactionHash": "0x8f0585735494f79250ba511f0c9bd635888c2a177a74b158032e940b133faf34",
          "transactionIndex": "0x40",
          "logIndex": "0x157",
          "removed": false
        },
        {
          "address": "0x2791bca1f2de4661ed88a30c99a7a9449aa84174",
          "topics": [
            "0x8c5be1e5ebec7d5bd14f71427d1e84f3dd0314c0f7b2291e5b200ac8c7c3b925",
            "0x000000000000000000000000d189321231b8a71493506ec87b959bed191e8f4d",
            "0x0000000000000000000000004d97dcd97ec945f40cf65f87097ace5ea0476045"
          ],
          "data": "0xffffffffffffffffffffffffffffffffffffffffffffffffffffffffffffffff",
          "blockHash": "0x28fa3783a3d644fada6382cdd45a25933d6080af122e4df721edd0428695ab7f",
          "blockNumber": "0x4448b31",
          "transactionHash": "0x8f0585735494f79250ba511f0c9bd635888c2a177a74b158032e940b133faf34",
          "transactionIndex": "0x40",
          "logIndex": "0x158",
          "removed": false
        },
        {
          "address": "0xc01bbfc94c41f0d8fc242cfe8465ea4dcd4f20c5",
          "topics": [
            "0x750538103f64f9b5e2db539e5c1f7552a63aa9e68e07396b2b4b58f7cfef18ab",
            "0x000000000000000000000000d189321231b8a71493506ec87b959bed191e8f4d"
          ],
          "data": "0x000000000000000000000000000000000000000000000000000000000000004000000000000000000000000000000000000000000000000000000000000000e000000000000000000000000000000000000000000000000000000000000000041f3d12f7e50de8e5f679511a6241e6cfc60e6a58533027348470b6cc3ad86dfd3194161f48ddf3c0821047032dc0ae6395bb7220ed5d2100f65f68a74c4bd84534ce5249c3be97799029ce2befcd06c638bcd322d992ec088fbe9a634beabc395b79f88e2efa4fa33816dce55ffb3bfb3e85e1b0c5d529730eab6ff5050a6195000000000000000000000000000000000000000000000000000000000000006000000000000000000000000000000000000000000000000000000000000000200000000000000000000000000000000000000000000000000000000000000018436f732053696d696c617269747920302e37204a6170616e0000000000000000",
          "blockHash": "0x28fa3783a3d644fada6382cdd45a25933d6080af122e4df721edd0428695ab7f",
          "blockNumber": "0x4448b31",
          "transactionHash": "0x8f0585735494f79250ba511f0c9bd635888c2a177a74b158032e940b133faf34",
          "transactionIndex": "0x40",
          "logIndex": "0x159",
          "removed": false
        },
        {
          "address": "0x0000000000000000000000000000000000001010",
          "topics": [
            "0x4dfe1bbbcf077ddc3e01291eea2d5c70c2b422b415d95645b9adcfd678cb1d63",
            "0x0000000000000000000000000000000000000000000000000000000000001010",
            "0x0000000000000000000000001aa44c933a6718a4bc44064f0067a853c34be9b0",
            "0x000000000000000000000000eedba2484aaf940f37cd3cd21a5d7c4a7dafbfc0"
          ],
          "data": "0x000000000000000000000000000000000000000000000000004b23dc7d924c67000000000000000000000000000000000000000000000000474716626d2f587a0000000000000000000000000000000000000000000208ed5fe26f171165657d00000000000000000000000000000000000000000000000046fbf285ef9d0c130000000000000000000000000000000000000000000208ed602d92f38ef7b1e4",
          "blockHash": "0x28fa3783a3d644fada6382cdd45a25933d6080af122e4df721edd0428695ab7f",
          "blockNumber": "0x4448b31",
          "transactionHash": "0x8f0585735494f79250ba511f0c9bd635888c2a177a74b158032e940b133faf34",
          "transactionIndex": "0x40",
          "logIndex": "0x15a",
          "removed": false
        }
      ],
      "logsBloom": "0x00000000000020000000000000000000200000000000000000000000000040000000000000000000000000000000000010008000000000000000000000200000000000004000000000000000000200800000000000000000020100000000000002000040000000000000000000000000000000000100000180000000000000000001004000000000000000001000000000001000000000000000000000000000220000000400000000000080000001000000000000000000000020020000004000000000000000000001000000000000002004000000000000100000000000000010208800000000040000000000000000000000000000000000000000100000",
      "type": "0x2",
      "transactionHash": "0x8f0585735494f79250ba511f0c9bd635888c2a177a74b158032e940b133faf34",
      "transactionIndex": "0x40",
      "blockHash": "0x28fa3783a3d644fada6382cdd45a25933d6080af122e4df721edd0428695ab7f",
      "blockNumber": "0x4448b31",
      "gasUsed": "0xba885",
      "effectiveGasPrice": "0x671f96b17",
      "from": "0x1aa44c933a6718a4bc44064f0067a853c34be9b0",
      "to": "0xc01bbfc94c41f0d8fc242cfe8465ea4dcd4f20c5",
      "contractAddress": null
    },
    {
      "status": "0x1",
      "cumulativeGasUsed": "0x9305fd",
      "logs": [
        {
          "address": "0x2791bca1f2de4661ed88a30c99a7a9449aa84174",
          "topics": [
            "0x8c5be1e5ebec7d5bd14f71427d1e84f3dd0314c0f7b2291e5b200ac8c7c3b925",
            "0x0000000000000000000000001aa44c933a6718a4bc44064f0067a853c34be9b0",
            "0x000000000000000000000000d189321231b8a71493506ec87b959bed191e8f4d"
          ],
          "data": "0xffffffffffffffffffffffffffffffffffffffffffffffffffffffffffffffff",
          "blockHash": "0x28fa3783a3d644fada6382cdd45a25933d6080af122e4df721edd0428695ab7f",
          "blockNumber": "0x4448b31",
          "transactionHash": "0x03d8c25812198eabd65f6c31c9d9d16658628c9183d3db5668f3af59ae972cfc",
          "transactionIndex": "0x41",
          "logIndex": "0x15b",
          "removed": false
        },
        {
          "address": "0x0000000000000000000000000000000000001010",
          "topics": [
            "0x4dfe1bbbcf077ddc3e01291eea2d5c70c2b422b415d95645b9adcfd678cb1d63",
            "0x0000000000000000000000000000000000000000000000000000000000001010",
            "0x0000000000000000000000001aa44c933a6718a4bc44064f0067a853c34be9b0",
            "0x000000000000000000000000eedba2484aaf940f37cd3cd21a5d7c4a7dafbfc0"
          ],
          "data": "0x0000000000000000000000000000000000000000000000000005bf78dd46247a00000000000000000000000000000000000000000000000046fbf285ee569d870000000000000000000000000000000000000000000208ed602d92f38ef7b1e400000000000000000000000000000000000000000000000046f6330d1110790d0000000000000000000000000000000000000000000208ed6033526c6c3dd65e",
          "blockHash": "0x28fa3783a3d644fada6382cdd45a25933d6080af122e4df721edd0428695ab7f",
          "blockNumber": "0x4448b31",
          "transactionHash": "0x03d8c25812198eabd65f6c31c9d9d16658628c9183d3db5668f3af59ae972cfc",
          "transactionIndex": "0x41",
          "logIndex": "0x15c",
          "removed": false
        }
      ],
      "logsBloom": "0x00000000000020000000000000000000200000000000000000000000000000000000000000000000000000000000000000008000000000000000000000200000000000000000000000000000000000800000000000000000000100000000000000000000000000000000000000000000000000000100000180000000000000000001004000000000000000001000000000000000000000000000000000000000220000000000000000000080000000000000000000000000000020020000004000000000000000000001000000000000002000000000000000100000000000000010008000000000000000000000000000000000000000000000000000100000",
      "type": "0x2",
      "transactionHash": "0x03d8c25812198eabd65f6c31c9d9d16658628c9183d3db5668f3af59ae972cfc",
      "transactionIndex": "0x41",
      "blockHash": "0x28fa3783a3d644fada6382cdd45a25933d6080af122e4df721edd0428695ab7f",
      "blockNumber": "0x4448b31",
      "gasUsed": "0xe44e",
      "effectiveGasPrice": "0x671f96b17",
      "from": "0x1aa44c933a6718a4bc44064f0067a853c34be9b0",
      "to": "0x2791bca1f2de4661ed88a30c99a7a9449aa84174",
      "contractAddress": null
    },
    {
      "status": "0x1",
      "cumulativeGasUsed": "0x93b9a9",
      "logs": [
        {
          "address": "0x4d97dcd97ec945f40cf65f87097ace5ea0476045",
          "topics": [
            "0x17307eab39ab6107e8899845ad3d59bd9653f200f220920489ca2b5937696c31",
            "0x0000000000000000000000001aa44c933a6718a4bc44064f0067a853c34be9b0",
            "0x000000000000000000000000d189321231b8a71493506ec87b959bed191e8f4d"
          ],
          "data": "0x0000000000000000000000000000000000000000000000000000000000000001",
          "blockHash": "0x28fa3783a3d644fada6382cdd45a25933d6080af122e4df721edd0428695ab7f",
          "blockNumber": "0x4448b31",
          "transactionHash": "0x4786dd5694f663f0584213143163c17df6ec5183f9b0650a6b5200b3847ecd10",
          "transactionIndex": "0x42",
          "logIndex": "0x15d",
          "removed": false
        },
        {
          "address": "0x0000000000000000000000000000000000001010",
          "topics": [
            "0x4dfe1bbbcf077ddc3e01291eea2d5c70c2b422b415d95645b9adcfd678cb1d63",
            "0x0000000000000000000000000000000000000000000000000000000000001010",
            "0x0000000000000000000000001aa44c933a6718a4bc44064f0067a853c34be9b0",
            "0x000000000000000000000000eedba2484aaf940f37cd3cd21a5d7c4a7dafbfc0"
          ],
          "data": "0x00000000000000000000000000000000000000000000000000048605f96161a400000000000000000000000000000000000000000000000046f6330d10f780850000000000000000000000000000000000000000000208ed6033526c6c3dd65e00000000000000000000000000000000000000000000000046f1ad0717961ee10000000000000000000000000000000000000000000208ed6037d872659f3802",
          "blockHash": "0x28fa3783a3d644fada6382cdd45a25933d6080af122e4df721edd0428695ab7f",
          "blockNumber": "0x4448b31",
          "transactionHash": "0x4786dd5694f663f0584213143163c17df6ec5183f9b0650a6b5200b3847ecd10",
          "transactionIndex": "0x42",
          "logIndex": "0x15e",
          "removed": false
        }
      ],
      "logsBloom": "0x00000000000020000000000000000000200000000000000000000000000040000000000000000000000000000000000000008000000000000000000000000000000000000000000000000000000000800000000000000000000100000000000002000000000000000000000000000000000000000100000080000000000000000000004000000000000000001000000000000000000000000000000000000000200000000000000000000080000000000000000000000000000020020000004000000000000000000001000000000000002004000000000000100000000000000000200800000000040000000000000000000000000000000000000000100000",
      "type": "0x2",
      "transactionHash": "0x4786dd5694f663f0584213143163c17df6ec5183f9b0650a6b5200b3847ecd10",
      "transactionIndex": "0x42",
      "blockHash": "0x28fa3783a3d644fada6382cdd45a25933d6080af122e4df721edd0428695ab7f",
      "blockNumber": "0x4448b31",
      "gasUsed": "0xb3ac",
      "effectiveGasPrice": "0x671f96b17",
      "from": "0x1aa44c933a6718a4bc44064f0067a853c34be9b0",
      "to": "0x4d97dcd97ec945f40cf65f87097ace5ea0476045",
      "contractAddress": null
    },
    {
      "status": "0x1",
      "cumulativeGasUsed": "0x9c72c9",
      "logs": [
        {
          "address": "0x2791bca1f2de4661ed88a30c99a7a9449aa84174",
          "topics": [
            "0xddf252ad1be2c89b69c2b068fc378daa952ba7f163c4a11628f55a4df523b3ef",
            "0x0000000000000000000000001aa44c933a6718a4bc44064f0067a853c34be9b0",
            "0x000000000000000000000000d189321231b8a71493506ec87b959bed191e8f4d"
          ],
          "data": "0x00000000000000000000000000000000000000000000000000000000000f4240",
          "blockHash": "0x28fa3783a3d644fada6382cdd45a25933d6080af122e4df721edd0428695ab7f",
          "blockNumber": "0x4448b31",
          "transactionHash": "0x20269a529d6734c6de241c0fda8439355323aaa2c8218b25fe5447988b325657",
          "transactionIndex": "0x43",
          "logIndex": "0x15f",
          "removed": false
        },
        {
          "address": "0x2791bca1f2de4661ed88a30c99a7a9449aa84174",
          "topics": [
            "0x8c5be1e5ebec7d5bd14f71427d1e84f3dd0314c0f7b2291e5b200ac8c7c3b925",
            "0x0000000000000000000000001aa44c933a6718a4bc44064f0067a853c34be9b0",
            "0x000000000000000000000000d189321231b8a71493506ec87b959bed191e8f4d"
          ],
          "data": "0xfffffffffffffffffffffffffffffffffffffffffffffffffffffffffff0bdbf",
          "blockHash": "0x28fa3783a3d644fada6382cdd45a25933d6080af122e4df721edd0428695ab7f",
          "blockNumber": "0x4448b31",
          "transactionHash": "0x20269a529d6734c6de241c0fda8439355323aaa2c8218b25fe5447988b325657",
          "transactionIndex": "0x43",
          "logIndex": "0x160",
          "removed": false
        },
        {
          "address": "0x2791bca1f2de4661ed88a30c99a7a9449aa84174",
          "topics": [
            "0xddf252ad1be2c89b69c2b068fc378daa952ba7f163c4a11628f55a4df523b3ef",
            "0x000000000000000000000000d189321231b8a71493506ec87b959bed191e8f4d",
            "0x0000000000000000000000004d97dcd97ec945f40cf65f87097ace5ea0476045"
          ],
          "data": "0x000000000000000000000000000000000000000000000000000000000003d090",
          "blockHash": "0x28fa3783a3d644fada6382cdd45a25933d6080af122e4df721edd0428695ab7f",
          "blockNumber": "0x4448b31",
          "transactionHash": "0x20269a529d6734c6de241c0fda8439355323aaa2c8218b25fe5447988b325657",
          "transactionIndex": "0x43",
          "logIndex": "0x161",
          "removed": false
        },
        {
          "address": "0x2791bca1f2de4661ed88a30c99a7a9449aa84174",
          "topics": [
            "0x8c5be1e5ebec7d5bd14f71427d1e84f3dd0314c0f7b2291e5b200ac8c7c3b925",
            "0x000000000000000000000000d189321231b8a71493506ec87b959bed191e8f4d",
            "0x0000000000000000000000004d97dcd97ec945f40cf65f87097ace5ea0476045"
          ],
          "data": "0xfffffffffffffffffffffffffffffffffffffffffffffffffffffffffffc2f6f",
          "blockHash": "0x28fa3783a3d644fada6382cdd45a25933d6080af122e4df721edd0428695ab7f",
          "blockNumber": "0x4448b31",
          "transactionHash": "0x20269a529d6734c6de241c0fda8439355323aaa2c8218b25fe5447988b325657",
          "transactionIndex": "0x43",
          "logIndex": "0x162",
          "removed": false
        },
        {
          "address": "0x4d97dcd97ec945f40cf65f87097ace5ea0476045",
          "topics": [
            "0x4a39dc06d4c0dbc64b70af90fd698a233a518aa5d07e595d983b8c0526c8f7fb",
            "0x000000000000000000000000d189321231b8a71493506ec87b959bed191e8f4d",
            "0x0000000000000000000000000000000000000000000000000000000000000000",
            "0x000000000000000000000000d189321231b8a71493506ec87b959bed191e8f4d"
          ],
          "data": "0x000000000000000000000000000000000000000000000000000000000000004000000000000000000000000000000000000000000000000000000000000000a000000000000000000000000000000000000000000000000000000000000000025b79f88e2efa4fa33816dce55ffb3bfb3e85e1b0c5d529730eab6ff5050a61952a240277a66b5190cb9672e61eba43a202e4e996f3bfe2fa374477fe45605d240000000000000000000000000000000000000000000000000000000000000002000000000000000000000000000000000000000000000000000000000003d090000000000000000000000000000000000000000000000000000000000003d090",
          "blockHash": "0x28fa3783a3d644fada6382cdd45a25933d6080af122e4df721edd0428695ab7f",
          "blockNumber": "0x4448b31",
          "transactionHash": "0x20269a529d6734c6de241c0fda8439355323aaa2c8218b25fe5447988b325657",
          "transactionIndex": "0x43",
          "logIndex": "0x163",
          "removed": false
        },
        {
          "address": "0x4d97dcd97ec945f40cf65f87097ace5ea0476045",
          "topics": [
            "0x2e6bb91f8cbcda0c93623c54d0403a43514fabc40084ec96b6d5379a74786298",
            "0x000000000000000000000000d189321231b8a71493506ec87b959bed191e8f4d",
            "0x0000000000000000000000000000000000000000000000000000000000000000",
            "0x41a7b02edc7e1e56661022289f4462a8870239e73b389b8eadd0b5ecde161a78"
          ],
          "data": "0x0000000000000000000000002791bca1f2de4661ed88a30c99a7a9449aa841740000000000000000000000000000000000000000000000000000000000000060000000000000000000000000000000000000000000000000000000000003d090000000000000000000000000000000000000000000000000000000000000000200000000000000000000000000000000000000000000000000000000000000010000000000000000000000000000000000000000000000000000000000000002",
          "blockHash": "0x28fa3783a3d644fada6382cdd45a25933d6080af122e4df721edd0428695ab7f",
          "blockNumber": "0x4448b31",
          "transactionHash": "0x20269a529d6734c6de241c0fda8439355323aaa2c8218b25fe5447988b325657",
          "transactionIndex": "0x43",
          "logIndex": "0x164",
          "removed": false
        },
        {
          "address": "0x2791bca1f2de4661ed88a30c99a7a9449aa84174",
          "topics": [
            "0xddf252ad1be2c89b69c2b068fc378daa952ba7f163c4a11628f55a4df523b3ef",
            "0x000000000000000000000000d189321231b8a71493506ec87b959bed191e8f4d",
            "0x0000000000000000000000004d97dcd97ec945f40cf65f87097ace5ea0476045"
          ],
          "data": "0x000000000000000000000000000000000000000000000000000000000003d090",
          "blockHash": "0x28fa3783a3d644fada6382cdd45a25933d6080af122e4df721edd0428695ab7f",
          "blockNumber": "0x4448b31",
          "transactionHash": "0x20269a529d6734c6de241c0fda8439355323aaa2c8218b25fe5447988b325657",
          "transactionIndex": "0x43",
          "logIndex": "0x165",
          "removed": false
        },
        {
          "address": "0x2791bca1f2de4661ed88a30c99a7a9449aa84174",
          "topics": [
            "0x8c5be1e5ebec7d5bd14f71427d1e84f3dd0314c0f7b2291e5b200ac8c7c3b925",
            "0x000000000000000000000000d189321231b8a71493506ec87b959bed191e8f4d",
            "0x0000000000000000000000004d97dcd97ec945f40cf65f87097ace5ea0476045"
          ],
          "data": "0xfffffffffffffffffffffffffffffffffffffffffffffffffffffffffff85edf",
          "blockHash": "0x28fa3783a3d644fada6382cdd45a25933d6080af122e4df721edd0428695ab7f",
          "blockNumber": "0x4448b31",
          "transactionHash": "0x20269a529d6734c6de241c0fda8439355323aaa2c8218b25fe5447988b325657",
          "transactionIndex": "0x43",
          "logIndex": "0x166",
          "removed": false
        },
        {
          "address": "0x4d97dcd97ec945f40cf65f87097ace5ea0476045",
          "topics": [
            "0x4a39dc06d4c0dbc64b70af90fd698a233a518aa5d07e595d983b8c0526c8f7fb",
            "0x000000000000000000000000d189321231b8a71493506ec87b959bed191e8f4d",
            "0x0000000000000000000000000000000000000000000000000000000000000000",
            "0x000000000000000000000000d189321231b8a71493506ec87b959bed191e8f4d"
          ],
          "data": "0x000000000000000000000000000000000000000000000000000000000000004000000000000000000000000000000000000000000000000000000000000000a000000000000000000000000000000000000000000000000000000000000000021f3d12f7e50de8e5f679511a6241e6cfc60e6a58533027348470b6cc3ad86dfdcb2efae5229def53d080cdcf423dd4a92b272aeb992f5d648744e65c16f2edb10000000000000000000000000000000000000000000000000000000000000002000000000000000000000000000000000000000000000000000000000003d090000000000000000000000000000000000000000000000000000000000003d090",
          "blockHash": "0x28fa3783a3d644fada6382cdd45a25933d6080af122e4df721edd0428695ab7f",
          "blockNumber": "0x4448b31",
          "transactionHash": "0x20269a529d6734c6de241c0fda8439355323aaa2c8218b25fe5447988b325657",
          "transactionIndex": "0x43",
          "logIndex": "0x167",
          "removed": false
        },
        {
          "address": "0x4d97dcd97ec945f40cf65f87097ace5ea0476045",
          "topics": [
            "0x2e6bb91f8cbcda0c93623c54d0403a43514fabc40084ec96b6d5379a74786298",
            "0x000000000000000000000000d189321231b8a71493506ec87b959bed191e8f4d",
            "0x0000000000000000000000000000000000000000000000000000000000000000",
            "0x0b9f873f001fa5ccf06fb55a21663401a86ba8af20c2452baea618a32c08c88f"
          ],
          "data": "0x0000000000000000000000002791bca1f2de4661ed88a30c99a7a9449aa841740000000000000000000000000000000000000000000000000000000000000060000000000000000000000000000000000000000000000000000000000003d090000000000000000000000000000000000000000000000000000000000000000200000000000000000000000000000000000000000000000000000000000000010000000000000000000000000000000000000000000000000000000000000002",
          "blockHash": "0x28fa3783a3d644fada6382cdd45a25933d6080af122e4df721edd0428695ab7f",
          "blockNumber": "0x4448b31",
          "transactionHash": "0x20269a529d6734c6de241c0fda8439355323aaa2c8218b25fe5447988b325657",
          "transactionIndex": "0x43",
          "logIndex": "0x168",
          "removed": false
        },
        {
          "address": "0x2791bca1f2de4661ed88a30c99a7a9449aa84174",
          "topics": [
            "0xddf252ad1be2c89b69c2b068fc378daa952ba7f163c4a11628f55a4df523b3ef",
            "0x000000000000000000000000d189321231b8a71493506ec87b959bed191e8f4d",
            "0x0000000000000000000000004d97dcd97ec945f40cf65f87097ace5ea0476045"
          ],
          "data": "0x000000000000000000000000000000000000000000000000000000000003d090",
          "blockHash": "0x28fa3783a3d644fada6382cdd45a25933d6080af122e4df721edd0428695ab7f",
          "blockNumber": "0x4448b31",
          "transactionHash": "0x20269a529d6734c6de241c0fda8439355323aaa2c8218b25fe5447988b325657",
          "transactionIndex": "0x43",
          "logIndex": "0x169",
          "removed": false
        },
        {
          "address": "0x2791bca1f2de4661ed88a30c99a7a9449aa84174",
          "topics": [
            "0x8c5be1e5ebec7d5bd14f71427d1e84f3dd0314c0f7b2291e5b200ac8c7c3b925",
            "0x000000000000000000000000d189321231b8a71493506ec87b959bed191e8f4d",
            "0x0000000000000000000000004d97dcd97ec945f40cf65f87097ace5ea0476045"
          ],
          "data": "0xfffffffffffffffffffffffffffffffffffffffffffffffffffffffffff48e4f",
          "blockHash": "0x28fa3783a3d644fada6382cdd45a25933d6080af122e4df721edd0428695ab7f",
          "blockNumber": "0x4448b31",
          "transactionHash": "0x20269a529d6734c6de241c0fda8439355323aaa2c8218b25fe5447988b325657",
          "transactionIndex": "0x43",
          "logIndex": "0x16a",
          "removed": false
        },
        {
          "address": "0x4d97dcd97ec945f40cf65f87097ace5ea0476045",
          "topics": [
            "0x4a39dc06d4c0dbc64b70af90fd698a233a518aa5d07e595d983b8c0526c8f7fb",
            "0x000000000000000000000000d189321231b8a71493506ec87b959bed191e8f4d",
            "0x0000000000000000000000000000000000000000000000000000000000000000",
            "0x000000000000000000000000d189321231b8a71493506ec87b959bed191e8f4d"
          ],
          "data": "0x000000000000000000000000000000000000000000000000000000000000004000000000000000000000000000000000000000000000000000000000000000a0000000000000000000000000000000000000000000000000000000000000000234ce5249c3be97799029ce2befcd06c638bcd322d992ec088fbe9a634beabc392fcd7b2761cebe2d949d02a24176f4d02936d2901d74cc58d6aa286cd7c2ea620000000000000000000000000000000000000000000000000000000000000002000000000000000000000000000000000000000000000000000000000003d090000000000000000000000000000000000000000000000000000000000003d090",
          "blockHash": "0x28fa3783a3d644fada6382cdd45a25933d6080af122e4df721edd0428695ab7f",
          "blockNumber": "0x4448b31",
          "transactionHash": "0x20269a529d6734c6de241c0fda8439355323aaa2c8218b25fe5447988b325657",
          "transactionIndex": "0x43",
          "logIndex": "0x16b",
          "removed": false
        },
        {
          "address": "0x4d97dcd97ec945f40cf65f87097ace5ea0476045",
          "topics": [
            "0x2e6bb91f8cbcda0c93623c54d0403a43514fabc40084ec96b6d5379a74786298",
            "0x000000000000000000000000d189321231b8a71493506ec87b959bed191e8f4d",
            "0x0000000000000000000000000000000000000000000000000000000000000000",
            "0x88fad6af135ca7cbd55a8bda5a1243125ded68b1e521066009cc990b13960b88"
          ],
          "data": "0x0000000000000000000000002791bca1f2de4661ed88a30c99a7a9449aa841740000000000000000000000000000000000000000000000000000000000000060000000000000000000000000000000000000000000000000000000000003d090000000000000000000000000000000000000000000000000000000000000000200000000000000000000000000000000000000000000000000000000000000010000000000000000000000000000000000000000000000000000000000000002",
          "blockHash": "0x28fa3783a3d644fada6382cdd45a25933d6080af122e4df721edd0428695ab7f",
          "blockNumber": "0x4448b31",
          "transactionHash": "0x20269a529d6734c6de241c0fda8439355323aaa2c8218b25fe5447988b325657",
          "transactionIndex": "0x43",
          "logIndex": "0x16c",
          "removed": false
        },
        {
          "address": "0x2791bca1f2de4661ed88a30c99a7a9449aa84174",
          "topics": [
            "0xddf252ad1be2c89b69c2b068fc378daa952ba7f163c4a11628f55a4df523b3ef",
            "0x000000000000000000000000d189321231b8a71493506ec87b959bed191e8f4d",
            "0x0000000000000000000000004d97dcd97ec945f40cf65f87097ace5ea0476045"
          ],
          "data": "0x000000000000000000000000000000000000000000000000000000000003d090",
          "blockHash": "0x28fa3783a3d644fada6382cdd45a25933d6080af122e4df721edd0428695ab7f",
          "blockNumber": "0x4448b31",
          "transactionHash": "0x20269a529d6734c6de241c0fda8439355323aaa2c8218b25fe5447988b325657",
          "transactionIndex": "0x43",
          "logIndex": "0x16d",
          "removed": false
        },
        {
          "address": "0x2791bca1f2de4661ed88a30c99a7a9449aa84174",
          "topics": [
            "0x8c5be1e5ebec7d5bd14f71427d1e84f3dd0314c0f7b2291e5b200ac8c7c3b925",
            "0x000000000000000000000000d189321231b8a71493506ec87b959bed191e8f4d",
            "0x0000000000000000000000004d97dcd97ec945f40cf65f87097ace5ea0476045"
          ],
          "data": "0xfffffffffffffffffffffffffffffffffffffffffffffffffffffffffff0bdbf",
          "blockHash": "0x28fa3783a3d644fada6382cdd45a25933d6080af122e4df721edd0428695ab7f",
          "blockNumber": "0x4448b31",
          "transactionHash": "0x20269a529d6734c6de241c0fda8439355323aaa2c8218b25fe5447988b325657",
          "transactionIndex": "0x43",
          "logIndex": "0x16e",
          "removed": false
        },
        {
          "address": "0x4d97dcd97ec945f40cf65f87097ace5ea0476045",
          "topics": [
            "0x4a39dc06d4c0dbc64b70af90fd698a233a518aa5d07e595d983b8c0526c8f7fb",
            "0x000000000000000000000000d189321231b8a71493506ec87b959bed191e8f4d",
            "0x0000000000000000000000000000000000000000000000000000000000000000",
            "0x000000000000000000000000d189321231b8a71493506ec87b959bed191e8f4d"
          ],
          "data": "0x000000000000000000000000000000000000000000000000000000000000004000000000000000000000000000000000000000000000000000000000000000a000000000000000000000000000000000000000000000000000000000000000023194161f48ddf3c0821047032dc0ae6395bb7220ed5d2100f65f68a74c4bd845c3565e47113545c3ac18086bb3b7339b8a13e072c36cd6fcb26aeefed53c49370000000000000000000000000000000000000000000000000000000000000002000000000000000000000000000000000000000000000000000000000003d090000000000000000000000000000000000000000000000000000000000003d090",
          "blockHash": "0x28fa3783a3d644fada6382cdd45a25933d6080af122e4df721edd0428695ab7f",
          "blockNumber": "0x4448b31",
          "transactionHash": "0x20269a529d6734c6de241c0fda8439355323aaa2c8218b25fe5447988b325657",
          "transactionIndex": "0x43",
          "logIndex": "0x16f",
          "removed": false
        },
        {
          "address": "0x4d97dcd97ec945f40cf65f87097ace5ea0476045",
          "topics": [
            "0x2e6bb91f8cbcda0c93623c54d0403a43514fabc40084ec96b6d5379a74786298",
            "0x000000000000000000000000d189321231b8a71493506ec87b959bed191e8f4d",
            "0x0000000000000000000000000000000000000000000000000000000000000000",
            "0x22bfce8b3fc9e6b23088dad87c8b90771b3b47495d5f2dd76a0b8e45c2e5637b"
          ],
          "data": "0x0000000000000000000000002791bca1f2de4661ed88a30c99a7a9449aa841740000000000000000000000000000000000000000000000000000000000000060000000000000000000000000000000000000000000000000000000000003d090000000000000000000000000000000000000000000000000000000000000000200000000000000000000000000000000000000000000000000000000000000010000000000000000000000000000000000000000000000000000000000000002",
          "blockHash": "0x28fa3783a3d644fada6382cdd45a25933d6080af122e4df721edd0428695ab7f",
          "blockNumber": "0x4448b31",
          "transactionHash": "0x20269a529d6734c6de241c0fda8439355323aaa2c8218b25fe5447988b325657",
          "transactionIndex": "0x43",
          "logIndex": "0x170",
          "removed": false
        },
        {
          "address": "0xd189321231b8a71493506ec87b959bed191e8f4d",
          "topics": [
            "0xddf252ad1be2c89b69c2b068fc378daa952ba7f163c4a11628f55a4df523b3ef",
            "0x0000000000000000000000000000000000000000000000000000000000000000",
            "0x0000000000000000000000001aa44c933a6718a4bc44064f0067a853c34be9b0"
          ],
          "data": "0x000000000000000000000000000000000000000000000000000000000003d090",
          "blockHash": "0x28fa3783a3d644fada6382cdd45a25933d6080af122e4df721edd0428695ab7f",
          "blockNumber": "0x4448b31",
          "transactionHash": "0x20269a529d6734c6de241c0fda8439355323aaa2c8218b25fe5447988b325657",
          "transactionIndex": "0x43",
          "logIndex": "0x171",
          "removed": false
        },
        {
          "address": "0xd189321231b8a71493506ec87b959bed191e8f4d",
          "topics": [
            "0xe1fffcc4923d04b559f4d29a8bfc6cda04eb5b0d3c460751c2402c5c5cc9109c",
            "0x0000000000000000000000001aa44c933a6718a4bc44064f0067a853c34be9b0"
          ],
          "data": "0x000000000000000000000000000000000000000000000000000000000003d090",
          "blockHash": "0x28fa3783a3d644fada6382cdd45a25933d6080af122e4df721edd0428695ab7f",
          "blockNumber": "0x4448b31",
          "transactionHash": "0x20269a529d6734c6de241c0fda8439355323aaa2c8218b25fe5447988b325657",
          "transactionIndex": "0x43",
          "logIndex": "0x172",
          "removed": false
        },
        {
          "address": "0x0000000000000000000000000000000000001010",
          "topics": [
            "0x4dfe1bbbcf077ddc3e01291eea2d5c70c2b422b415d95645b9adcfd678cb1d63",
            "0x0000000000000000000000000000000000000000000000000000000000001010",
            "0x0000000000000000000000001aa44c933a6718a4bc44064f0067a853c34be9b0",
            "0x000000000000000000000000eedba2484aaf940f37cd3cd21a5d7c4a7dafbfc0"
          ],
          "data": "0x000000000000000000000000000000000000000000000000003838f6d554c26000000000000000000000000000000000000000000000000046f1ad07178278110000000000000000000000000000000000000000000208ed6037d872659f380200000000000000000000000000000000000000000000000046b97410422db5b10000000000000000000000000000000000000000000208ed607011693af3fa62",
          "blockHash": "0x28fa3783a3d644fada6382cdd45a25933d6080af122e4df721edd0428695ab7f",
          "blockNumber": "0x4448b31",
          "transactionHash": "0x20269a529d6734c6de241c0fda8439355323aaa2c8218b25fe5447988b325657",
          "transactionIndex": "0x43",
          "logIndex": "0x173",
          "removed": false
        }
      ],
      "logsBloom": "0x00000000000020008000000020000000200000010000000000000000000440000000000040000000010000002000000000008000000000000001000000200000000000000000000000000008000200800000000000000000000100008000000000000000020000000001000080000800000000000900000180000010000000000001004000000000000000001000000000000001002000000000000000000000220000000400000000800080000001000000000000000000000020020000004000000002000000000001000000000000002404000000000000100080000020000010008000000000040000000000000000080004080000400020001002100000",
      "type": "0x2",
      "transactionHash": "0x20269a529d6734c6de241c0fda8439355323aaa2c8218b25fe5447988b325657",
      "transactionIndex": "0x43",
      "blockHash": "0x28fa3783a3d644fada6382cdd45a25933d6080af122e4df721edd0428695ab7f",
      "blockNumber": "0x4448b31",
      "gasUsed": "0x8b920",
      "effectiveGasPrice": "0x671f96b17",
      "from": "0x1aa44c933a6718a4bc44064f0067a853c34be9b0",
      "to": "0xd189321231b8a71493506ec87b959bed191e8f4d",
      "contractAddress": null
    }
  ],
  "libraries": [],
  "pending": [],
  "returns": {},
  "timestamp": 1747428530,
  "chain": 137,
  "commit": "d6a2b0f"
}