{
  "transactions": [
    {
      "hash": "0x5ffeddd479aaf23e40e2b35f7b3a8dddfb01822fcb898c77346a030afbb15557",
      "transactionType": "CALL",
      "contractName": null,
      "contractAddress": "0x2791bca1f2de4661ed88a30c99a7a9449aa84174",
      "function": "approve(address,uint256)",
      "arguments": [
        "0x4D97DCd97eC945f40cF65F87097ACe5EA0476045",
        "115792089237316195423570985008687907853269984665640564039457584007913129639935"
      ],
      "transaction": {
        "from": "0x1aa44c933a6718a4bc44064f0067a853c34be9b0",
        "to": "0x2791bca1f2de4661ed88a30c99a7a9449aa84174",
        "gas": "0xdc35",
        "value": "0x0",
        "input": "0x095ea7b30000000000000000000000004d97dcd97ec945f40cf65f87097ace5ea0476045ffffffffffffffffffffffffffffffffffffffffffffffffffffffffffffffff",
        "nonce": "0xae",
        "chainId": "0x89"
      },
      "additionalContracts": [],
      "isFixedGasLimit": false
    },
    {
      "hash": "0x0dc1e87d636e9486ca0d1c791c887311e8b6d7e69140e510cd3fe92828d1b3ca",
      "transactionType": "CALL",
      "contractName": null,
      "contractAddress": "0x4d97dcd97ec945f40cf65f87097ace5ea0476045",
      "function": "setApprovalForAll(address,bool)",
      "arguments": [
        "0xC01BbFC94C41F0D8Fc242cFe8465ea4dcD4f20C5",
        "true"
      ],
      "transaction": {
        "from": "0x1aa44c933a6718a4bc44064f0067a853c34be9b0",
        "to": "0x4d97dcd97ec945f40cf65f87097ace5ea0476045",
        "gas": "0x8ccd",
        "value": "0x0",
        "input": "0xa22cb465000000000000000000000000c01bbfc94c41f0d8fc242cfe8465ea4dcd4f20c50000000000000000000000000000000000000000000000000000000000000001",
        "nonce": "0xaf",
        "chainId": "0x89"
      },
      "additionalContracts": [],
      "isFixedGasLimit": false
    },
    {
      "hash": "0xa13d40d440138d3cde2389cb12f41b227c7fb744f9280e5a917dbd08604071ad",
      "transactionType": "CALL",
      "contractName": null,
      "contractAddress": "0xc01bbfc94c41f0d8fc242cfe8465ea4dcd4f20c5",
      "function": "createIndex((address,bytes32[],uint256[],bytes,address),bytes)",
      "arguments": [
        "(0x7bcd278Bb230fF014149cE32c5a9663812Da9810, [0xf9425f69ce7fbde7ee54887ea24b164d2d4c06b594c4d4f94b1921cd79321b19, 0xd6f28c879d79f518b1ac0aea7a3e9e012fb8c1431687791b6a1eb6569e9da853, 0xc960789d6eb636756453f1d2cc30718c8a0d0fe90eedec1c2c35fcc3bf34c10a, 0x18be3e38f5a3d92d7a556afe7fa59ab3b2e8fb16a349596a516c908b8060f589], [1, 1, 1, 1], 0x00000000000000000000000000000000000000000000000000000000000000200000000000000000000000000000000000000000000000000000000000000025537570706f7274696e6720726f6c6573206272696e6720737461626c652070726f66697473000000000000000000000000000000000000000000000000000000, 0x3De278A5acdD0123eD668478ac8cCd2E178510BC)",
        "0x"
      ],
      "transaction": {
        "from": "0x1aa44c933a6718a4bc44064f0067a853c34be9b0",
        "to": "0xc01bbfc94c41f0d8fc242cfe8465ea4dcd4f20c5",
        "gas": "0x22ea6",
        "value": "0x0",
        "input": "0xd2f72136000000000000000000000000000000000000000000000000000000000000004000000000000000000000000000000000000000000000000000000000000002c00000000000000000000000007bcd278bb230ff014149ce32c5a9663812da981000000000000000000000000000000000000000000000000000000000000000a0000000000000000000000000000000000000000000000000000000000000014000000000000000000000000000000000000000000000000000000000000001e00000000000000000000000003de278a5acdd0123ed668478ac8ccd2e178510bc0000000000000000000000000000000000000000000000000000000000000004f9425f69ce7fbde7ee54887ea24b164d2d4c06b594c4d4f94b1921cd79321b19d6f28c879d79f518b1ac0aea7a3e9e012fb8c1431687791b6a1eb6569e9da853c960789d6eb636756453f1d2cc30718c8a0d0fe90eedec1c2c35fcc3bf34c10a18be3e38f5a3d92d7a556afe7fa59ab3b2e8fb16a349596a516c908b8060f58900000000000000000000000000000000000000000000000000000000000000040000000000000000000000000000000000000000000000000000000000000001000000000000000000000000000000000000000000000000000000000000000100000000000000000000000000000000000000000000000000000000000000010000000000000000000000000000000000000000000000000000000000000001000000000000000000000000000000000000000000000000000000000000008000000000000000000000000000000000000000000000000000000000000000200000000000000000000000000000000000000000000000000000000000000025537570706f7274696e6720726f6c6573206272696e6720737461626c652070726f666974730000000000000000000000000000000000000000000000000000000000000000000000000000000000000000000000000000000000000000000000",
        "nonce": "0xb0",
        "chainId": "0x89"
      },
      "additionalContracts": [],
      "isFixedGasLimit": false
    }
  ],
  "receipts": [
    {
      "status": "0x1",
      "cumulativeGasUsed": "0xd527e8",
      "logs": [
        {
          "address": "0x2791bca1f2de4661ed88a30c99a7a9449aa84174",
          "topics": [
            "0x8c5be1e5ebec7d5bd14f71427d1e84f3dd0314c0f7b2291e5b200ac8c7c3b925",
            "0x0000000000000000000000001aa44c933a6718a4bc44064f0067a853c34be9b0",
            "0x0000000000000000000000004d97dcd97ec945f40cf65f87097ace5ea0476045"
          ],
          "data": "0xffffffffffffffffffffffffffffffffffffffffffffffffffffffffffffffff",
          "blockHash": "0x3450b8fa72e1b9efa1d48319c7396ae5b222eb1c0ed3790d3672b30e4221eed3",
          "blockNumber": "0x4444795",
          "transactionHash": "0x5ffeddd479aaf23e40e2b35f7b3a8dddfb01822fcb898c77346a030afbb15557",
          "transactionIndex": "0x4b",
          "logIndex": "0x1db",
          "removed": false
        },
        {
          "address": "0x0000000000000000000000000000000000001010",
          "topics": [
            "0x4dfe1bbbcf077ddc3e01291eea2d5c70c2b422b415d95645b9adcfd678cb1d63",
            "0x0000000000000000000000000000000000000000000000000000000000001010",
            "0x0000000000000000000000001aa44c933a6718a4bc44064f0067a853c34be9b0",
            "0x000000000000000000000000a8b52f02108aa5f4b675bdcc973760022d7c6020"
          ],
          "data": "0x0000000000000000000000000000000000000000000000000003c6e1f32ebe000000000000000000000000000000000000000000000000004dc72ab4a7acd1f300000000000000000000000000000000000000000000000b3748d8fe3e6bf4410000000000000000000000000000000000000000000000004dc363d2b47e13f300000000000000000000000000000000000000000000000b374c9fe0319ab241",
          "blockHash": "0x3450b8fa72e1b9efa1d48319c7396ae5b222eb1c0ed3790d3672b30e4221eed3",
          "blockNumber": "0x4444795",
          "transactionHash": "0x5ffeddd479aaf23e40e2b35f7b3a8dddfb01822fcb898c77346a030afbb15557",
          "transactionIndex": "0x4b",
          "logIndex": "0x1dc",
          "removed": false
        }
      ],
      "logsBloom": "0x00000000000020000000000000000000000000000000000000000000000000000000000000000000000000000002000000008000000000000000000000200000000000000000000000000000000200800000000000000000000100000000000000000000000000000000000000000000000000000000000180000000000000000001000000000000000000001000000000000000000000040000000000000000220000000400004000000080000001000000000000000000000000000000004000000000000000000001000000000000000000000000000000100000000000000010008000000000000000000000000000000000000000000000000000100000",
      "type": "0x2",
      "transactionHash": "0x5ffeddd479aaf23e40e2b35f7b3a8dddfb01822fcb898c77346a030afbb15557",
      "transactionIndex": "0x4b",
      "blockHash": "0x3450b8fa72e1b9efa1d48319c7396ae5b222eb1c0ed3790d3672b30e4221eed3",
      "blockNumber": "0x4444795",
      "gasUsed": "0x9692",
      "effectiveGasPrice": "0xf34a81667",
      "from": "0x1aa44c933a6718a4bc44064f0067a853c34be9b0",
      "to": "0x2791bca1f2de4661ed88a30c99a7a9449aa84174",
      "contractAddress": null
    },
    {
      "status": "0x1",
      "cumulativeGasUsed": "0xd58dd8",
      "logs": [
        {
          "address": "0x4d97dcd97ec945f40cf65f87097ace5ea0476045",
          "topics": [
            "0x17307eab39ab6107e8899845ad3d59bd9653f200f220920489ca2b5937696c31",
            "0x0000000000000000000000001aa44c933a6718a4bc44064f0067a853c34be9b0",
            "0x000000000000000000000000c01bbfc94c41f0d8fc242cfe8465ea4dcd4f20c5"
          ],
          "data": "0x0000000000000000000000000000000000000000000000000000000000000001",
          "blockHash": "0x3450b8fa72e1b9efa1d48319c7396ae5b222eb1c0ed3790d3672b30e4221eed3",
          "blockNumber": "0x4444795",
          "transactionHash": "0x0dc1e87d636e9486ca0d1c791c887311e8b6d7e69140e510cd3fe92828d1b3ca",
          "transactionIndex": "0x4c",
          "logIndex": "0x1dd",
          "removed": false
        },
        {
          "address": "0x0000000000000000000000000000000000001010",
          "topics": [
            "0x4dfe1bbbcf077ddc3e01291eea2d5c70c2b422b415d95645b9adcfd678cb1d63",
            "0x0000000000000000000000000000000000000000000000000000000000001010",
            "0x0000000000000000000000001aa44c933a6718a4bc44064f0067a853c34be9b0",
            "0x000000000000000000000000a8b52f02108aa5f4b675bdcc973760022d7c6020"
          ],
          "data": "0x00000000000000000000000000000000000000000000000000028e96a8b390000000000000000000000000000000000000000000000000004dbe392e22afb13500000000000000000000000000000000000000000000000b374c9fe0319ab2410000000000000000000000000000000000000000000000004dbbaa9779fc213500000000000000000000000000000000000000000000000b374f2e76da4e4241",
          "blockHash": "0x3450b8fa72e1b9efa1d48319c7396ae5b222eb1c0ed3790d3672b30e4221eed3",
          "blockNumber": "0x4444795",
          "transactionHash": "0x0dc1e87d636e9486ca0d1c791c887311e8b6d7e69140e510cd3fe92828d1b3ca",
          "transactionIndex": "0x4c",
          "logIndex": "0x1de",
          "removed": false
        }
      ],
      "logsBloom": "0x00000000000020000000000000000000000000000000000000000000000040000000000000000000000000000002000000008000000000000000000000000000000000000000000000200000000000800000000000000000000100000000000002000000000000000000000000000000000000000000000080001000000000000000000000000000000000001000000000000000000000040000000000000000200000000000004000000080000000000000000000000000000000000000004000000000000000000001000000000000000004000000000000100000000000000000200800000000040000000000000000000000000000000000000000100000",
      "type": "0x2",
      "transactionHash": "0x0dc1e87d636e9486ca0d1c791c887311e8b6d7e69140e510cd3fe92828d1b3ca",
      "transactionIndex": "0x4c",
      "blockHash": "0x3450b8fa72e1b9efa1d48319c7396ae5b222eb1c0ed3790d3672b30e4221eed3",
      "blockNumber": "0x4444795",
      "gasUsed": "0x65f0",
      "effectiveGasPrice": "0xf34a81667",
      "from": "0x1aa44c933a6718a4bc44064f0067a853c34be9b0",
      "to": "0x4d97dcd97ec945f40cf65f87097ace5ea0476045",
      "contractAddress": null
    },
    {
      "status": "0x1",
      "cumulativeGasUsed": "0xd7224c",
      "logs": [
        {
          "address": "0x0000000000000000000000000000000000001010",
          "topics": [
            "0x4dfe1bbbcf077ddc3e01291eea2d5c70c2b422b415d95645b9adcfd678cb1d63",
            "0x0000000000000000000000000000000000000000000000000000000000001010",
            "0x0000000000000000000000001aa44c933a6718a4bc44064f0067a853c34be9b0",
            "0x000000000000000000000000a8b52f02108aa5f4b675bdcc973760022d7c6020"
          ],
          "data": "0x000000000000000000000000000000000000000000000000000a252eea7eac000000000000000000000000000000000000000000000000004db82b2674440da500000000000000000000000000000000000000000000000b374f2e76da4e42410000000000000000000000000000000000000000000000004dae05f789c561a500000000000000000000000000000000000000000000000b375953a5c4ccee41",
          "blockHash": "0x3450b8fa72e1b9efa1d48319c7396ae5b222eb1c0ed3790d3672b30e4221eed3",
          "blockNumber": "0x4444795",
          "transactionHash": "0xa13d40d440138d3cde2389cb12f41b227c7fb744f9280e5a917dbd08604071ad",
          "transactionIndex": "0x4d",
          "logIndex": "0x1df",
          "removed": false
        }
      ],
      "logsBloom": "0x00000000000020000000000000000000000000000000000000000000000000000000000000000000000000000002000000008000000000000000000000000000000000000000000000000000000000800000000000000000000100000000000000000000000000000000000000000000000000000000000080000000000000000000000000000000000000001000000000000000000000040000000000000000200000000000004000000080000000000000000000000000000000000000004000000000000000000001000000000000000000000000000000100000000000000000000000000000000000000000000000000000000000000000000000100000",
      "type": "0x2",
      "transactionHash": "0xa13d40d440138d3cde2389cb12f41b227c7fb744f9280e5a917dbd08604071ad",
      "transactionIndex": "0x4d",
      "blockHash": "0x3450b8fa72e1b9efa1d48319c7396ae5b222eb1c0ed3790d3672b30e4221eed3",
      "blockNumber": "0x4444795",
      "gasUsed": "0x19474",
      "effectiveGasPrice": "0xf34a81667",
      "from": "0x1aa44c933a6718a4bc44064f0067a853c34be9b0",
      "to": "0xc01bbfc94c41f0d8fc242cfe8465ea4dcd4f20c5",
      "contractAddress": null
    }
  ],
  "libraries": [],
  "pending": [],
  "returns": {},
  "timestamp": 1747391719,
  "chain": 137,
  "commit": "d6a2b0f"
}