{
  "transactions": [
    {
      "hash": "0xb5e77271eaf583034f289327329c37b76eb943abe62154c190aa0675e009dee3",
      "transactionType": "CALL",
      "contractName": null,
      "contractAddress": "0x2791bca1f2de4661ed88a30c99a7a9449aa84174",
      "function": "approve(address,uint256)",
      "arguments": [
        "0x4D97DCd97eC945f40cF65F87097ACe5EA0476045",
        "115792089237316195423570985008687907853269984665640564039457584007913129639935"
      ],
      "transaction": {
        "from": "0x1aa44c933a6718a4bc44064f0067a853c34be9b0",
        "to": "0x2791bca1f2de4661ed88a30c99a7a9449aa84174",
        "gas": "0xdc35",
        "value": "0x0",
        "input": "0x095ea7b30000000000000000000000004d97dcd97ec945f40cf65f87097ace5ea0476045ffffffffffffffffffffffffffffffffffffffffffffffffffffffffffffffff",
        "nonce": "0xc2",
        "chainId": "0x89"
      },
      "additionalContracts": [],
      "isFixedGasLimit": false
    },
    {
      "hash": "0x2779e3aa38b48178a1e63f17f76940417c10a6bc297b6508bc5473945f293e27",
      "transactionType": "CALL",
      "contractName": null,
      "contractAddress": "0x4d97dcd97ec945f40cf65f87097ace5ea0476045",
      "function": "setApprovalForAll(address,bool)",
      "arguments": [
        "0xC01BbFC94C41F0D8Fc242cFe8465ea4dcD4f20C5",
        "true"
      ],
      "transaction": {
        "from": "0x1aa44c933a6718a4bc44064f0067a853c34be9b0",
        "to": "0x4d97dcd97ec945f40cf65f87097ace5ea0476045",
        "gas": "0x8ccd",
        "value": "0x0",
        "input": "0xa22cb465000000000000000000000000c01bbfc94c41f0d8fc242cfe8465ea4dcd4f20c50000000000000000000000000000000000000000000000000000000000000001",
        "nonce": "0xc3",
        "chainId": "0x89"
      },
      "additionalContracts": [],
      "isFixedGasLimit": false
    },
    {
      "hash": "0x85bdb96935446616459c7cb7a9c67910d895b71eb7f3b79b6f5d06adf20c28a2",
      "transactionType": "CALL",
      "contractName": null,
      "contractAddress": "0xc01bbfc94c41f0d8fc242cfe8465ea4dcd4f20c5",
      "function": "createIndex((address,bytes32[],uint256[],bytes,address),bytes)",
      "arguments": [
        "(0x7bcd278Bb230fF014149cE32c5a9663812Da9810, [0x7d98815be880769be11a63b4df815b9bdcbf6ae007a8caaba9a2909816a8d1c6, 0x8904b9db5aff6b1b84f9daaa0f8038b661be40d883050553b5675d30002c7abc, 0xe87bd5cdc398599a9348d7a56c612948cb83a42faa1e2934343058bd604dc099, 0x54416d15d2428ec5fb1e6f2e646f0fd570f367be80d9dd285c479c8e9ce238a6], [1, 1, 1, 1], 0x00000000000000000000000000000000000000000000000000000000000000200000000000000000000000000000000000000000000000000000000000000025537570706f7274696e6720726f6c6573206272696e6720737461626c652070726f66697473000000000000000000000000000000000000000000000000000000, 0x3De278A5acdD0123eD668478ac8cCd2E178510BC)",
        "0x"
      ],
      "transaction": {
        "from": "0x1aa44c933a6718a4bc44064f0067a853c34be9b0",
        "to": "0xc01bbfc94c41f0d8fc242cfe8465ea4dcd4f20c5",
        "gas": "0x1272ff",
        "value": "0x0",
        "input": "0xd2f72136000000000000000000000000000000000000000000000000000000000000004000000000000000000000000000000000000000000000000000000000000002c00000000000000000000000007bcd278bb230ff014149ce32c5a9663812da981000000000000000000000000000000000000000000000000000000000000000a0000000000000000000000000000000000000000000000000000000000000014000000000000000000000000000000000000000000000000000000000000001e00000000000000000000000003de278a5acdd0123ed668478ac8ccd2e178510bc00000000000000000000000000000000000000000000000000000000000000047d98815be880769be11a63b4df815b9bdcbf6ae007a8caaba9a2909816a8d1c68904b9db5aff6b1b84f9daaa0f8038b661be40d883050553b5675d30002c7abce87bd5cdc398599a9348d7a56c612948cb83a42faa1e2934343058bd604dc09954416d15d2428ec5fb1e6f2e646f0fd570f367be80d9dd285c479c8e9ce238a600000000000000000000000000000000000000000000000000000000000000040000000000000000000000000000000000000000000000000000000000000001000000000000000000000000000000000000000000000000000000000000000100000000000000000000000000000000000000000000000000000000000000010000000000000000000000000000000000000000000000000000000000000001000000000000000000000000000000000000000000000000000000000000008000000000000000000000000000000000000000000000000000000000000000200000000000000000000000000000000000000000000000000000000000000025537570706f7274696e6720726f6c6573206272696e6720737461626c652070726f666974730000000000000000000000000000000000000000000000000000000000000000000000000000000000000000000000000000000000000000000000",
        "nonce": "0xc4",
        "chainId": "0x89"
      },
      "additionalContracts": [
        {
          "transactionType": "CREATE2",
          "address": "0x0586edd25f88657bcaf47be91b4c62c79522d7ef",
          "initCode": "0x6103ed3d81600a3d39f3363d3d373d3d3d363d737bcd278bb230ff014149ce32c5a9663812da98105af43d82803e903d91602b57fd5bf30000000000000000000000000000000000000000000000000000000000000020000000000000000000000000000000000000000000000000000000000000012000000000000000000000000000000000000000000000000000000000000001c000000000000000000000000000000000000000000000000000000000000002600000000000000000000000000000000000000000000000000000000000000300000000000000000000000000c01bbfc94c41f0d8fc242cfe8465ea4dcd4f20c50000000000000000000000004d97dcd97ec945f40cf65f87097ace5ea04760450000000000000000000000002791bca1f2de4661ed88a30c99a7a9449aa841740000000000000000000000007bcd278bb230ff014149ce32c5a9663812da98100000000000000000000000003de278a5acdd0123ed668478ac8ccd2e178510bc00000000000000000000000000000000000000000000000000000000000000041e50f3ac63a65fe7a076dc904e72e9fb904bd5b75ce40adb2b6aa8f859bb5fd0287d8e28b0969500785d137706cc4cf0ac406b2a92d44ad226efde922d4c660a30ba754e82d4d0ebed6e2f93b6d83b4e23087e9db5d0abcbcc98b1dd61d6cdad8a707a5380305bf68bc6e589ec4597aeec8ab0eb84ec661c47eff81cf283af6800000000000000000000000000000000000000000000000000000000000000047d98815be880769be11a63b4df815b9bdcbf6ae007a8caaba9a2909816a8d1c68904b9db5aff6b1b84f9daaa0f8038b661be40d883050553b5675d30002c7abce87bd5cdc398599a9348d7a56c612948cb83a42faa1e2934343058bd604dc09954416d15d2428ec5fb1e6f2e646f0fd570f367be80d9dd285c479c8e9ce238a600000000000000000000000000000000000000000000000000000000000000040000000000000000000000000000000000000000000000000000000000000001000000000000000000000000000000000000000000000000000000000000000100000000000000000000000000000000000000000000000000000000000000010000000000000000000000000000000000000000000000000000000000000001000000000000000000000000000000000000000000000000000000000000008000000000000000000000000000000000000000000000000000000000000000200000000000000000000000000000000000000000000000000000000000000025537570706f7274696e6720726f6c6573206272696e6720737461626c652070726f66697473000000000000000000000000000000000000000000000000000000"
        }
      ],
      "isFixedGasLimit": false
    },
    {
      "hash": "0x1da14b91e82d9d7e5598cbd661fe824379ae9574ae7bf92b7c34f06207ce661b",
      "transactionType": "CALL",
      "contractName": null,
      "contractAddress": "0x2791bca1f2de4661ed88a30c99a7a9449aa84174",
      "function": "approve(address,uint256)",
      "arguments": [
        "0x0586EDd25f88657bCaf47bE91B4c62c79522d7Ef",
        "115792089237316195423570985008687907853269984665640564039457584007913129639935"
      ],
      "transaction": {
        "from": "0x1aa44c933a6718a4bc44064f0067a853c34be9b0",
        "to": "0x2791bca1f2de4661ed88a30c99a7a9449aa84174",
        "gas": "0x13b57",
        "value": "0x0",
        "input": "0x095ea7b30000000000000000000000000586edd25f88657bcaf47be91b4c62c79522d7efffffffffffffffffffffffffffffffffffffffffffffffffffffffffffffffff",
        "nonce": "0xc5",
        "chainId": "0x89"
      },
      "additionalContracts": [],
      "isFixedGasLimit": false
    },
    {
      "hash": "0x93ab11d139222913aed529b475d2fbf057f8a15051e118b395aeb2e144298e15",
      "transactionType": "CALL",
      "contractName": null,
      "contractAddress": "0x4d97dcd97ec945f40cf65f87097ace5ea0476045",
      "function": "setApprovalForAll(address,bool)",
      "arguments": [
        "0x0586EDd25f88657bCaf47bE91B4c62c79522d7Ef",
        "true"
      ],
      "transaction": {
        "from": "0x1aa44c933a6718a4bc44064f0067a853c34be9b0",
        "to": "0x4d97dcd97ec945f40cf65f87097ace5ea0476045",
        "gas": "0xf82b",
        "value": "0x0",
        "input": "0xa22cb4650000000000000000000000000586edd25f88657bcaf47be91b4c62c79522d7ef0000000000000000000000000000000000000000000000000000000000000001",
        "nonce": "0xc6",
        "chainId": "0x89"
      },
      "additionalContracts": [],
      "isFixedGasLimit": false
    },
    {
      "hash": "0x70c32883f10cd9a91f656768bbd8ccb4feed3ba281c01896d769a5bbfe9eafa0",
      "transactionType": "CALL",
      "contractName": null,
      "contractAddress": "0x0586edd25f88657bcaf47be91b4c62c79522d7ef",
      "function": "deposit(uint256)",
      "arguments": [
        "4000000"
      ],
      "transaction": {
        "from": "0x1aa44c933a6718a4bc44064f0067a853c34be9b0",
        "to": "0x0586edd25f88657bcaf47be91b4c62c79522d7ef",
        "gas": "0xc5dad",
        "value": "0x0",
        "input": "0xb6b55f2500000000000000000000000000000000000000000000000000000000003d0900",
        "nonce": "0xc7",
        "chainId": "0x89"
      },
      "additionalContracts": [],
      "isFixedGasLimit": false
    }
  ],
  "receipts": [
    {
      "status": "0x1",
      "cumulativeGasUsed": "0xc1eddd",
      "logs": [
        {
          "address": "0x2791bca1f2de4661ed88a30c99a7a9449aa84174",
          "topics": [
            "0x8c5be1e5ebec7d5bd14f71427d1e84f3dd0314c0f7b2291e5b200ac8c7c3b925",
            "0x0000000000000000000000001aa44c933a6718a4bc44064f0067a853c34be9b0",
            "0x0000000000000000000000004d97dcd97ec945f40cf65f87097ace5ea0476045"
          ],
          "data": "0xffffffffffffffffffffffffffffffffffffffffffffffffffffffffffffffff",
          "blockHash": "0xa7eb913c6b1a8a019acbbee876dae53dd946035ad2318dbd90444bd36868219e",
          "blockNumber": "0x4448510",
          "transactionHash": "0xb5e77271eaf583034f289327329c37b76eb943abe62154c190aa0675e009dee3",
          "transactionIndex": "0x29",
          "logIndex": "0xc9",
          "removed": false
        },
        {
          "address": "0x0000000000000000000000000000000000001010",
          "topics": [
            "0x4dfe1bbbcf077ddc3e01291eea2d5c70c2b422b415d95645b9adcfd678cb1d63",
            "0x0000000000000000000000000000000000000000000000000000000000001010",
            "0x0000000000000000000000001aa44c933a6718a4bc44064f0067a853c34be9b0",
            "0x000000000000000000000000ce7fcb674ba27a952c71061b649fb5a5746f3b2b"
          ],
          "data": "0x0000000000000000000000000000000000000000000000000003830becbfbe8000000000000000000000000000000000000000000000000049ac9c3bee575035000000000000000000000000000000000000000000001d89e8f03529aa288b0a00000000000000000000000000000000000000000000000049a91930019791b5000000000000000000000000000000000000000000001d89e8f3b83596e8498a",
          "blockHash": "0xa7eb913c6b1a8a019acbbee876dae53dd946035ad2318dbd90444bd36868219e",
          "blockNumber": "0x4448510",
          "transactionHash": "0xb5e77271eaf583034f289327329c37b76eb943abe62154c190aa0675e009dee3",
          "transactionIndex": "0x29",
          "logIndex": "0xca",
          "removed": false
        }
      ],
      "logsBloom": "0x00000000000020000000000000000000000000000000000000000000000000000000000000000000000000000000000000008000000000000000000000200000000000000000000000000000000200800000000000000000000120000000000000000000000000000000000000000000000000000000000180000000000000000001000000000000000000001080000000000000000000000000000000000000220000000400000000000080000001000000000000000000000000000000004000000000004000000001000000000000000000000000000000100000000000000010008000000000000000000000000000000000000000000000000000100000",
      "type": "0x2",
      "transactionHash": "0xb5e77271eaf583034f289327329c37b76eb943abe62154c190aa0675e009dee3",
      "transactionIndex": "0x29",
      "blockHash": "0xa7eb913c6b1a8a019acbbee876dae53dd946035ad2318dbd90444bd36868219e",
      "blockNumber": "0x4448510",
      "gasUsed": "0x9692",
      "effectiveGasPrice": "0x5f88fa55f",
      "from": "0x1aa44c933a6718a4bc44064f0067a853c34be9b0",
      "to": "0x2791bca1f2de4661ed88a30c99a7a9449aa84174",
      "contractAddress": null
    },
    {
      "status": "0x1",
      "cumulativeGasUsed": "0xc253cd",
      "logs": [
        {
          "address": "0x4d97dcd97ec945f40cf65f87097ace5ea0476045",
          "topics": [
            "0x17307eab39ab6107e8899845ad3d59bd9653f200f220920489ca2b5937696c31",
            "0x0000000000000000000000001aa44c933a6718a4bc44064f0067a853c34be9b0",
            "0x000000000000000000000000c01bbfc94c41f0d8fc242cfe8465ea4dcd4f20c5"
          ],
          "data": "0x0000000000000000000000000000000000000000000000000000000000000001",
          "blockHash": "0xa7eb913c6b1a8a019acbbee876dae53dd946035ad2318dbd90444bd36868219e",
          "blockNumber": "0x4448510",
          "transactionHash": "0x2779e3aa38b48178a1e63f17f76940417c10a6bc297b6508bc5473945f293e27",
          "transactionIndex": "0x2a",
          "logIndex": "0xcb",
          "removed": false
        },
        {
          "address": "0x0000000000000000000000000000000000001010",
          "topics": [
            "0x4dfe1bbbcf077ddc3e01291eea2d5c70c2b422b415d95645b9adcfd678cb1d63",
            "0x0000000000000000000000000000000000000000000000000000000000001010",
            "0x0000000000000000000000001aa44c933a6718a4bc44064f0067a853c34be9b0",
            "0x000000000000000000000000ce7fcb674ba27a952c71061b649fb5a5746f3b2b"
          ],
          "data": "0x000000000000000000000000000000000000000000000000000260a9b2dd2c0000000000000000000000000000000000000000000000000049a9193001855607000000000000000000000000000000000000000000001d89e8f3b83596e8498a00000000000000000000000000000000000000000000000049a6b8864ea82a07000000000000000000000000000000000000000000001d89e8f618df49c5758a",
          "blockHash": "0xa7eb913c6b1a8a019acbbee876dae53dd946035ad2318dbd90444bd36868219e",
          "blockNumber": "0x4448510",
          "transactionHash": "0x2779e3aa38b48178a1e63f17f76940417c10a6bc297b6508bc5473945f293e27",
          "transactionIndex": "0x2a",
          "logIndex": "0xcc",
          "removed": false
        }
      ],
      "logsBloom": "0x00000000000020000000000000000000000000000000000000000000000040000000000000000000000000000000000000008000000000000000000000000000000000000000000000200000000000800000000000000000000120000000000002000000000000000000000000000000000000000000000080001000000000000000000000000000000000001080000000000000000000000000000000000000200000000000000000000080000000000000000000000000000000000000004000000000004000000001000000000000000004000000000000100000000000000000200800000000040000000000000000000000000000000000000000100000",
      "type": "0x2",
      "transactionHash": "0x2779e3aa38b48178a1e63f17f76940417c10a6bc297b6508bc5473945f293e27",
      "transactionIndex": "0x2a",
      "blockHash": "0xa7eb913c6b1a8a019acbbee876dae53dd946035ad2318dbd90444bd36868219e",
      "blockNumber": "0x4448510",
      "gasUsed": "0x65f0",
      "effectiveGasPrice": "0x5f88fa55f",
      "from": "0x1aa44c933a6718a4bc44064f0067a853c34be9b0",
      "to": "0x4d97dcd97ec945f40cf65f87097ace5ea0476045",
      "contractAddress": null
    },
    {
      "status": "0x1",
      "cumulativeGasUsed": "0xcfaf2b",
      "logs": [
        {
          "address": "0x4d97dcd97ec945f40cf65f87097ace5ea0476045",
          "topics": [
            "0x17307eab39ab6107e8899845ad3d59bd9653f200f220920489ca2b5937696c31",
            "0x0000000000000000000000000586edd25f88657bcaf47be91b4c62c79522d7ef",
            "0x0000000000000000000000004d97dcd97ec945f40cf65f87097ace5ea0476045"
          ],
          "data": "0x0000000000000000000000000000000000000000000000000000000000000001",
          "blockHash": "0xa7eb913c6b1a8a019acbbee876dae53dd946035ad2318dbd90444bd36868219e",
          "blockNumber": "0x4448510",
          "transactionHash": "0x85bdb96935446616459c7cb7a9c67910d895b71eb7f3b79b6f5d06adf20c28a2",
          "transactionIndex": "0x2b",
          "logIndex": "0xcd",
          "removed": false
        },
        {
          "address": "0x2791bca1f2de4661ed88a30c99a7a9449aa84174",
          "topics": [
            "0x8c5be1e5ebec7d5bd14f71427d1e84f3dd0314c0f7b2291e5b200ac8c7c3b925",
            "0x0000000000000000000000000586edd25f88657bcaf47be91b4c62c79522d7ef",
            "0x0000000000000000000000004d97dcd97ec945f40cf65f87097ace5ea0476045"
          ],
          "data": "0xffffffffffffffffffffffffffffffffffffffffffffffffffffffffffffffff",
          "blockHash": "0xa7eb913c6b1a8a019acbbee876dae53dd946035ad2318dbd90444bd36868219e",
          "blockNumber": "0x4448510",
          "transactionHash": "0x85bdb96935446616459c7cb7a9c67910d895b71eb7f3b79b6f5d06adf20c28a2",
          "transactionIndex": "0x2b",
          "logIndex": "0xce",
          "removed": false
        },
        {
          "address": "0xc01bbfc94c41f0d8fc242cfe8465ea4dcd4f20c5",
          "topics": [
            "0x750538103f64f9b5e2db539e5c1f7552a63aa9e68e07396b2b4b58f7cfef18ab",
            "0x0000000000000000000000000586edd25f88657bcaf47be91b4c62c79522d7ef"
          ],
          "data": "0x000000000000000000000000000000000000000000000000000000000000004000000000000000000000000000000000000000000000000000000000000000e000000000000000000000000000000000000000000000000000000000000000041e50f3ac63a65fe7a076dc904e72e9fb904bd5b75ce40adb2b6aa8f859bb5fd0287d8e28b0969500785d137706cc4cf0ac406b2a92d44ad226efde922d4c660a30ba754e82d4d0ebed6e2f93b6d83b4e23087e9db5d0abcbcc98b1dd61d6cdad8a707a5380305bf68bc6e589ec4597aeec8ab0eb84ec661c47eff81cf283af68000000000000000000000000000000000000000000000000000000000000008000000000000000000000000000000000000000000000000000000000000000200000000000000000000000000000000000000000000000000000000000000025537570706f7274696e6720726f6c6573206272696e6720737461626c652070726f66697473000000000000000000000000000000000000000000000000000000",
          "blockHash": "0xa7eb913c6b1a8a019acbbee876dae53dd946035ad2318dbd90444bd36868219e",
          "blockNumber": "0x4448510",
          "transactionHash": "0x85bdb96935446616459c7cb7a9c67910d895b71eb7f3b79b6f5d06adf20c28a2",
          "transactionIndex": "0x2b",
          "logIndex": "0xcf",
          "removed": false
        },
        {
          "address": "0x0000000000000000000000000000000000001010",
          "topics": [
            "0x4dfe1bbbcf077ddc3e01291eea2d5c70c2b422b415d95645b9adcfd678cb1d63",
            "0x0000000000000000000000000000000000000000000000000000000000001010",
            "0x0000000000000000000000001aa44c933a6718a4bc44064f0067a853c34be9b0",
            "0x000000000000000000000000ce7fcb674ba27a952c71061b649fb5a5746f3b2b"
          ],
          "data": "0x000000000000000000000000000000000000000000000000004fc0d7b8bc6d8000000000000000000000000000000000000000000000000049a6b8864e9bd1f7000000000000000000000000000000000000000000001d89e8f618df49c5758a0000000000000000000000000000000000000000000000004956f7ae95df6477000000000000000000000000000000000000000000001d89e945d9b70281e30a",
          "blockHash": "0xa7eb913c6b1a8a019acbbee876dae53dd946035ad2318dbd90444bd36868219e",
          "blockNumber": "0x4448510",
          "transactionHash": "0x85bdb96935446616459c7cb7a9c67910d895b71eb7f3b79b6f5d06adf20c28a2",
          "transactionIndex": "0x2b",
          "logIndex": "0xd0",
          "removed": false
        }
      ],
      "logsBloom": "0x00000000000020000000000000000000000000000000000000000000000040000000000000000000000000000000000010008000000000000000000000200000000000004000000000000000000200800000000000000000020120000000000002000040001000000000000000000000000000000000000180000000000000000001000000000000000000001080000000001000000000000000000000000800220000000400000000000080000001000000000000000000000000000000004000000000004000000001000000000000000004000000000000100008000000000010208800000000040000000000000000000000000000000000000000100000",
      "type": "0x2",
      "transactionHash": "0x85bdb96935446616459c7cb7a9c67910d895b71eb7f3b79b6f5d06adf20c28a2",
      "transactionIndex": "0x2b",
      "blockHash": "0xa7eb913c6b1a8a019acbbee876dae53dd946035ad2318dbd90444bd36868219e",
      "blockNumber": "0x4448510",
      "gasUsed": "0xd5b5e",
      "effectiveGasPrice": "0x5f88fa55f",
      "from": "0x1aa44c933a6718a4bc44064f0067a853c34be9b0",
      "to": "0xc01bbfc94c41f0d8fc242cfe8465ea4dcd4f20c5",
      "contractAddress": null
    },
    {
      "status": "0x1",
      "cumulativeGasUsed": "0xd09379",
      "logs": [
        {
          "address": "0x2791bca1f2de4661ed88a30c99a7a9449aa84174",
          "topics": [
            "0x8c5be1e5ebec7d5bd14f71427d1e84f3dd0314c0f7b2291e5b200ac8c7c3b925",
            "0x0000000000000000000000001aa44c933a6718a4bc44064f0067a853c34be9b0",
            "0x0000000000000000000000000586edd25f88657bcaf47be91b4c62c79522d7ef"
          ],
          "data": "0xffffffffffffffffffffffffffffffffffffffffffffffffffffffffffffffff",
          "blockHash": "0xa7eb913c6b1a8a019acbbee876dae53dd946035ad2318dbd90444bd36868219e",
          "blockNumber": "0x4448510",
          "transactionHash": "0x1da14b91e82d9d7e5598cbd661fe824379ae9574ae7bf92b7c34f06207ce661b",
          "transactionIndex": "0x2c",
          "logIndex": "0xd1",
          "removed": false
        },
        {
          "address": "0x0000000000000000000000000000000000001010",
          "topics": [
            "0x4dfe1bbbcf077ddc3e01291eea2d5c70c2b422b415d95645b9adcfd678cb1d63",
            "0x0000000000000000000000000000000000000000000000000000000000001010",
            "0x0000000000000000000000001aa44c933a6718a4bc44064f0067a853c34be9b0",
            "0x000000000000000000000000ce7fcb674ba27a952c71061b649fb5a5746f3b2b"
          ],
          "data": "0x00000000000000000000000000000000000000000000000000055331aaf159800000000000000000000000000000000000000000000000004956f7ae94415415000000000000000000000000000000000000000000001d89e945d9b70281e30a0000000000000000000000000000000000000000000000004951a47ce94ffa95000000000000000000000000000000000000000000001d89e94b2ce8ad733c8a",
          "blockHash": "0xa7eb913c6b1a8a019acbbee876dae53dd946035ad2318dbd90444bd36868219e",
          "blockNumber": "0x4448510",
          "transactionHash": "0x1da14b91e82d9d7e5598cbd661fe824379ae9574ae7bf92b7c34f06207ce661b",
          "transactionIndex": "0x2c",
          "logIndex": "0xd2",
          "removed": false
        }
      ],
      "logsBloom": "0x00000000000020000000000000000000000000000000000000000000000000000000000000000000000000000000000000008000000000000000000000200000000000000000000000000000000000800000000000000000000120000000000000000000001000000000000000000000000000000000000180000000000000000001000000000000000000001080000000000000000000000000000000000800220000000000000000000080000000000000000000000000000000000000004000000000004000000001000000000000000000000000000000100008000000000010008000000000000000000000000000000000000000000000000000100000",
      "type": "0x2",
      "transactionHash": "0x1da14b91e82d9d7e5598cbd661fe824379ae9574ae7bf92b7c34f06207ce661b",
      "transactionIndex": "0x2c",
      "blockHash": "0xa7eb913c6b1a8a019acbbee876dae53dd946035ad2318dbd90444bd36868219e",
      "blockNumber": "0x4448510",
      "gasUsed": "0xe44e",
      "effectiveGasPrice": "0x5f88fa55f",
      "from": "0x1aa44c933a6718a4bc44064f0067a853c34be9b0",
      "to": "0x2791bca1f2de4661ed88a30c99a7a9449aa84174",
      "contractAddress": null
    },
    {
      "status": "0x1",
      "cumulativeGasUsed": "0xd14725",
      "logs": [
        {
          "address": "0x4d97dcd97ec945f40cf65f87097ace5ea0476045",
          "topics": [
            "0x17307eab39ab6107e8899845ad3d59bd9653f200f220920489ca2b5937696c31",
            "0x0000000000000000000000001aa44c933a6718a4bc44064f0067a853c34be9b0",
            "0x0000000000000000000000000586edd25f88657bcaf47be91b4c62c79522d7ef"
          ],
          "data": "0x0000000000000000000000000000000000000000000000000000000000000001",
          "blockHash": "0xa7eb913c6b1a8a019acbbee876dae53dd946035ad2318dbd90444bd36868219e",
          "blockNumber": "0x4448510",
          "transactionHash": "0x93ab11d139222913aed529b475d2fbf057f8a15051e118b395aeb2e144298e15",
          "transactionIndex": "0x2d",
          "logIndex": "0xd3",
          "removed": false
        },
        {
          "address": "0x0000000000000000000000000000000000001010",
          "topics": [
            "0x4dfe1bbbcf077ddc3e01291eea2d5c70c2b422b415d95645b9adcfd678cb1d63",
            "0x0000000000000000000000000000000000000000000000000000000000001010",
            "0x0000000000000000000000001aa44c933a6718a4bc44064f0067a853c34be9b0",
            "0x000000000000000000000000ce7fcb674ba27a952c71061b649fb5a5746f3b2b"
          ],
          "data": "0x000000000000000000000000000000000000000000000000000430cf710ec7000000000000000000000000000000000000000000000000004951a47ce9345523000000000000000000000000000000000000000000001d89e94b2ce8ad733c8a000000000000000000000000000000000000000000000000494d73ad78258e23000000000000000000000000000000000000000000001d89e94f5db81e82038a",
          "blockHash": "0xa7eb913c6b1a8a019acbbee876dae53dd946035ad2318dbd90444bd36868219e",
          "blockNumber": "0x4448510",
          "transactionHash": "0x93ab11d139222913aed529b475d2fbf057f8a15051e118b395aeb2e144298e15",
          "transactionIndex": "0x2d",
          "logIndex": "0xd4",
          "removed": false
        }
      ],
      "logsBloom": "0x00000000000020000000000000000000000000000000000000000000000040000000000000000000000000000000000000008000000000000000000000000000000000000000000000000000000000800000000000000000000120000000000002000000001000000000000000000000000000000000000080000000000000000000000000000000000000001080000000000000000000000000000000000800200000000000000000000080000000000000000000000000000000000000004000000000004000000001000000000000000004000000000000100008000000000000200800000000040000000000000000000000000000000000000000100000",
      "type": "0x2",
      "transactionHash": "0x93ab11d139222913aed529b475d2fbf057f8a15051e118b395aeb2e144298e15",
      "transactionIndex": "0x2d",
      "blockHash": "0xa7eb913c6b1a8a019acbbee876dae53dd946035ad2318dbd90444bd36868219e",
      "blockNumber": "0x4448510",
      "gasUsed": "0xb3ac",
      "effectiveGasPrice": "0x5f88fa55f",
      "from": "0x1aa44c933a6718a4bc44064f0067a853c34be9b0",
      "to": "0x4d97dcd97ec945f40cf65f87097ace5ea0476045",
      "contractAddress": null
    },
    {
      "status": "0x1",
      "cumulativeGasUsed": "0xda3b0a",
      "logs": [
        {
          "address": "0x2791bca1f2de4661ed88a30c99a7a9449aa84174",
          "topics": [
            "0xddf252ad1be2c89b69c2b068fc378daa952ba7f163c4a11628f55a4df523b3ef",
            "0x0000000000000000000000001aa44c933a6718a4bc44064f0067a853c34be9b0",
            "0x0000000000000000000000000586edd25f88657bcaf47be91b4c62c79522d7ef"
          ],
          "data": "0x00000000000000000000000000000000000000000000000000000000003d0900",
          "blockHash": "0xa7eb913c6b1a8a019acbbee876dae53dd946035ad2318dbd90444bd36868219e",
          "blockNumber": "0x4448510",
          "transactionHash": "0x70c32883f10cd9a91f656768bbd8ccb4feed3ba281c01896d769a5bbfe9eafa0",
          "transactionIndex": "0x2e",
          "logIndex": "0xd5",
          "removed": false
        },
        {
          "address": "0x2791bca1f2de4661ed88a30c99a7a9449aa84174",
          "topics": [
            "0x8c5be1e5ebec7d5bd14f71427d1e84f3dd0314c0f7b2291e5b200ac8c7c3b925",
            "0x0000000000000000000000001aa44c933a6718a4bc44064f0067a853c34be9b0",
            "0x0000000000000000000000000586edd25f88657bcaf47be91b4c62c79522d7ef"
          ],
          "data": "0xffffffffffffffffffffffffffffffffffffffffffffffffffffffffffc2f6ff",
          "blockHash": "0xa7eb913c6b1a8a019acbbee876dae53dd946035ad2318dbd90444bd36868219e",
          "blockNumber": "0x4448510",
          "transactionHash": "0x70c32883f10cd9a91f656768bbd8ccb4feed3ba281c01896d769a5bbfe9eafa0",
          "transactionIndex": "0x2e",
          "logIndex": "0xd6",
          "removed": false
        },
        {
          "address": "0x2791bca1f2de4661ed88a30c99a7a9449aa84174",
          "topics": [
            "0xddf252ad1be2c89b69c2b068fc378daa952ba7f163c4a11628f55a4df523b3ef",
            "0x0000000000000000000000000586edd25f88657bcaf47be91b4c62c79522d7ef",
            "0x0000000000000000000000004d97dcd97ec945f40cf65f87097ace5ea0476045"
          ],
          "data": "0x00000000000000000000000000000000000000000000000000000000000f4240",
          "blockHash": "0xa7eb913c6b1a8a019acbbee876dae53dd946035ad2318dbd90444bd36868219e",
          "blockNumber": "0x4448510",
          "transactionHash": "0x70c32883f10cd9a91f656768bbd8ccb4feed3ba281c01896d769a5bbfe9eafa0",
          "transactionIndex": "0x2e",
          "logIndex": "0xd7",
          "removed": false
        },
        {
          "address": "0x2791bca1f2de4661ed88a30c99a7a9449aa84174",
          "topics": [
            "0x8c5be1e5ebec7d5bd14f71427d1e84f3dd0314c0f7b2291e5b200ac8c7c3b925",
            "0x0000000000000000000000000586edd25f88657bcaf47be91b4c62c79522d7ef",
            "0x0000000000000000000000004d97dcd97ec945f40cf65f87097ace5ea0476045"
          ],
          "data": "0xfffffffffffffffffffffffffffffffffffffffffffffffffffffffffff0bdbf",
          "blockHash": "0xa7eb913c6b1a8a019acbbee876dae53dd946035ad2318dbd90444bd36868219e",
          "blockNumber": "0x4448510",
          "transactionHash": "0x70c32883f10cd9a91f656768bbd8ccb4feed3ba281c01896d769a5bbfe9eafa0",
          "transactionIndex": "0x2e",
          "logIndex": "0xd8",
          "removed": false
        },
        {
          "address": "0x4d97dcd97ec945f40cf65f87097ace5ea0476045",
          "topics": [
            "0x4a39dc06d4c0dbc64b70af90fd698a233a518aa5d07e595d983b8c0526c8f7fb",
            "0x0000000000000000000000000586edd25f88657bcaf47be91b4c62c79522d7ef",
            "0x0000000000000000000000000000000000000000000000000000000000000000",
            "0x0000000000000000000000000586edd25f88657bcaf47be91b4c62c79522d7ef"
          ],
          "data": "0x000000000000000000000000000000000000000000000000000000000000004000000000000000000000000000000000000000000000000000000000000000a0000000000000000000000000000000000000000000000000000000000000000230ba754e82d4d0ebed6e2f93b6d83b4e23087e9db5d0abcbcc98b1dd61d6cdad0da051d4afcdb636a4c6caedb8c63a2329b90106aa0e12b2a0ec83d55d620201000000000000000000000000000000000000000000000000000000000000000200000000000000000000000000000000000000000000000000000000000f424000000000000000000000000000000000000000000000000000000000000f4240",
          "blockHash": "0xa7eb913c6b1a8a019acbbee876dae53dd946035ad2318dbd90444bd36868219e",
          "blockNumber": "0x4448510",
          "transactionHash": "0x70c32883f10cd9a91f656768bbd8ccb4feed3ba281c01896d769a5bbfe9eafa0",
          "transactionIndex": "0x2e",
          "logIndex": "0xd9",
          "removed": false
        },
        {
          "address": "0x4d97dcd97ec945f40cf65f87097ace5ea0476045",
          "topics": [
            "0x2e6bb91f8cbcda0c93623c54d0403a43514fabc40084ec96b6d5379a74786298",
            "0x0000000000000000000000000586edd25f88657bcaf47be91b4c62c79522d7ef",
            "0x0000000000000000000000000000000000000000000000000000000000000000",
            "0x7d98815be880769be11a63b4df815b9bdcbf6ae007a8caaba9a2909816a8d1c6"
          ],
          "data": "0x0000000000000000000000002791bca1f2de4661ed88a30c99a7a9449aa84174000000000000000000000000000000000000000000000000000000000000006000000000000000000000000000000000000000000000000000000000000f4240000000000000000000000000000000000000000000000000000000000000000200000000000000000000000000000000000000000000000000000000000000010000000000000000000000000000000000000000000000000000000000000002",
          "blockHash": "0xa7eb913c6b1a8a019acbbee876dae53dd946035ad2318dbd90444bd36868219e",
          "blockNumber": "0x4448510",
          "transactionHash": "0x70c32883f10cd9a91f656768bbd8ccb4feed3ba281c01896d769a5bbfe9eafa0",
          "transactionIndex": "0x2e",
          "logIndex": "0xda",
          "removed": false
        },
        {
          "address": "0x2791bca1f2de4661ed88a30c99a7a9449aa84174",
          "topics": [
            "0xddf252ad1be2c89b69c2b068fc378daa952ba7f163c4a11628f55a4df523b3ef",
            "0x0000000000000000000000000586edd25f88657bcaf47be91b4c62c79522d7ef",
            "0x0000000000000000000000004d97dcd97ec945f40cf65f87097ace5ea0476045"
          ],
          "data": "0x00000000000000000000000000000000000000000000000000000000000f4240",
          "blockHash": "0xa7eb913c6b1a8a019acbbee876dae53dd946035ad2318dbd90444bd36868219e",
          "blockNumber": "0x4448510",
          "transactionHash": "0x70c32883f10cd9a91f656768bbd8ccb4feed3ba281c01896d769a5bbfe9eafa0",
          "transactionIndex": "0x2e",
          "logIndex": "0xdb",
          "removed": false
        },
        {
          "address": "0x2791bca1f2de4661ed88a30c99a7a9449aa84174",
          "topics": [
            "0x8c5be1e5ebec7d5bd14f71427d1e84f3dd0314c0f7b2291e5b200ac8c7c3b925",
            "0x0000000000000000000000000586edd25f88657bcaf47be91b4c62c79522d7ef",
            "0x0000000000000000000000004d97dcd97ec945f40cf65f87097ace5ea0476045"
          ],
          "data": "0xffffffffffffffffffffffffffffffffffffffffffffffffffffffffffe17b7f",
          "blockHash": "0xa7eb913c6b1a8a019acbbee876dae53dd946035ad2318dbd90444bd36868219e",
          "blockNumber": "0x4448510",
          "transactionHash": "0x70c32883f10cd9a91f656768bbd8ccb4feed3ba281c01896d769a5bbfe9eafa0",
          "transactionIndex": "0x2e",
          "logIndex": "0xdc",
          "removed": false
        },
        {
          "address": "0x4d97dcd97ec945f40cf65f87097ace5ea0476045",
          "topics": [
            "0x4a39dc06d4c0dbc64b70af90fd698a233a518aa5d07e595d983b8c0526c8f7fb",
            "0x0000000000000000000000000586edd25f88657bcaf47be91b4c62c79522d7ef",
            "0x0000000000000000000000000000000000000000000000000000000000000000",
            "0x0000000000000000000000000586edd25f88657bcaf47be91b4c62c79522d7ef"
          ],
          "data": "0x000000000000000000000000000000000000000000000000000000000000004000000000000000000000000000000000000000000000000000000000000000a00000000000000000000000000000000000000000000000000000000000000002287d8e28b0969500785d137706cc4cf0ac406b2a92d44ad226efde922d4c660a2950c06add7f1917fdf7ea9de714e272e6a82216d1931ce7ac2540ccd8291484000000000000000000000000000000000000000000000000000000000000000200000000000000000000000000000000000000000000000000000000000f424000000000000000000000000000000000000000000000000000000000000f4240",
          "blockHash": "0xa7eb913c6b1a8a019acbbee876dae53dd946035ad2318dbd90444bd36868219e",
          "blockNumber": "0x4448510",
          "transactionHash": "0x70c32883f10cd9a91f656768bbd8ccb4feed3ba281c01896d769a5bbfe9eafa0",
          "transactionIndex": "0x2e",
          "logIndex": "0xdd",
          "removed": false
        },
        {
          "address": "0x4d97dcd97ec945f40cf65f87097ace5ea0476045",
          "topics": [
            "0x2e6bb91f8cbcda0c93623c54d0403a43514fabc40084ec96b6d5379a74786298",
            "0x0000000000000000000000000586edd25f88657bcaf47be91b4c62c79522d7ef",
            "0x0000000000000000000000000000000000000000000000000000000000000000",
            "0x8904b9db5aff6b1b84f9daaa0f8038b661be40d883050553b5675d30002c7abc"
          ],
          "data": "0x0000000000000000000000002791bca1f2de4661ed88a30c99a7a9449aa84174000000000000000000000000000000000000000000000000000000000000006000000000000000000000000000000000000000000000000000000000000f4240000000000000000000000000000000000000000000000000000000000000000200000000000000000000000000000000000000000000000000000000000000010000000000000000000000000000000000000000000000000000000000000002",
          "blockHash": "0xa7eb913c6b1a8a019acbbee876dae53dd946035ad2318dbd90444bd36868219e",
          "blockNumber": "0x4448510",
          "transactionHash": "0x70c32883f10cd9a91f656768bbd8ccb4feed3ba281c01896d769a5bbfe9eafa0",
          "transactionIndex": "0x2e",
          "logIndex": "0xde",
          "removed": false
        },
        {
          "address": "0x2791bca1f2de4661ed88a30c99a7a9449aa84174",
          "topics": [
            "0xddf252ad1be2c89b69c2b068fc378daa952ba7f163c4a11628f55a4df523b3ef",
            "0x0000000000000000000000000586edd25f88657bcaf47be91b4c62c79522d7ef",
            "0x0000000000000000000000004d97dcd97ec945f40cf65f87097ace5ea0476045"
          ],
          "data": "0x00000000000000000000000000000000000000000000000000000000000f4240",
          "blockHash": "0xa7eb913c6b1a8a019acbbee876dae53dd946035ad2318dbd90444bd36868219e",
          "blockNumber": "0x4448510",
          "transactionHash": "0x70c32883f10cd9a91f656768bbd8ccb4feed3ba281c01896d769a5bbfe9eafa0",
          "transactionIndex": "0x2e",
          "logIndex": "0xdf",
          "removed": false
        },
        {
          "address": "0x2791bca1f2de4661ed88a30c99a7a9449aa84174",
          "topics": [
            "0x8c5be1e5ebec7d5bd14f71427d1e84f3dd0314c0f7b2291e5b200ac8c7c3b925",
            "0x0000000000000000000000000586edd25f88657bcaf47be91b4c62c79522d7ef",
            "0x0000000000000000000000004d97dcd97ec945f40cf65f87097ace5ea0476045"
          ],
          "data": "0xffffffffffffffffffffffffffffffffffffffffffffffffffffffffffd2393f",
          "blockHash": "0xa7eb913c6b1a8a019acbbee876dae53dd946035ad2318dbd90444bd36868219e",
          "blockNumber": "0x4448510",
          "transactionHash": "0x70c32883f10cd9a91f656768bbd8ccb4feed3ba281c01896d769a5bbfe9eafa0",
          "transactionIndex": "0x2e",
          "logIndex": "0xe0",
          "removed": false
        },
        {
          "address": "0x4d97dcd97ec945f40cf65f87097ace5ea0476045",
          "topics": [
            "0x4a39dc06d4c0dbc64b70af90fd698a233a518aa5d07e595d983b8c0526c8f7fb",
            "0x0000000000000000000000000586edd25f88657bcaf47be91b4c62c79522d7ef",
            "0x0000000000000000000000000000000000000000000000000000000000000000",
            "0x0000000000000000000000000586edd25f88657bcaf47be91b4c62c79522d7ef"
          ],
          "data": "0x000000000000000000000000000000000000000000000000000000000000004000000000000000000000000000000000000000000000000000000000000000a000000000000000000000000000000000000000000000000000000000000000028a707a5380305bf68bc6e589ec4597aeec8ab0eb84ec661c47eff81cf283af68479394f948dec2d8d0efdeb3589a87f1472d52b749c19bed002234f0764ee1fb000000000000000000000000000000000000000000000000000000000000000200000000000000000000000000000000000000000000000000000000000f424000000000000000000000000000000000000000000000000000000000000f4240",
          "blockHash": "0xa7eb913c6b1a8a019acbbee876dae53dd946035ad2318dbd90444bd36868219e",
          "blockNumber": "0x4448510",
          "transactionHash": "0x70c32883f10cd9a91f656768bbd8ccb4feed3ba281c01896d769a5bbfe9eafa0",
          "transactionIndex": "0x2e",
          "logIndex": "0xe1",
          "removed": false
        },
        {
          "address": "0x4d97dcd97ec945f40cf65f87097ace5ea0476045",
          "topics": [
            "0x2e6bb91f8cbcda0c93623c54d0403a43514fabc40084ec96b6d5379a74786298",
            "0x0000000000000000000000000586edd25f88657bcaf47be91b4c62c79522d7ef",
            "0x0000000000000000000000000000000000000000000000000000000000000000",
            "0xe87bd5cdc398599a9348d7a56c612948cb83a42faa1e2934343058bd604dc099"
          ],
          "data": "0x0000000000000000000000002791bca1f2de4661ed88a30c99a7a9449aa84174000000000000000000000000000000000000000000000000000000000000006000000000000000000000000000000000000000000000000000000000000f4240000000000000000000000000000000000000000000000000000000000000000200000000000000000000000000000000000000000000000000000000000000010000000000000000000000000000000000000000000000000000000000000002",
          "blockHash": "0xa7eb913c6b1a8a019acbbee876dae53dd946035ad2318dbd90444bd36868219e",
          "blockNumber": "0x4448510",
          "transactionHash": "0x70c32883f10cd9a91f656768bbd8ccb4feed3ba281c01896d769a5bbfe9eafa0",
          "transactionIndex": "0x2e",
          "logIndex": "0xe2",
          "removed": false
        },
        {
          "address": "0x2791bca1f2de4661ed88a30c99a7a9449aa84174",
          "topics": [
            "0xddf252ad1be2c89b69c2b068fc378daa952ba7f163c4a11628f55a4df523b3ef",
            "0x0000000000000000000000000586edd25f88657bcaf47be91b4c62c79522d7ef",
            "0x0000000000000000000000004d97dcd97ec945f40cf65f87097ace5ea0476045"
          ],
          "data": "0x00000000000000000000000000000000000000000000000000000000000f4240",
          "blockHash": "0xa7eb913c6b1a8a019acbbee876dae53dd946035ad2318dbd90444bd36868219e",
          "blockNumber": "0x4448510",
          "transactionHash": "0x70c32883f10cd9a91f656768bbd8ccb4feed3ba281c01896d769a5bbfe9eafa0",
          "transactionIndex": "0x2e",
          "logIndex": "0xe3",
          "removed": false
        },
        {
          "address": "0x2791bca1f2de4661ed88a30c99a7a9449aa84174",
          "topics": [
            "0x8c5be1e5ebec7d5bd14f71427d1e84f3dd0314c0f7b2291e5b200ac8c7c3b925",
            "0x0000000000000000000000000586edd25f88657bcaf47be91b4c62c79522d7ef",
            "0x0000000000000000000000004d97dcd97ec945f40cf65f87097ace5ea0476045"
          ],
          "data": "0xffffffffffffffffffffffffffffffffffffffffffffffffffffffffffc2f6ff",
          "blockHash": "0xa7eb913c6b1a8a019acbbee876dae53dd946035ad2318dbd90444bd36868219e",
          "blockNumber": "0x4448510",
          "transactionHash": "0x70c32883f10cd9a91f656768bbd8ccb4feed3ba281c01896d769a5bbfe9eafa0",
          "transactionIndex": "0x2e",
          "logIndex": "0xe4",
          "removed": false
        },
        {
          "address": "0x4d97dcd97ec945f40cf65f87097ace5ea0476045",
          "topics": [
            "0x4a39dc06d4c0dbc64b70af90fd698a233a518aa5d07e595d983b8c0526c8f7fb",
            "0x0000000000000000000000000586edd25f88657bcaf47be91b4c62c79522d7ef",
            "0x0000000000000000000000000000000000000000000000000000000000000000",
            "0x0000000000000000000000000586edd25f88657bcaf47be91b4c62c79522d7ef"
          ],
          "data": "0x000000000000000000000000000000000000000000000000000000000000004000000000000000000000000000000000000000000000000000000000000000a000000000000000000000000000000000000000000000000000000000000000021e50f3ac63a65fe7a076dc904e72e9fb904bd5b75ce40adb2b6aa8f859bb5fd0dbded53a6ea3390943bc38a31324fc912e4f67bd387bdbefbb6dece11948f385000000000000000000000000000000000000000000000000000000000000000200000000000000000000000000000000000000000000000000000000000f424000000000000000000000000000000000000000000000000000000000000f4240",
          "blockHash": "0xa7eb913c6b1a8a019acbbee876dae53dd946035ad2318dbd90444bd36868219e",
          "blockNumber": "0x4448510",
          "transactionHash": "0x70c32883f10cd9a91f656768bbd8ccb4feed3ba281c01896d769a5bbfe9eafa0",
          "transactionIndex": "0x2e",
          "logIndex": "0xe5",
          "removed": false
        },
        {
          "address": "0x4d97dcd97ec945f40cf65f87097ace5ea0476045",
          "topics": [
            "0x2e6bb91f8cbcda0c93623c54d0403a43514fabc40084ec96b6d5379a74786298",
            "0x0000000000000000000000000586edd25f88657bcaf47be91b4c62c79522d7ef",
            "0x0000000000000000000000000000000000000000000000000000000000000000",
            "0x54416d15d2428ec5fb1e6f2e646f0fd570f367be80d9dd285c479c8e9ce238a6"
          ],
          "data": "0x0000000000000000000000002791bca1f2de4661ed88a30c99a7a9449aa84174000000000000000000000000000000000000000000000000000000000000006000000000000000000000000000000000000000000000000000000000000f4240000000000000000000000000000000000000000000000000000000000000000200000000000000000000000000000000000000000000000000000000000000010000000000000000000000000000000000000000000000000000000000000002",
          "blockHash": "0xa7eb913c6b1a8a019acbbee876dae53dd946035ad2318dbd90444bd36868219e",
          "blockNumber": "0x4448510",
          "transactionHash": "0x70c32883f10cd9a91f656768bbd8ccb4feed3ba281c01896d769a5bbfe9eafa0",
          "transactionIndex": "0x2e",
          "logIndex": "0xe6",
          "removed": false
        },
        {
          "address": "0x0586edd25f88657bcaf47be91b4c62c79522d7ef",
          "topics": [
            "0xddf252ad1be2c89b69c2b068fc378daa952ba7f163c4a11628f55a4df523b3ef",
            "0x0000000000000000000000000000000000000000000000000000000000000000",
            "0x0000000000000000000000001aa44c933a6718a4bc44064f0067a853c34be9b0"
          ],
          "data": "0x00000000000000000000000000000000000000000000000000000000000f4240",
          "blockHash": "0xa7eb913c6b1a8a019acbbee876dae53dd946035ad2318dbd90444bd36868219e",
          "blockNumber": "0x4448510",
          "transactionHash": "0x70c32883f10cd9a91f656768bbd8ccb4feed3ba281c01896d769a5bbfe9eafa0",
          "transactionIndex": "0x2e",
          "logIndex": "0xe7",
          "removed": false
        },
        {
          "address": "0x0586edd25f88657bcaf47be91b4c62c79522d7ef",
          "topics": [
            "0xe1fffcc4923d04b559f4d29a8bfc6cda04eb5b0d3c460751c2402c5c5cc9109c",
            "0x0000000000000000000000001aa44c933a6718a4bc44064f0067a853c34be9b0"
          ],
          "data": "0x00000000000000000000000000000000000000000000000000000000000f4240",
          "blockHash": "0xa7eb913c6b1a8a019acbbee876dae53dd946035ad2318dbd90444bd36868219e",
          "blockNumber": "0x4448510",
          "transactionHash": "0x70c32883f10cd9a91f656768bbd8ccb4feed3ba281c01896d769a5bbfe9eafa0",
          "transactionIndex": "0x2e",
          "logIndex": "0xe8",
          "removed": false
        },
        {
          "address": "0x0000000000000000000000000000000000001010",
          "topics": [
            "0x4dfe1bbbcf077ddc3e01291eea2d5c70c2b422b415d95645b9adcfd678cb1d63",
            "0x0000000000000000000000000000000000000000000000000000000000001010",
            "0x0000000000000000000000001aa44c933a6718a4bc44064f0067a853c34be9b0",
            "0x000000000000000000000000ce7fcb674ba27a952c71061b649fb5a5746f3b2b"
          ],
          "data": "0x000000000000000000000000000000000000000000000000003574c4dc5a9240000000000000000000000000000000000000000000000000494d73ad780fcc4f000000000000000000000000000000000000000000001d89e94f5db81e82038a0000000000000000000000000000000000000000000000004917fee89bb53a0f000000000000000000000000000000000000000000001d89e984d27cfadc95ca",
          "blockHash": "0xa7eb913c6b1a8a019acbbee876dae53dd946035ad2318dbd90444bd36868219e",
          "blockNumber": "0x4448510",
          "transactionHash": "0x70c32883f10cd9a91f656768bbd8ccb4feed3ba281c01896d769a5bbfe9eafa0",
          "transactionIndex": "0x2e",
          "logIndex": "0xe9",
          "removed": false
        }
      ],
      "logsBloom": "0x00000000002020000000000000000000002000000000000000000000000040000000000000000000010000002000108000008000000004000000000000200000000000000000000000000008000200800000000000000000000120008000000000000000021000000001000000000800000000000800000180000010000000000001000000000000000000001080000000040001000000000000000000000800220000000420000000000080000003000000000000000000000000000000004000000002004002000001000100000000000404000000000000100108000020000010008000000000040000000000008400000000000000400000000002100000",
      "type": "0x2",
      "transactionHash": "0x70c32883f10cd9a91f656768bbd8ccb4feed3ba281c01896d769a5bbfe9eafa0",
      "transactionIndex": "0x2e",
      "blockHash": "0xa7eb913c6b1a8a019acbbee876dae53dd946035ad2318dbd90444bd36868219e",
      "blockNumber": "0x4448510",
      "gasUsed": "0x8f3e5",
      "effectiveGasPrice": "0x5f88fa55f",
      "from": "0x1aa44c933a6718a4bc44064f0067a853c34be9b0",
      "to": "0x0586edd25f88657bcaf47be91b4c62c79522d7ef",
      "contractAddress": null
    }
  ],
  "libraries": [],
  "pending": [],
  "returns": {},
  "timestamp": 1747425197,
  "chain": 137,
  "commit": "d6a2b0f"
}