{
  "transactions": [
    {
      "hash": "0xca368a409339ec7f44f004deccebaf0503d6baefb26e03b8b92cb1907a58da1c",
      "transactionType": "CALL",
      "contractName": null,
      "contractAddress": "0x2791bca1f2de4661ed88a30c99a7a9449aa84174",
      "function": "approve(address,uint256)",
      "arguments": [
        "0x4D97DCd97eC945f40cF65F87097ACe5EA0476045",
        "115792089237316195423570985008687907853269984665640564039457584007913129639935"
      ],
      "transaction": {
        "from": "0x1aa44c933a6718a4bc44064f0067a853c34be9b0",
        "to": "0x2791bca1f2de4661ed88a30c99a7a9449aa84174",
        "gas": "0xdc35",
        "value": "0x0",
        "input": "0x095ea7b30000000000000000000000004d97dcd97ec945f40cf65f87097ace5ea0476045ffffffffffffffffffffffffffffffffffffffffffffffffffffffffffffffff",
        "nonce": "0x55",
        "chainId": "0x89"
      },
      "additionalContracts": [],
      "isFixedGasLimit": false
    },
    {
      "hash": "0x8cba550e00cdcda70e97cb2fdf3c5ccd0edb9b9aadc327f775b4398e3c92e0a3",
      "transactionType": "CALL",
      "contractName": null,
      "contractAddress": "0x9ca154ba8a0a245aabdab3bf445547862690ccf6",
      "function": "withdraw(uint256)",
      "arguments": [
        "5000000"
      ],
      "transaction": {
        "from": "0x1aa44c933a6718a4bc44064f0067a853c34be9b0",
        "to": "0x9ca154ba8a0a245aabdab3bf445547862690ccf6",
        "gas": "0x33e4c",
        "value": "0x0",
        "input": "0x2e1a7d4d00000000000000000000000000000000000000000000000000000000004c4b40",
        "nonce": "0x56",
        "chainId": "0x89"
      },
      "additionalContracts": [],
      "isFixedGasLimit": false
    }
  ],
  "receipts": [
    {
      "status": "0x1",
      "cumulativeGasUsed": "0x4ff7c8",
      "logs": [
        {
          "address": "0x2791bca1f2de4661ed88a30c99a7a9449aa84174",
          "topics": [
            "0x8c5be1e5ebec7d5bd14f71427d1e84f3dd0314c0f7b2291e5b200ac8c7c3b925",
            "0x0000000000000000000000001aa44c933a6718a4bc44064f0067a853c34be9b0",
            "0x0000000000000000000000004d97dcd97ec945f40cf65f87097ace5ea0476045"
          ],
          "data": "0xffffffffffffffffffffffffffffffffffffffffffffffffffffffffffffffff",
          "blockHash": "0xbd506a7b8a5365c6d1855308a554ca909b47b0dfccaf95ee0d9a03ea7081a1c5",
          "blockNumber": "0x443e9dd",
          "transactionHash": "0xca368a409339ec7f44f004deccebaf0503d6baefb26e03b8b92cb1907a58da1c",
          "transactionIndex": "0x22",
          "logIndex": "0xa9",
          "removed": false
        },
        {
          "address": "0x0000000000000000000000000000000000001010",
          "topics": [
            "0x4dfe1bbbcf077ddc3e01291eea2d5c70c2b422b415d95645b9adcfd678cb1d63",
            "0x0000000000000000000000000000000000000000000000000000000000001010",
            "0x0000000000000000000000001aa44c933a6718a4bc44064f0067a853c34be9b0",
            "0x0000000000000000000000001efecb61a2f80aa34d3b9218b564a64d05946290"
          ],
          "data": "0x00000000000000000000000000000000000000000000000000041bb8b320180000000000000000000000000000000000000000000000000072111233b41243a4000000000000000000000000000000000000000000003a701d465f2ac4dc79ce000000000000000000000000000000000000000000000000720cf67b00f22ba4000000000000000000000000000000000000000000003a701d4a7ae377fc91ce",
          "blockHash": "0xbd506a7b8a5365c6d1855308a554ca909b47b0dfccaf95ee0d9a03ea7081a1c5",
          "blockNumber": "0x443e9dd",
          "transactionHash": "0xca368a409339ec7f44f004deccebaf0503d6baefb26e03b8b92cb1907a58da1c",
          "transactionIndex": "0x22",
          "logIndex": "0xaa",
          "removed": false
        }
      ],
      "logsBloom": "0x00000000000020000000000000000000000000000000000000000000000000000000000000000000000000000000000000008000000000000000000000200000200000000000000000000000000200800000000000000000000100000000000000000000000000000000000000000000000000000000000180000000000000000001000000000000000000001000000000000000000000000000000000000000220000000400000000000080000001000000000000000000000000000000004000000100000000000001000000000000000000000000000000100000000000002010008000000000000000000000000000000000000000000000000000100000",
      "type": "0x2",
      "transactionHash": "0xca368a409339ec7f44f004deccebaf0503d6baefb26e03b8b92cb1907a58da1c",
      "transactionIndex": "0x22",
      "blockHash": "0xbd506a7b8a5365c6d1855308a554ca909b47b0dfccaf95ee0d9a03ea7081a1c5",
      "blockNumber": "0x443e9dd",
      "gasUsed": "0x9692",
      "effectiveGasPrice": "0x6fc23ad34",
      "from": "0x1aa44c933a6718a4bc44064f0067a853c34be9b0",
      "to": "0x2791bca1f2de4661ed88a30c99a7a9449aa84174",
      "contractAddress": null
    },
    {
      "status": "0x1",
      "cumulativeGasUsed": "0x522f82",
      "logs": [
        {
          "address": "0x9ca154ba8a0a245aabdab3bf445547862690ccf6",
          "topics": [
            "0xddf252ad1be2c89b69c2b068fc378daa952ba7f163c4a11628f55a4df523b3ef",
            "0x0000000000000000000000001aa44c933a6718a4bc44064f0067a853c34be9b0",
            "0x0000000000000000000000000000000000000000000000000000000000000000"
          ],
          "data": "0x00000000000000000000000000000000000000000000000000000000004c4b40",
          "blockHash": "0xbd506a7b8a5365c6d1855308a554ca909b47b0dfccaf95ee0d9a03ea7081a1c5",
          "blockNumber": "0x443e9dd",
          "transactionHash": "0x8cba550e00cdcda70e97cb2fdf3c5ccd0edb9b9aadc327f775b4398e3c92e0a3",
          "transactionIndex": "0x23",
          "logIndex": "0xab",
          "removed": false
        },
        {
          "address": "0x4d97dcd97ec945f40cf65f87097ace5ea0476045",
          "topics": [
            "0x4a39dc06d4c0dbc64b70af90fd698a233a518aa5d07e595d983b8c0526c8f7fb",
            "0x0000000000000000000000009ca154ba8a0a245aabdab3bf445547862690ccf6",
            "0x0000000000000000000000009ca154ba8a0a245aabdab3bf445547862690ccf6",
            "0x0000000000000000000000001aa44c933a6718a4bc44064f0067a853c34be9b0"
          ],
          "data": "0x000000000000000000000000000000000000000000000000000000000000004000000000000000000000000000000000000000000000000000000000000000e00000000000000000000000000000000000000000000000000000000000000004a3d592d6002f1d275821d74d4dc1b736e054edb4f4f503fc7daf64433f3a8783b765739b68f91a6b8343c453dd500db1fd1211730bcfa6c0cf8dd2458871a3efbe87dd6f32f14ea56a7a67271dc7cba3e29a480106e24a00f7f05a055a397145f3eb7f4cd29dc80955819251ae49aae29ec5d4a4a9f1b19b1bfb87edd5520690000000000000000000000000000000000000000000000000000000000000000400000000000000000000000000000000000000000000000000000000004c4b4000000000000000000000000000000000000000000000000000000000004c4b4000000000000000000000000000000000000000000000000000000000004c4b4000000000000000000000000000000000000000000000000000000000004c4b40",
          "blockHash": "0xbd506a7b8a5365c6d1855308a554ca909b47b0dfccaf95ee0d9a03ea7081a1c5",
          "blockNumber": "0x443e9dd",
          "transactionHash": "0x8cba550e00cdcda70e97cb2fdf3c5ccd0edb9b9aadc327f775b4398e3c92e0a3",
          "transactionIndex": "0x23",
          "logIndex": "0xac",
          "removed": false
        },
        {
          "address": "0x0000000000000000000000000000000000001010",
          "topics": [
            "0x4dfe1bbbcf077ddc3e01291eea2d5c70c2b422b415d95645b9adcfd678cb1d63",
            "0x0000000000000000000000000000000000000000000000000000000000001010",
            "0x0000000000000000000000001aa44c933a6718a4bc44064f0067a853c34be9b0",
            "0x0000000000000000000000001efecb61a2f80aa34d3b9218b564a64d05946290"
          ],
          "data": "0x000000000000000000000000000000000000000000000000000f7d8633def800000000000000000000000000000000000000000000000000720cf67b003d03fc000000000000000000000000000000000000000000003a701d4a7ae377fc91ce00000000000000000000000000000000000000000000000071fd78f4cc5e0bfc000000000000000000000000000000000000000000003a701d59f869abdb89ce",
          "blockHash": "0xbd506a7b8a5365c6d1855308a554ca909b47b0dfccaf95ee0d9a03ea7081a1c5",
          "blockNumber": "0x443e9dd",
          "transactionHash": "0x8cba550e00cdcda70e97cb2fdf3c5ccd0edb9b9aadc327f775b4398e3c92e0a3",
          "transactionIndex": "0x23",
          "logIndex": "0xad",
          "removed": false
        }
      ],
      "logsBloom": "0x00000000000020000000000000000000000000000000000000000000000040000000000000000000000000000000000080008000000000000000000000000000200000000000000000000008000000800000000000000000000100000000000000000000020000000000000000000800000000000800000084000010000000000000000000000000000000001000000000000000000010800000000000000000200000000000000000000080000000000000000000000000000000000000004000000102000000000001000000000000000404000200000000100000000820002000000000000000040000000000000000000000000000000000000002100000",
      "type": "0x2",
      "transactionHash": "0x8cba550e00cdcda70e97cb2fdf3c5ccd0edb9b9aadc327f775b4398e3c92e0a3",
      "transactionIndex": "0x23",
      "blockHash": "0xbd506a7b8a5365c6d1855308a554ca909b47b0dfccaf95ee0d9a03ea7081a1c5",
      "blockNumber": "0x443e9dd",
      "gasUsed": "0x237ba",
      "effectiveGasPrice": "0x6fc23ad34",
      "from": "0x1aa44c933a6718a4bc44064f0067a853c34be9b0",
      "to": "0x9ca154ba8a0a245aabdab3bf445547862690ccf6",
      "contractAddress": null
    }
  ],
  "libraries": [],
  "pending": [],
  "returns": {},
  "timestamp": 1747339923,
  "chain": 137,
  "commit": "5e7219b"
}