{
  "transactions": [
    {
      "hash": "0xf9b16237b4fbc0b3781263ccf33ee6de476d20d777b6b6101f6d3f6e1f96bd8e",
      "transactionType": "CALL",
      "contractName": null,
      "contractAddress": "0x2791bca1f2de4661ed88a30c99a7a9449aa84174",
      "function": "approve(address,uint256)",
      "arguments": [
        "0x4D97DCd97eC945f40cF65F87097ACe5EA0476045",
        "115792089237316195423570985008687907853269984665640564039457584007913129639935"
      ],
      "transaction": {
        "from": "0x1aa44c933a6718a4bc44064f0067a853c34be9b0",
        "to": "0x2791bca1f2de4661ed88a30c99a7a9449aa84174",
        "gas": "0xdc35",
        "value": "0x0",
        "input": "0x095ea7b30000000000000000000000004d97dcd97ec945f40cf65f87097ace5ea0476045ffffffffffffffffffffffffffffffffffffffffffffffffffffffffffffffff",
        "nonce": "0x62",
        "chainId": "0x89"
      },
      "additionalContracts": [],
      "isFixedGasLimit": false
    },
    {
      "hash": "0x71deac5970423f935b3b13520400b4e6ad3ae20b14761f0a2f86da5457070eaa",
      "transactionType": "CALL",
      "contractName": null,
      "contractAddress": "0x9a3a8fad75af102201a2cffbefc3443b3497420f",
      "function": "withdraw(uint256)",
      "arguments": [
        "5000000"
      ],
      "transaction": {
        "from": "0x1aa44c933a6718a4bc44064f0067a853c34be9b0",
        "to": "0x9a3a8fad75af102201a2cffbefc3443b3497420f",
        "gas": "0x33e4c",
        "value": "0x0",
        "input": "0x2e1a7d4d00000000000000000000000000000000000000000000000000000000004c4b40",
        "nonce": "0x63",
        "chainId": "0x89"
      },
      "additionalContracts": [],
      "isFixedGasLimit": false
    },
    {
      "hash": "0x5f0ff6c6bdb63329838c028d9ab9dd525fb9f5751b5f5087df78cf305147a809",
      "transactionType": "CALL",
      "contractName": null,
      "contractAddress": "0xe07fb832185ff0e9c8bb13b69f778aed8de76c58",
      "function": "withdraw(uint256)",
      "arguments": [
        "5000000"
      ],
      "transaction": {
        "from": "0x1aa44c933a6718a4bc44064f0067a853c34be9b0",
        "to": "0xe07fb832185ff0e9c8bb13b69f778aed8de76c58",
        "gas": "0x33e4c",
        "value": "0x0",
        "input": "0x2e1a7d4d00000000000000000000000000000000000000000000000000000000004c4b40",
        "nonce": "0x64",
        "chainId": "0x89"
      },
      "additionalContracts": [],
      "isFixedGasLimit": false
    }
  ],
  "receipts": [
    {
      "status": "0x1",
      "cumulativeGasUsed": "0xd63d19",
      "logs": [
        {
          "address": "0x2791bca1f2de4661ed88a30c99a7a9449aa84174",
          "topics": [
            "0x8c5be1e5ebec7d5bd14f71427d1e84f3dd0314c0f7b2291e5b200ac8c7c3b925",
            "0x0000000000000000000000001aa44c933a6718a4bc44064f0067a853c34be9b0",
            "0x0000000000000000000000004d97dcd97ec945f40cf65f87097ace5ea0476045"
          ],
          "data": "0xffffffffffffffffffffffffffffffffffffffffffffffffffffffffffffffff",
          "blockHash": "0x78743e3e91955e0bb323b6d1ca0cf51205d02b909fe6d14bcae6d48771502c97",
          "blockNumber": "0x443ed21",
          "transactionHash": "0xf9b16237b4fbc0b3781263ccf33ee6de476d20d777b6b6101f6d3f6e1f96bd8e",
          "transactionIndex": "0x54",
          "logIndex": "0x1a1",
          "removed": false
        },
        {
          "address": "0x0000000000000000000000000000000000001010",
          "topics": [
            "0x4dfe1bbbcf077ddc3e01291eea2d5c70c2b422b415d95645b9adcfd678cb1d63",
            "0x0000000000000000000000000000000000000000000000000000000000001010",
            "0x0000000000000000000000001aa44c933a6718a4bc44064f0067a853c34be9b0",
            "0x000000000000000000000000ce7fcb674ba27a952c71061b649fb5a5746f3b2b"
          ],
          "data": "0x00000000000000000000000000000000000000000000000000041bb8b32018000000000000000000000000000000000000000000000000007121a4c518565912000000000000000000000000000000000000000000001d4ca188e07ec7647286000000000000000000000000000000000000000000000000711d890c65364112000000000000000000000000000000000000000000001d4ca18cfc377a848a86",
          "blockHash": "0x78743e3e91955e0bb323b6d1ca0cf51205d02b909fe6d14bcae6d48771502c97",
          "blockNumber": "0x443ed21",
          "transactionHash": "0xf9b16237b4fbc0b3781263ccf33ee6de476d20d777b6b6101f6d3f6e1f96bd8e",
          "transactionIndex": "0x54",
          "logIndex": "0x1a2",
          "removed": false
        }
      ],
      "logsBloom": "0x00000000000020000000000000000000000000000000000000000000000000000000000000000000000000000000000000008000000000000000000000200000000000000000000000000000000200800000000000000000000120000000000000000000000000000000000000000000000000000000000180000000000000000001000000000000000000001080000000000000000000000000000000000000220000000400000000000080000001000000000000000000000000000000004000000000004000000001000000000000000000000000000000100000000000000010008000000000000000000000000000000000000000000000000000100000",
      "type": "0x2",
      "transactionHash": "0xf9b16237b4fbc0b3781263ccf33ee6de476d20d777b6b6101f6d3f6e1f96bd8e",
      "transactionIndex": "0x54",
      "blockHash": "0x78743e3e91955e0bb323b6d1ca0cf51205d02b909fe6d14bcae6d48771502c97",
      "blockNumber": "0x443ed21",
      "gasUsed": "0x9692",
      "effectiveGasPrice": "0x6fc23ac24",
      "from": "0x1aa44c933a6718a4bc44064f0067a853c34be9b0",
      "to": "0x2791bca1f2de4661ed88a30c99a7a9449aa84174",
      "contractAddress": null
    },
    {
      "status": "0x1",
      "cumulativeGasUsed": "0xd874d3",
      "logs": [
        {
          "address": "0x9a3a8fad75af102201a2cffbefc3443b3497420f",
          "topics": [
            "0xddf252ad1be2c89b69c2b068fc378daa952ba7f163c4a11628f55a4df523b3ef",
            "0x0000000000000000000000001aa44c933a6718a4bc44064f0067a853c34be9b0",
            "0x0000000000000000000000000000000000000000000000000000000000000000"
          ],
          "data": "0x00000000000000000000000000000000000000000000000000000000004c4b40",
          "blockHash": "0x78743e3e91955e0bb323b6d1ca0cf51205d02b909fe6d14bcae6d48771502c97",
          "blockNumber": "0x443ed21",
          "transactionHash": "0x71deac5970423f935b3b13520400b4e6ad3ae20b14761f0a2f86da5457070eaa",
          "transactionIndex": "0x55",
          "logIndex": "0x1a3",
          "removed": false
        },
        {
          "address": "0x4d97dcd97ec945f40cf65f87097ace5ea0476045",
          "topics": [
            "0x4a39dc06d4c0dbc64b70af90fd698a233a518aa5d07e595d983b8c0526c8f7fb",
            "0x0000000000000000000000009a3a8fad75af102201a2cffbefc3443b3497420f",
            "0x0000000000000000000000009a3a8fad75af102201a2cffbefc3443b3497420f",
            "0x0000000000000000000000001aa44c933a6718a4bc44064f0067a853c34be9b0"
          ],
          "data": "0x000000000000000000000000000000000000000000000000000000000000004000000000000000000000000000000000000000000000000000000000000000e00000000000000000000000000000000000000000000000000000000000000004a3d592d6002f1d275821d74d4dc1b736e054edb4f4f503fc7daf64433f3a8783b765739b68f91a6b8343c453dd500db1fd1211730bcfa6c0cf8dd2458871a3efbe87dd6f32f14ea56a7a67271dc7cba3e29a480106e24a00f7f05a055a397145f3eb7f4cd29dc80955819251ae49aae29ec5d4a4a9f1b19b1bfb87edd5520690000000000000000000000000000000000000000000000000000000000000000400000000000000000000000000000000000000000000000000000000004c4b4000000000000000000000000000000000000000000000000000000000004c4b4000000000000000000000000000000000000000000000000000000000004c4b4000000000000000000000000000000000000000000000000000000000004c4b40",
          "blockHash": "0x78743e3e91955e0bb323b6d1ca0cf51205d02b909fe6d14bcae6d48771502c97",
          "blockNumber": "0x443ed21",
          "transactionHash": "0x71deac5970423f935b3b13520400b4e6ad3ae20b14761f0a2f86da5457070eaa",
          "transactionIndex": "0x55",
          "logIndex": "0x1a4",
          "removed": false
        },
        {
          "address": "0x0000000000000000000000000000000000001010",
          "topics": [
            "0x4dfe1bbbcf077ddc3e01291eea2d5c70c2b422b415d95645b9adcfd678cb1d63",
            "0x0000000000000000000000000000000000000000000000000000000000001010",
            "0x0000000000000000000000001aa44c933a6718a4bc44064f0067a853c34be9b0",
            "0x000000000000000000000000ce7fcb674ba27a952c71061b649fb5a5746f3b2b"
          ],
          "data": "0x000000000000000000000000000000000000000000000000000f7d8633def800000000000000000000000000000000000000000000000000711d890c6521148a000000000000000000000000000000000000000000001d4ca18cfc377a848a86000000000000000000000000000000000000000000000000710e0b8631421c8a000000000000000000000000000000000000000000001d4ca19c79bdae638286",
          "blockHash": "0x78743e3e91955e0bb323b6d1ca0cf51205d02b909fe6d14bcae6d48771502c97",
          "blockNumber": "0x443ed21",
          "transactionHash": "0x71deac5970423f935b3b13520400b4e6ad3ae20b14761f0a2f86da5457070eaa",
          "transactionIndex": "0x55",
          "logIndex": "0x1a5",
          "removed": false
        }
      ],
      "logsBloom": "0x00000000000020000000000000000000000000000000000000010000000040000000000000000000000000000000000000008000000000000000000000000000000000000000000000000008000000800000000000000000000120008000000000000000020000000000000000000800000000000800000080000010000000000100000000000000000000001080000000000000000000100000000000000000200000000000000000000080000000000000000000000000000000000000004004000002004000000001000000000000000404000000000000100000000020000000000000000000040000000000000000000000000000000000000002100004",
      "type": "0x2",
      "transactionHash": "0x71deac5970423f935b3b13520400b4e6ad3ae20b14761f0a2f86da5457070eaa",
      "transactionIndex": "0x55",
      "blockHash": "0x78743e3e91955e0bb323b6d1ca0cf51205d02b909fe6d14bcae6d48771502c97",
      "blockNumber": "0x443ed21",
      "gasUsed": "0x237ba",
      "effectiveGasPrice": "0x6fc23ac24",
      "from": "0x1aa44c933a6718a4bc44064f0067a853c34be9b0",
      "to": "0x9a3a8fad75af102201a2cffbefc3443b3497420f",
      "contractAddress": null
    },
    {
      "status": "0x1",
      "cumulativeGasUsed": "0xdaac8d",
      "logs": [
        {
          "address": "0xe07fb832185ff0e9c8bb13b69f778aed8de76c58",
          "topics": [
            "0xddf252ad1be2c89b69c2b068fc378daa952ba7f163c4a11628f55a4df523b3ef",
            "0x0000000000000000000000001aa44c933a6718a4bc44064f0067a853c34be9b0",
            "0x0000000000000000000000000000000000000000000000000000000000000000"
          ],
          "data": "0x00000000000000000000000000000000000000000000000000000000004c4b40",
          "blockHash": "0x78743e3e91955e0bb323b6d1ca0cf51205d02b909fe6d14bcae6d48771502c97",
          "blockNumber": "0x443ed21",
          "transactionHash": "0x5f0ff6c6bdb63329838c028d9ab9dd525fb9f5751b5f5087df78cf305147a809",
          "transactionIndex": "0x56",
          "logIndex": "0x1a6",
          "removed": false
        },
        {
          "address": "0x4d97dcd97ec945f40cf65f87097ace5ea0476045",
          "topics": [
            "0x4a39dc06d4c0dbc64b70af90fd698a233a518aa5d07e595d983b8c0526c8f7fb",
            "0x000000000000000000000000e07fb832185ff0e9c8bb13b69f778aed8de76c58",
            "0x000000000000000000000000e07fb832185ff0e9c8bb13b69f778aed8de76c58",
            "0x0000000000000000000000001aa44c933a6718a4bc44064f0067a853c34be9b0"
          ],
          "data": "0x000000000000000000000000000000000000000000000000000000000000004000000000000000000000000000000000000000000000000000000000000000e00000000000000000000000000000000000000000000000000000000000000004274f483d89eae851d2dd7b8510d21a8b160bf24c4086684b5ffb997d9c84973d35d451cc82492f4ab9d2489892038bfe00ce089d310f513bd95d5755fa75851f55525a430e83ffbdb1b501cfde45aaadbe93869da7cd596ff6249f452bd7c0bb7bfc2a104e5c430be513e7d7d4a9792b6df8c227f4df2c741542b1942a1605d1000000000000000000000000000000000000000000000000000000000000000400000000000000000000000000000000000000000000000000000000004c4b4000000000000000000000000000000000000000000000000000000000004c4b4000000000000000000000000000000000000000000000000000000000004c4b4000000000000000000000000000000000000000000000000000000000004c4b40",
          "blockHash": "0x78743e3e91955e0bb323b6d1ca0cf51205d02b909fe6d14bcae6d48771502c97",
          "blockNumber": "0x443ed21",
          "transactionHash": "0x5f0ff6c6bdb63329838c028d9ab9dd525fb9f5751b5f5087df78cf305147a809",
          "transactionIndex": "0x56",
          "logIndex": "0x1a7",
          "removed": false
        },
        {
          "address": "0x0000000000000000000000000000000000001010",
          "topics": [
            "0x4dfe1bbbcf077ddc3e01291eea2d5c70c2b422b415d95645b9adcfd678cb1d63",
            "0x0000000000000000000000000000000000000000000000000000000000001010",
            "0x0000000000000000000000001aa44c933a6718a4bc44064f0067a853c34be9b0",
            "0x000000000000000000000000ce7fcb674ba27a952c71061b649fb5a5746f3b2b"
          ],
          "data": "0x000000000000000000000000000000000000000000000000000f7d8633def800000000000000000000000000000000000000000000000000710e0b8630f24662000000000000000000000000000000000000000000001d4ca19c79bdae63828600000000000000000000000000000000000000000000000070fe8dfffd134e62000000000000000000000000000000000000000000001d4ca1abf743e2427a86",
          "blockHash": "0x78743e3e91955e0bb323b6d1ca0cf51205d02b909fe6d14bcae6d48771502c97",
          "blockNumber": "0x443ed21",
          "transactionHash": "0x5f0ff6c6bdb63329838c028d9ab9dd525fb9f5751b5f5087df78cf305147a809",
          "transactionIndex": "0x56",
          "logIndex": "0x1a8",
          "removed": false
        }
      ],
      "logsBloom": "0x00000000000020000000000000000000000000000000000000000000000040000000000000000000000000000000000000008000000000000000000200000000000000000000000000000008000000800000000000000000000120000000000000000000020000000000000000000800000000000800000080000010000000000000000000000000000000001080000000000000000000000000000000000000200000000000000000000080000000000000000000000000000000010000004000000002004880000001200000000000000404000008000000100000000020000000000000000000040000000000000000000000000000000000000002100000",
      "type": "0x2",
      "transactionHash": "0x5f0ff6c6bdb63329838c028d9ab9dd525fb9f5751b5f5087df78cf305147a809",
      "transactionIndex": "0x56",
      "blockHash": "0x78743e3e91955e0bb323b6d1ca0cf51205d02b909fe6d14bcae6d48771502c97",
      "blockNumber": "0x443ed21",
      "gasUsed": "0x237ba",
      "effectiveGasPrice": "0x6fc23ac24",
      "from": "0x1aa44c933a6718a4bc44064f0067a853c34be9b0",
      "to": "0xe07fb832185ff0e9c8bb13b69f778aed8de76c58",
      "contractAddress": null
    }
  ],
  "libraries": [],
  "pending": [],
  "returns": {},
  "timestamp": 1747341701,
  "chain": 137,
  "commit": "5e7219b"
}