{
  "transactions": [
    {
      "hash": "0xc7302ca2a4e5fdc7403645e8d144eb272570bf9e05ff411e70f6aa1fcec95811",
      "transactionType": "CALL",
      "contractName": null,
      "contractAddress": "0x2791bca1f2de4661ed88a30c99a7a9449aa84174",
      "function": "approve(address,uint256)",
      "arguments": [
        "0x4D97DCd97eC945f40cF65F87097ACe5EA0476045",
        "115792089237316195423570985008687907853269984665640564039457584007913129639935"
      ],
      "transaction": {
        "from": "0x1aa44c933a6718a4bc44064f0067a853c34be9b0",
        "to": "0x2791bca1f2de4661ed88a30c99a7a9449aa84174",
        "gas": "0xdc35",
        "value": "0x0",
        "input": "0x095ea7b30000000000000000000000004d97dcd97ec945f40cf65f87097ace5ea0476045ffffffffffffffffffffffffffffffffffffffffffffffffffffffffffffffff",
        "nonce": "0x70",
        "chainId": "0x89"
      },
      "additionalContracts": [],
      "isFixedGasLimit": false
    },
    {
      "hash": "0xe89f544d823aff93dde36a81bbe0b2ed728b6ed2b78bb80ddb3bd99a1337ca30",
      "transactionType": "CALL",
      "contractName": null,
      "contractAddress": "0x4d97dcd97ec945f40cf65f87097ace5ea0476045",
      "function": "splitPosition(address,bytes32,bytes32,uint256[],uint256)",
      "arguments": [
        "0x2791Bca1f2de4661ED88A30C99A7a9449Aa84174",
        "0x0000000000000000000000000000000000000000000000000000000000000000",
        "0x3cade829b69b30436629ac0c2494d475211ba6f7e00e192a920653ba00b7db36",
        "[1, 2]",
        "2000000"
      ],
      "transaction": {
        "from": "0x1aa44c933a6718a4bc44064f0067a853c34be9b0",
        "to": "0x4d97dcd97ec945f40cf65f87097ace5ea0476045",
        "gas": "0x26392",
        "value": "0x0",
        "input": "0x72ce42750000000000000000000000002791bca1f2de4661ed88a30c99a7a9449aa8417400000000000000000000000000000000000000000000000000000000000000003cade829b69b30436629ac0c2494d475211ba6f7e00e192a920653ba00b7db3600000000000000000000000000000000000000000000000000000000000000a000000000000000000000000000000000000000000000000000000000001e8480000000000000000000000000000000000000000000000000000000000000000200000000000000000000000000000000000000000000000000000000000000010000000000000000000000000000000000000000000000000000000000000002",
        "nonce": "0x71",
        "chainId": "0x89"
      },
      "additionalContracts": [],
      "isFixedGasLimit": false
    },
    {
      "hash": "0x773a83a86a9543709965e4d710f2d7ae9382c2e5188385bc24077b08d2425baa",
      "transactionType": "CALL",
      "contractName": null,
      "contractAddress": "0x4d97dcd97ec945f40cf65f87097ace5ea0476045",
      "function": "splitPosition(address,bytes32,bytes32,uint256[],uint256)",
      "arguments": [
        "0x2791Bca1f2de4661ED88A30C99A7a9449Aa84174",
        "0x0000000000000000000000000000000000000000000000000000000000000000",
        "0x553728bcacf78928f84c20141df3927eba4e76846d67db8d354a111619501a6b",
        "[1, 2]",
        "2000000"
      ],
      "transaction": {
        "from": "0x1aa44c933a6718a4bc44064f0067a853c34be9b0",
        "to": "0x4d97dcd97ec945f40cf65f87097ace5ea0476045",
        "gas": "0x23b8d",
        "value": "0x0",
        "input": "0x72ce42750000000000000000000000002791bca1f2de4661ed88a30c99a7a9449aa841740000000000000000000000000000000000000000000000000000000000000000553728bcacf78928f84c20141df3927eba4e76846d67db8d354a111619501a6b00000000000000000000000000000000000000000000000000000000000000a000000000000000000000000000000000000000000000000000000000001e8480000000000000000000000000000000000000000000000000000000000000000200000000000000000000000000000000000000000000000000000000000000010000000000000000000000000000000000000000000000000000000000000002",
        "nonce": "0x72",
        "chainId": "0x89"
      },
      "additionalContracts": [],
      "isFixedGasLimit": false
    },
    {
      "hash": "0xdf08a356bdae058fd0b0cfcc097d125fd19ea0f7854436c9bf17552648ff4dd7",
      "transactionType": "CALL",
      "contractName": null,
      "contractAddress": "0x4d97dcd97ec945f40cf65f87097ace5ea0476045",
      "function": "splitPosition(address,bytes32,bytes32,uint256[],uint256)",
      "arguments": [
        "0x2791Bca1f2de4661ED88A30C99A7a9449Aa84174",
        "0x0000000000000000000000000000000000000000000000000000000000000000",
        "0x354b6793f25222186de8d3c9ca1e444e71a6d7b7db276bf1aa50b95b8d47cb65",
        "[1, 2]",
        "2000000"
      ],
      "transaction": {
        "from": "0x1aa44c933a6718a4bc44064f0067a853c34be9b0",
        "to": "0x4d97dcd97ec945f40cf65f87097ace5ea0476045",
        "gas": "0x232d9",
        "value": "0x0",
        "input": "0x72ce42750000000000000000000000002791bca1f2de4661ed88a30c99a7a9449aa841740000000000000000000000000000000000000000000000000000000000000000354b6793f25222186de8d3c9ca1e444e71a6d7b7db276bf1aa50b95b8d47cb6500000000000000000000000000000000000000000000000000000000000000a000000000000000000000000000000000000000000000000000000000001e8480000000000000000000000000000000000000000000000000000000000000000200000000000000000000000000000000000000000000000000000000000000010000000000000000000000000000000000000000000000000000000000000002",
        "nonce": "0x73",
        "chainId": "0x89"
      },
      "additionalContracts": [],
      "isFixedGasLimit": false
    },
    {
      "hash": "0x5004968baca0cc6b1b9368dd79960bd59ea72f81c38461be5adadaf38257f44c",
      "transactionType": "CALL",
      "contractName": null,
      "contractAddress": "0x4d97dcd97ec945f40cf65f87097ace5ea0476045",
      "function": "splitPosition(address,bytes32,bytes32,uint256[],uint256)",
      "arguments": [
        "0x2791Bca1f2de4661ED88A30C99A7a9449Aa84174",
        "0x0000000000000000000000000000000000000000000000000000000000000000",
        "0x5bf33c43674b2bc7452acca8d971ff8a84ccee5fbce29b9d4b75f8f895aa52c2",
        "[1, 2]",
        "2000000"
      ],
      "transaction": {
        "from": "0x1aa44c933a6718a4bc44064f0067a853c34be9b0",
        "to": "0x4d97dcd97ec945f40cf65f87097ace5ea0476045",
        "gas": "0x2637e",
        "value": "0x0",
        "input": "0x72ce42750000000000000000000000002791bca1f2de4661ed88a30c99a7a9449aa8417400000000000000000000000000000000000000000000000000000000000000005bf33c43674b2bc7452acca8d971ff8a84ccee5fbce29b9d4b75f8f895aa52c200000000000000000000000000000000000000000000000000000000000000a000000000000000000000000000000000000000000000000000000000001e8480000000000000000000000000000000000000000000000000000000000000000200000000000000000000000000000000000000000000000000000000000000010000000000000000000000000000000000000000000000000000000000000002",
        "nonce": "0x74",
        "chainId": "0x89"
      },
      "additionalContracts": [],
      "isFixedGasLimit": false
    },
    {
      "hash": "0x6f3476efb7c4bd1e6c64a96e9bf56b366e33349b9bff25be3cf2480b753d6eed",
      "transactionType": "CALL",
      "contractName": null,
      "contractAddress": "0x4d97dcd97ec945f40cf65f87097ace5ea0476045",
      "function": "setApprovalForAll(address,bool)",
      "arguments": [
        "0x934ED1a863BB08d68b74939cF4D8ad644AbC1d85",
        "true"
      ],
      "transaction": {
        "from": "0x1aa44c933a6718a4bc44064f0067a853c34be9b0",
        "to": "0x4d97dcd97ec945f40cf65f87097ace5ea0476045",
        "gas": "0x8ccd",
        "value": "0x0",
        "input": "0xa22cb465000000000000000000000000934ed1a863bb08d68b74939cf4d8ad644abc1d850000000000000000000000000000000000000000000000000000000000000001",
        "nonce": "0x75",
        "chainId": "0x89"
      },
      "additionalContracts": [],
      "isFixedGasLimit": false
    },
    {
      "hash": "0xf5bb44551a719415e7b39747a366ecab5e6220b177b77f217cfaaafab30bf594",
      "transactionType": "CALL",
      "contractName": null,
      "contractAddress": "0x4d97dcd97ec945f40cf65f87097ace5ea0476045",
      "function": "setApprovalForAll(address,bool)",
      "arguments": [
        "0x934ED1a863BB08d68b74939cF4D8ad644AbC1d85",
        "true"
      ],
      "transaction": {
        "from": "0x1aa44c933a6718a4bc44064f0067a853c34be9b0",
        "to": "0x4d97dcd97ec945f40cf65f87097ace5ea0476045",
        "gas": "0x8ccd",
        "value": "0x0",
        "input": "0xa22cb465000000000000000000000000934ed1a863bb08d68b74939cf4d8ad644abc1d850000000000000000000000000000000000000000000000000000000000000001",
        "nonce": "0x76",
        "chainId": "0x89"
      },
      "additionalContracts": [],
      "isFixedGasLimit": false
    },
    {
      "hash": "0xce37b3bee5edbf15d86907123d43d3419cd5eb4252d1b1ea7e080150fb11f870",
      "transactionType": "CALL",
      "contractName": null,
      "contractAddress": "0x934ed1a863bb08d68b74939cf4d8ad644abc1d85",
      "function": "createIndex((address,bytes32[],uint256[],bytes),bytes,uint256)",
      "arguments": [
        "(0x70f7f2299B254e2E53ae7D67eb85d7bBE10CaDde, [0x3cade829b69b30436629ac0c2494d475211ba6f7e00e192a920653ba00b7db36, 0x553728bcacf78928f84c20141df3927eba4e76846d67db8d354a111619501a6b, 0x354b6793f25222186de8d3c9ca1e444e71a6d7b7db276bf1aa50b95b8d47cb65, 0x5bf33c43674b2bc7452acca8d971ff8a84ccee5fbce29b9d4b75f8f895aa52c2], [1, 1, 1, 1], 0x3531375570)",
        "0x",
        "2000000"
      ],
      "transaction": {
        "from": "0x1aa44c933a6718a4bc44064f0067a853c34be9b0",
        "to": "0x934ed1a863bb08d68b74939cf4d8ad644abc1d85",
        "gas": "0x7973f",
        "value": "0x0",
        "input": "0x30229a130000000000000000000000000000000000000000000000000000000000000060000000000000000000000000000000000000000000000000000000000000026000000000000000000000000000000000000000000000000000000000001e848000000000000000000000000070f7f2299b254e2e53ae7d67eb85d7bbe10cadde0000000000000000000000000000000000000000000000000000000000000080000000000000000000000000000000000000000000000000000000000000012000000000000000000000000000000000000000000000000000000000000001c000000000000000000000000000000000000000000000000000000000000000043cade829b69b30436629ac0c2494d475211ba6f7e00e192a920653ba00b7db36553728bcacf78928f84c20141df3927eba4e76846d67db8d354a111619501a6b354b6793f25222186de8d3c9ca1e444e71a6d7b7db276bf1aa50b95b8d47cb655bf33c43674b2bc7452acca8d971ff8a84ccee5fbce29b9d4b75f8f895aa52c200000000000000000000000000000000000000000000000000000000000000040000000000000000000000000000000000000000000000000000000000000001000000000000000000000000000000000000000000000000000000000000000100000000000000000000000000000000000000000000000000000000000000010000000000000000000000000000000000000000000000000000000000000001000000000000000000000000000000000000000000000000000000000000000535313755700000000000000000000000000000000000000000000000000000000000000000000000000000000000000000000000000000000000000000000000",
        "nonce": "0x77",
        "chainId": "0x89"
      },
      "additionalContracts": [],
      "isFixedGasLimit": false
    },
    {
      "hash": "0xb3c850f8258944a3b598bd4364ec95110ba013b1680c74cebbd183d9d94773f2",
      "transactionType": "CALL",
      "contractName": null,
      "contractAddress": "0x934ed1a863bb08d68b74939cf4d8ad644abc1d85",
      "function": "createIndex((address,bytes32[],uint256[],bytes),bytes,uint256)",
      "arguments": [
        "(0x70f7f2299B254e2E53ae7D67eb85d7bBE10CaDde, [0x3cade829b69b30436629ac0c2494d475211ba6f7e00e192a920653ba00b7db36, 0x553728bcacf78928f84c20141df3927eba4e76846d67db8d354a111619501a6b, 0x354b6793f25222186de8d3c9ca1e444e71a6d7b7db276bf1aa50b95b8d47cb65, 0x5bf33c43674b2bc7452acca8d971ff8a84ccee5fbce29b9d4b75f8f895aa52c2], [2, 2, 2, 2], 0x353137446f776e)",
        "0x",
        "2000000"
      ],
      "transaction": {
        "from": "0x1aa44c933a6718a4bc44064f0067a853c34be9b0",
        "to": "0x934ed1a863bb08d68b74939cf4d8ad644abc1d85",
        "gas": "0x775e9",
        "value": "0x0",
        "input": "0x30229a130000000000000000000000000000000000000000000000000000000000000060000000000000000000000000000000000000000000000000000000000000026000000000000000000000000000000000000000000000000000000000001e848000000000000000000000000070f7f2299b254e2e53ae7d67eb85d7bbe10cadde0000000000000000000000000000000000000000000000000000000000000080000000000000000000000000000000000000000000000000000000000000012000000000000000000000000000000000000000000000000000000000000001c000000000000000000000000000000000000000000000000000000000000000043cade829b69b30436629ac0c2494d475211ba6f7e00e192a920653ba00b7db36553728bcacf78928f84c20141df3927eba4e76846d67db8d354a111619501a6b354b6793f25222186de8d3c9ca1e444e71a6d7b7db276bf1aa50b95b8d47cb655bf33c43674b2bc7452acca8d971ff8a84ccee5fbce29b9d4b75f8f895aa52c2000000000000000000000000000000000000000000000000000000000000000400000000000000000000000000000000000000000000000000000000000000020000000000000000000000000000000000000000000000000000000000000002000000000000000000000000000000000000000000000000000000000000000200000000000000000000000000000000000000000000000000000000000000020000000000000000000000000000000000000000000000000000000000000007353137446f776e000000000000000000000000000000000000000000000000000000000000000000000000000000000000000000000000000000000000000000",
        "nonce": "0x78",
        "chainId": "0x89"
      },
      "additionalContracts": [],
      "isFixedGasLimit": false
    }
  ],
  "receipts": [
    {
      "status": "0x1",
      "cumulativeGasUsed": "0x6864ef",
      "logs": [
        {
          "address": "0x2791bca1f2de4661ed88a30c99a7a9449aa84174",
          "topics": [
            "0x8c5be1e5ebec7d5bd14f71427d1e84f3dd0314c0f7b2291e5b200ac8c7c3b925",
            "0x0000000000000000000000001aa44c933a6718a4bc44064f0067a853c34be9b0",
            "0x0000000000000000000000004d97dcd97ec945f40cf65f87097ace5ea0476045"
          ],
          "data": "0xffffffffffffffffffffffffffffffffffffffffffffffffffffffffffffffff",
          "blockHash": "0x143c0fabc24edd50c142f6cb2a9a971c02b88d20c117bb8b545172347086d4fe",
          "blockNumber": "0x443f23b",
          "transactionHash": "0xc7302ca2a4e5fdc7403645e8d144eb272570bf9e05ff411e70f6aa1fcec95811",
          "transactionIndex": "0x23",
          "logIndex": "0xfc",
          "removed": false
        },
        {
          "address": "0x0000000000000000000000000000000000001010",
          "topics": [
            "0x4dfe1bbbcf077ddc3e01291eea2d5c70c2b422b415d95645b9adcfd678cb1d63",
            "0x0000000000000000000000000000000000000000000000000000000000001010",
            "0x0000000000000000000000001aa44c933a6718a4bc44064f0067a853c34be9b0",
            "0x00000000000000000000000067b94473d81d0cd00849d563c94d0432ac988b49"
          ],
          "data": "0x00000000000000000000000000000000000000000000000000040b40c87373d0000000000000000000000000000000000000000000000000709c3fb1ac064b06000000000000000000000000000000000000000000000cd11d0b47cb6597699600000000000000000000000000000000000000000000000070983470e392d736000000000000000000000000000000000000000000000cd11d0f530c2e0add66",
          "blockHash": "0x143c0fabc24edd50c142f6cb2a9a971c02b88d20c117bb8b545172347086d4fe",
          "blockNumber": "0x443f23b",
          "transactionHash": "0xc7302ca2a4e5fdc7403645e8d144eb272570bf9e05ff411e70f6aa1fcec95811",
          "transactionIndex": "0x23",
          "logIndex": "0xfd",
          "removed": false
        }
      ],
      "logsBloom": "0x00000000000020000000000000000000000000000000000000000000000000000000000000000000000000000000000000008000000000000000000000200000000000000000000000000000000200800000000000000000000100000000000000000000000000000000000000000000000000000000000180000000000000000001000000000000000000001000000000000000000000000000000000000000220000000400000000000080000001000000000000000000000000000000004000800000000000000001000000008000000000000000000000100000000000000010028000000000000000000000000000000000000000000000000000100000",
      "type": "0x2",
      "transactionHash": "0xc7302ca2a4e5fdc7403645e8d144eb272570bf9e05ff411e70f6aa1fcec95811",
      "transactionIndex": "0x23",
      "blockHash": "0x143c0fabc24edd50c142f6cb2a9a971c02b88d20c117bb8b545172347086d4fe",
      "blockNumber": "0x443f23b",
      "gasUsed": "0x9692",
      "effectiveGasPrice": "0x6e023c4c7",
      "from": "0x1aa44c933a6718a4bc44064f0067a853c34be9b0",
      "to": "0x2791bca1f2de4661ed88a30c99a7a9449aa84174",
      "contractAddress": null
    },
    {
      "status": "0x1",
      "cumulativeGasUsed": "0x6a1fb4",
      "logs": [
        {
          "address": "0x2791bca1f2de4661ed88a30c99a7a9449aa84174",
          "topics": [
            "0xddf252ad1be2c89b69c2b068fc378daa952ba7f163c4a11628f55a4df523b3ef",
            "0x0000000000000000000000001aa44c933a6718a4bc44064f0067a853c34be9b0",
            "0x0000000000000000000000004d97dcd97ec945f40cf65f87097ace5ea0476045"
          ],
          "data": "0x00000000000000000000000000000000000000000000000000000000001e8480",
          "blockHash": "0x143c0fabc24edd50c142f6cb2a9a971c02b88d20c117bb8b545172347086d4fe",
          "blockNumber": "0x443f23b",
          "transactionHash": "0xe89f544d823aff93dde36a81bbe0b2ed728b6ed2b78bb80ddb3bd99a1337ca30",
          "transactionIndex": "0x24",
          "logIndex": "0xfe",
          "removed": false
        },
        {
          "address": "0x2791bca1f2de4661ed88a30c99a7a9449aa84174",
          "topics": [
            "0x8c5be1e5ebec7d5bd14f71427d1e84f3dd0314c0f7b2291e5b200ac8c7c3b925",
            "0x0000000000000000000000001aa44c933a6718a4bc44064f0067a853c34be9b0",
            "0x0000000000000000000000004d97dcd97ec945f40cf65f87097ace5ea0476045"
          ],
          "data": "0xffffffffffffffffffffffffffffffffffffffffffffffffffffffffffe17b7f",
          "blockHash": "0x143c0fabc24edd50c142f6cb2a9a971c02b88d20c117bb8b545172347086d4fe",
          "blockNumber": "0x443f23b",
          "transactionHash": "0xe89f544d823aff93dde36a81bbe0b2ed728b6ed2b78bb80ddb3bd99a1337ca30",
          "transactionIndex": "0x24",
          "logIndex": "0xff",
          "removed": false
        },
        {
          "address": "0x4d97dcd97ec945f40cf65f87097ace5ea0476045",
          "topics": [
            "0x4a39dc06d4c0dbc64b70af90fd698a233a518aa5d07e595d983b8c0526c8f7fb",
            "0x0000000000000000000000001aa44c933a6718a4bc44064f0067a853c34be9b0",
            "0x0000000000000000000000000000000000000000000000000000000000000000",
            "0x0000000000000000000000001aa44c933a6718a4bc44064f0067a853c34be9b0"
          ],
          "data": "0x000000000000000000000000000000000000000000000000000000000000004000000000000000000000000000000000000000000000000000000000000000a00000000000000000000000000000000000000000000000000000000000000002f3eb7f4cd29dc80955819251ae49aae29ec5d4a4a9f1b19b1bfb87edd55206907bfc2a104e5c430be513e7d7d4a9792b6df8c227f4df2c741542b1942a1605d1000000000000000000000000000000000000000000000000000000000000000200000000000000000000000000000000000000000000000000000000001e848000000000000000000000000000000000000000000000000000000000001e8480",
          "blockHash": "0x143c0fabc24edd50c142f6cb2a9a971c02b88d20c117bb8b545172347086d4fe",
          "blockNumber": "0x443f23b",
          "transactionHash": "0xe89f544d823aff93dde36a81bbe0b2ed728b6ed2b78bb80ddb3bd99a1337ca30",
          "transactionIndex": "0x24",
          "logIndex": "0x100",
          "removed": false
        },
        {
          "address": "0x4d97dcd97ec945f40cf65f87097ace5ea0476045",
          "topics": [
            "0x2e6bb91f8cbcda0c93623c54d0403a43514fabc40084ec96b6d5379a74786298",
            "0x0000000000000000000000001aa44c933a6718a4bc44064f0067a853c34be9b0",
            "0x0000000000000000000000000000000000000000000000000000000000000000",
            "0x3cade829b69b30436629ac0c2494d475211ba6f7e00e192a920653ba00b7db36"
          ],
          "data": "0x0000000000000000000000002791bca1f2de4661ed88a30c99a7a9449aa84174000000000000000000000000000000000000000000000000000000000000006000000000000000000000000000000000000000000000000000000000001e8480000000000000000000000000000000000000000000000000000000000000000200000000000000000000000000000000000000000000000000000000000000010000000000000000000000000000000000000000000000000000000000000002",
          "blockHash": "0x143c0fabc24edd50c142f6cb2a9a971c02b88d20c117bb8b545172347086d4fe",
          "blockNumber": "0x443f23b",
          "transactionHash": "0xe89f544d823aff93dde36a81bbe0b2ed728b6ed2b78bb80ddb3bd99a1337ca30",
          "transactionIndex": "0x24",
          "logIndex": "0x101",
          "removed": false
        },
        {
          "address": "0x0000000000000000000000000000000000001010",
          "topics": [
            "0x4dfe1bbbcf077ddc3e01291eea2d5c70c2b422b415d95645b9adcfd678cb1d63",
            "0x0000000000000000000000000000000000000000000000000000000000001010",
            "0x0000000000000000000000001aa44c933a6718a4bc44064f0067a853c34be9b0",
            "0x00000000000000000000000067b94473d81d0cd00849d563c94d0432ac988b49"
          ],
          "data": "0x000000000000000000000000000000000000000000000000000be448399adb4800000000000000000000000000000000000000000000000070983470e2537788000000000000000000000000000000000000000000000cd11d0f530c2e0add66000000000000000000000000000000000000000000000000708c5028a8b89c40000000000000000000000000000000000000000000000cd11d1b375467a5b8ae",
          "blockHash": "0x143c0fabc24edd50c142f6cb2a9a971c02b88d20c117bb8b545172347086d4fe",
          "blockNumber": "0x443f23b",
          "transactionHash": "0xe89f544d823aff93dde36a81bbe0b2ed728b6ed2b78bb80ddb3bd99a1337ca30",
          "transactionIndex": "0x24",
          "logIndex": "0x102",
          "removed": false
        }
      ],
      "logsBloom": "0x00000000000020000000000000000000000000000000000000000000000040000000000000000000010000002000000000008000000000000000000000200000000000000000000000000008000200800000000000000000000100000000000000000000020000000001000000000800000000000800000180000010000000000001000000000000000000001000000000000000000000000000000040000000220000000400000000000080000001000000000000000000000000001000004000800002000000000001000000008000000404000000000000100000000020000110028000000000040000000000000000000000000000000000000002100000",
      "type": "0x2",
      "transactionHash": "0xe89f544d823aff93dde36a81bbe0b2ed728b6ed2b78bb80ddb3bd99a1337ca30",
      "transactionIndex": "0x24",
      "blockHash": "0x143c0fabc24edd50c142f6cb2a9a971c02b88d20c117bb8b545172347086d4fe",
      "blockNumber": "0x443f23b",
      "gasUsed": "0x1bac5",
      "effectiveGasPrice": "0x6e023c4c7",
      "from": "0x1aa44c933a6718a4bc44064f0067a853c34be9b0",
      "to": "0x4d97dcd97ec945f40cf65f87097ace5ea0476045",
      "contractAddress": null
    },
    {
      "status": "0x1",
      "cumulativeGasUsed": "0x6bbd80",
      "logs": [
        {
          "address": "0x2791bca1f2de4661ed88a30c99a7a9449aa84174",
          "topics": [
            "0xddf252ad1be2c89b69c2b068fc378daa952ba7f163c4a11628f55a4df523b3ef",
            "0x0000000000000000000000001aa44c933a6718a4bc44064f0067a853c34be9b0",
            "0x0000000000000000000000004d97dcd97ec945f40cf65f87097ace5ea0476045"
          ],
          "data": "0x00000000000000000000000000000000000000000000000000000000001e8480",
          "blockHash": "0x143c0fabc24edd50c142f6cb2a9a971c02b88d20c117bb8b545172347086d4fe",
          "blockNumber": "0x443f23b",
          "transactionHash": "0x773a83a86a9543709965e4d710f2d7ae9382c2e5188385bc24077b08d2425baa",
          "transactionIndex": "0x25",
          "logIndex": "0x103",
          "removed": false
        },
        {
          "address": "0x2791bca1f2de4661ed88a30c99a7a9449aa84174",
          "topics": [
            "0x8c5be1e5ebec7d5bd14f71427d1e84f3dd0314c0f7b2291e5b200ac8c7c3b925",
            "0x0000000000000000000000001aa44c933a6718a4bc44064f0067a853c34be9b0",
            "0x0000000000000000000000004d97dcd97ec945f40cf65f87097ace5ea0476045"
          ],
          "data": "0xffffffffffffffffffffffffffffffffffffffffffffffffffffffffffc2f6ff",
          "blockHash": "0x143c0fabc24edd50c142f6cb2a9a971c02b88d20c117bb8b545172347086d4fe",
          "blockNumber": "0x443f23b",
          "transactionHash": "0x773a83a86a9543709965e4d710f2d7ae9382c2e5188385bc24077b08d2425baa",
          "transactionIndex": "0x25",
          "logIndex": "0x104",
          "removed": false
        },
        {
          "address": "0x4d97dcd97ec945f40cf65f87097ace5ea0476045",
          "topics": [
            "0x4a39dc06d4c0dbc64b70af90fd698a233a518aa5d07e595d983b8c0526c8f7fb",
            "0x0000000000000000000000001aa44c933a6718a4bc44064f0067a853c34be9b0",
            "0x0000000000000000000000000000000000000000000000000000000000000000",
            "0x0000000000000000000000001aa44c933a6718a4bc44064f0067a853c34be9b0"
          ],
          "data": "0x000000000000000000000000000000000000000000000000000000000000004000000000000000000000000000000000000000000000000000000000000000a00000000000000000000000000000000000000000000000000000000000000002be87dd6f32f14ea56a7a67271dc7cba3e29a480106e24a00f7f05a055a39714555525a430e83ffbdb1b501cfde45aaadbe93869da7cd596ff6249f452bd7c0bb000000000000000000000000000000000000000000000000000000000000000200000000000000000000000000000000000000000000000000000000001e848000000000000000000000000000000000000000000000000000000000001e8480",
          "blockHash": "0x143c0fabc24edd50c142f6cb2a9a971c02b88d20c117bb8b545172347086d4fe",
          "blockNumber": "0x443f23b",
          "transactionHash": "0x773a83a86a9543709965e4d710f2d7ae9382c2e5188385bc24077b08d2425baa",
          "transactionIndex": "0x25",
          "logIndex": "0x105",
          "removed": false
        },
        {
          "address": "0x4d97dcd97ec945f40cf65f87097ace5ea0476045",
          "topics": [
            "0x2e6bb91f8cbcda0c93623c54d0403a43514fabc40084ec96b6d5379a74786298",
            "0x0000000000000000000000001aa44c933a6718a4bc44064f0067a853c34be9b0",
            "0x0000000000000000000000000000000000000000000000000000000000000000",
            "0x553728bcacf78928f84c20141df3927eba4e76846d67db8d354a111619501a6b"
          ],
          "data": "0x0000000000000000000000002791bca1f2de4661ed88a30c99a7a9449aa84174000000000000000000000000000000000000000000000000000000000000006000000000000000000000000000000000000000000000000000000000001e8480000000000000000000000000000000000000000000000000000000000000000200000000000000000000000000000000000000000000000000000000000000010000000000000000000000000000000000000000000000000000000000000002",
          "blockHash": "0x143c0fabc24edd50c142f6cb2a9a971c02b88d20c117bb8b545172347086d4fe",
          "blockNumber": "0x443f23b",
          "transactionHash": "0x773a83a86a9543709965e4d710f2d7ae9382c2e5188385bc24077b08d2425baa",
          "transactionIndex": "0x25",
          "logIndex": "0x106",
          "removed": false
        },
        {
          "address": "0x0000000000000000000000000000000000001010",
          "topics": [
            "0x4dfe1bbbcf077ddc3e01291eea2d5c70c2b422b415d95645b9adcfd678cb1d63",
            "0x0000000000000000000000000000000000000000000000000000000000001010",
            "0x0000000000000000000000001aa44c933a6718a4bc44064f0067a853c34be9b0",
            "0x00000000000000000000000067b94473d81d0cd00849d563c94d0432ac988b49"
          ],
          "data": "0x000000000000000000000000000000000000000000000000000b1d144d8825e0000000000000000000000000000000000000000000000000708c5028a50d7465000000000000000000000000000000000000000000000cd11d1b375467a5b8ae0000000000000000000000000000000000000000000000007081331457854e85000000000000000000000000000000000000000000000cd11d265468b52dde8e",
          "blockHash": "0x143c0fabc24edd50c142f6cb2a9a971c02b88d20c117bb8b545172347086d4fe",
          "blockNumber": "0x443f23b",
          "transactionHash": "0x773a83a86a9543709965e4d710f2d7ae9382c2e5188385bc24077b08d2425baa",
          "transactionIndex": "0x25",
          "logIndex": "0x107",
          "removed": false
        }
      ],
      "logsBloom": "0x00000000000020000000000000000000000000000000000000000000000040000000000000000000010000002000000000008000000000000000000000200000000000000000000000000008000200800000000000000000000100000000000000000000020000000001000000000800000000000800000180000010000000000001000000000000000000001000000000000000000000000000000000000000220001000400000000000080000001000000000000000000000000000000004000800002000000000001000000008000000404000000000000100000000020000010028000000000040000000000000000000000000000400000010002100000",
      "type": "0x2",
      "transactionHash": "0x773a83a86a9543709965e4d710f2d7ae9382c2e5188385bc24077b08d2425baa",
      "transactionIndex": "0x25",
      "blockHash": "0x143c0fabc24edd50c142f6cb2a9a971c02b88d20c117bb8b545172347086d4fe",
      "blockNumber": "0x443f23b",
      "gasUsed": "0x19dcc",
      "effectiveGasPrice": "0x6e023c4c7",
      "from": "0x1aa44c933a6718a4bc44064f0067a853c34be9b0",
      "to": "0x4d97dcd97ec945f40cf65f87097ace5ea0476045",
      "contractAddress": null
    },
    {
      "status": "0x1",
      "cumulativeGasUsed": "0x6d3e5b",
      "logs": [
        {
          "address": "0x2791bca1f2de4661ed88a30c99a7a9449aa84174",
          "topics": [
            "0xddf252ad1be2c89b69c2b068fc378daa952ba7f163c4a11628f55a4df523b3ef",
            "0x0000000000000000000000001aa44c933a6718a4bc44064f0067a853c34be9b0",
            "0x0000000000000000000000004d97dcd97ec945f40cf65f87097ace5ea0476045"
          ],
          "data": "0x00000000000000000000000000000000000000000000000000000000001e8480",
          "blockHash": "0x143c0fabc24edd50c142f6cb2a9a971c02b88d20c117bb8b545172347086d4fe",
          "blockNumber": "0x443f23b",
          "transactionHash": "0xdf08a356bdae058fd0b0cfcc097d125fd19ea0f7854436c9bf17552648ff4dd7",
          "transactionIndex": "0x26",
          "logIndex": "0x108",
          "removed": false
        },
        {
          "address": "0x2791bca1f2de4661ed88a30c99a7a9449aa84174",
          "topics": [
            "0x8c5be1e5ebec7d5bd14f71427d1e84f3dd0314c0f7b2291e5b200ac8c7c3b925",
            "0x0000000000000000000000001aa44c933a6718a4bc44064f0067a853c34be9b0",
            "0x0000000000000000000000004d97dcd97ec945f40cf65f87097ace5ea0476045"
          ],
          "data": "0xffffffffffffffffffffffffffffffffffffffffffffffffffffffffffa4727f",
          "blockHash": "0x143c0fabc24edd50c142f6cb2a9a971c02b88d20c117bb8b545172347086d4fe",
          "blockNumber": "0x443f23b",
          "transactionHash": "0xdf08a356bdae058fd0b0cfcc097d125fd19ea0f7854436c9bf17552648ff4dd7",
          "transactionIndex": "0x26",
          "logIndex": "0x109",
          "removed": false
        },
        {
          "address": "0x4d97dcd97ec945f40cf65f87097ace5ea0476045",
          "topics": [
            "0x4a39dc06d4c0dbc64b70af90fd698a233a518aa5d07e595d983b8c0526c8f7fb",
            "0x0000000000000000000000001aa44c933a6718a4bc44064f0067a853c34be9b0",
            "0x0000000000000000000000000000000000000000000000000000000000000000",
            "0x0000000000000000000000001aa44c933a6718a4bc44064f0067a853c34be9b0"
          ],
          "data": "0x000000000000000000000000000000000000000000000000000000000000004000000000000000000000000000000000000000000000000000000000000000a00000000000000000000000000000000000000000000000000000000000000002b765739b68f91a6b8343c453dd500db1fd1211730bcfa6c0cf8dd2458871a3ef274f483d89eae851d2dd7b8510d21a8b160bf24c4086684b5ffb997d9c84973d000000000000000000000000000000000000000000000000000000000000000200000000000000000000000000000000000000000000000000000000001e848000000000000000000000000000000000000000000000000000000000001e8480",
          "blockHash": "0x143c0fabc24edd50c142f6cb2a9a971c02b88d20c117bb8b545172347086d4fe",
          "blockNumber": "0x443f23b",
          "transactionHash": "0xdf08a356bdae058fd0b0cfcc097d125fd19ea0f7854436c9bf17552648ff4dd7",
          "transactionIndex": "0x26",
          "logIndex": "0x10a",
          "removed": false
        },
        {
          "address": "0x4d97dcd97ec945f40cf65f87097ace5ea0476045",
          "topics": [
            "0x2e6bb91f8cbcda0c93623c54d0403a43514fabc40084ec96b6d5379a74786298",
            "0x0000000000000000000000001aa44c933a6718a4bc44064f0067a853c34be9b0",
            "0x0000000000000000000000000000000000000000000000000000000000000000",
            "0x354b6793f25222186de8d3c9ca1e444e71a6d7b7db276bf1aa50b95b8d47cb65"
          ],
          "data": "0x0000000000000000000000002791bca1f2de4661ed88a30c99a7a9449aa84174000000000000000000000000000000000000000000000000000000000000006000000000000000000000000000000000000000000000000000000000001e8480000000000000000000000000000000000000000000000000000000000000000200000000000000000000000000000000000000000000000000000000000000010000000000000000000000000000000000000000000000000000000000000002",
          "blockHash": "0x143c0fabc24edd50c142f6cb2a9a971c02b88d20c117bb8b545172347086d4fe",
          "blockNumber": "0x443f23b",
          "transactionHash": "0xdf08a356bdae058fd0b0cfcc097d125fd19ea0f7854436c9bf17552648ff4dd7",
          "transactionIndex": "0x26",
          "logIndex": "0x10b",
          "removed": false
        },
        {
          "address": "0x0000000000000000000000000000000000001010",
          "topics": [
            "0x4dfe1bbbcf077ddc3e01291eea2d5c70c2b422b415d95645b9adcfd678cb1d63",
            "0x0000000000000000000000000000000000000000000000000000000000001010",
            "0x0000000000000000000000001aa44c933a6718a4bc44064f0067a853c34be9b0",
            "0x00000000000000000000000067b94473d81d0cd00849d563c94d0432ac988b49"
          ],
          "data": "0x000000000000000000000000000000000000000000000000000a5617629385b80000000000000000000000000000000000000000000000007081331454179ad1000000000000000000000000000000000000000000000cd11d265468b52dde8e0000000000000000000000000000000000000000000000007076dcfcf1841519000000000000000000000000000000000000000000000cd11d30aa8017c16446",
          "blockHash": "0x143c0fabc24edd50c142f6cb2a9a971c02b88d20c117bb8b545172347086d4fe",
          "blockNumber": "0x443f23b",
          "transactionHash": "0xdf08a356bdae058fd0b0cfcc097d125fd19ea0f7854436c9bf17552648ff4dd7",
          "transactionIndex": "0x26",
          "logIndex": "0x10c",
          "removed": false
        }
      ],
      "logsBloom": "0x00000000000020000000000000000000000000000000000000000000000040000000000000000000010000002000000000008000000000000000000000200000000000000000000000000008000200800000000000000000000100000000000000000000020000000001000000000800000000000800000180000010000000000001000000000000000000001000000000000000000000000000000000000000220000000400000000000080000001000000000000000000000000000000004000800002000008000001000000008000000404080000000000100000000020000010028000004000040000000000000000000000000000000000000002100000",
      "type": "0x2",
      "transactionHash": "0xdf08a356bdae058fd0b0cfcc097d125fd19ea0f7854436c9bf17552648ff4dd7",
      "transactionIndex": "0x26",
      "blockHash": "0x143c0fabc24edd50c142f6cb2a9a971c02b88d20c117bb8b545172347086d4fe",
      "blockNumber": "0x443f23b",
      "gasUsed": "0x180db",
      "effectiveGasPrice": "0x6e023c4c7",
      "from": "0x1aa44c933a6718a4bc44064f0067a853c34be9b0",
      "to": "0x4d97dcd97ec945f40cf65f87097ace5ea0476045",
      "contractAddress": null
    },
    {
      "status": "0x1",
      "cumulativeGasUsed": "0x6ef911",
      "logs": [
        {
          "address": "0x2791bca1f2de4661ed88a30c99a7a9449aa84174",
          "topics": [
            "0xddf252ad1be2c89b69c2b068fc378daa952ba7f163c4a11628f55a4df523b3ef",
            "0x0000000000000000000000001aa44c933a6718a4bc44064f0067a853c34be9b0",
            "0x0000000000000000000000004d97dcd97ec945f40cf65f87097ace5ea0476045"
          ],
          "data": "0x00000000000000000000000000000000000000000000000000000000001e8480",
          "blockHash": "0x143c0fabc24edd50c142f6cb2a9a971c02b88d20c117bb8b545172347086d4fe",
          "blockNumber": "0x443f23b",
          "transactionHash": "0x5004968baca0cc6b1b9368dd79960bd59ea72f81c38461be5adadaf38257f44c",
          "transactionIndex": "0x27",
          "logIndex": "0x10d",
          "removed": false
        },
        {
          "address": "0x2791bca1f2de4661ed88a30c99a7a9449aa84174",
          "topics": [
            "0x8c5be1e5ebec7d5bd14f71427d1e84f3dd0314c0f7b2291e5b200ac8c7c3b925",
            "0x0000000000000000000000001aa44c933a6718a4bc44064f0067a853c34be9b0",
            "0x0000000000000000000000004d97dcd97ec945f40cf65f87097ace5ea0476045"
          ],
          "data": "0xffffffffffffffffffffffffffffffffffffffffffffffffffffffffff85edff",
          "blockHash": "0x143c0fabc24edd50c142f6cb2a9a971c02b88d20c117bb8b545172347086d4fe",
          "blockNumber": "0x443f23b",
          "transactionHash": "0x5004968baca0cc6b1b9368dd79960bd59ea72f81c38461be5adadaf38257f44c",
          "transactionIndex": "0x27",
          "logIndex": "0x10e",
          "removed": false
        },
        {
          "address": "0x4d97dcd97ec945f40cf65f87097ace5ea0476045",
          "topics": [
            "0x4a39dc06d4c0dbc64b70af90fd698a233a518aa5d07e595d983b8c0526c8f7fb",
            "0x0000000000000000000000001aa44c933a6718a4bc44064f0067a853c34be9b0",
            "0x0000000000000000000000000000000000000000000000000000000000000000",
            "0x0000000000000000000000001aa44c933a6718a4bc44064f0067a853c34be9b0"
          ],
          "data": "0x000000000000000000000000000000000000000000000000000000000000004000000000000000000000000000000000000000000000000000000000000000a00000000000000000000000000000000000000000000000000000000000000002a3d592d6002f1d275821d74d4dc1b736e054edb4f4f503fc7daf64433f3a878335d451cc82492f4ab9d2489892038bfe00ce089d310f513bd95d5755fa75851f000000000000000000000000000000000000000000000000000000000000000200000000000000000000000000000000000000000000000000000000001e848000000000000000000000000000000000000000000000000000000000001e8480",
          "blockHash": "0x143c0fabc24edd50c142f6cb2a9a971c02b88d20c117bb8b545172347086d4fe",
          "blockNumber": "0x443f23b",
          "transactionHash": "0x5004968baca0cc6b1b9368dd79960bd59ea72f81c38461be5adadaf38257f44c",
          "transactionIndex": "0x27",
          "logIndex": "0x10f",
          "removed": false
        },
        {
          "address": "0x4d97dcd97ec945f40cf65f87097ace5ea0476045",
          "topics": [
            "0x2e6bb91f8cbcda0c93623c54d0403a43514fabc40084ec96b6d5379a74786298",
            "0x0000000000000000000000001aa44c933a6718a4bc44064f0067a853c34be9b0",
            "0x0000000000000000000000000000000000000000000000000000000000000000",
            "0x5bf33c43674b2bc7452acca8d971ff8a84ccee5fbce29b9d4b75f8f895aa52c2"
          ],
          "data": "0x0000000000000000000000002791bca1f2de4661ed88a30c99a7a9449aa84174000000000000000000000000000000000000000000000000000000000000006000000000000000000000000000000000000000000000000000000000001e8480000000000000000000000000000000000000000000000000000000000000000200000000000000000000000000000000000000000000000000000000000000010000000000000000000000000000000000000000000000000000000000000002",
          "blockHash": "0x143c0fabc24edd50c142f6cb2a9a971c02b88d20c117bb8b545172347086d4fe",
          "blockNumber": "0x443f23b",
          "transactionHash": "0x5004968baca0cc6b1b9368dd79960bd59ea72f81c38461be5adadaf38257f44c",
          "transactionIndex": "0x27",
          "logIndex": "0x110",
          "removed": false
        },
        {
          "address": "0x0000000000000000000000000000000000001010",
          "topics": [
            "0x4dfe1bbbcf077ddc3e01291eea2d5c70c2b422b415d95645b9adcfd678cb1d63",
            "0x0000000000000000000000000000000000000000000000000000000000001010",
            "0x0000000000000000000000001aa44c933a6718a4bc44064f0067a853c34be9b0",
            "0x00000000000000000000000067b94473d81d0cd00849d563c94d0432ac988b49"
          ],
          "data": "0x000000000000000000000000000000000000000000000000000be3e1178273700000000000000000000000000000000000000000000000007076dcfcee53c494000000000000000000000000000000000000000000000cd11d30aa8017c16446000000000000000000000000000000000000000000000000706af91bd6d15124000000000000000000000000000000000000000000000cd11d3c8e612f43d7b6",
          "blockHash": "0x143c0fabc24edd50c142f6cb2a9a971c02b88d20c117bb8b545172347086d4fe",
          "blockNumber": "0x443f23b",
          "transactionHash": "0x5004968baca0cc6b1b9368dd79960bd59ea72f81c38461be5adadaf38257f44c",
          "transactionIndex": "0x27",
          "logIndex": "0x111",
          "removed": false
        }
      ],
      "logsBloom": "0x00000000000020000000000000000000000000000000000000000000000040000000000000000000010000002000000000008000000000000000000000200000000000000000000000000008000200800000000000000000000100000000000000040000020000000001000000000800000000000800000180000010000000000001000000000000000000001000000000000000000000000000000000000000220000000400000000000080000001000000000100000000000000000000004000800002000000000001000000008000000404000000000000100000800020000010028000000000040000000000000000000000000000000000000002100000",
      "type": "0x2",
      "transactionHash": "0x5004968baca0cc6b1b9368dd79960bd59ea72f81c38461be5adadaf38257f44c",
      "transactionIndex": "0x27",
      "blockHash": "0x143c0fabc24edd50c142f6cb2a9a971c02b88d20c117bb8b545172347086d4fe",
      "blockNumber": "0x443f23b",
      "gasUsed": "0x1bab6",
      "effectiveGasPrice": "0x6e023c4c7",
      "from": "0x1aa44c933a6718a4bc44064f0067a853c34be9b0",
      "to": "0x4d97dcd97ec945f40cf65f87097ace5ea0476045",
      "contractAddress": null
    },
    {
      "status": "0x1",
      "cumulativeGasUsed": "0x6f5f01",
      "logs": [
        {
          "address": "0x4d97dcd97ec945f40cf65f87097ace5ea0476045",
          "topics": [
            "0x17307eab39ab6107e8899845ad3d59bd9653f200f220920489ca2b5937696c31",
            "0x0000000000000000000000001aa44c933a6718a4bc44064f0067a853c34be9b0",
            "0x000000000000000000000000934ed1a863bb08d68b74939cf4d8ad644abc1d85"
          ],
          "data": "0x0000000000000000000000000000000000000000000000000000000000000001",
          "blockHash": "0x143c0fabc24edd50c142f6cb2a9a971c02b88d20c117bb8b545172347086d4fe",
          "blockNumber": "0x443f23b",
          "transactionHash": "0x6f3476efb7c4bd1e6c64a96e9bf56b366e33349b9bff25be3cf2480b753d6eed",
          "transactionIndex": "0x28",
          "logIndex": "0x112",
          "removed": false
        },
        {
          "address": "0x0000000000000000000000000000000000001010",
          "topics": [
            "0x4dfe1bbbcf077ddc3e01291eea2d5c70c2b422b415d95645b9adcfd678cb1d63",
            "0x0000000000000000000000000000000000000000000000000000000000001010",
            "0x0000000000000000000000001aa44c933a6718a4bc44064f0067a853c34be9b0",
            "0x00000000000000000000000067b94473d81d0cd00849d563c94d0432ac988b49"
          ],
          "data": "0x0000000000000000000000000000000000000000000000000002bce03d52c580000000000000000000000000000000000000000000000000706af91bd326491a000000000000000000000000000000000000000000000cd11d3c8e612f43d7b600000000000000000000000000000000000000000000000070683c3b95d3839a000000000000000000000000000000000000000000000cd11d3f4b416c969d36",
          "blockHash": "0x143c0fabc24edd50c142f6cb2a9a971c02b88d20c117bb8b545172347086d4fe",
          "blockNumber": "0x443f23b",
          "transactionHash": "0x6f3476efb7c4bd1e6c64a96e9bf56b366e33349b9bff25be3cf2480b753d6eed",
          "transactionIndex": "0x28",
          "logIndex": "0x113",
          "removed": false
        }
      ],
      "logsBloom": "0x00000000000020000000000000000000000000000000000000000000000040000000000000000000000000000000000000008000000000000000000000000000000000000000000000000000000000800000000000000000000100000000000002000000000000000000000000000000000000000000000080000000000000000000000000000800000000001000000000000000000000000000000002000000200000000000000000000080000000000000000000000000000000000000004000800000000000000001000000008000000004000000000000100000000000000004220800000000040000000000000000000000000000000000000000100000",
      "type": "0x2",
      "transactionHash": "0x6f3476efb7c4bd1e6c64a96e9bf56b366e33349b9bff25be3cf2480b753d6eed",
      "transactionIndex": "0x28",
      "blockHash": "0x143c0fabc24edd50c142f6cb2a9a971c02b88d20c117bb8b545172347086d4fe",
      "blockNumber": "0x443f23b",
      "gasUsed": "0x65f0",
      "effectiveGasPrice": "0x6e023c4c7",
      "from": "0x1aa44c933a6718a4bc44064f0067a853c34be9b0",
      "to": "0x4d97dcd97ec945f40cf65f87097ace5ea0476045",
      "contractAddress": null
    },
    {
      "status": "0x1",
      "cumulativeGasUsed": "0x6fc4f1",
      "logs": [
        {
          "address": "0x4d97dcd97ec945f40cf65f87097ace5ea0476045",
          "topics": [
            "0x17307eab39ab6107e8899845ad3d59bd9653f200f220920489ca2b5937696c31",
            "0x0000000000000000000000001aa44c933a6718a4bc44064f0067a853c34be9b0",
            "0x000000000000000000000000934ed1a863bb08d68b74939cf4d8ad644abc1d85"
          ],
          "data": "0x0000000000000000000000000000000000000000000000000000000000000001",
          "blockHash": "0x143c0fabc24edd50c142f6cb2a9a971c02b88d20c117bb8b545172347086d4fe",
          "blockNumber": "0x443f23b",
          "transactionHash": "0xf5bb44551a719415e7b39747a366ecab5e6220b177b77f217cfaaafab30bf594",
          "transactionIndex": "0x29",
          "logIndex": "0x114",
          "removed": false
        },
        {
          "address": "0x0000000000000000000000000000000000001010",
          "topics": [
            "0x4dfe1bbbcf077ddc3e01291eea2d5c70c2b422b415d95645b9adcfd678cb1d63",
            "0x0000000000000000000000000000000000000000000000000000000000001010",
            "0x0000000000000000000000001aa44c933a6718a4bc44064f0067a853c34be9b0",
            "0x00000000000000000000000067b94473d81d0cd00849d563c94d0432ac988b49"
          ],
          "data": "0x0000000000000000000000000000000000000000000000000002bce03d52c58000000000000000000000000000000000000000000000000070683c3b94fb4b8a000000000000000000000000000000000000000000000cd11d3f4b416c969d3600000000000000000000000000000000000000000000000070657f5b57a8860a000000000000000000000000000000000000000000000cd11d420821a9e962b6",
          "blockHash": "0x143c0fabc24edd50c142f6cb2a9a971c02b88d20c117bb8b545172347086d4fe",
          "blockNumber": "0x443f23b",
          "transactionHash": "0xf5bb44551a719415e7b39747a366ecab5e6220b177b77f217cfaaafab30bf594",
          "transactionIndex": "0x29",
          "logIndex": "0x115",
          "removed": false
        }
      ],
      "logsBloom": "0x00000000000020000000000000000000000000000000000000000000000040000000000000000000000000000000000000008000000000000000000000000000000000000000000000000000000000800000000000000000000100000000000002000000000000000000000000000000000000000000000080000000000000000000000000000800000000001000000000000000000000000000000002000000200000000000000000000080000000000000000000000000000000000000004000800000000000000001000000008000000004000000000000100000000000000004220800000000040000000000000000000000000000000000000000100000",
      "type": "0x2",
      "transactionHash": "0xf5bb44551a719415e7b39747a366ecab5e6220b177b77f217cfaaafab30bf594",
      "transactionIndex": "0x29",
      "blockHash": "0x143c0fabc24edd50c142f6cb2a9a971c02b88d20c117bb8b545172347086d4fe",
      "blockNumber": "0x443f23b",
      "gasUsed": "0x65f0",
      "effectiveGasPrice": "0x6e023c4c7",
      "from": "0x1aa44c933a6718a4bc44064f0067a853c34be9b0",
      "to": "0x4d97dcd97ec945f40cf65f87097ace5ea0476045",
      "contractAddress": null
    },
    {
      "status": "0x1",
      "cumulativeGasUsed": "0x7543d1",
      "logs": [
        {
          "address": "0x4d97dcd97ec945f40cf65f87097ace5ea0476045",
          "topics": [
            "0x4a39dc06d4c0dbc64b70af90fd698a233a518aa5d07e595d983b8c0526c8f7fb",
            "0x000000000000000000000000934ed1a863bb08d68b74939cf4d8ad644abc1d85",
            "0x0000000000000000000000001aa44c933a6718a4bc44064f0067a853c34be9b0",
            "0x000000000000000000000000934ed1a863bb08d68b74939cf4d8ad644abc1d85"
          ],
          "data": "0x000000000000000000000000000000000000000000000000000000000000004000000000000000000000000000000000000000000000000000000000000000e00000000000000000000000000000000000000000000000000000000000000004a3d592d6002f1d275821d74d4dc1b736e054edb4f4f503fc7daf64433f3a8783b765739b68f91a6b8343c453dd500db1fd1211730bcfa6c0cf8dd2458871a3efbe87dd6f32f14ea56a7a67271dc7cba3e29a480106e24a00f7f05a055a397145f3eb7f4cd29dc80955819251ae49aae29ec5d4a4a9f1b19b1bfb87edd5520690000000000000000000000000000000000000000000000000000000000000000400000000000000000000000000000000000000000000000000000000001e848000000000000000000000000000000000000000000000000000000000001e848000000000000000000000000000000000000000000000000000000000001e848000000000000000000000000000000000000000000000000000000000001e8480",
          "blockHash": "0x143c0fabc24edd50c142f6cb2a9a971c02b88d20c117bb8b545172347086d4fe",
          "blockNumber": "0x443f23b",
          "transactionHash": "0xce37b3bee5edbf15d86907123d43d3419cd5eb4252d1b1ea7e080150fb11f870",
          "transactionIndex": "0x2a",
          "logIndex": "0x116",
          "removed": false
        },
        {
          "address": "0x4d97dcd97ec945f40cf65f87097ace5ea0476045",
          "topics": [
            "0x17307eab39ab6107e8899845ad3d59bd9653f200f220920489ca2b5937696c31",
            "0x000000000000000000000000934ed1a863bb08d68b74939cf4d8ad644abc1d85",
            "0x0000000000000000000000009a3a8fad75af102201a2cffbefc3443b3497420f"
          ],
          "data": "0x0000000000000000000000000000000000000000000000000000000000000001",
          "blockHash": "0x143c0fabc24edd50c142f6cb2a9a971c02b88d20c117bb8b545172347086d4fe",
          "blockNumber": "0x443f23b",
          "transactionHash": "0xce37b3bee5edbf15d86907123d43d3419cd5eb4252d1b1ea7e080150fb11f870",
          "transactionIndex": "0x2a",
          "logIndex": "0x117",
          "removed": false
        },
        {
          "address": "0x9a3a8fad75af102201a2cffbefc3443b3497420f",
          "topics": [
            "0xddf252ad1be2c89b69c2b068fc378daa952ba7f163c4a11628f55a4df523b3ef",
            "0x0000000000000000000000000000000000000000000000000000000000000000",
            "0x000000000000000000000000934ed1a863bb08d68b74939cf4d8ad644abc1d85"
          ],
          "data": "0x00000000000000000000000000000000000000000000000000000000001e8480",
          "blockHash": "0x143c0fabc24edd50c142f6cb2a9a971c02b88d20c117bb8b545172347086d4fe",
          "blockNumber": "0x443f23b",
          "transactionHash": "0xce37b3bee5edbf15d86907123d43d3419cd5eb4252d1b1ea7e080150fb11f870",
          "transactionIndex": "0x2a",
          "logIndex": "0x118",
          "removed": false
        },
        {
          "address": "0x4d97dcd97ec945f40cf65f87097ace5ea0476045",
          "topics": [
            "0x4a39dc06d4c0dbc64b70af90fd698a233a518aa5d07e595d983b8c0526c8f7fb",
            "0x0000000000000000000000009a3a8fad75af102201a2cffbefc3443b3497420f",
            "0x000000000000000000000000934ed1a863bb08d68b74939cf4d8ad644abc1d85",
            "0x0000000000000000000000009a3a8fad75af102201a2cffbefc3443b3497420f"
          ],
          "data": "0x000000000000000000000000000000000000000000000000000000000000004000000000000000000000000000000000000000000000000000000000000000e00000000000000000000000000000000000000000000000000000000000000004a3d592d6002f1d275821d74d4dc1b736e054edb4f4f503fc7daf64433f3a8783b765739b68f91a6b8343c453dd500db1fd1211730bcfa6c0cf8dd2458871a3efbe87dd6f32f14ea56a7a67271dc7cba3e29a480106e24a00f7f05a055a397145f3eb7f4cd29dc80955819251ae49aae29ec5d4a4a9f1b19b1bfb87edd5520690000000000000000000000000000000000000000000000000000000000000000400000000000000000000000000000000000000000000000000000000001e848000000000000000000000000000000000000000000000000000000000001e848000000000000000000000000000000000000000000000000000000000001e848000000000000000000000000000000000000000000000000000000000001e8480",
          "blockHash": "0x143c0fabc24edd50c142f6cb2a9a971c02b88d20c117bb8b545172347086d4fe",
          "blockNumber": "0x443f23b",
          "transactionHash": "0xce37b3bee5edbf15d86907123d43d3419cd5eb4252d1b1ea7e080150fb11f870",
          "transactionIndex": "0x2a",
          "logIndex": "0x119",
          "removed": false
        },
        {
          "address": "0x9a3a8fad75af102201a2cffbefc3443b3497420f",
          "topics": [
            "0xddf252ad1be2c89b69c2b068fc378daa952ba7f163c4a11628f55a4df523b3ef",
            "0x000000000000000000000000934ed1a863bb08d68b74939cf4d8ad644abc1d85",
            "0x0000000000000000000000001aa44c933a6718a4bc44064f0067a853c34be9b0"
          ],
          "data": "0x00000000000000000000000000000000000000000000000000000000001e8480",
          "blockHash": "0x143c0fabc24edd50c142f6cb2a9a971c02b88d20c117bb8b545172347086d4fe",
          "blockNumber": "0x443f23b",
          "transactionHash": "0xce37b3bee5edbf15d86907123d43d3419cd5eb4252d1b1ea7e080150fb11f870",
          "transactionIndex": "0x2a",
          "logIndex": "0x11a",
          "removed": false
        },
        {
          "address": "0x0000000000000000000000000000000000001010",
          "topics": [
            "0x4dfe1bbbcf077ddc3e01291eea2d5c70c2b422b415d95645b9adcfd678cb1d63",
            "0x0000000000000000000000000000000000000000000000000000000000001010",
            "0x0000000000000000000000001aa44c933a6718a4bc44064f0067a853c34be9b0",
            "0x00000000000000000000000067b94473d81d0cd00849d563c94d0432ac988b49"
          ],
          "data": "0x0000000000000000000000000000000000000000000000000025c9088661030000000000000000000000000000000000000000000000000070657f5b56d04dfa000000000000000000000000000000000000000000000cd11d420821a9e962b6000000000000000000000000000000000000000000000000703fb652d06f4afa000000000000000000000000000000000000000000000cd11d67d12a304a65b6",
          "blockHash": "0x143c0fabc24edd50c142f6cb2a9a971c02b88d20c117bb8b545172347086d4fe",
          "blockNumber": "0x443f23b",
          "transactionHash": "0xce37b3bee5edbf15d86907123d43d3419cd5eb4252d1b1ea7e080150fb11f870",
          "transactionIndex": "0x2a",
          "logIndex": "0x11b",
          "removed": false
        }
      ],
      "logsBloom": "0x00000000000020000000000000000000000000000000000000010000000040000000000000000000000000000000000000008000000000000000000000000000000000000000000000000008000000800000000000000000000100008000000002000000020000000000000000000800000000000800000080000010000000000100000000000800000000001000000000000000000000100000000002000000200000000000000000000080000000000000000000000000000000000000004004800002000000000001000000008000000404000000000000100000000020000004220800000000040000000000000000000000000000000000000002100004",
      "type": "0x2",
      "transactionHash": "0xce37b3bee5edbf15d86907123d43d3419cd5eb4252d1b1ea7e080150fb11f870",
      "transactionIndex": "0x2a",
      "blockHash": "0x143c0fabc24edd50c142f6cb2a9a971c02b88d20c117bb8b545172347086d4fe",
      "blockNumber": "0x443f23b",
      "gasUsed": "0x57ee0",
      "effectiveGasPrice": "0x6e023c4c7",
      "from": "0x1aa44c933a6718a4bc44064f0067a853c34be9b0",
      "to": "0x934ed1a863bb08d68b74939cf4d8ad644abc1d85",
      "contractAddress": null
    },
    {
      "status": "0x1",
      "cumulativeGasUsed": "0x7aaa90",
      "logs": [
        {
          "address": "0x4d97dcd97ec945f40cf65f87097ace5ea0476045",
          "topics": [
            "0x4a39dc06d4c0dbc64b70af90fd698a233a518aa5d07e595d983b8c0526c8f7fb",
            "0x000000000000000000000000934ed1a863bb08d68b74939cf4d8ad644abc1d85",
            "0x0000000000000000000000001aa44c933a6718a4bc44064f0067a853c34be9b0",
            "0x000000000000000000000000934ed1a863bb08d68b74939cf4d8ad644abc1d85"
          ],
          "data": "0x000000000000000000000000000000000000000000000000000000000000004000000000000000000000000000000000000000000000000000000000000000e00000000000000000000000000000000000000000000000000000000000000004274f483d89eae851d2dd7b8510d21a8b160bf24c4086684b5ffb997d9c84973d35d451cc82492f4ab9d2489892038bfe00ce089d310f513bd95d5755fa75851f55525a430e83ffbdb1b501cfde45aaadbe93869da7cd596ff6249f452bd7c0bb7bfc2a104e5c430be513e7d7d4a9792b6df8c227f4df2c741542b1942a1605d1000000000000000000000000000000000000000000000000000000000000000400000000000000000000000000000000000000000000000000000000001e848000000000000000000000000000000000000000000000000000000000001e848000000000000000000000000000000000000000000000000000000000001e848000000000000000000000000000000000000000000000000000000000001e8480",
          "blockHash": "0x143c0fabc24edd50c142f6cb2a9a971c02b88d20c117bb8b545172347086d4fe",
          "blockNumber": "0x443f23b",
          "transactionHash": "0xb3c850f8258944a3b598bd4364ec95110ba013b1680c74cebbd183d9d94773f2",
          "transactionIndex": "0x2b",
          "logIndex": "0x11c",
          "removed": false
        },
        {
          "address": "0x4d97dcd97ec945f40cf65f87097ace5ea0476045",
          "topics": [
            "0x17307eab39ab6107e8899845ad3d59bd9653f200f220920489ca2b5937696c31",
            "0x000000000000000000000000934ed1a863bb08d68b74939cf4d8ad644abc1d85",
            "0x000000000000000000000000e07fb832185ff0e9c8bb13b69f778aed8de76c58"
          ],
          "data": "0x0000000000000000000000000000000000000000000000000000000000000001",
          "blockHash": "0x143c0fabc24edd50c142f6cb2a9a971c02b88d20c117bb8b545172347086d4fe",
          "blockNumber": "0x443f23b",
          "transactionHash": "0xb3c850f8258944a3b598bd4364ec95110ba013b1680c74cebbd183d9d94773f2",
          "transactionIndex": "0x2b",
          "logIndex": "0x11d",
          "removed": false
        },
        {
          "address": "0xe07fb832185ff0e9c8bb13b69f778aed8de76c58",
          "topics": [
            "0xddf252ad1be2c89b69c2b068fc378daa952ba7f163c4a11628f55a4df523b3ef",
            "0x0000000000000000000000000000000000000000000000000000000000000000",
            "0x000000000000000000000000934ed1a863bb08d68b74939cf4d8ad644abc1d85"
          ],
          "data": "0x00000000000000000000000000000000000000000000000000000000001e8480",
          "blockHash": "0x143c0fabc24edd50c142f6cb2a9a971c02b88d20c117bb8b545172347086d4fe",
          "blockNumber": "0x443f23b",
          "transactionHash": "0xb3c850f8258944a3b598bd4364ec95110ba013b1680c74cebbd183d9d94773f2",
          "transactionIndex": "0x2b",
          "logIndex": "0x11e",
          "removed": false
        },
        {
          "address": "0x4d97dcd97ec945f40cf65f87097ace5ea0476045",
          "topics": [
            "0x4a39dc06d4c0dbc64b70af90fd698a233a518aa5d07e595d983b8c0526c8f7fb",
            "0x000000000000000000000000e07fb832185ff0e9c8bb13b69f778aed8de76c58",
            "0x000000000000000000000000934ed1a863bb08d68b74939cf4d8ad644abc1d85",
            "0x000000000000000000000000e07fb832185ff0e9c8bb13b69f778aed8de76c58"
          ],
          "data": "0x000000000000000000000000000000000000000000000000000000000000004000000000000000000000000000000000000000000000000000000000000000e00000000000000000000000000000000000000000000000000000000000000004274f483d89eae851d2dd7b8510d21a8b160bf24c4086684b5ffb997d9c84973d35d451cc82492f4ab9d2489892038bfe00ce089d310f513bd95d5755fa75851f55525a430e83ffbdb1b501cfde45aaadbe93869da7cd596ff6249f452bd7c0bb7bfc2a104e5c430be513e7d7d4a9792b6df8c227f4df2c741542b1942a1605d1000000000000000000000000000000000000000000000000000000000000000400000000000000000000000000000000000000000000000000000000001e848000000000000000000000000000000000000000000000000000000000001e848000000000000000000000000000000000000000000000000000000000001e848000000000000000000000000000000000000000000000000000000000001e8480",
          "blockHash": "0x143c0fabc24edd50c142f6cb2a9a971c02b88d20c117bb8b545172347086d4fe",
          "blockNumber": "0x443f23b",
          "transactionHash": "0xb3c850f8258944a3b598bd4364ec95110ba013b1680c74cebbd183d9d94773f2",
          "transactionIndex": "0x2b",
          "logIndex": "0x11f",
          "removed": false
        },
        {
          "address": "0xe07fb832185ff0e9c8bb13b69f778aed8de76c58",
          "topics": [
            "0xddf252ad1be2c89b69c2b068fc378daa952ba7f163c4a11628f55a4df523b3ef",
            "0x000000000000000000000000934ed1a863bb08d68b74939cf4d8ad644abc1d85",
            "0x0000000000000000000000001aa44c933a6718a4bc44064f0067a853c34be9b0"
          ],
          "data": "0x00000000000000000000000000000000000000000000000000000000001e8480",
          "blockHash": "0x143c0fabc24edd50c142f6cb2a9a971c02b88d20c117bb8b545172347086d4fe",
          "blockNumber": "0x443f23b",
          "transactionHash": "0xb3c850f8258944a3b598bd4364ec95110ba013b1680c74cebbd183d9d94773f2",
          "transactionIndex": "0x2b",
          "logIndex": "0x120",
          "removed": false
        },
        {
          "address": "0x0000000000000000000000000000000000001010",
          "topics": [
            "0x4dfe1bbbcf077ddc3e01291eea2d5c70c2b422b415d95645b9adcfd678cb1d63",
            "0x0000000000000000000000000000000000000000000000000000000000001010",
            "0x0000000000000000000000001aa44c933a6718a4bc44064f0067a853c34be9b0",
            "0x00000000000000000000000067b94473d81d0cd00849d563c94d0432ac988b49"
          ],
          "data": "0x0000000000000000000000000000000000000000000000000025232247852b58000000000000000000000000000000000000000000000000703fb652c4c72dda000000000000000000000000000000000000000000000cd11d67d12a304a65b6000000000000000000000000000000000000000000000000701a93307d420282000000000000000000000000000000000000000000000cd11d8cf44c77cf910e",
          "blockHash": "0x143c0fabc24edd50c142f6cb2a9a971c02b88d20c117bb8b545172347086d4fe",
          "blockNumber": "0x443f23b",
          "transactionHash": "0xb3c850f8258944a3b598bd4364ec95110ba013b1680c74cebbd183d9d94773f2",
          "transactionIndex": "0x2b",
          "logIndex": "0x121",
          "removed": false
        }
      ],
      "logsBloom": "0x00000000000020000000000000000000000000000000000000000000000040000000000000000000000000000000000000008000000000000000000200000000000000000000000000000008000000800000000000000000000100000000000002000000020000000000000000000800000000000800000080000010000000000000000000000800000000001000000000000000000000000000000002000000200000000000000000000080000000000000000000000000000000010000004000800002000880000001200000008000000404000008000000100000000020000004220800000000040000000000000000000000000000000000000002100000",
      "type": "0x2",
      "transactionHash": "0xb3c850f8258944a3b598bd4364ec95110ba013b1680c74cebbd183d9d94773f2",
      "transactionIndex": "0x2b",
      "blockHash": "0x143c0fabc24edd50c142f6cb2a9a971c02b88d20c117bb8b545172347086d4fe",
      "blockNumber": "0x443f23b",
      "gasUsed": "0x566bf",
      "effectiveGasPrice": "0x6e023c4c7",
      "from": "0x1aa44c933a6718a4bc44064f0067a853c34be9b0",
      "to": "0x934ed1a863bb08d68b74939cf4d8ad644abc1d85",
      "contractAddress": null
    }
  ],
  "libraries": [],
  "pending": [],
  "returns": {},
  "timestamp": 1747344476,
  "chain": 137,
  "commit": "387e7af"
}