{
  "transactions": [
    {
      "hash": "0x7edf92cee91cde7314a9422514395e885a1c1d01ce97e008c9bcb9fe0f8ce85a",
      "transactionType": "CALL",
      "contractName": null,
      "contractAddress": "0x2791bca1f2de4661ed88a30c99a7a9449aa84174",
      "function": "approve(address,uint256)",
      "arguments": [
        "0x4D97DCd97eC945f40cF65F87097ACe5EA0476045",
        "115792089237316195423570985008687907853269984665640564039457584007913129639935"
      ],
      "transaction": {
        "from": "0x1aa44c933a6718a4bc44064f0067a853c34be9b0",
        "to": "0x2791bca1f2de4661ed88a30c99a7a9449aa84174",
        "gas": "0xdc35",
        "value": "0x0",
        "input": "0x095ea7b30000000000000000000000004d97dcd97ec945f40cf65f87097ace5ea0476045ffffffffffffffffffffffffffffffffffffffffffffffffffffffffffffffff",
        "nonce": "0x99",
        "chainId": "0x89"
      },
      "additionalContracts": [],
      "isFixedGasLimit": false
    },
    {
      "hash": "0xb7454a3a2517384ebe9469df63d5744da9d0b15e1b7021b11c1e70b50f32a7eb",
      "transactionType": "CALL",
      "contractName": null,
      "contractAddress": "0x4d97dcd97ec945f40cf65f87097ace5ea0476045",
      "function": "setApprovalForAll(address,bool)",
      "arguments": [
        "0xdFF72D1e74B6EDEB7a4f413099bf300F08EDca53",
        "true"
      ],
      "transaction": {
        "from": "0x1aa44c933a6718a4bc44064f0067a853c34be9b0",
        "to": "0x4d97dcd97ec945f40cf65f87097ace5ea0476045",
        "gas": "0x8ccd",
        "value": "0x0",
        "input": "0xa22cb465000000000000000000000000dff72d1e74b6edeb7a4f413099bf300f08edca530000000000000000000000000000000000000000000000000000000000000001",
        "nonce": "0x9a",
        "chainId": "0x89"
      },
      "additionalContracts": [],
      "isFixedGasLimit": false
    },
    {
      "hash": "0x7647d79859d5d3369d8af6ab6bac0493119ccdff393fae6cc9b8ef5d95ca8a04",
      "transactionType": "CALL",
      "contractName": null,
      "contractAddress": "0xdff72d1e74b6edeb7a4f413099bf300f08edca53",
      "function": "createIndex((address,bytes32[],uint256[],bytes,address),bytes)",
      "arguments": [
        "(0xB36983B6BE8b57d6b1708B7ddE3143994Fe38Ae1, [0xf9425f69ce7fbde7ee54887ea24b164d2d4c06b594c4d4f94b1921cd79321b19, 0xd6f28c879d79f518b1ac0aea7a3e9e012fb8c1431687791b6a1eb6569e9da853, 0xc960789d6eb636756453f1d2cc30718c8a0d0fe90eedec1c2c35fcc3bf34c10a, 0x18be3e38f5a3d92d7a556afe7fa59ab3b2e8fb16a349596a516c908b8060f589], [1, 1, 1, 1], 0x00000000000000000000000000000000000000000000000000000000000000200000000000000000000000000000000000000000000000000000000000000025537570706f7274696e6720726f6c6573206272696e6720737461626c652070726f66697473000000000000000000000000000000000000000000000000000000, 0xc3729382af2D1A7347537A3882E48E0d6Fc3Bc5F)",
        "0x"
      ],
      "transaction": {
        "from": "0x1aa44c933a6718a4bc44064f0067a853c34be9b0",
        "to": "0xdff72d1e74b6edeb7a4f413099bf300f08edca53",
        "gas": "0xf4371",
        "value": "0x0",
        "input": "0xd2f72136000000000000000000000000000000000000000000000000000000000000004000000000000000000000000000000000000000000000000000000000000002c0000000000000000000000000b36983b6be8b57d6b1708b7dde3143994fe38ae100000000000000000000000000000000000000000000000000000000000000a0000000000000000000000000000000000000000000000000000000000000014000000000000000000000000000000000000000000000000000000000000001e0000000000000000000000000c3729382af2d1a7347537a3882e48e0d6fc3bc5f0000000000000000000000000000000000000000000000000000000000000004f9425f69ce7fbde7ee54887ea24b164d2d4c06b594c4d4f94b1921cd79321b19d6f28c879d79f518b1ac0aea7a3e9e012fb8c1431687791b6a1eb6569e9da853c960789d6eb636756453f1d2cc30718c8a0d0fe90eedec1c2c35fcc3bf34c10a18be3e38f5a3d92d7a556afe7fa59ab3b2e8fb16a349596a516c908b8060f58900000000000000000000000000000000000000000000000000000000000000040000000000000000000000000000000000000000000000000000000000000001000000000000000000000000000000000000000000000000000000000000000100000000000000000000000000000000000000000000000000000000000000010000000000000000000000000000000000000000000000000000000000000001000000000000000000000000000000000000000000000000000000000000008000000000000000000000000000000000000000000000000000000000000000200000000000000000000000000000000000000000000000000000000000000025537570706f7274696e6720726f6c6573206272696e6720737461626c652070726f666974730000000000000000000000000000000000000000000000000000000000000000000000000000000000000000000000000000000000000000000000",
        "nonce": "0x9b",
        "chainId": "0x89"
      },
      "additionalContracts": [
        {
          "transactionType": "CREATE2",
          "address": "0xee9d620be16d0e8bf4d5b95dd34389b52cb155d2",
          "initCode": "0x6103ed3d81600a3d39f3363d3d373d3d3d363d73b36983b6be8b57d6b1708b7dde3143994fe38ae15af43d82803e903d91602b57fd5bf30000000000000000000000000000000000000000000000000000000000000020000000000000000000000000000000000000000000000000000000000000012000000000000000000000000000000000000000000000000000000000000001c000000000000000000000000000000000000000000000000000000000000002600000000000000000000000000000000000000000000000000000000000000300000000000000000000000000dff72d1e74b6edeb7a4f413099bf300f08edca530000000000000000000000004d97dcd97ec945f40cf65f87097ace5ea04760450000000000000000000000002791bca1f2de4661ed88a30c99a7a9449aa84174000000000000000000000000b36983b6be8b57d6b1708b7dde3143994fe38ae1000000000000000000000000c3729382af2d1a7347537a3882e48e0d6fc3bc5f00000000000000000000000000000000000000000000000000000000000000045f5670e3ecc412d5eea6528f25fae759b0a9c1e46ea5ad70a06464f8f790c381c06b453fcf6f54e3b0e0779822457935923c102d703a5b0b40bf8174063eba17dd3247f551dff1aff9faaf9513e266aafa42deeebe96c684c54ee78230bf72b2ee45eb80bdc3b94cf430dff8a138db5e4d4435c19cec8585a337839364b351020000000000000000000000000000000000000000000000000000000000000004f9425f69ce7fbde7ee54887ea24b164d2d4c06b594c4d4f94b1921cd79321b19d6f28c879d79f518b1ac0aea7a3e9e012fb8c1431687791b6a1eb6569e9da853c960789d6eb636756453f1d2cc30718c8a0d0fe90eedec1c2c35fcc3bf34c10a18be3e38f5a3d92d7a556afe7fa59ab3b2e8fb16a349596a516c908b8060f58900000000000000000000000000000000000000000000000000000000000000040000000000000000000000000000000000000000000000000000000000000001000000000000000000000000000000000000000000000000000000000000000100000000000000000000000000000000000000000000000000000000000000010000000000000000000000000000000000000000000000000000000000000001000000000000000000000000000000000000000000000000000000000000008000000000000000000000000000000000000000000000000000000000000000200000000000000000000000000000000000000000000000000000000000000025537570706f7274696e6720726f6c6573206272696e6720737461626c652070726f66697473000000000000000000000000000000000000000000000000000000"
        }
      ],
      "isFixedGasLimit": false
    }
  ],
  "receipts": [
    {
      "status": "0x1",
      "cumulativeGasUsed": "0xf42b17",
      "logs": [
        {
          "address": "0x2791bca1f2de4661ed88a30c99a7a9449aa84174",
          "topics": [
            "0x8c5be1e5ebec7d5bd14f71427d1e84f3dd0314c0f7b2291e5b200ac8c7c3b925",
            "0x0000000000000000000000001aa44c933a6718a4bc44064f0067a853c34be9b0",
            "0x0000000000000000000000004d97dcd97ec945f40cf65f87097ace5ea0476045"
          ],
          "data": "0xffffffffffffffffffffffffffffffffffffffffffffffffffffffffffffffff",
          "blockHash": "0x4f52d9d36eb2f52ea3fe22a12f3626ee77377af29a27574348e42c1e3f0be1ad",
          "blockNumber": "0x44440e1",
          "transactionHash": "0x7edf92cee91cde7314a9422514395e885a1c1d01ce97e008c9bcb9fe0f8ce85a",
          "transactionIndex": "0x76",
          "logIndex": "0x2f2",
          "removed": false
        },
        {
          "address": "0x0000000000000000000000000000000000001010",
          "topics": [
            "0x4dfe1bbbcf077ddc3e01291eea2d5c70c2b422b415d95645b9adcfd678cb1d63",
            "0x0000000000000000000000000000000000000000000000000000000000001010",
            "0x0000000000000000000000001aa44c933a6718a4bc44064f0067a853c34be9b0",
            "0x0000000000000000000000009ead03f7136fc6b4bdb0780b00a1c14ae5a8b6d0"
          ],
          "data": "0x00000000000000000000000000000000000000000000000000040321b09a12f800000000000000000000000000000000000000000000000055a3302e4e6a73d8000000000000000000000000000000000000000000000b56950ee5967d0342f6000000000000000000000000000000000000000000000000559f2d0c9dd060e0000000000000000000000000000000000000000000000b569512e8b82d9d55ee",
          "blockHash": "0x4f52d9d36eb2f52ea3fe22a12f3626ee77377af29a27574348e42c1e3f0be1ad",
          "blockNumber": "0x44440e1",
          "transactionHash": "0x7edf92cee91cde7314a9422514395e885a1c1d01ce97e008c9bcb9fe0f8ce85a",
          "transactionIndex": "0x76",
          "logIndex": "0x2f3",
          "removed": false
        }
      ],
      "logsBloom": "0x00000000000020000000000000000000000000000000000000000000000000000000000000000000000000000000000000008000000000000000000000200000000000000000000000000000000200800000000000000000000100000000000000000000000000000000000000000000000000000000000180000000000000000041000000040000000000001000000000000000000000000000000000000000220000000400000000000080000001000000000000000000000000000000004000000000000000000001000000000000000000000000000000120000000000000010008000000000000000000000000000000000000000000000000000100000",
      "type": "0x2",
      "transactionHash": "0x7edf92cee91cde7314a9422514395e885a1c1d01ce97e008c9bcb9fe0f8ce85a",
      "transactionIndex": "0x76",
      "blockHash": "0x4f52d9d36eb2f52ea3fe22a12f3626ee77377af29a27574348e42c1e3f0be1ad",
      "blockNumber": "0x44440e1",
      "gasUsed": "0x9692",
      "effectiveGasPrice": "0xac8aef155",
      "from": "0x1aa44c933a6718a4bc44064f0067a853c34be9b0",
      "to": "0x2791bca1f2de4661ed88a30c99a7a9449aa84174",
      "contractAddress": null
    },
    {
      "status": "0x1",
      "cumulativeGasUsed": "0xf49107",
      "logs": [
        {
          "address": "0x4d97dcd97ec945f40cf65f87097ace5ea0476045",
          "topics": [
            "0x17307eab39ab6107e8899845ad3d59bd9653f200f220920489ca2b5937696c31",
            "0x0000000000000000000000001aa44c933a6718a4bc44064f0067a853c34be9b0",
            "0x000000000000000000000000dff72d1e74b6edeb7a4f413099bf300f08edca53"
          ],
          "data": "0x0000000000000000000000000000000000000000000000000000000000000001",
          "blockHash": "0x4f52d9d36eb2f52ea3fe22a12f3626ee77377af29a27574348e42c1e3f0be1ad",
          "blockNumber": "0x44440e1",
          "transactionHash": "0xb7454a3a2517384ebe9469df63d5744da9d0b15e1b7021b11c1e70b50f32a7eb",
          "transactionIndex": "0x77",
          "logIndex": "0x2f4",
          "removed": false
        },
        {
          "address": "0x0000000000000000000000000000000000001010",
          "topics": [
            "0x4dfe1bbbcf077ddc3e01291eea2d5c70c2b422b415d95645b9adcfd678cb1d63",
            "0x0000000000000000000000000000000000000000000000000000000000001010",
            "0x0000000000000000000000001aa44c933a6718a4bc44064f0067a853c34be9b0",
            "0x0000000000000000000000009ead03f7136fc6b4bdb0780b00a1c14ae5a8b6d0"
          ],
          "data": "0x0000000000000000000000000000000000000000000000000002b760ac960e40000000000000000000000000000000000000000000000000559cd871593d035e000000000000000000000000000000000000000000000b569512e8b82d9d55ee000000000000000000000000000000000000000000000000559a2110aca6f51e000000000000000000000000000000000000000000000b569515a018da33642e",
          "blockHash": "0x4f52d9d36eb2f52ea3fe22a12f3626ee77377af29a27574348e42c1e3f0be1ad",
          "blockNumber": "0x44440e1",
          "transactionHash": "0xb7454a3a2517384ebe9469df63d5744da9d0b15e1b7021b11c1e70b50f32a7eb",
          "transactionIndex": "0x77",
          "logIndex": "0x2f5",
          "removed": false
        }
      ],
      "logsBloom": "0x00000000000020000000000000000000000000000000000000000000000040000000000000000000000000000000000000008000000000000000400000000000000000000000000000000000000000800000000000000000000100000000000002000000000000000000000000000000000000000000000080000000000000000040000000040000000000001000400000000000000000000000000000000000200000000000000000000080000000000000000000000000000000000000004000000000000000000001000004000000000004000000000000120000000000000000200800000000040000000000000000000000000000000000000000100000",
      "type": "0x2",
      "transactionHash": "0xb7454a3a2517384ebe9469df63d5744da9d0b15e1b7021b11c1e70b50f32a7eb",
      "transactionIndex": "0x77",
      "blockHash": "0x4f52d9d36eb2f52ea3fe22a12f3626ee77377af29a27574348e42c1e3f0be1ad",
      "blockNumber": "0x44440e1",
      "gasUsed": "0x65f0",
      "effectiveGasPrice": "0xac8aef155",
      "from": "0x1aa44c933a6718a4bc44064f0067a853c34be9b0",
      "to": "0x4d97dcd97ec945f40cf65f87097ace5ea0476045",
      "contractAddress": null
    },
    {
      "status": "0x1",
      "cumulativeGasUsed": "0xff9df3",
      "logs": [
        {
          "address": "0x4d97dcd97ec945f40cf65f87097ace5ea0476045",
          "topics": [
            "0x17307eab39ab6107e8899845ad3d59bd9653f200f220920489ca2b5937696c31",
            "0x000000000000000000000000ee9d620be16d0e8bf4d5b95dd34389b52cb155d2",
            "0x0000000000000000000000004d97dcd97ec945f40cf65f87097ace5ea0476045"
          ],
          "data": "0x0000000000000000000000000000000000000000000000000000000000000001",
          "blockHash": "0x4f52d9d36eb2f52ea3fe22a12f3626ee77377af29a27574348e42c1e3f0be1ad",
          "blockNumber": "0x44440e1",
          "transactionHash": "0x7647d79859d5d3369d8af6ab6bac0493119ccdff393fae6cc9b8ef5d95ca8a04",
          "transactionIndex": "0x78",
          "logIndex": "0x2f6",
          "removed": false
        },
        {
          "address": "0x2791bca1f2de4661ed88a30c99a7a9449aa84174",
          "topics": [
            "0x8c5be1e5ebec7d5bd14f71427d1e84f3dd0314c0f7b2291e5b200ac8c7c3b925",
            "0x000000000000000000000000ee9d620be16d0e8bf4d5b95dd34389b52cb155d2",
            "0x0000000000000000000000004d97dcd97ec945f40cf65f87097ace5ea0476045"
          ],
          "data": "0xffffffffffffffffffffffffffffffffffffffffffffffffffffffffffffffff",
          "blockHash": "0x4f52d9d36eb2f52ea3fe22a12f3626ee77377af29a27574348e42c1e3f0be1ad",
          "blockNumber": "0x44440e1",
          "transactionHash": "0x7647d79859d5d3369d8af6ab6bac0493119ccdff393fae6cc9b8ef5d95ca8a04",
          "transactionIndex": "0x78",
          "logIndex": "0x2f7",
          "removed": false
        },
        {
          "address": "0xdff72d1e74b6edeb7a4f413099bf300f08edca53",
          "topics": [
            "0x750538103f64f9b5e2db539e5c1f7552a63aa9e68e07396b2b4b58f7cfef18ab",
            "0x000000000000000000000000ee9d620be16d0e8bf4d5b95dd34389b52cb155d2"
          ],
          "data": "0x000000000000000000000000000000000000000000000000000000000000004000000000000000000000000000000000000000000000000000000000000000e000000000000000000000000000000000000000000000000000000000000000045f5670e3ecc412d5eea6528f25fae759b0a9c1e46ea5ad70a06464f8f790c381c06b453fcf6f54e3b0e0779822457935923c102d703a5b0b40bf8174063eba17dd3247f551dff1aff9faaf9513e266aafa42deeebe96c684c54ee78230bf72b2ee45eb80bdc3b94cf430dff8a138db5e4d4435c19cec8585a337839364b35102000000000000000000000000000000000000000000000000000000000000008000000000000000000000000000000000000000000000000000000000000000200000000000000000000000000000000000000000000000000000000000000025537570706f7274696e6720726f6c6573206272696e6720737461626c652070726f66697473000000000000000000000000000000000000000000000000000000",
          "blockHash": "0x4f52d9d36eb2f52ea3fe22a12f3626ee77377af29a27574348e42c1e3f0be1ad",
          "blockNumber": "0x44440e1",
          "transactionHash": "0x7647d79859d5d3369d8af6ab6bac0493119ccdff393fae6cc9b8ef5d95ca8a04",
          "transactionIndex": "0x78",
          "logIndex": "0x2f8",
          "removed": false
        },
        {
          "address": "0x0000000000000000000000000000000000001010",
          "topics": [
            "0x4dfe1bbbcf077ddc3e01291eea2d5c70c2b422b415d95645b9adcfd678cb1d63",
            "0x0000000000000000000000000000000000000000000000000000000000001010",
            "0x0000000000000000000000001aa44c933a6718a4bc44064f0067a853c34be9b0",
            "0x0000000000000000000000009ead03f7136fc6b4bdb0780b00a1c14ae5a8b6d0"
          ],
          "data": "0x000000000000000000000000000000000000000000000000004b61cb92874bd000000000000000000000000000000000000000000000000055988d2830043aae000000000000000000000000000000000000000000000b569515a018da33642e000000000000000000000000000000000000000000000000554d2b5c9d7ceede000000000000000000000000000000000000000000000b56956101e46cbaaffe",
          "blockHash": "0x4f52d9d36eb2f52ea3fe22a12f3626ee77377af29a27574348e42c1e3f0be1ad",
          "blockNumber": "0x44440e1",
          "transactionHash": "0x7647d79859d5d3369d8af6ab6bac0493119ccdff393fae6cc9b8ef5d95ca8a04",
          "transactionIndex": "0x78",
          "logIndex": "0x2f9",
          "removed": false
        }
      ],
      "logsBloom": "0x00000040000020000000000000000000000000000000000000000000000040000000000000000000000000000000000010008000000000000000000000200000000000000000000000000000000200800000000100000000000100000000000002000000000000000000000000000080000000000000000180000000000000000041000000040000000000001000000000001000000000000400000000000000220000000400000000000080000001000000800000000000000000000000004000000000000000000001000000000000000004000000000000120000000000000010208800000000040000000000000000000000000000000000000000100000",
      "type": "0x2",
      "transactionHash": "0x7647d79859d5d3369d8af6ab6bac0493119ccdff393fae6cc9b8ef5d95ca8a04",
      "transactionIndex": "0x78",
      "blockHash": "0x4f52d9d36eb2f52ea3fe22a12f3626ee77377af29a27574348e42c1e3f0be1ad",
      "blockNumber": "0x44440e1",
      "gasUsed": "0xb0cec",
      "effectiveGasPrice": "0xac8aef155",
      "from": "0x1aa44c933a6718a4bc44064f0067a853c34be9b0",
      "to": "0xdff72d1e74b6edeb7a4f413099bf300f08edca53",
      "contractAddress": null
    }
  ],
  "libraries": [],
  "pending": [],
  "returns": {},
  "timestamp": 1747388072,
  "chain": 137,
  "commit": "d6a2b0f"
}