{
  "transactions": [
    {
      "hash": "0xa241d12012a106a6578653a8661390b4336a152d34b7d94b49a191fd06dd680e",
      "transactionType": "CALL",
      "contractName": null,
      "contractAddress": "0x2791bca1f2de4661ed88a30c99a7a9449aa84174",
      "function": "approve(address,uint256)",
      "arguments": [
        "0x4D97DCd97eC945f40cF65F87097ACe5EA0476045",
        "115792089237316195423570985008687907853269984665640564039457584007913129639935"
      ],
      "transaction": {
        "from": "0x1aa44c933a6718a4bc44064f0067a853c34be9b0",
        "to": "0x2791bca1f2de4661ed88a30c99a7a9449aa84174",
        "gas": "0xdc35",
        "value": "0x0",
        "input": "0x095ea7b30000000000000000000000004d97dcd97ec945f40cf65f87097ace5ea0476045ffffffffffffffffffffffffffffffffffffffffffffffffffffffffffffffff",
        "nonce": "0x96",
        "chainId": "0x89"
      },
      "additionalContracts": [],
      "isFixedGasLimit": false
    },
    {
      "hash": "0x114c5ee9a893375d4b26b3b5c5bf8c38baa0189676d1baf36ccdf55a743ca685",
      "transactionType": "CALL",
      "contractName": null,
      "contractAddress": "0x4d97dcd97ec945f40cf65f87097ace5ea0476045",
      "function": "setApprovalForAll(address,bool)",
      "arguments": [
        "0xdFF72D1e74B6EDEB7a4f413099bf300F08EDca53",
        "true"
      ],
      "transaction": {
        "from": "0x1aa44c933a6718a4bc44064f0067a853c34be9b0",
        "to": "0x4d97dcd97ec945f40cf65f87097ace5ea0476045",
        "gas": "0xf82b",
        "value": "0x0",
        "input": "0xa22cb465000000000000000000000000dff72d1e74b6edeb7a4f413099bf300f08edca530000000000000000000000000000000000000000000000000000000000000001",
        "nonce": "0x97",
        "chainId": "0x89"
      },
      "additionalContracts": [],
      "isFixedGasLimit": false
    },
    {
      "hash": "0x227173d7154b532f1a285c870a0f5b4d4e36e03355fec33e9cdfaae014f9c075",
      "transactionType": "CALL",
      "contractName": null,
      "contractAddress": "0xdff72d1e74b6edeb7a4f413099bf300f08edca53",
      "function": "createIndex((address,bytes32[],uint256[],bytes,address),bytes)",
      "arguments": [
        "(0xB36983B6BE8b57d6b1708B7ddE3143994Fe38Ae1, [0xf9425f69ce7fbde7ee54887ea24b164d2d4c06b594c4d4f94b1921cd79321b19, 0xd6f28c879d79f518b1ac0aea7a3e9e012fb8c1431687791b6a1eb6569e9da853, 0xc960789d6eb636756453f1d2cc30718c8a0d0fe90eedec1c2c35fcc3bf34c10a, 0x18be3e38f5a3d92d7a556afe7fa59ab3b2e8fb16a349596a516c908b8060f589], [1, 1, 1, 1], 0x537570706f7274696e6720726f6c6573206272696e6720737461626c652070726f66697473, 0xc3729382af2D1A7347537A3882E48E0d6Fc3Bc5F)",
        "0x"
      ],
      "transaction": {
        "from": "0x1aa44c933a6718a4bc44064f0067a853c34be9b0",
        "to": "0xdff72d1e74b6edeb7a4f413099bf300f08edca53",
        "gas": "0xef321",
        "value": "0x0",
        "input": "0xd2f7213600000000000000000000000000000000000000000000000000000000000000400000000000000000000000000000000000000000000000000000000000000280000000000000000000000000b36983b6be8b57d6b1708b7dde3143994fe38ae100000000000000000000000000000000000000000000000000000000000000a0000000000000000000000000000000000000000000000000000000000000014000000000000000000000000000000000000000000000000000000000000001e0000000000000000000000000c3729382af2d1a7347537a3882e48e0d6fc3bc5f0000000000000000000000000000000000000000000000000000000000000004f9425f69ce7fbde7ee54887ea24b164d2d4c06b594c4d4f94b1921cd79321b19d6f28c879d79f518b1ac0aea7a3e9e012fb8c1431687791b6a1eb6569e9da853c960789d6eb636756453f1d2cc30718c8a0d0fe90eedec1c2c35fcc3bf34c10a18be3e38f5a3d92d7a556afe7fa59ab3b2e8fb16a349596a516c908b8060f589000000000000000000000000000000000000000000000000000000000000000400000000000000000000000000000000000000000000000000000000000000010000000000000000000000000000000000000000000000000000000000000001000000000000000000000000000000000000000000000000000000000000000100000000000000000000000000000000000000000000000000000000000000010000000000000000000000000000000000000000000000000000000000000025537570706f7274696e6720726f6c6573206272696e6720737461626c652070726f666974730000000000000000000000000000000000000000000000000000000000000000000000000000000000000000000000000000000000000000000000",
        "nonce": "0x98",
        "chainId": "0x89"
      },
      "additionalContracts": [
        {
          "transactionType": "CREATE2",
          "address": "0x02de39614311ed3dbcd050c48da03f465cf7c529",
          "initCode": "0x6103ad3d81600a3d39f3363d3d373d3d3d363d73b36983b6be8b57d6b1708b7dde3143994fe38ae15af43d82803e903d91602b57fd5bf30000000000000000000000000000000000000000000000000000000000000020000000000000000000000000000000000000000000000000000000000000012000000000000000000000000000000000000000000000000000000000000001c000000000000000000000000000000000000000000000000000000000000002600000000000000000000000000000000000000000000000000000000000000300000000000000000000000000dff72d1e74b6edeb7a4f413099bf300f08edca530000000000000000000000004d97dcd97ec945f40cf65f87097ace5ea04760450000000000000000000000002791bca1f2de4661ed88a30c99a7a9449aa84174000000000000000000000000b36983b6be8b57d6b1708b7dde3143994fe38ae1000000000000000000000000c3729382af2d1a7347537a3882e48e0d6fc3bc5f00000000000000000000000000000000000000000000000000000000000000045f5670e3ecc412d5eea6528f25fae759b0a9c1e46ea5ad70a06464f8f790c381c06b453fcf6f54e3b0e0779822457935923c102d703a5b0b40bf8174063eba17dd3247f551dff1aff9faaf9513e266aafa42deeebe96c684c54ee78230bf72b2ee45eb80bdc3b94cf430dff8a138db5e4d4435c19cec8585a337839364b351020000000000000000000000000000000000000000000000000000000000000004f9425f69ce7fbde7ee54887ea24b164d2d4c06b594c4d4f94b1921cd79321b19d6f28c879d79f518b1ac0aea7a3e9e012fb8c1431687791b6a1eb6569e9da853c960789d6eb636756453f1d2cc30718c8a0d0fe90eedec1c2c35fcc3bf34c10a18be3e38f5a3d92d7a556afe7fa59ab3b2e8fb16a349596a516c908b8060f589000000000000000000000000000000000000000000000000000000000000000400000000000000000000000000000000000000000000000000000000000000010000000000000000000000000000000000000000000000000000000000000001000000000000000000000000000000000000000000000000000000000000000100000000000000000000000000000000000000000000000000000000000000010000000000000000000000000000000000000000000000000000000000000025537570706f7274696e6720726f6c6573206272696e6720737461626c652070726f66697473000000000000000000000000000000000000000000000000000000"
        }
      ],
      "isFixedGasLimit": false
    }
  ],
  "receipts": [
    {
      "status": "0x1",
      "cumulativeGasUsed": "0xa95e13",
      "logs": [
        {
          "address": "0x2791bca1f2de4661ed88a30c99a7a9449aa84174",
          "topics": [
            "0x8c5be1e5ebec7d5bd14f71427d1e84f3dd0314c0f7b2291e5b200ac8c7c3b925",
            "0x0000000000000000000000001aa44c933a6718a4bc44064f0067a853c34be9b0",
            "0x0000000000000000000000004d97dcd97ec945f40cf65f87097ace5ea0476045"
          ],
          "data": "0xffffffffffffffffffffffffffffffffffffffffffffffffffffffffffffffff",
          "blockHash": "0xb32a4da7c236081df556d501e8fb88af2ad5940996b2a58ffb88e6e5509272bf",
          "blockNumber": "0x4444083",
          "transactionHash": "0xa241d12012a106a6578653a8661390b4336a152d34b7d94b49a191fd06dd680e",
          "transactionIndex": "0x3d",
          "logIndex": "0x17c",
          "removed": false
        },
        {
          "address": "0x0000000000000000000000000000000000001010",
          "topics": [
            "0x4dfe1bbbcf077ddc3e01291eea2d5c70c2b422b415d95645b9adcfd678cb1d63",
            "0x0000000000000000000000000000000000000000000000000000000000001010",
            "0x0000000000000000000000001aa44c933a6718a4bc44064f0067a853c34be9b0",
            "0x000000000000000000000000dfe6ad10265afc05831b332fda6f5bc1ad9d79ce"
          ],
          "data": "0x0000000000000000000000000000000000000000000000000003ec3c1a91e33a0000000000000000000000000000000000000000000000005622bbb726b41cc40000000000000000000000000000000000000000000001ffe8fac52aacc5b60c000000000000000000000000000000000000000000000000561ecf7b0c22398a0000000000000000000000000000000000000000000001ffe8feb166c7579946",
          "blockHash": "0xb32a4da7c236081df556d501e8fb88af2ad5940996b2a58ffb88e6e5509272bf",
          "blockNumber": "0x4444083",
          "transactionHash": "0xa241d12012a106a6578653a8661390b4336a152d34b7d94b49a191fd06dd680e",
          "transactionIndex": "0x3d",
          "logIndex": "0x17d",
          "removed": false
        }
      ],
      "logsBloom": "0x00000000000020000000000000000000000000000000000000010000000000000000000000000000000000000000000000008000000000000000000000200000000000000000000000000000000240800000000000000000000100000000000000000000000000000000000000000000000001000000000180000000000000000001000000000000000000001000000000000000000000000000000000000000220000000400000000000080000001000000000000000000000000000000004000000000000000000001000000000000000000000000000000100000000000000010008000000000000000000000000000000000000000000000000000100000",
      "type": "0x2",
      "transactionHash": "0xa241d12012a106a6578653a8661390b4336a152d34b7d94b49a191fd06dd680e",
      "transactionIndex": "0x3d",
      "blockHash": "0xb32a4da7c236081df556d501e8fb88af2ad5940996b2a58ffb88e6e5509272bf",
      "blockNumber": "0x4444083",
      "gasUsed": "0x9692",
      "effectiveGasPrice": "0xa87806e7b",
      "from": "0x1aa44c933a6718a4bc44064f0067a853c34be9b0",
      "to": "0x2791bca1f2de4661ed88a30c99a7a9449aa84174",
      "contractAddress": null
    },
    {
      "status": "0x1",
      "cumulativeGasUsed": "0xaa11bf",
      "logs": [
        {
          "address": "0x4d97dcd97ec945f40cf65f87097ace5ea0476045",
          "topics": [
            "0x17307eab39ab6107e8899845ad3d59bd9653f200f220920489ca2b5937696c31",
            "0x0000000000000000000000001aa44c933a6718a4bc44064f0067a853c34be9b0",
            "0x000000000000000000000000dff72d1e74b6edeb7a4f413099bf300f08edca53"
          ],
          "data": "0x0000000000000000000000000000000000000000000000000000000000000001",
          "blockHash": "0xb32a4da7c236081df556d501e8fb88af2ad5940996b2a58ffb88e6e5509272bf",
          "blockNumber": "0x4444083",
          "transactionHash": "0x114c5ee9a893375d4b26b3b5c5bf8c38baa0189676d1baf36ccdf55a743ca685",
          "transactionIndex": "0x3e",
          "logIndex": "0x17e",
          "removed": false
        },
        {
          "address": "0x0000000000000000000000000000000000001010",
          "topics": [
            "0x4dfe1bbbcf077ddc3e01291eea2d5c70c2b422b415d95645b9adcfd678cb1d63",
            "0x0000000000000000000000000000000000000000000000000000000000001010",
            "0x0000000000000000000000001aa44c933a6718a4bc44064f0067a853c34be9b0",
            "0x000000000000000000000000dfe6ad10265afc05831b332fda6f5bc1ad9d79ce"
          ],
          "data": "0x0000000000000000000000000000000000000000000000000004ae542dff5c9c000000000000000000000000000000000000000000000000561c8a509eb9089e0000000000000000000000000000000000000000000001ffe8feb166c75799460000000000000000000000000000000000000000000000005617dbfc70b9ac020000000000000000000000000000000000000000000001ffe9035fbaf556f5e2",
          "blockHash": "0xb32a4da7c236081df556d501e8fb88af2ad5940996b2a58ffb88e6e5509272bf",
          "blockNumber": "0x4444083",
          "transactionHash": "0x114c5ee9a893375d4b26b3b5c5bf8c38baa0189676d1baf36ccdf55a743ca685",
          "transactionIndex": "0x3e",
          "logIndex": "0x17f",
          "removed": false
        }
      ],
      "logsBloom": "0x00000000000020000000000000000000000000000000000000010000000040000000000000000000000000000000000000008000000000000000400000000000000000000000000000000000000040800000000000000000000100000000000002000000000000000000000000000000000001000000000080000000000000000000000000000000000000001000400000000000000000000000000000000000200000000000000000000080000000000000000000000000000000000000004000000000000000000001000004000000000004000000000000100000000000000000200800000000040000000000000000000000000000000000000000100000",
      "type": "0x2",
      "transactionHash": "0x114c5ee9a893375d4b26b3b5c5bf8c38baa0189676d1baf36ccdf55a743ca685",
      "transactionIndex": "0x3e",
      "blockHash": "0xb32a4da7c236081df556d501e8fb88af2ad5940996b2a58ffb88e6e5509272bf",
      "blockNumber": "0x4444083",
      "gasUsed": "0xb3ac",
      "effectiveGasPrice": "0xa87806e7b",
      "from": "0x1aa44c933a6718a4bc44064f0067a853c34be9b0",
      "to": "0x4d97dcd97ec945f40cf65f87097ace5ea0476045",
      "contractAddress": null
    },
    {
      "status": "0x1",
      "cumulativeGasUsed": "0xb4e485",
      "logs": [
        {
          "address": "0x4d97dcd97ec945f40cf65f87097ace5ea0476045",
          "topics": [
            "0x17307eab39ab6107e8899845ad3d59bd9653f200f220920489ca2b5937696c31",
            "0x00000000000000000000000002de39614311ed3dbcd050c48da03f465cf7c529",
            "0x0000000000000000000000004d97dcd97ec945f40cf65f87097ace5ea0476045"
          ],
          "data": "0x0000000000000000000000000000000000000000000000000000000000000001",
          "blockHash": "0xb32a4da7c236081df556d501e8fb88af2ad5940996b2a58ffb88e6e5509272bf",
          "blockNumber": "0x4444083",
          "transactionHash": "0x227173d7154b532f1a285c870a0f5b4d4e36e03355fec33e9cdfaae014f9c075",
          "transactionIndex": "0x3f",
          "logIndex": "0x180",
          "removed": false
        },
        {
          "address": "0x2791bca1f2de4661ed88a30c99a7a9449aa84174",
          "topics": [
            "0x8c5be1e5ebec7d5bd14f71427d1e84f3dd0314c0f7b2291e5b200ac8c7c3b925",
            "0x00000000000000000000000002de39614311ed3dbcd050c48da03f465cf7c529",
            "0x0000000000000000000000004d97dcd97ec945f40cf65f87097ace5ea0476045"
          ],
          "data": "0xffffffffffffffffffffffffffffffffffffffffffffffffffffffffffffffff",
          "blockHash": "0xb32a4da7c236081df556d501e8fb88af2ad5940996b2a58ffb88e6e5509272bf",
          "blockNumber": "0x4444083",
          "transactionHash": "0x227173d7154b532f1a285c870a0f5b4d4e36e03355fec33e9cdfaae014f9c075",
          "transactionIndex": "0x3f",
          "logIndex": "0x181",
          "removed": false
        },
        {
          "address": "0xdff72d1e74b6edeb7a4f413099bf300f08edca53",
          "topics": [
            "0x750538103f64f9b5e2db539e5c1f7552a63aa9e68e07396b2b4b58f7cfef18ab",
            "0x00000000000000000000000002de39614311ed3dbcd050c48da03f465cf7c529"
          ],
          "data": "0x000000000000000000000000000000000000000000000000000000000000004000000000000000000000000000000000000000000000000000000000000000e000000000000000000000000000000000000000000000000000000000000000045f5670e3ecc412d5eea6528f25fae759b0a9c1e46ea5ad70a06464f8f790c381c06b453fcf6f54e3b0e0779822457935923c102d703a5b0b40bf8174063eba17dd3247f551dff1aff9faaf9513e266aafa42deeebe96c684c54ee78230bf72b2ee45eb80bdc3b94cf430dff8a138db5e4d4435c19cec8585a337839364b351020000000000000000000000000000000000000000000000000000000000000025537570706f7274696e6720726f6c6573206272696e6720737461626c652070726f66697473000000000000000000000000000000000000000000000000000000",
          "blockHash": "0xb32a4da7c236081df556d501e8fb88af2ad5940996b2a58ffb88e6e5509272bf",
          "blockNumber": "0x4444083",
          "transactionHash": "0x227173d7154b532f1a285c870a0f5b4d4e36e03355fec33e9cdfaae014f9c075",
          "transactionIndex": "0x3f",
          "logIndex": "0x182",
          "removed": false
        },
        {
          "address": "0x0000000000000000000000000000000000001010",
          "topics": [
            "0x4dfe1bbbcf077ddc3e01291eea2d5c70c2b422b415d95645b9adcfd678cb1d63",
            "0x0000000000000000000000000000000000000000000000000000000000001010",
            "0x0000000000000000000000001aa44c933a6718a4bc44064f0067a853c34be9b0",
            "0x000000000000000000000000dfe6ad10265afc05831b332fda6f5bc1ad9d79ce"
          ],
          "data": "0x00000000000000000000000000000000000000000000000000482fc90c7e3ffe0000000000000000000000000000000000000000000000005615267ec72eccfa0000000000000000000000000000000000000000000001ffe9035fbaf556f5e200000000000000000000000000000000000000000000000055ccf6b5bab08cfc0000000000000000000000000000000000000000000001ffe94b8f8401d535e0",
          "blockHash": "0xb32a4da7c236081df556d501e8fb88af2ad5940996b2a58ffb88e6e5509272bf",
          "blockNumber": "0x4444083",
          "transactionHash": "0x227173d7154b532f1a285c870a0f5b4d4e36e03355fec33e9cdfaae014f9c075",
          "transactionIndex": "0x3f",
          "logIndex": "0x183",
          "removed": false
        }
      ],
      "logsBloom": "0x0000004000002000000000000000000000000000000000000001000000004000000000000000000000000000000000001000800000000000000000000020000000000000000000000000000000024080000000010000000000010000000000000200000000000000000000000000000000000100000000018000000000000000000100000000000000000000100004000000100000000000000000000000000022000000040000000000008000000100000000000000000000000000000000400000000000000000000100000000000000000400000000000010000000000000001020a800000000040000000000000000000000000000004000000000100000",
      "type": "0x2",
      "transactionHash": "0x227173d7154b532f1a285c870a0f5b4d4e36e03355fec33e9cdfaae014f9c075",
      "transactionIndex": "0x3f",
      "blockHash": "0xb32a4da7c236081df556d501e8fb88af2ad5940996b2a58ffb88e6e5509272bf",
      "blockNumber": "0x4444083",
      "gasUsed": "0xad2c6",
      "effectiveGasPrice": "0xa87806e7b",
      "from": "0x1aa44c933a6718a4bc44064f0067a853c34be9b0",
      "to": "0xdff72d1e74b6edeb7a4f413099bf300f08edca53",
      "contractAddress": null
    }
  ],
  "libraries": [],
  "pending": [],
  "returns": {},
  "timestamp": 1747387871,
  "chain": 137,
  "commit": "d6a2b0f"
}