{
  "transactions": [
    {
      "hash": "0xef603a9b35fef8788f610c08802efa4e8db48339aa8cae16d18c991c1f95e981",
      "transactionType": "CALL",
      "contractName": null,
      "contractAddress": "0x2791bca1f2de4661ed88a30c99a7a9449aa84174",
      "function": "approve(address,uint256)",
      "arguments": [
        "0x4D97DCd97eC945f40cF65F87097ACe5EA0476045",
        "115792089237316195423570985008687907853269984665640564039457584007913129639935"
      ],
      "transaction": {
        "from": "0x1aa44c933a6718a4bc44064f0067a853c34be9b0",
        "to": "0x2791bca1f2de4661ed88a30c99a7a9449aa84174",
        "gas": "0xdc35",
        "value": "0x0",
        "input": "0x095ea7b30000000000000000000000004d97dcd97ec945f40cf65f87097ace5ea0476045ffffffffffffffffffffffffffffffffffffffffffffffffffffffffffffffff",
        "nonce": "0xa5",
        "chainId": "0x89"
      },
      "additionalContracts": [],
      "isFixedGasLimit": false
    },
    {
      "hash": "0x2c5d5f950ca7cf95dfe022d16faeb036bbf5141d190a06108ddfb3df8e538293",
      "transactionType": "CALL",
      "contractName": null,
      "contractAddress": "0x4d97dcd97ec945f40cf65f87097ace5ea0476045",
      "function": "setApprovalForAll(address,bool)",
      "arguments": [
        "0xC01BbFC94C41F0D8Fc242cFe8465ea4dcD4f20C5",
        "true"
      ],
      "transaction": {
        "from": "0x1aa44c933a6718a4bc44064f0067a853c34be9b0",
        "to": "0x4d97dcd97ec945f40cf65f87097ace5ea0476045",
        "gas": "0xf82b",
        "value": "0x0",
        "input": "0xa22cb465000000000000000000000000c01bbfc94c41f0d8fc242cfe8465ea4dcd4f20c50000000000000000000000000000000000000000000000000000000000000001",
        "nonce": "0xa6",
        "chainId": "0x89"
      },
      "additionalContracts": [],
      "isFixedGasLimit": false
    },
    {
      "hash": "0xe860954256e32407fcb7134eae7ddbd254a6e0c739cb40aa1264c517221d0b2b",
      "transactionType": "CALL",
      "contractName": null,
      "contractAddress": "0xc01bbfc94c41f0d8fc242cfe8465ea4dcd4f20c5",
      "function": "createIndex((address,bytes32[],uint256[],bytes,address),bytes)",
      "arguments": [
        "(0x7bcd278Bb230fF014149cE32c5a9663812Da9810, [0xf9425f69ce7fbde7ee54887ea24b164d2d4c06b594c4d4f94b1921cd79321b19, 0xd6f28c879d79f518b1ac0aea7a3e9e012fb8c1431687791b6a1eb6569e9da853, 0xc960789d6eb636756453f1d2cc30718c8a0d0fe90eedec1c2c35fcc3bf34c10a, 0x18be3e38f5a3d92d7a556afe7fa59ab3b2e8fb16a349596a516c908b8060f589], [1, 1, 1, 1], 0x00000000000000000000000000000000000000000000000000000000000000200000000000000000000000000000000000000000000000000000000000000025537570706f7274696e6720726f6c6573206272696e6720737461626c652070726f66697473000000000000000000000000000000000000000000000000000000, 0x3De278A5acdD0123eD668478ac8cCd2E178510BC)",
        "0x"
      ],
      "transaction": {
        "from": "0x1aa44c933a6718a4bc44064f0067a853c34be9b0",
        "to": "0xc01bbfc94c41f0d8fc242cfe8465ea4dcd4f20c5",
        "gas": "0x124ea4",
        "value": "0x0",
        "input": "0xd2f72136000000000000000000000000000000000000000000000000000000000000004000000000000000000000000000000000000000000000000000000000000002c00000000000000000000000007bcd278bb230ff014149ce32c5a9663812da981000000000000000000000000000000000000000000000000000000000000000a0000000000000000000000000000000000000000000000000000000000000014000000000000000000000000000000000000000000000000000000000000001e00000000000000000000000003de278a5acdd0123ed668478ac8ccd2e178510bc0000000000000000000000000000000000000000000000000000000000000004f9425f69ce7fbde7ee54887ea24b164d2d4c06b594c4d4f94b1921cd79321b19d6f28c879d79f518b1ac0aea7a3e9e012fb8c1431687791b6a1eb6569e9da853c960789d6eb636756453f1d2cc30718c8a0d0fe90eedec1c2c35fcc3bf34c10a18be3e38f5a3d92d7a556afe7fa59ab3b2e8fb16a349596a516c908b8060f58900000000000000000000000000000000000000000000000000000000000000040000000000000000000000000000000000000000000000000000000000000001000000000000000000000000000000000000000000000000000000000000000100000000000000000000000000000000000000000000000000000000000000010000000000000000000000000000000000000000000000000000000000000001000000000000000000000000000000000000000000000000000000000000008000000000000000000000000000000000000000000000000000000000000000200000000000000000000000000000000000000000000000000000000000000025537570706f7274696e6720726f6c6573206272696e6720737461626c652070726f666974730000000000000000000000000000000000000000000000000000000000000000000000000000000000000000000000000000000000000000000000",
        "nonce": "0xa7",
        "chainId": "0x89"
      },
      "additionalContracts": [
        {
          "transactionType": "CREATE2",
          "address": "0x8d378de544d2a9c2bc2014d3adf430f9585b16ab",
          "initCode": "0x6103ed3d81600a3d39f3363d3d373d3d3d363d737bcd278bb230ff014149ce32c5a9663812da98105af43d82803e903d91602b57fd5bf30000000000000000000000000000000000000000000000000000000000000020000000000000000000000000000000000000000000000000000000000000012000000000000000000000000000000000000000000000000000000000000001c000000000000000000000000000000000000000000000000000000000000002600000000000000000000000000000000000000000000000000000000000000300000000000000000000000000c01bbfc94c41f0d8fc242cfe8465ea4dcd4f20c50000000000000000000000004d97dcd97ec945f40cf65f87097ace5ea04760450000000000000000000000002791bca1f2de4661ed88a30c99a7a9449aa841740000000000000000000000007bcd278bb230ff014149ce32c5a9663812da98100000000000000000000000003de278a5acdd0123ed668478ac8ccd2e178510bc00000000000000000000000000000000000000000000000000000000000000045f5670e3ecc412d5eea6528f25fae759b0a9c1e46ea5ad70a06464f8f790c381c06b453fcf6f54e3b0e0779822457935923c102d703a5b0b40bf8174063eba17dd3247f551dff1aff9faaf9513e266aafa42deeebe96c684c54ee78230bf72b2ee45eb80bdc3b94cf430dff8a138db5e4d4435c19cec8585a337839364b351020000000000000000000000000000000000000000000000000000000000000004f9425f69ce7fbde7ee54887ea24b164d2d4c06b594c4d4f94b1921cd79321b19d6f28c879d79f518b1ac0aea7a3e9e012fb8c1431687791b6a1eb6569e9da853c960789d6eb636756453f1d2cc30718c8a0d0fe90eedec1c2c35fcc3bf34c10a18be3e38f5a3d92d7a556afe7fa59ab3b2e8fb16a349596a516c908b8060f58900000000000000000000000000000000000000000000000000000000000000040000000000000000000000000000000000000000000000000000000000000001000000000000000000000000000000000000000000000000000000000000000100000000000000000000000000000000000000000000000000000000000000010000000000000000000000000000000000000000000000000000000000000001000000000000000000000000000000000000000000000000000000000000008000000000000000000000000000000000000000000000000000000000000000200000000000000000000000000000000000000000000000000000000000000025537570706f7274696e6720726f6c6573206272696e6720737461626c652070726f66697473000000000000000000000000000000000000000000000000000000"
        }
      ],
      "isFixedGasLimit": false
    }
  ],
  "receipts": [
    {
      "status": "0x1",
      "cumulativeGasUsed": "0x8265a9",
      "logs": [
        {
          "address": "0x2791bca1f2de4661ed88a30c99a7a9449aa84174",
          "topics": [
            "0x8c5be1e5ebec7d5bd14f71427d1e84f3dd0314c0f7b2291e5b200ac8c7c3b925",
            "0x0000000000000000000000001aa44c933a6718a4bc44064f0067a853c34be9b0",
            "0x0000000000000000000000004d97dcd97ec945f40cf65f87097ace5ea0476045"
          ],
          "data": "0xffffffffffffffffffffffffffffffffffffffffffffffffffffffffffffffff",
          "blockHash": "0xad8684defa4e089e7fa221b0ffcb50df95b9b20462c8982099cfc89222dc8eb8",
          "blockNumber": "0x4444406",
          "transactionHash": "0xef603a9b35fef8788f610c08802efa4e8db48339aa8cae16d18c991c1f95e981",
          "transactionIndex": "0x2a",
          "logIndex": "0x136",
          "removed": false
        },
        {
          "address": "0x0000000000000000000000000000000000001010",
          "topics": [
            "0x4dfe1bbbcf077ddc3e01291eea2d5c70c2b422b415d95645b9adcfd678cb1d63",
            "0x0000000000000000000000000000000000000000000000000000000000001010",
            "0x0000000000000000000000001aa44c933a6718a4bc44064f0067a853c34be9b0",
            "0x0000000000000000000000009ead03f7136fc6b4bdb0780b00a1c14ae5a8b6d0"
          ],
          "data": "0x00000000000000000000000000000000000000000000000000041bb8b32018000000000000000000000000000000000000000000000000004feda44d19b6b24d000000000000000000000000000000000000000000000b5a59142ca269ded11e0000000000000000000000000000000000000000000000004fe9889466969a4d000000000000000000000000000000000000000000000b5a5918485b1cfee91e",
          "blockHash": "0xad8684defa4e089e7fa221b0ffcb50df95b9b20462c8982099cfc89222dc8eb8",
          "blockNumber": "0x4444406",
          "transactionHash": "0xef603a9b35fef8788f610c08802efa4e8db48339aa8cae16d18c991c1f95e981",
          "transactionIndex": "0x2a",
          "logIndex": "0x137",
          "removed": false
        }
      ],
      "logsBloom": "0x00000000000020000000000000000000000000000000000000000000000000000000000000000000000000000000000000008000000000000000000000200000000000000000000000000000000200800000000000000000000100000000000000000000000000000000000000000000000000000000000180000000000000000041000000040000000000001000000000000000000000000000000000000000220000000400000000000080000001000000000000000000000000000000004000000000000000000001000000000000000000000000000000120000000000000010008000000000000000000000000000000000000000000000000000100000",
      "type": "0x2",
      "transactionHash": "0xef603a9b35fef8788f610c08802efa4e8db48339aa8cae16d18c991c1f95e981",
      "transactionIndex": "0x2a",
      "blockHash": "0xad8684defa4e089e7fa221b0ffcb50df95b9b20462c8982099cfc89222dc8eb8",
      "blockNumber": "0x4444406",
      "gasUsed": "0x9692",
      "effectiveGasPrice": "0xafe80947d",
      "from": "0x1aa44c933a6718a4bc44064f0067a853c34be9b0",
      "to": "0x2791bca1f2de4661ed88a30c99a7a9449aa84174",
      "contractAddress": null
    },
    {
      "status": "0x1",
      "cumulativeGasUsed": "0x831955",
      "logs": [
        {
          "address": "0x4d97dcd97ec945f40cf65f87097ace5ea0476045",
          "topics": [
            "0x17307eab39ab6107e8899845ad3d59bd9653f200f220920489ca2b5937696c31",
            "0x0000000000000000000000001aa44c933a6718a4bc44064f0067a853c34be9b0",
            "0x000000000000000000000000c01bbfc94c41f0d8fc242cfe8465ea4dcd4f20c5"
          ],
          "data": "0x0000000000000000000000000000000000000000000000000000000000000001",
          "blockHash": "0xad8684defa4e089e7fa221b0ffcb50df95b9b20462c8982099cfc89222dc8eb8",
          "blockNumber": "0x4444406",
          "transactionHash": "0x2c5d5f950ca7cf95dfe022d16faeb036bbf5141d190a06108ddfb3df8e538293",
          "transactionIndex": "0x2b",
          "logIndex": "0x138",
          "removed": false
        },
        {
          "address": "0x0000000000000000000000000000000000001010",
          "topics": [
            "0x4dfe1bbbcf077ddc3e01291eea2d5c70c2b422b415d95645b9adcfd678cb1d63",
            "0x0000000000000000000000000000000000000000000000000000000000001010",
            "0x0000000000000000000000001aa44c933a6718a4bc44064f0067a853c34be9b0",
            "0x0000000000000000000000009ead03f7136fc6b4bdb0780b00a1c14ae5a8b6d0"
          ],
          "data": "0x0000000000000000000000000000000000000000000000000004e6fe593b90000000000000000000000000000000000000000000000000004fe72ce89d60c503000000000000000000000000000000000000000000000b5a5918485b1cfee91e0000000000000000000000000000000000000000000000004fe245ea44253503000000000000000000000000000000000000000000000b5a591d2f59763a791e",
          "blockHash": "0xad8684defa4e089e7fa221b0ffcb50df95b9b20462c8982099cfc89222dc8eb8",
          "blockNumber": "0x4444406",
          "transactionHash": "0x2c5d5f950ca7cf95dfe022d16faeb036bbf5141d190a06108ddfb3df8e538293",
          "transactionIndex": "0x2b",
          "logIndex": "0x139",
          "removed": false
        }
      ],
      "logsBloom": "0x00000000000020000000000000000000000000000000000000000000000040000000000000000000000000000000000000008000000000000000000000000000000000000000000000200000000000800000000000000000000100000000000002000000000000000000000000000000000000000000000080001000000000000040000000040000000000001000000000000000000000000000000000000000200000000000000000000080000000000000000000000000000000000000004000000000000000000001000000000000000004000000000000120000000000000000200800000000040000000000000000000000000000000000000000100000",
      "type": "0x2",
      "transactionHash": "0x2c5d5f950ca7cf95dfe022d16faeb036bbf5141d190a06108ddfb3df8e538293",
      "transactionIndex": "0x2b",
      "blockHash": "0xad8684defa4e089e7fa221b0ffcb50df95b9b20462c8982099cfc89222dc8eb8",
      "blockNumber": "0x4444406",
      "gasUsed": "0xb3ac",
      "effectiveGasPrice": "0xafe80947d",
      "from": "0x1aa44c933a6718a4bc44064f0067a853c34be9b0",
      "to": "0x4d97dcd97ec945f40cf65f87097ace5ea0476045",
      "contractAddress": null
    },
    {
      "status": "0x1",
      "cumulativeGasUsed": "0x905a61",
      "logs": [
        {
          "address": "0x4d97dcd97ec945f40cf65f87097ace5ea0476045",
          "topics": [
            "0x17307eab39ab6107e8899845ad3d59bd9653f200f220920489ca2b5937696c31",
            "0x0000000000000000000000008d378de544d2a9c2bc2014d3adf430f9585b16ab",
            "0x0000000000000000000000004d97dcd97ec945f40cf65f87097ace5ea0476045"
          ],
          "data": "0x0000000000000000000000000000000000000000000000000000000000000001",
          "blockHash": "0xad8684defa4e089e7fa221b0ffcb50df95b9b20462c8982099cfc89222dc8eb8",
          "blockNumber": "0x4444406",
          "transactionHash": "0xe860954256e32407fcb7134eae7ddbd254a6e0c739cb40aa1264c517221d0b2b",
          "transactionIndex": "0x2c",
          "logIndex": "0x13a",
          "removed": false
        },
        {
          "address": "0x2791bca1f2de4661ed88a30c99a7a9449aa84174",
          "topics": [
            "0x8c5be1e5ebec7d5bd14f71427d1e84f3dd0314c0f7b2291e5b200ac8c7c3b925",
            "0x0000000000000000000000008d378de544d2a9c2bc2014d3adf430f9585b16ab",
            "0x0000000000000000000000004d97dcd97ec945f40cf65f87097ace5ea0476045"
          ],
          "data": "0xffffffffffffffffffffffffffffffffffffffffffffffffffffffffffffffff",
          "blockHash": "0xad8684defa4e089e7fa221b0ffcb50df95b9b20462c8982099cfc89222dc8eb8",
          "blockNumber": "0x4444406",
          "transactionHash": "0xe860954256e32407fcb7134eae7ddbd254a6e0c739cb40aa1264c517221d0b2b",
          "transactionIndex": "0x2c",
          "logIndex": "0x13b",
          "removed": false
        },
        {
          "address": "0xc01bbfc94c41f0d8fc242cfe8465ea4dcd4f20c5",
          "topics": [
            "0x750538103f64f9b5e2db539e5c1f7552a63aa9e68e07396b2b4b58f7cfef18ab",
            "0x0000000000000000000000008d378de544d2a9c2bc2014d3adf430f9585b16ab"
          ],
          "data": "0x000000000000000000000000000000000000000000000000000000000000004000000000000000000000000000000000000000000000000000000000000000e000000000000000000000000000000000000000000000000000000000000000045f5670e3ecc412d5eea6528f25fae759b0a9c1e46ea5ad70a06464f8f790c381c06b453fcf6f54e3b0e0779822457935923c102d703a5b0b40bf8174063eba17dd3247f551dff1aff9faaf9513e266aafa42deeebe96c684c54ee78230bf72b2ee45eb80bdc3b94cf430dff8a138db5e4d4435c19cec8585a337839364b35102000000000000000000000000000000000000000000000000000000000000008000000000000000000000000000000000000000000000000000000000000000200000000000000000000000000000000000000000000000000000000000000025537570706f7274696e6720726f6c6573206272696e6720737461626c652070726f66697473000000000000000000000000000000000000000000000000000000",
          "blockHash": "0xad8684defa4e089e7fa221b0ffcb50df95b9b20462c8982099cfc89222dc8eb8",
          "blockNumber": "0x4444406",
          "transactionHash": "0xe860954256e32407fcb7134eae7ddbd254a6e0c739cb40aa1264c517221d0b2b",
          "transactionIndex": "0x2c",
          "logIndex": "0x13c",
          "removed": false
        },
        {
          "address": "0x0000000000000000000000000000000000001010",
          "topics": [
            "0x4dfe1bbbcf077ddc3e01291eea2d5c70c2b422b415d95645b9adcfd678cb1d63",
            "0x0000000000000000000000000000000000000000000000000000000000001010",
            "0x0000000000000000000000001aa44c933a6718a4bc44064f0067a853c34be9b0",
            "0x0000000000000000000000009ead03f7136fc6b4bdb0780b00a1c14ae5a8b6d0"
          ],
          "data": "0x000000000000000000000000000000000000000000000000005c94289c5810000000000000000000000000000000000000000000000000004fdf7591b7299a07000000000000000000000000000000000000000000000b5a591d2f59763a791e0000000000000000000000000000000000000000000000004f82e1691ad18a07000000000000000000000000000000000000000000000b5a5979c3821292891e",
          "blockHash": "0xad8684defa4e089e7fa221b0ffcb50df95b9b20462c8982099cfc89222dc8eb8",
          "blockNumber": "0x4444406",
          "transactionHash": "0xe860954256e32407fcb7134eae7ddbd254a6e0c739cb40aa1264c517221d0b2b",
          "transactionIndex": "0x2c",
          "logIndex": "0x13d",
          "removed": false
        }
      ],
      "logsBloom": "0x00000000000020000000000000000000000000000000000000000000000040000000000000000000000000000000000010008000000000000000000000200000000000004000000000000000000200800000000000000000020100000000000002000040000000000000000000000000000000000000000180000000000000000041000000040000000001001000000000001000000000000000000000000000220000000400000000000080000001000000000004000000000000000000004000000000000000000001000000000000000004000000000000120000000000000010208800000000040000000000000000000000100000000000000000100000",
      "type": "0x2",
      "transactionHash": "0xe860954256e32407fcb7134eae7ddbd254a6e0c739cb40aa1264c517221d0b2b",
      "transactionIndex": "0x2c",
      "blockHash": "0xad8684defa4e089e7fa221b0ffcb50df95b9b20462c8982099cfc89222dc8eb8",
      "blockNumber": "0x4444406",
      "gasUsed": "0xd410c",
      "effectiveGasPrice": "0xafe80947d",
      "from": "0x1aa44c933a6718a4bc44064f0067a853c34be9b0",
      "to": "0xc01bbfc94c41f0d8fc242cfe8465ea4dcd4f20c5",
      "contractAddress": null
    }
  ],
  "libraries": [],
  "pending": [],
  "returns": {},
  "timestamp": 1747389779,
  "chain": 137,
  "commit": "d6a2b0f"
}