{
  "transactions": [
    {
      "hash": "0x7279bbd4eeec0ed2265c143ac5949f4fd12b1ce7531490973b20deabe4b907d0",
      "transactionType": "CALL",
      "contractName": null,
      "contractAddress": "0x2791bca1f2de4661ed88a30c99a7a9449aa84174",
      "function": "approve(address,uint256)",
      "arguments": [
        "0x4D97DCd97eC945f40cF65F87097ACe5EA0476045",
        "115792089237316195423570985008687907853269984665640564039457584007913129639935"
      ],
      "transaction": {
        "from": "0x1aa44c933a6718a4bc44064f0067a853c34be9b0",
        "to": "0x2791bca1f2de4661ed88a30c99a7a9449aa84174",
        "gas": "0xdc35",
        "value": "0x0",
        "input": "0x095ea7b30000000000000000000000004d97dcd97ec945f40cf65f87097ace5ea0476045ffffffffffffffffffffffffffffffffffffffffffffffffffffffffffffffff",
        "nonce": "0x9c",
        "chainId": "0x89"
      },
      "additionalContracts": [],
      "isFixedGasLimit": false
    },
    {
      "hash": "0x11477f4f6e2982566b0f829fce9be8bf5fd4f54e6dcf5f3874161a2bef611f85",
      "transactionType": "CALL",
      "contractName": null,
      "contractAddress": "0x4d97dcd97ec945f40cf65f87097ace5ea0476045",
      "function": "setApprovalForAll(address,bool)",
      "arguments": [
        "0xdFF72D1e74B6EDEB7a4f413099bf300F08EDca53",
        "true"
      ],
      "transaction": {
        "from": "0x1aa44c933a6718a4bc44064f0067a853c34be9b0",
        "to": "0x4d97dcd97ec945f40cf65f87097ace5ea0476045",
        "gas": "0x8ccd",
        "value": "0x0",
        "input": "0xa22cb465000000000000000000000000dff72d1e74b6edeb7a4f413099bf300f08edca530000000000000000000000000000000000000000000000000000000000000001",
        "nonce": "0x9d",
        "chainId": "0x89"
      },
      "additionalContracts": [],
      "isFixedGasLimit": false
    },
    {
      "hash": "0xb9010db897e25d405e6ca2a91bb75bf896b1126f53c312b58db2cd77fc1e51ab",
      "transactionType": "CALL",
      "contractName": null,
      "contractAddress": "0xdff72d1e74b6edeb7a4f413099bf300f08edca53",
      "function": "createIndex((address,bytes32[],uint256[],bytes,address),bytes)",
      "arguments": [
        "(0xB36983B6BE8b57d6b1708B7ddE3143994Fe38Ae1, [0xf9425f69ce7fbde7ee54887ea24b164d2d4c06b594c4d4f94b1921cd79321b19, 0xd6f28c879d79f518b1ac0aea7a3e9e012fb8c1431687791b6a1eb6569e9da853, 0xc960789d6eb636756453f1d2cc30718c8a0d0fe90eedec1c2c35fcc3bf34c10a, 0x18be3e38f5a3d92d7a556afe7fa59ab3b2e8fb16a349596a516c908b8060f589], [1, 1, 1, 1], 0x00000000000000000000000000000000000000000000000000000000000000200000000000000000000000000000000000000000000000000000000000000025537570706f7274696e6720726f6c6573206272696e6720737461626c652070726f66697473000000000000000000000000000000000000000000000000000000, 0xc3729382af2D1A7347537A3882E48E0d6Fc3Bc5F)",
        "0x"
      ],
      "transaction": {
        "from": "0x1aa44c933a6718a4bc44064f0067a853c34be9b0",
        "to": "0xdff72d1e74b6edeb7a4f413099bf300f08edca53",
        "gas": "0x22ea6",
        "value": "0x0",
        "input": "0xd2f72136000000000000000000000000000000000000000000000000000000000000004000000000000000000000000000000000000000000000000000000000000002c0000000000000000000000000b36983b6be8b57d6b1708b7dde3143994fe38ae100000000000000000000000000000000000000000000000000000000000000a0000000000000000000000000000000000000000000000000000000000000014000000000000000000000000000000000000000000000000000000000000001e0000000000000000000000000c3729382af2d1a7347537a3882e48e0d6fc3bc5f0000000000000000000000000000000000000000000000000000000000000004f9425f69ce7fbde7ee54887ea24b164d2d4c06b594c4d4f94b1921cd79321b19d6f28c879d79f518b1ac0aea7a3e9e012fb8c1431687791b6a1eb6569e9da853c960789d6eb636756453f1d2cc30718c8a0d0fe90eedec1c2c35fcc3bf34c10a18be3e38f5a3d92d7a556afe7fa59ab3b2e8fb16a349596a516c908b8060f58900000000000000000000000000000000000000000000000000000000000000040000000000000000000000000000000000000000000000000000000000000001000000000000000000000000000000000000000000000000000000000000000100000000000000000000000000000000000000000000000000000000000000010000000000000000000000000000000000000000000000000000000000000001000000000000000000000000000000000000000000000000000000000000008000000000000000000000000000000000000000000000000000000000000000200000000000000000000000000000000000000000000000000000000000000025537570706f7274696e6720726f6c6573206272696e6720737461626c652070726f666974730000000000000000000000000000000000000000000000000000000000000000000000000000000000000000000000000000000000000000000000",
        "nonce": "0x9e",
        "chainId": "0x89"
      },
      "additionalContracts": [],
      "isFixedGasLimit": false
    }
  ],
  "receipts": [
    {
      "status": "0x1",
      "cumulativeGasUsed": "0xa7eeda",
      "logs": [
        {
          "address": "0x2791bca1f2de4661ed88a30c99a7a9449aa84174",
          "topics": [
            "0x8c5be1e5ebec7d5bd14f71427d1e84f3dd0314c0f7b2291e5b200ac8c7c3b925",
            "0x0000000000000000000000001aa44c933a6718a4bc44064f0067a853c34be9b0",
            "0x0000000000000000000000004d97dcd97ec945f40cf65f87097ace5ea0476045"
          ],
          "data": "0xffffffffffffffffffffffffffffffffffffffffffffffffffffffffffffffff",
          "blockHash": "0xd412fcc15a8f5f910b3102ccb2b74a0943efb0730f14db4d7cd50a3c2dc99e4a",
          "blockNumber": "0x4444150",
          "transactionHash": "0x7279bbd4eeec0ed2265c143ac5949f4fd12b1ce7531490973b20deabe4b907d0",
          "transactionIndex": "0x4f",
          "logIndex": "0x178",
          "removed": false
        },
        {
          "address": "0x0000000000000000000000000000000000001010",
          "topics": [
            "0x4dfe1bbbcf077ddc3e01291eea2d5c70c2b422b415d95645b9adcfd678cb1d63",
            "0x0000000000000000000000000000000000000000000000000000000000001010",
            "0x0000000000000000000000001aa44c933a6718a4bc44064f0067a853c34be9b0",
            "0x000000000000000000000000a8b52f02108aa5f4b675bdcc973760022d7c6020"
          ],
          "data": "0x0000000000000000000000000000000000000000000000000003bd64f1fd96300000000000000000000000000000000000000000000000005521624a9cc6c45200000000000000000000000000000000000000000000000719b546c5b27a207d000000000000000000000000000000000000000000000000551da4e5aac92e2200000000000000000000000000000000000000000000000719b9042aa477b6ad",
          "blockHash": "0xd412fcc15a8f5f910b3102ccb2b74a0943efb0730f14db4d7cd50a3c2dc99e4a",
          "blockNumber": "0x4444150",
          "transactionHash": "0x7279bbd4eeec0ed2265c143ac5949f4fd12b1ce7531490973b20deabe4b907d0",
          "transactionIndex": "0x4f",
          "logIndex": "0x179",
          "removed": false
        }
      ],
      "logsBloom": "0x00000000000020000000000000000000000000000000000000000000000000000000000000000000000000000002000000008000000000000000000000200000000000000000000000000000000200800000000000000000000100000000000000000000000000000000000000000000000000000000000180000000000000000001000000000000000000001000000000000000000000040000000000000000220000000400004000000080000001000000000000000000000000000000004000000000000000000001000000000000000000000000000000100000000000000010008000000000000000000000000000000000000000000000000000100000",
      "type": "0x2",
      "transactionHash": "0x7279bbd4eeec0ed2265c143ac5949f4fd12b1ce7531490973b20deabe4b907d0",
      "transactionIndex": "0x4f",
      "blockHash": "0xd412fcc15a8f5f910b3102ccb2b74a0943efb0730f14db4d7cd50a3c2dc99e4a",
      "blockNumber": "0x4444150",
      "gasUsed": "0x9692",
      "effectiveGasPrice": "0x93da58927",
      "from": "0x1aa44c933a6718a4bc44064f0067a853c34be9b0",
      "to": "0x2791bca1f2de4661ed88a30c99a7a9449aa84174",
      "contractAddress": null
    },
    {
      "status": "0x1",
      "cumulativeGasUsed": "0xa854ca",
      "logs": [
        {
          "address": "0x4d97dcd97ec945f40cf65f87097ace5ea0476045",
          "topics": [
            "0x17307eab39ab6107e8899845ad3d59bd9653f200f220920489ca2b5937696c31",
            "0x0000000000000000000000001aa44c933a6718a4bc44064f0067a853c34be9b0",
            "0x000000000000000000000000dff72d1e74b6edeb7a4f413099bf300f08edca53"
          ],
          "data": "0x0000000000000000000000000000000000000000000000000000000000000001",
          "blockHash": "0xd412fcc15a8f5f910b3102ccb2b74a0943efb0730f14db4d7cd50a3c2dc99e4a",
          "blockNumber": "0x4444150",
          "transactionHash": "0x11477f4f6e2982566b0f829fce9be8bf5fd4f54e6dcf5f3874161a2bef611f85",
          "transactionIndex": "0x50",
          "logIndex": "0x17a",
          "removed": false
        },
        {
          "address": "0x0000000000000000000000000000000000001010",
          "topics": [
            "0x4dfe1bbbcf077ddc3e01291eea2d5c70c2b422b415d95645b9adcfd678cb1d63",
            "0x0000000000000000000000000000000000000000000000000000000000001010",
            "0x0000000000000000000000001aa44c933a6718a4bc44064f0067a853c34be9b0",
            "0x000000000000000000000000a8b52f02108aa5f4b675bdcc973760022d7c6020"
          ],
          "data": "0x0000000000000000000000000000000000000000000000000002882a33456a80000000000000000000000000000000000000000000000000551bf2e67601b21400000000000000000000000000000000000000000000000719b9042aa477b6ad00000000000000000000000000000000000000000000000055196abc42bc479400000000000000000000000000000000000000000000000719bb8c54d7bd212d",
          "blockHash": "0xd412fcc15a8f5f910b3102ccb2b74a0943efb0730f14db4d7cd50a3c2dc99e4a",
          "blockNumber": "0x4444150",
          "transactionHash": "0x11477f4f6e2982566b0f829fce9be8bf5fd4f54e6dcf5f3874161a2bef611f85",
          "transactionIndex": "0x50",
          "logIndex": "0x17b",
          "removed": false
        }
      ],
      "logsBloom": "0x00000000000020000000000000000000000000000000000000000000000040000000000000000000000000000002000000008000000000000000400000000000000000000000000000000000000000800000000000000000000100000000000002000000000000000000000000000000000000000000000080000000000000000000000000000000000000001000400000000000000000040000000000000000200000000000004000000080000000000000000000000000000000000000004000000000000000000001000004000000000004000000000000100000000000000000200800000000040000000000000000000000000000000000000000100000",
      "type": "0x2",
      "transactionHash": "0x11477f4f6e2982566b0f829fce9be8bf5fd4f54e6dcf5f3874161a2bef611f85",
      "transactionIndex": "0x50",
      "blockHash": "0xd412fcc15a8f5f910b3102ccb2b74a0943efb0730f14db4d7cd50a3c2dc99e4a",
      "blockNumber": "0x4444150",
      "gasUsed": "0x65f0",
      "effectiveGasPrice": "0x93da58927",
      "from": "0x1aa44c933a6718a4bc44064f0067a853c34be9b0",
      "to": "0x4d97dcd97ec945f40cf65f87097ace5ea0476045",
      "contractAddress": null
    },
    {
      "status": "0x1",
      "cumulativeGasUsed": "0xa9e93e",
      "logs": [
        {
          "address": "0x0000000000000000000000000000000000001010",
          "topics": [
            "0x4dfe1bbbcf077ddc3e01291eea2d5c70c2b422b415d95645b9adcfd678cb1d63",
            "0x0000000000000000000000000000000000000000000000000000000000001010",
            "0x0000000000000000000000001aa44c933a6718a4bc44064f0067a853c34be9b0",
            "0x000000000000000000000000a8b52f02108aa5f4b675bdcc973760022d7c6020"
          ],
          "data": "0x000000000000000000000000000000000000000000000000000a0bb24434cfe0000000000000000000000000000000000000000000000000551844ea5bb4ba8400000000000000000000000000000000000000000000000719bb8c54d7bd212d000000000000000000000000000000000000000000000000550e3938177feaa400000000000000000000000000000000000000000000000719c598071bf1f10d",
          "blockHash": "0xd412fcc15a8f5f910b3102ccb2b74a0943efb0730f14db4d7cd50a3c2dc99e4a",
          "blockNumber": "0x4444150",
          "transactionHash": "0xb9010db897e25d405e6ca2a91bb75bf896b1126f53c312b58db2cd77fc1e51ab",
          "transactionIndex": "0x51",
          "logIndex": "0x17c",
          "removed": false
        }
      ],
      "logsBloom": "0x00000000000020000000000000000000000000000000000000000000000000000000000000000000000000000002000000008000000000000000000000000000000000000000000000000000000000800000000000000000000100000000000000000000000000000000000000000000000000000000000080000000000000000000000000000000000000001000000000000000000000040000000000000000200000000000004000000080000000000000000000000000000000000000004000000000000000000001000000000000000000000000000000100000000000000000000000000000000000000000000000000000000000000000000000100000",
      "type": "0x2",
      "transactionHash": "0xb9010db897e25d405e6ca2a91bb75bf896b1126f53c312b58db2cd77fc1e51ab",
      "transactionIndex": "0x51",
      "blockHash": "0xd412fcc15a8f5f910b3102ccb2b74a0943efb0730f14db4d7cd50a3c2dc99e4a",
      "blockNumber": "0x4444150",
      "gasUsed": "0x19474",
      "effectiveGasPrice": "0x93da58927",
      "from": "0x1aa44c933a6718a4bc44064f0067a853c34be9b0",
      "to": "0xdff72d1e74b6edeb7a4f413099bf300f08edca53",
      "contractAddress": null
    }
  ],
  "libraries": [],
  "pending": [],
  "returns": {},
  "timestamp": 1747388308,
  "chain": 137,
  "commit": "d6a2b0f"
}