{
  "transactions": [
    {
      "hash": "0x9aff64a69f9ce8a7dc9693f651b42531d96aef6db089d0b960a3c5f08435f62b",
      "transactionType": "CALL",
      "contractName": null,
      "contractAddress": "0x2791bca1f2de4661ed88a30c99a7a9449aa84174",
      "function": "approve(address,uint256)",
      "arguments": [
        "0x4D97DCd97eC945f40cF65F87097ACe5EA0476045",
        "115792089237316195423570985008687907853269984665640564039457584007913129639935"
      ],
      "transaction": {
        "from": "0x1aa44c933a6718a4bc44064f0067a853c34be9b0",
        "to": "0x2791bca1f2de4661ed88a30c99a7a9449aa84174",
        "gas": "0x13b57",
        "value": "0x0",
        "input": "0x095ea7b30000000000000000000000004d97dcd97ec945f40cf65f87097ace5ea0476045ffffffffffffffffffffffffffffffffffffffffffffffffffffffffffffffff",
        "nonce": "0x45",
        "chainId": "0x89"
      },
      "additionalContracts": [],
      "isFixedGasLimit": false
    },
    {
      "hash": "0x717d7da82c055c9482f9395651da0232fa2e1cdaf49727351f6ab69f47349565",
      "transactionType": "CALL",
      "contractName": null,
      "contractAddress": "0x4d97dcd97ec945f40cf65f87097ace5ea0476045",
      "function": "splitPosition(address,bytes32,bytes32,uint256[],uint256)",
      "arguments": [
        "0x2791Bca1f2de4661ED88A30C99A7a9449Aa84174",
        "0x0000000000000000000000000000000000000000000000000000000000000000",
        "0x3cade829b69b30436629ac0c2494d475211ba6f7e00e192a920653ba00b7db36",
        "[1, 2]",
        "5000000"
      ],
      "transaction": {
        "from": "0x1aa44c933a6718a4bc44064f0067a853c34be9b0",
        "to": "0x4d97dcd97ec945f40cf65f87097ace5ea0476045",
        "gas": "0x31c19",
        "value": "0x0",
        "input": "0x72ce42750000000000000000000000002791bca1f2de4661ed88a30c99a7a9449aa8417400000000000000000000000000000000000000000000000000000000000000003cade829b69b30436629ac0c2494d475211ba6f7e00e192a920653ba00b7db3600000000000000000000000000000000000000000000000000000000000000a000000000000000000000000000000000000000000000000000000000004c4b40000000000000000000000000000000000000000000000000000000000000000200000000000000000000000000000000000000000000000000000000000000010000000000000000000000000000000000000000000000000000000000000002",
        "nonce": "0x46",
        "chainId": "0x89"
      },
      "additionalContracts": [],
      "isFixedGasLimit": false
    },
    {
      "hash": "0x59d0b4f5cee0a25469cd32fb9d5ec031f789f4b1a957b5cbfd22902bf2ed3714",
      "transactionType": "CALL",
      "contractName": null,
      "contractAddress": "0x4d97dcd97ec945f40cf65f87097ace5ea0476045",
      "function": "splitPosition(address,bytes32,bytes32,uint256[],uint256)",
      "arguments": [
        "0x2791Bca1f2de4661ED88A30C99A7a9449Aa84174",
        "0x0000000000000000000000000000000000000000000000000000000000000000",
        "0x553728bcacf78928f84c20141df3927eba4e76846d67db8d354a111619501a6b",
        "[1, 2]",
        "5000000"
      ],
      "transaction": {
        "from": "0x1aa44c933a6718a4bc44064f0067a853c34be9b0",
        "to": "0x4d97dcd97ec945f40cf65f87097ace5ea0476045",
        "gas": "0x2f415",
        "value": "0x0",
        "input": "0x72ce42750000000000000000000000002791bca1f2de4661ed88a30c99a7a9449aa841740000000000000000000000000000000000000000000000000000000000000000553728bcacf78928f84c20141df3927eba4e76846d67db8d354a111619501a6b00000000000000000000000000000000000000000000000000000000000000a000000000000000000000000000000000000000000000000000000000004c4b40000000000000000000000000000000000000000000000000000000000000000200000000000000000000000000000000000000000000000000000000000000010000000000000000000000000000000000000000000000000000000000000002",
        "nonce": "0x47",
        "chainId": "0x89"
      },
      "additionalContracts": [],
      "isFixedGasLimit": false
    },
    {
      "hash": "0x26a538a9e23c1dec3f6809d6edc2bf5a561ce0f7b8d70c14e4783d3be540588d",
      "transactionType": "CALL",
      "contractName": null,
      "contractAddress": "0x4d97dcd97ec945f40cf65f87097ace5ea0476045",
      "function": "splitPosition(address,bytes32,bytes32,uint256[],uint256)",
      "arguments": [
        "0x2791Bca1f2de4661ED88A30C99A7a9449Aa84174",
        "0x0000000000000000000000000000000000000000000000000000000000000000",
        "0x354b6793f25222186de8d3c9ca1e444e71a6d7b7db276bf1aa50b95b8d47cb65",
        "[1, 2]",
        "5000000"
      ],
      "transaction": {
        "from": "0x1aa44c933a6718a4bc44064f0067a853c34be9b0",
        "to": "0x4d97dcd97ec945f40cf65f87097ace5ea0476045",
        "gas": "0x2f63a",
        "value": "0x0",
        "input": "0x72ce42750000000000000000000000002791bca1f2de4661ed88a30c99a7a9449aa841740000000000000000000000000000000000000000000000000000000000000000354b6793f25222186de8d3c9ca1e444e71a6d7b7db276bf1aa50b95b8d47cb6500000000000000000000000000000000000000000000000000000000000000a000000000000000000000000000000000000000000000000000000000004c4b40000000000000000000000000000000000000000000000000000000000000000200000000000000000000000000000000000000000000000000000000000000010000000000000000000000000000000000000000000000000000000000000002",
        "nonce": "0x48",
        "chainId": "0x89"
      },
      "additionalContracts": [],
      "isFixedGasLimit": false
    },
    {
      "hash": "0x8bd8da2b9cc8acdf69502fb1f2dc793fbe34f32422219aa5db184a7d762f1c47",
      "transactionType": "CALL",
      "contractName": null,
      "contractAddress": "0x4d97dcd97ec945f40cf65f87097ace5ea0476045",
      "function": "splitPosition(address,bytes32,bytes32,uint256[],uint256)",
      "arguments": [
        "0x2791Bca1f2de4661ED88A30C99A7a9449Aa84174",
        "0x0000000000000000000000000000000000000000000000000000000000000000",
        "0x5bf33c43674b2bc7452acca8d971ff8a84ccee5fbce29b9d4b75f8f895aa52c2",
        "[1, 2]",
        "5000000"
      ],
      "transaction": {
        "from": "0x1aa44c933a6718a4bc44064f0067a853c34be9b0",
        "to": "0x4d97dcd97ec945f40cf65f87097ace5ea0476045",
        "gas": "0x31c04",
        "value": "0x0",
        "input": "0x72ce42750000000000000000000000002791bca1f2de4661ed88a30c99a7a9449aa8417400000000000000000000000000000000000000000000000000000000000000005bf33c43674b2bc7452acca8d971ff8a84ccee5fbce29b9d4b75f8f895aa52c200000000000000000000000000000000000000000000000000000000000000a000000000000000000000000000000000000000000000000000000000004c4b40000000000000000000000000000000000000000000000000000000000000000200000000000000000000000000000000000000000000000000000000000000010000000000000000000000000000000000000000000000000000000000000002",
        "nonce": "0x49",
        "chainId": "0x89"
      },
      "additionalContracts": [],
      "isFixedGasLimit": false
    }
  ],
  "receipts": [
    {
      "status": "0x1",
      "cumulativeGasUsed": "0x7ca3a1",
      "logs": [
        {
          "address": "0x2791bca1f2de4661ed88a30c99a7a9449aa84174",
          "topics": [
            "0x8c5be1e5ebec7d5bd14f71427d1e84f3dd0314c0f7b2291e5b200ac8c7c3b925",
            "0x0000000000000000000000001aa44c933a6718a4bc44064f0067a853c34be9b0",
            "0x0000000000000000000000004d97dcd97ec945f40cf65f87097ace5ea0476045"
          ],
          "data": "0xffffffffffffffffffffffffffffffffffffffffffffffffffffffffffffffff",
          "blockHash": "0x323699646efd8c51083053547aedf4bf5d8a4cf78a4c1dcfb65d606c7621db24",
          "blockNumber": "0x443e5d8",
          "transactionHash": "0x9aff64a69f9ce8a7dc9693f651b42531d96aef6db089d0b960a3c5f08435f62b",
          "transactionIndex": "0x38",
          "logIndex": "0x152",
          "removed": false
        },
        {
          "address": "0x0000000000000000000000000000000000001010",
          "topics": [
            "0x4dfe1bbbcf077ddc3e01291eea2d5c70c2b422b415d95645b9adcfd678cb1d63",
            "0x0000000000000000000000000000000000000000000000000000000000001010",
            "0x0000000000000000000000001aa44c933a6718a4bc44064f0067a853c34be9b0",
            "0x000000000000000000000000ce7fcb674ba27a952c71061b649fb5a5746f3b2b"
          ],
          "data": "0x00000000000000000000000000000000000000000000000000063a5efe877ac600000000000000000000000000000000000000000000000075e5e22ebd2f2ef4000000000000000000000000000000000000000000001d407833c23e10b0060d00000000000000000000000000000000000000000000000075dfa7cfbea7b42e000000000000000000000000000000000000000000001d407839fc9d0f3780d3",
          "blockHash": "0x323699646efd8c51083053547aedf4bf5d8a4cf78a4c1dcfb65d606c7621db24",
          "blockNumber": "0x443e5d8",
          "transactionHash": "0x9aff64a69f9ce8a7dc9693f651b42531d96aef6db089d0b960a3c5f08435f62b",
          "transactionIndex": "0x38",
          "logIndex": "0x153",
          "removed": false
        }
      ],
      "logsBloom": "0x00000000000020000000000000000000000000000000000000000000000000000000000000000000000000000000000000008000000000000000000000200000000000000000000000000000000200800000000000000000000120000000000000000000000000000000000000000000000000000000000180000000000000000001000000000000000000001080000000000000000000000000000000000000220000000400000000000080000001000000000000000000000000000000004000000000004000000001000000000000000000000000000000100000000000000010008000000000000000000000000000000000000000000000000000100000",
      "type": "0x2",
      "transactionHash": "0x9aff64a69f9ce8a7dc9693f651b42531d96aef6db089d0b960a3c5f08435f62b",
      "transactionIndex": "0x38",
      "blockHash": "0x323699646efd8c51083053547aedf4bf5d8a4cf78a4c1dcfb65d606c7621db24",
      "blockNumber": "0x443e5d8",
      "gasUsed": "0xe44e",
      "effectiveGasPrice": "0x6fbc93b67",
      "from": "0x1aa44c933a6718a4bc44064f0067a853c34be9b0",
      "to": "0x2791bca1f2de4661ed88a30c99a7a9449aa84174",
      "contractAddress": null
    },
    {
      "status": "0x1",
      "cumulativeGasUsed": "0x7ee3fe",
      "logs": [
        {
          "address": "0x2791bca1f2de4661ed88a30c99a7a9449aa84174",
          "topics": [
            "0xddf252ad1be2c89b69c2b068fc378daa952ba7f163c4a11628f55a4df523b3ef",
            "0x0000000000000000000000001aa44c933a6718a4bc44064f0067a853c34be9b0",
            "0x0000000000000000000000004d97dcd97ec945f40cf65f87097ace5ea0476045"
          ],
          "data": "0x00000000000000000000000000000000000000000000000000000000004c4b40",
          "blockHash": "0x323699646efd8c51083053547aedf4bf5d8a4cf78a4c1dcfb65d606c7621db24",
          "blockNumber": "0x443e5d8",
          "transactionHash": "0x717d7da82c055c9482f9395651da0232fa2e1cdaf49727351f6ab69f47349565",
          "transactionIndex": "0x39",
          "logIndex": "0x154",
          "removed": false
        },
        {
          "address": "0x2791bca1f2de4661ed88a30c99a7a9449aa84174",
          "topics": [
            "0x8c5be1e5ebec7d5bd14f71427d1e84f3dd0314c0f7b2291e5b200ac8c7c3b925",
            "0x0000000000000000000000001aa44c933a6718a4bc44064f0067a853c34be9b0",
            "0x0000000000000000000000004d97dcd97ec945f40cf65f87097ace5ea0476045"
          ],
          "data": "0xffffffffffffffffffffffffffffffffffffffffffffffffffffffffffb3b4bf",
          "blockHash": "0x323699646efd8c51083053547aedf4bf5d8a4cf78a4c1dcfb65d606c7621db24",
          "blockNumber": "0x443e5d8",
          "transactionHash": "0x717d7da82c055c9482f9395651da0232fa2e1cdaf49727351f6ab69f47349565",
          "transactionIndex": "0x39",
          "logIndex": "0x155",
          "removed": false
        },
        {
          "address": "0x4d97dcd97ec945f40cf65f87097ace5ea0476045",
          "topics": [
            "0x4a39dc06d4c0dbc64b70af90fd698a233a518aa5d07e595d983b8c0526c8f7fb",
            "0x0000000000000000000000001aa44c933a6718a4bc44064f0067a853c34be9b0",
            "0x0000000000000000000000000000000000000000000000000000000000000000",
            "0x0000000000000000000000001aa44c933a6718a4bc44064f0067a853c34be9b0"
          ],
          "data": "0x000000000000000000000000000000000000000000000000000000000000004000000000000000000000000000000000000000000000000000000000000000a00000000000000000000000000000000000000000000000000000000000000002f3eb7f4cd29dc80955819251ae49aae29ec5d4a4a9f1b19b1bfb87edd55206907bfc2a104e5c430be513e7d7d4a9792b6df8c227f4df2c741542b1942a1605d1000000000000000000000000000000000000000000000000000000000000000200000000000000000000000000000000000000000000000000000000004c4b4000000000000000000000000000000000000000000000000000000000004c4b40",
          "blockHash": "0x323699646efd8c51083053547aedf4bf5d8a4cf78a4c1dcfb65d606c7621db24",
          "blockNumber": "0x443e5d8",
          "transactionHash": "0x717d7da82c055c9482f9395651da0232fa2e1cdaf49727351f6ab69f47349565",
          "transactionIndex": "0x39",
          "logIndex": "0x156",
          "removed": false
        },
        {
          "address": "0x4d97dcd97ec945f40cf65f87097ace5ea0476045",
          "topics": [
            "0x2e6bb91f8cbcda0c93623c54d0403a43514fabc40084ec96b6d5379a74786298",
            "0x0000000000000000000000001aa44c933a6718a4bc44064f0067a853c34be9b0",
            "0x0000000000000000000000000000000000000000000000000000000000000000",
            "0x3cade829b69b30436629ac0c2494d475211ba6f7e00e192a920653ba00b7db36"
          ],
          "data": "0x0000000000000000000000002791bca1f2de4661ed88a30c99a7a9449aa84174000000000000000000000000000000000000000000000000000000000000006000000000000000000000000000000000000000000000000000000000004c4b40000000000000000000000000000000000000000000000000000000000000000200000000000000000000000000000000000000000000000000000000000000010000000000000000000000000000000000000000000000000000000000000002",
          "blockHash": "0x323699646efd8c51083053547aedf4bf5d8a4cf78a4c1dcfb65d606c7621db24",
          "blockNumber": "0x443e5d8",
          "transactionHash": "0x717d7da82c055c9482f9395651da0232fa2e1cdaf49727351f6ab69f47349565",
          "transactionIndex": "0x39",
          "logIndex": "0x157",
          "removed": false
        },
        {
          "address": "0x0000000000000000000000000000000000001010",
          "topics": [
            "0x4dfe1bbbcf077ddc3e01291eea2d5c70c2b422b415d95645b9adcfd678cb1d63",
            "0x0000000000000000000000000000000000000000000000000000000000001010",
            "0x0000000000000000000000001aa44c933a6718a4bc44064f0067a853c34be9b0",
            "0x000000000000000000000000ce7fcb674ba27a952c71061b649fb5a5746f3b2b"
          ],
          "data": "0x000000000000000000000000000000000000000000000000000fb90bdb9b60b100000000000000000000000000000000000000000000000075dfa7ceccf75992000000000000000000000000000000000000000000001d407839fc9d0f3780d300000000000000000000000000000000000000000000000075cfeec2f15bf8e1000000000000000000000000000000000000000000001d407849b5a8ead2e184",
          "blockHash": "0x323699646efd8c51083053547aedf4bf5d8a4cf78a4c1dcfb65d606c7621db24",
          "blockNumber": "0x443e5d8",
          "transactionHash": "0x717d7da82c055c9482f9395651da0232fa2e1cdaf49727351f6ab69f47349565",
          "transactionIndex": "0x39",
          "logIndex": "0x158",
          "removed": false
        }
      ],
      "logsBloom": "0x00000000000020000000000000000000000000000000000000000000000040000000000000000000010000002000000000008000000000000000000000200000000000000000000000000008000200800000000000000000000120000000000000000000020000000001000000000800000000000800000180000010000000000001000000000000000000001080000000000000000000000000000040000000220000000400000000000080000001000000000000000000000000001000004000000002004000000001000000000000000404000000000000100000000020000110008000000000040000000000000000000000000000000000000002100000",
      "type": "0x2",
      "transactionHash": "0x717d7da82c055c9482f9395651da0232fa2e1cdaf49727351f6ab69f47349565",
      "transactionIndex": "0x39",
      "blockHash": "0x323699646efd8c51083053547aedf4bf5d8a4cf78a4c1dcfb65d606c7621db24",
      "blockNumber": "0x443e5d8",
      "gasUsed": "0x2405d",
      "effectiveGasPrice": "0x6fbc93b67",
      "from": "0x1aa44c933a6718a4bc44064f0067a853c34be9b0",
      "to": "0x4d97dcd97ec945f40cf65f87097ace5ea0476045",
      "contractAddress": null
    },
    {
      "status": "0x1",
      "cumulativeGasUsed": "0x810762",
      "logs": [
        {
          "address": "0x2791bca1f2de4661ed88a30c99a7a9449aa84174",
          "topics": [
            "0xddf252ad1be2c89b69c2b068fc378daa952ba7f163c4a11628f55a4df523b3ef",
            "0x0000000000000000000000001aa44c933a6718a4bc44064f0067a853c34be9b0",
            "0x0000000000000000000000004d97dcd97ec945f40cf65f87097ace5ea0476045"
          ],
          "data": "0x00000000000000000000000000000000000000000000000000000000004c4b40",
          "blockHash": "0x323699646efd8c51083053547aedf4bf5d8a4cf78a4c1dcfb65d606c7621db24",
          "blockNumber": "0x443e5d8",
          "transactionHash": "0x59d0b4f5cee0a25469cd32fb9d5ec031f789f4b1a957b5cbfd22902bf2ed3714",
          "transactionIndex": "0x3a",
          "logIndex": "0x159",
          "removed": false
        },
        {
          "address": "0x2791bca1f2de4661ed88a30c99a7a9449aa84174",
          "topics": [
            "0x8c5be1e5ebec7d5bd14f71427d1e84f3dd0314c0f7b2291e5b200ac8c7c3b925",
            "0x0000000000000000000000001aa44c933a6718a4bc44064f0067a853c34be9b0",
            "0x0000000000000000000000004d97dcd97ec945f40cf65f87097ace5ea0476045"
          ],
          "data": "0xffffffffffffffffffffffffffffffffffffffffffffffffffffffffff67697f",
          "blockHash": "0x323699646efd8c51083053547aedf4bf5d8a4cf78a4c1dcfb65d606c7621db24",
          "blockNumber": "0x443e5d8",
          "transactionHash": "0x59d0b4f5cee0a25469cd32fb9d5ec031f789f4b1a957b5cbfd22902bf2ed3714",
          "transactionIndex": "0x3a",
          "logIndex": "0x15a",
          "removed": false
        },
        {
          "address": "0x4d97dcd97ec945f40cf65f87097ace5ea0476045",
          "topics": [
            "0x4a39dc06d4c0dbc64b70af90fd698a233a518aa5d07e595d983b8c0526c8f7fb",
            "0x0000000000000000000000001aa44c933a6718a4bc44064f0067a853c34be9b0",
            "0x0000000000000000000000000000000000000000000000000000000000000000",
            "0x0000000000000000000000001aa44c933a6718a4bc44064f0067a853c34be9b0"
          ],
          "data": "0x000000000000000000000000000000000000000000000000000000000000004000000000000000000000000000000000000000000000000000000000000000a00000000000000000000000000000000000000000000000000000000000000002be87dd6f32f14ea56a7a67271dc7cba3e29a480106e24a00f7f05a055a39714555525a430e83ffbdb1b501cfde45aaadbe93869da7cd596ff6249f452bd7c0bb000000000000000000000000000000000000000000000000000000000000000200000000000000000000000000000000000000000000000000000000004c4b4000000000000000000000000000000000000000000000000000000000004c4b40",
          "blockHash": "0x323699646efd8c51083053547aedf4bf5d8a4cf78a4c1dcfb65d606c7621db24",
          "blockNumber": "0x443e5d8",
          "transactionHash": "0x59d0b4f5cee0a25469cd32fb9d5ec031f789f4b1a957b5cbfd22902bf2ed3714",
          "transactionIndex": "0x3a",
          "logIndex": "0x15b",
          "removed": false
        },
        {
          "address": "0x4d97dcd97ec945f40cf65f87097ace5ea0476045",
          "topics": [
            "0x2e6bb91f8cbcda0c93623c54d0403a43514fabc40084ec96b6d5379a74786298",
            "0x0000000000000000000000001aa44c933a6718a4bc44064f0067a853c34be9b0",
            "0x0000000000000000000000000000000000000000000000000000000000000000",
            "0x553728bcacf78928f84c20141df3927eba4e76846d67db8d354a111619501a6b"
          ],
          "data": "0x0000000000000000000000002791bca1f2de4661ed88a30c99a7a9449aa84174000000000000000000000000000000000000000000000000000000000000006000000000000000000000000000000000000000000000000000000000004c4b40000000000000000000000000000000000000000000000000000000000000000200000000000000000000000000000000000000000000000000000000000000010000000000000000000000000000000000000000000000000000000000000002",
          "blockHash": "0x323699646efd8c51083053547aedf4bf5d8a4cf78a4c1dcfb65d606c7621db24",
          "blockNumber": "0x443e5d8",
          "transactionHash": "0x59d0b4f5cee0a25469cd32fb9d5ec031f789f4b1a957b5cbfd22902bf2ed3714",
          "transactionIndex": "0x3a",
          "logIndex": "0x15c",
          "removed": false
        },
        {
          "address": "0x0000000000000000000000000000000000001010",
          "topics": [
            "0x4dfe1bbbcf077ddc3e01291eea2d5c70c2b422b415d95645b9adcfd678cb1d63",
            "0x0000000000000000000000000000000000000000000000000000000000001010",
            "0x0000000000000000000000001aa44c933a6718a4bc44064f0067a853c34be9b0",
            "0x000000000000000000000000ce7fcb674ba27a952c71061b649fb5a5746f3b2b"
          ],
          "data": "0x000000000000000000000000000000000000000000000000000eeeb7110d267400000000000000000000000000000000000000000000000075cfeec08f350527000000000000000000000000000000000000000000001d407849b5a8ead2e18400000000000000000000000000000000000000000000000075c100097e27deb3000000000000000000000000000000000000000000001d407858a45ffbe007f8",
          "blockHash": "0x323699646efd8c51083053547aedf4bf5d8a4cf78a4c1dcfb65d606c7621db24",
          "blockNumber": "0x443e5d8",
          "transactionHash": "0x59d0b4f5cee0a25469cd32fb9d5ec031f789f4b1a957b5cbfd22902bf2ed3714",
          "transactionIndex": "0x3a",
          "logIndex": "0x15d",
          "removed": false
        }
      ],
      "logsBloom": "0x00000000000020000000000000000000000000000000000000000000000040000000000000000000010000002000000000008000000000000000000000200000000000000000000000000008000200800000000000000000000120000000000000000000020000000001000000000800000000000800000180000010000000000001000000000000000000001080000000000000000000000000000000000000220001000400000000000080000001000000000000000000000000000000004000000002004000000001000000000000000404000000000000100000000020000010008000000000040000000000000000000000000000400000010002100000",
      "type": "0x2",
      "transactionHash": "0x59d0b4f5cee0a25469cd32fb9d5ec031f789f4b1a957b5cbfd22902bf2ed3714",
      "transactionIndex": "0x3a",
      "blockHash": "0x323699646efd8c51083053547aedf4bf5d8a4cf78a4c1dcfb65d606c7621db24",
      "blockNumber": "0x443e5d8",
      "gasUsed": "0x22364",
      "effectiveGasPrice": "0x6fbc93b67",
      "from": "0x1aa44c933a6718a4bc44064f0067a853c34be9b0",
      "to": "0x4d97dcd97ec945f40cf65f87097ace5ea0476045",
      "contractAddress": null
    },
    {
      "status": "0x1",
      "cumulativeGasUsed": "0x830dd5",
      "logs": [
        {
          "address": "0x2791bca1f2de4661ed88a30c99a7a9449aa84174",
          "topics": [
            "0xddf252ad1be2c89b69c2b068fc378daa952ba7f163c4a11628f55a4df523b3ef",
            "0x0000000000000000000000001aa44c933a6718a4bc44064f0067a853c34be9b0",
            "0x0000000000000000000000004d97dcd97ec945f40cf65f87097ace5ea0476045"
          ],
          "data": "0x00000000000000000000000000000000000000000000000000000000004c4b40",
          "blockHash": "0x323699646efd8c51083053547aedf4bf5d8a4cf78a4c1dcfb65d606c7621db24",
          "blockNumber": "0x443e5d8",
          "transactionHash": "0x26a538a9e23c1dec3f6809d6edc2bf5a561ce0f7b8d70c14e4783d3be540588d",
          "transactionIndex": "0x3b",
          "logIndex": "0x15e",
          "removed": false
        },
        {
          "address": "0x2791bca1f2de4661ed88a30c99a7a9449aa84174",
          "topics": [
            "0x8c5be1e5ebec7d5bd14f71427d1e84f3dd0314c0f7b2291e5b200ac8c7c3b925",
            "0x0000000000000000000000001aa44c933a6718a4bc44064f0067a853c34be9b0",
            "0x0000000000000000000000004d97dcd97ec945f40cf65f87097ace5ea0476045"
          ],
          "data": "0xffffffffffffffffffffffffffffffffffffffffffffffffffffffffff1b1e3f",
          "blockHash": "0x323699646efd8c51083053547aedf4bf5d8a4cf78a4c1dcfb65d606c7621db24",
          "blockNumber": "0x443e5d8",
          "transactionHash": "0x26a538a9e23c1dec3f6809d6edc2bf5a561ce0f7b8d70c14e4783d3be540588d",
          "transactionIndex": "0x3b",
          "logIndex": "0x15f",
          "removed": false
        },
        {
          "address": "0x4d97dcd97ec945f40cf65f87097ace5ea0476045",
          "topics": [
            "0x4a39dc06d4c0dbc64b70af90fd698a233a518aa5d07e595d983b8c0526c8f7fb",
            "0x0000000000000000000000001aa44c933a6718a4bc44064f0067a853c34be9b0",
            "0x0000000000000000000000000000000000000000000000000000000000000000",
            "0x0000000000000000000000001aa44c933a6718a4bc44064f0067a853c34be9b0"
          ],
          "data": "0x000000000000000000000000000000000000000000000000000000000000004000000000000000000000000000000000000000000000000000000000000000a00000000000000000000000000000000000000000000000000000000000000002b765739b68f91a6b8343c453dd500db1fd1211730bcfa6c0cf8dd2458871a3ef274f483d89eae851d2dd7b8510d21a8b160bf24c4086684b5ffb997d9c84973d000000000000000000000000000000000000000000000000000000000000000200000000000000000000000000000000000000000000000000000000004c4b4000000000000000000000000000000000000000000000000000000000004c4b40",
          "blockHash": "0x323699646efd8c51083053547aedf4bf5d8a4cf78a4c1dcfb65d606c7621db24",
          "blockNumber": "0x443e5d8",
          "transactionHash": "0x26a538a9e23c1dec3f6809d6edc2bf5a561ce0f7b8d70c14e4783d3be540588d",
          "transactionIndex": "0x3b",
          "logIndex": "0x160",
          "removed": false
        },
        {
          "address": "0x4d97dcd97ec945f40cf65f87097ace5ea0476045",
          "topics": [
            "0x2e6bb91f8cbcda0c93623c54d0403a43514fabc40084ec96b6d5379a74786298",
            "0x0000000000000000000000001aa44c933a6718a4bc44064f0067a853c34be9b0",
            "0x0000000000000000000000000000000000000000000000000000000000000000",
            "0x354b6793f25222186de8d3c9ca1e444e71a6d7b7db276bf1aa50b95b8d47cb65"
          ],
          "data": "0x0000000000000000000000002791bca1f2de4661ed88a30c99a7a9449aa84174000000000000000000000000000000000000000000000000000000000000006000000000000000000000000000000000000000000000000000000000004c4b40000000000000000000000000000000000000000000000000000000000000000200000000000000000000000000000000000000000000000000000000000000010000000000000000000000000000000000000000000000000000000000000002",
          "blockHash": "0x323699646efd8c51083053547aedf4bf5d8a4cf78a4c1dcfb65d606c7621db24",
          "blockNumber": "0x443e5d8",
          "transactionHash": "0x26a538a9e23c1dec3f6809d6edc2bf5a561ce0f7b8d70c14e4783d3be540588d",
          "transactionIndex": "0x3b",
          "logIndex": "0x161",
          "removed": false
        },
        {
          "address": "0x0000000000000000000000000000000000001010",
          "topics": [
            "0x4dfe1bbbcf077ddc3e01291eea2d5c70c2b422b415d95645b9adcfd678cb1d63",
            "0x0000000000000000000000000000000000000000000000000000000000001010",
            "0x0000000000000000000000001aa44c933a6718a4bc44064f0067a853c34be9b0",
            "0x000000000000000000000000ce7fcb674ba27a952c71061b649fb5a5746f3b2b"
          ],
          "data": "0x000000000000000000000000000000000000000000000000000e249a24c04f5f00000000000000000000000000000000000000000000000075c100073aacbbeb000000000000000000000000000000000000000000001d407858a45ffbe007f800000000000000000000000000000000000000000000000075b2db6d15ec6c8c000000000000000000000000000000000000000000001d407866c8fa20a05757",
          "blockHash": "0x323699646efd8c51083053547aedf4bf5d8a4cf78a4c1dcfb65d606c7621db24",
          "blockNumber": "0x443e5d8",
          "transactionHash": "0x26a538a9e23c1dec3f6809d6edc2bf5a561ce0f7b8d70c14e4783d3be540588d",
          "transactionIndex": "0x3b",
          "logIndex": "0x162",
          "removed": false
        }
      ],
      "logsBloom": "0x00000000000020000000000000000000000000000000000000000000000040000000000000000000010000002000000000008000000000000000000000200000000000000000000000000008000200800000000000000000000120000000000000000000020000000001000000000800000000000800000180000010000000000001000000000000000000001080000000000000000000000000000000000000220000000400000000000080000001000000000000000000000000000000004000000002004008000001000000000000000404080000000000100000000020000010008000004000040000000000000000000000000000000000000002100000",
      "type": "0x2",
      "transactionHash": "0x26a538a9e23c1dec3f6809d6edc2bf5a561ce0f7b8d70c14e4783d3be540588d",
      "transactionIndex": "0x3b",
      "blockHash": "0x323699646efd8c51083053547aedf4bf5d8a4cf78a4c1dcfb65d606c7621db24",
      "blockNumber": "0x443e5d8",
      "gasUsed": "0x20673",
      "effectiveGasPrice": "0x6fbc93b67",
      "from": "0x1aa44c933a6718a4bc44064f0067a853c34be9b0",
      "to": "0x4d97dcd97ec945f40cf65f87097ace5ea0476045",
      "contractAddress": null
    },
    {
      "status": "0x1",
      "cumulativeGasUsed": "0x854e23",
      "logs": [
        {
          "address": "0x2791bca1f2de4661ed88a30c99a7a9449aa84174",
          "topics": [
            "0xddf252ad1be2c89b69c2b068fc378daa952ba7f163c4a11628f55a4df523b3ef",
            "0x0000000000000000000000001aa44c933a6718a4bc44064f0067a853c34be9b0",
            "0x0000000000000000000000004d97dcd97ec945f40cf65f87097ace5ea0476045"
          ],
          "data": "0x00000000000000000000000000000000000000000000000000000000004c4b40",
          "blockHash": "0x323699646efd8c51083053547aedf4bf5d8a4cf78a4c1dcfb65d606c7621db24",
          "blockNumber": "0x443e5d8",
          "transactionHash": "0x8bd8da2b9cc8acdf69502fb1f2dc793fbe34f32422219aa5db184a7d762f1c47",
          "transactionIndex": "0x3c",
          "logIndex": "0x163",
          "removed": false
        },
        {
          "address": "0x2791bca1f2de4661ed88a30c99a7a9449aa84174",
          "topics": [
            "0x8c5be1e5ebec7d5bd14f71427d1e84f3dd0314c0f7b2291e5b200ac8c7c3b925",
            "0x0000000000000000000000001aa44c933a6718a4bc44064f0067a853c34be9b0",
            "0x0000000000000000000000004d97dcd97ec945f40cf65f87097ace5ea0476045"
          ],
          "data": "0xfffffffffffffffffffffffffffffffffffffffffffffffffffffffffeced2ff",
          "blockHash": "0x323699646efd8c51083053547aedf4bf5d8a4cf78a4c1dcfb65d606c7621db24",
          "blockNumber": "0x443e5d8",
          "transactionHash": "0x8bd8da2b9cc8acdf69502fb1f2dc793fbe34f32422219aa5db184a7d762f1c47",
          "transactionIndex": "0x3c",
          "logIndex": "0x164",
          "removed": false
        },
        {
          "address": "0x4d97dcd97ec945f40cf65f87097ace5ea0476045",
          "topics": [
            "0x4a39dc06d4c0dbc64b70af90fd698a233a518aa5d07e595d983b8c0526c8f7fb",
            "0x0000000000000000000000001aa44c933a6718a4bc44064f0067a853c34be9b0",
            "0x0000000000000000000000000000000000000000000000000000000000000000",
            "0x0000000000000000000000001aa44c933a6718a4bc44064f0067a853c34be9b0"
          ],
          "data": "0x000000000000000000000000000000000000000000000000000000000000004000000000000000000000000000000000000000000000000000000000000000a00000000000000000000000000000000000000000000000000000000000000002a3d592d6002f1d275821d74d4dc1b736e054edb4f4f503fc7daf64433f3a878335d451cc82492f4ab9d2489892038bfe00ce089d310f513bd95d5755fa75851f000000000000000000000000000000000000000000000000000000000000000200000000000000000000000000000000000000000000000000000000004c4b4000000000000000000000000000000000000000000000000000000000004c4b40",
          "blockHash": "0x323699646efd8c51083053547aedf4bf5d8a4cf78a4c1dcfb65d606c7621db24",
          "blockNumber": "0x443e5d8",
          "transactionHash": "0x8bd8da2b9cc8acdf69502fb1f2dc793fbe34f32422219aa5db184a7d762f1c47",
          "transactionIndex": "0x3c",
          "logIndex": "0x165",
          "removed": false
        },
        {
          "address": "0x4d97dcd97ec945f40cf65f87097ace5ea0476045",
          "topics": [
            "0x2e6bb91f8cbcda0c93623c54d0403a43514fabc40084ec96b6d5379a74786298",
            "0x0000000000000000000000001aa44c933a6718a4bc44064f0067a853c34be9b0",
            "0x0000000000000000000000000000000000000000000000000000000000000000",
            "0x5bf33c43674b2bc7452acca8d971ff8a84ccee5fbce29b9d4b75f8f895aa52c2"
          ],
          "data": "0x0000000000000000000000002791bca1f2de4661ed88a30c99a7a9449aa84174000000000000000000000000000000000000000000000000000000000000006000000000000000000000000000000000000000000000000000000000004c4b40000000000000000000000000000000000000000000000000000000000000000200000000000000000000000000000000000000000000000000000000000000010000000000000000000000000000000000000000000000000000000000000002",
          "blockHash": "0x323699646efd8c51083053547aedf4bf5d8a4cf78a4c1dcfb65d606c7621db24",
          "blockNumber": "0x443e5d8",
          "transactionHash": "0x8bd8da2b9cc8acdf69502fb1f2dc793fbe34f32422219aa5db184a7d762f1c47",
          "transactionIndex": "0x3c",
          "logIndex": "0x166",
          "removed": false
        },
        {
          "address": "0x0000000000000000000000000000000000001010",
          "topics": [
            "0x4dfe1bbbcf077ddc3e01291eea2d5c70c2b422b415d95645b9adcfd678cb1d63",
            "0x0000000000000000000000000000000000000000000000000000000000001010",
            "0x0000000000000000000000001aa44c933a6718a4bc44064f0067a853c34be9b0",
            "0x000000000000000000000000ce7fcb674ba27a952c71061b649fb5a5746f3b2b"
          ],
          "data": "0x000000000000000000000000000000000000000000000000000fb8a31ae0c6c600000000000000000000000000000000000000000000000075b2db6af114a2a6000000000000000000000000000000000000000000001d407866c8fa20a0575700000000000000000000000000000000000000000000000075a322c7d633dbe0000000000000000000000000000000000000000000001d407876819d3b811e1d",
          "blockHash": "0x323699646efd8c51083053547aedf4bf5d8a4cf78a4c1dcfb65d606c7621db24",
          "blockNumber": "0x443e5d8",
          "transactionHash": "0x8bd8da2b9cc8acdf69502fb1f2dc793fbe34f32422219aa5db184a7d762f1c47",
          "transactionIndex": "0x3c",
          "logIndex": "0x167",
          "removed": false
        }
      ],
      "logsBloom": "0x00000000000020000000000000000000000000000000000000000000000040000000000000000000010000002000000000008000000000000000000000200000000000000000000000000008000200800000000000000000000120000000000000040000020000000001000000000800000000000800000180000010000000000001000000000000000000001080000000000000000000000000000000000000220000000400000000000080000001000000000100000000000000000000004000000002004000000001000000000000000404000000000000100000800020000010008000000000040000000000000000000000000000000000000002100000",
      "type": "0x2",
      "transactionHash": "0x8bd8da2b9cc8acdf69502fb1f2dc793fbe34f32422219aa5db184a7d762f1c47",
      "transactionIndex": "0x3c",
      "blockHash": "0x323699646efd8c51083053547aedf4bf5d8a4cf78a4c1dcfb65d606c7621db24",
      "blockNumber": "0x443e5d8",
      "gasUsed": "0x2404e",
      "effectiveGasPrice": "0x6fbc93b67",
      "from": "0x1aa44c933a6718a4bc44064f0067a853c34be9b0",
      "to": "0x4d97dcd97ec945f40cf65f87097ace5ea0476045",
      "contractAddress": null
    }
  ],
  "libraries": [],
  "pending": [],
  "returns": {},
  "timestamp": 1747337737,
  "chain": 137,
  "commit": "5e7219b"
}