{
  "transactions": [
    {
      "hash": "0xfec11624f3731d44052b26ab2aba30765712a27db39cb317c29d9a653edd4c13",
      "transactionType": "CALL",
      "contractName": null,
      "contractAddress": "0x2791bca1f2de4661ed88a30c99a7a9449aa84174",
      "function": "approve(address,uint256)",
      "arguments": [
        "0x4D97DCd97eC945f40cF65F87097ACe5EA0476045",
        "115792089237316195423570985008687907853269984665640564039457584007913129639935"
      ],
      "transaction": {
        "from": "0x1aa44c933a6718a4bc44064f0067a853c34be9b0",
        "to": "0x2791bca1f2de4661ed88a30c99a7a9449aa84174",
        "gas": "0xdc35",
        "value": "0x0",
        "input": "0x095ea7b30000000000000000000000004d97dcd97ec945f40cf65f87097ace5ea0476045ffffffffffffffffffffffffffffffffffffffffffffffffffffffffffffffff",
        "nonce": "0x8d",
        "chainId": "0x89"
      },
      "additionalContracts": [],
      "isFixedGasLimit": false
    },
    {
      "hash": "0x8e35f161fdea1d98693629e2381bd1dd95e0fface868688b1711604e69a64b43",
      "transactionType": "CALL",
      "contractName": null,
      "contractAddress": "0x4d97dcd97ec945f40cf65f87097ace5ea0476045",
      "function": "setApprovalForAll(address,bool)",
      "arguments": [
        "0x6024df39713146Fd17a19A96fb86271fb1C4aa93",
        "true"
      ],
      "transaction": {
        "from": "0x1aa44c933a6718a4bc44064f0067a853c34be9b0",
        "to": "0x4d97dcd97ec945f40cf65f87097ace5ea0476045",
        "gas": "0xf82b",
        "value": "0x0",
        "input": "0xa22cb4650000000000000000000000006024df39713146fd17a19a96fb86271fb1c4aa930000000000000000000000000000000000000000000000000000000000000001",
        "nonce": "0x8e",
        "chainId": "0x89"
      },
      "additionalContracts": [],
      "isFixedGasLimit": false
    },
    {
      "hash": "0xaea581b8541cf4748990b85b47b1e999d2878bccc104c3f8de14464345a70ff6",
      "transactionType": "CALL",
      "contractName": null,
      "contractAddress": "0x6024df39713146fd17a19a96fb86271fb1c4aa93",
      "function": "createIndex((address,bytes32[],uint256[],bytes,address),bytes)",
      "arguments": [
        "(0x617B998E2B59df6006f44eC7Ff2E2fEe9EeC34a8, [0x3cade829b69b30436629ac0c2494d475211ba6f7e00e192a920653ba00b7db36, 0x553728bcacf78928f84c20141df3927eba4e76846d67db8d354a111619501a6b, 0x354b6793f25222186de8d3c9ca1e444e71a6d7b7db276bf1aa50b95b8d47cb65, 0x5bf33c43674b2bc7452acca8d971ff8a84ccee5fbce29b9d4b75f8f895aa52c2], [1, 1, 1, 1], 0x3531375570, 0x0aA114D341Dd4DB03b0aE7e0Cb0B401339211bC8)",
        "0x"
      ],
      "transaction": {
        "from": "0x1aa44c933a6718a4bc44064f0067a853c34be9b0",
        "to": "0x6024df39713146fd17a19a96fb86271fb1c4aa93",
        "gas": "0xefa2e",
        "value": "0x0",
        "input": "0xd2f7213600000000000000000000000000000000000000000000000000000000000000400000000000000000000000000000000000000000000000000000000000000260000000000000000000000000617b998e2b59df6006f44ec7ff2e2fee9eec34a800000000000000000000000000000000000000000000000000000000000000a0000000000000000000000000000000000000000000000000000000000000014000000000000000000000000000000000000000000000000000000000000001e00000000000000000000000000aa114d341dd4db03b0ae7e0cb0b401339211bc800000000000000000000000000000000000000000000000000000000000000043cade829b69b30436629ac0c2494d475211ba6f7e00e192a920653ba00b7db36553728bcacf78928f84c20141df3927eba4e76846d67db8d354a111619501a6b354b6793f25222186de8d3c9ca1e444e71a6d7b7db276bf1aa50b95b8d47cb655bf33c43674b2bc7452acca8d971ff8a84ccee5fbce29b9d4b75f8f895aa52c200000000000000000000000000000000000000000000000000000000000000040000000000000000000000000000000000000000000000000000000000000001000000000000000000000000000000000000000000000000000000000000000100000000000000000000000000000000000000000000000000000000000000010000000000000000000000000000000000000000000000000000000000000001000000000000000000000000000000000000000000000000000000000000000535313755700000000000000000000000000000000000000000000000000000000000000000000000000000000000000000000000000000000000000000000000",
        "nonce": "0x8f",
        "chainId": "0x89"
      },
      "additionalContracts": [
        {
          "transactionType": "CREATE2",
          "address": "0xa91588e1a9bf25edb78889cdf72aea577524e279",
          "initCode": "0x61038d3d81600a3d39f3363d3d373d3d3d363d73617b998e2b59df6006f44ec7ff2e2fee9eec34a85af43d82803e903d91602b57fd5bf30000000000000000000000000000000000000000000000000000000000000020000000000000000000000000000000000000000000000000000000000000012000000000000000000000000000000000000000000000000000000000000001c0000000000000000000000000000000000000000000000000000000000000026000000000000000000000000000000000000000000000000000000000000003000000000000000000000000006024df39713146fd17a19a96fb86271fb1c4aa930000000000000000000000004d97dcd97ec945f40cf65f87097ace5ea04760450000000000000000000000002791bca1f2de4661ed88a30c99a7a9449aa84174000000000000000000000000617b998e2b59df6006f44ec7ff2e2fee9eec34a80000000000000000000000000aa114d341dd4db03b0ae7e0cb0b401339211bc80000000000000000000000000000000000000000000000000000000000000004a3d592d6002f1d275821d74d4dc1b736e054edb4f4f503fc7daf64433f3a8783b765739b68f91a6b8343c453dd500db1fd1211730bcfa6c0cf8dd2458871a3efbe87dd6f32f14ea56a7a67271dc7cba3e29a480106e24a00f7f05a055a397145f3eb7f4cd29dc80955819251ae49aae29ec5d4a4a9f1b19b1bfb87edd552069000000000000000000000000000000000000000000000000000000000000000043cade829b69b30436629ac0c2494d475211ba6f7e00e192a920653ba00b7db36553728bcacf78928f84c20141df3927eba4e76846d67db8d354a111619501a6b354b6793f25222186de8d3c9ca1e444e71a6d7b7db276bf1aa50b95b8d47cb655bf33c43674b2bc7452acca8d971ff8a84ccee5fbce29b9d4b75f8f895aa52c20000000000000000000000000000000000000000000000000000000000000004000000000000000000000000000000000000000000000000000000000000000100000000000000000000000000000000000000000000000000000000000000010000000000000000000000000000000000000000000000000000000000000001000000000000000000000000000000000000000000000000000000000000000100000000000000000000000000000000000000000000000000000000000000053531375570000000000000000000000000000000000000000000000000000000"
        }
      ],
      "isFixedGasLimit": false
    },
    {
      "hash": "0x3dfdde275a11bdcb791455c3fb86a7438366010da22e705c384ef25f7e8aeccb",
      "transactionType": "CALL",
      "contractName": null,
      "contractAddress": "0x2791bca1f2de4661ed88a30c99a7a9449aa84174",
      "function": "approve(address,uint256)",
      "arguments": [
        "0xA91588e1A9bf25eDb78889CDf72AEa577524e279",
        "115792089237316195423570985008687907853269984665640564039457584007913129639935"
      ],
      "transaction": {
        "from": "0x1aa44c933a6718a4bc44064f0067a853c34be9b0",
        "to": "0x2791bca1f2de4661ed88a30c99a7a9449aa84174",
        "gas": "0x13b57",
        "value": "0x0",
        "input": "0x095ea7b3000000000000000000000000a91588e1a9bf25edb78889cdf72aea577524e279ffffffffffffffffffffffffffffffffffffffffffffffffffffffffffffffff",
        "nonce": "0x90",
        "chainId": "0x89"
      },
      "additionalContracts": [],
      "isFixedGasLimit": false
    },
    {
      "hash": "0x8380376f5c2b9083eb0ffac63d245f7ce1854674db4b4a0b30024ab86c603d7a",
      "transactionType": "CALL",
      "contractName": null,
      "contractAddress": "0x4d97dcd97ec945f40cf65f87097ace5ea0476045",
      "function": "setApprovalForAll(address,bool)",
      "arguments": [
        "0xA91588e1A9bf25eDb78889CDf72AEa577524e279",
        "true"
      ],
      "transaction": {
        "from": "0x1aa44c933a6718a4bc44064f0067a853c34be9b0",
        "to": "0x4d97dcd97ec945f40cf65f87097ace5ea0476045",
        "gas": "0xf82b",
        "value": "0x0",
        "input": "0xa22cb465000000000000000000000000a91588e1a9bf25edb78889cdf72aea577524e2790000000000000000000000000000000000000000000000000000000000000001",
        "nonce": "0x91",
        "chainId": "0x89"
      },
      "additionalContracts": [],
      "isFixedGasLimit": false
    },
    {
      "hash": "0x2108ebaa176caad3b11e356619950f43b699ef0719bab3248ec658889f24e6c7",
      "transactionType": "CALL",
      "contractName": null,
      "contractAddress": "0xa91588e1a9bf25edb78889cdf72aea577524e279",
      "function": "deposit(uint256)",
      "arguments": [
        "8000000"
      ],
      "transaction": {
        "from": "0x1aa44c933a6718a4bc44064f0067a853c34be9b0",
        "to": "0xa91588e1a9bf25edb78889cdf72aea577524e279",
        "gas": "0xc3ebf",
        "value": "0x0",
        "input": "0xb6b55f2500000000000000000000000000000000000000000000000000000000007a1200",
        "nonce": "0x92",
        "chainId": "0x89"
      },
      "additionalContracts": [],
      "isFixedGasLimit": false
    }
  ],
  "receipts": [
    {
      "status": "0x1",
      "cumulativeGasUsed": "0x64085f",
      "logs": [
        {
          "address": "0x2791bca1f2de4661ed88a30c99a7a9449aa84174",
          "topics": [
            "0x8c5be1e5ebec7d5bd14f71427d1e84f3dd0314c0f7b2291e5b200ac8c7c3b925",
            "0x0000000000000000000000001aa44c933a6718a4bc44064f0067a853c34be9b0",
            "0x0000000000000000000000004d97dcd97ec945f40cf65f87097ace5ea0476045"
          ],
          "data": "0xffffffffffffffffffffffffffffffffffffffffffffffffffffffffffffffff",
          "blockHash": "0xd0e4631a32c09df872af1a4fe4820b6f4a20b7a3ce4e209763a480b465644ec7",
          "blockNumber": "0x4443cc8",
          "transactionHash": "0xfec11624f3731d44052b26ab2aba30765712a27db39cb317c29d9a653edd4c13",
          "transactionIndex": "0x2c",
          "logIndex": "0xf7",
          "removed": false
        },
        {
          "address": "0x0000000000000000000000000000000000001010",
          "topics": [
            "0x4dfe1bbbcf077ddc3e01291eea2d5c70c2b422b415d95645b9adcfd678cb1d63",
            "0x0000000000000000000000000000000000000000000000000000000000001010",
            "0x0000000000000000000000001aa44c933a6718a4bc44064f0067a853c34be9b0",
            "0x0000000000000000000000001efecb61a2f80aa34d3b9218b564a64d05946290"
          ],
          "data": "0x0000000000000000000000000000000000000000000000000003c1145c717aa20000000000000000000000000000000000000000000000005a569cef8d13483e000000000000000000000000000000000000000000003ab7ec1f172fd759e0830000000000000000000000000000000000000000000000005a52dbdb30a1cd9c000000000000000000000000000000000000000000003ab7ec22d84433cb5b25",
          "blockHash": "0xd0e4631a32c09df872af1a4fe4820b6f4a20b7a3ce4e209763a480b465644ec7",
          "blockNumber": "0x4443cc8",
          "transactionHash": "0xfec11624f3731d44052b26ab2aba30765712a27db39cb317c29d9a653edd4c13",
          "transactionIndex": "0x2c",
          "logIndex": "0xf8",
          "removed": false
        }
      ],
      "logsBloom": "0x00000000000020000000000000000000000000000000000000000000000000000000000000000000000000000000000000008000000000000000000000200000200000000000000000000000000200800000000000000000000100000000000000000000000000000000000000000000000000000000000180000000000000000001000000000000000000001000000000000000000000000000000000000000220000000400000000000080000001000000000000000000000000000000004000000100000000000001000000000000000000000000000000100000000000002010008000000000000000000000000000000000000000000000000000100000",
      "type": "0x2",
      "transactionHash": "0xfec11624f3731d44052b26ab2aba30765712a27db39cb317c29d9a653edd4c13",
      "transactionIndex": "0x2c",
      "blockHash": "0xd0e4631a32c09df872af1a4fe4820b6f4a20b7a3ce4e209763a480b465644ec7",
      "blockNumber": "0x4443cc8",
      "gasUsed": "0x9692",
      "effectiveGasPrice": "0xbe1d2db42",
      "from": "0x1aa44c933a6718a4bc44064f0067a853c34be9b0",
      "to": "0x2791bca1f2de4661ed88a30c99a7a9449aa84174",
      "contractAddress": null
    },
    {
      "status": "0x1",
      "cumulativeGasUsed": "0x64bc0b",
      "logs": [
        {
          "address": "0x4d97dcd97ec945f40cf65f87097ace5ea0476045",
          "topics": [
            "0x17307eab39ab6107e8899845ad3d59bd9653f200f220920489ca2b5937696c31",
            "0x0000000000000000000000001aa44c933a6718a4bc44064f0067a853c34be9b0",
            "0x0000000000000000000000006024df39713146fd17a19a96fb86271fb1c4aa93"
          ],
          "data": "0x0000000000000000000000000000000000000000000000000000000000000001",
          "blockHash": "0xd0e4631a32c09df872af1a4fe4820b6f4a20b7a3ce4e209763a480b465644ec7",
          "blockNumber": "0x4443cc8",
          "transactionHash": "0x8e35f161fdea1d98693629e2381bd1dd95e0fface868688b1711604e69a64b43",
          "transactionIndex": "0x2d",
          "logIndex": "0xf9",
          "removed": false
        },
        {
          "address": "0x0000000000000000000000000000000000001010",
          "topics": [
            "0x4dfe1bbbcf077ddc3e01291eea2d5c70c2b422b415d95645b9adcfd678cb1d63",
            "0x0000000000000000000000000000000000000000000000000000000000001010",
            "0x0000000000000000000000001aa44c933a6718a4bc44064f0067a853c34be9b0",
            "0x0000000000000000000000001efecb61a2f80aa34d3b9218b564a64d05946290"
          ],
          "data": "0x00000000000000000000000000000000000000000000000000047ad52da2de0c0000000000000000000000000000000000000000000000005a4f9fd73659909a000000000000000000000000000000000000000000003ab7ec22d84433cb5b250000000000000000000000000000000000000000000000005a4b250208b6b28e000000000000000000000000000000000000000000003ab7ec275319616e3931",
          "blockHash": "0xd0e4631a32c09df872af1a4fe4820b6f4a20b7a3ce4e209763a480b465644ec7",
          "blockNumber": "0x4443cc8",
          "transactionHash": "0x8e35f161fdea1d98693629e2381bd1dd95e0fface868688b1711604e69a64b43",
          "transactionIndex": "0x2d",
          "logIndex": "0xfa",
          "removed": false
        }
      ],
      "logsBloom": "0x00000000000020000000000000000000200000000000000000000000000040000000000000000000000000000000000000008000000000000000000000000000200000000000000000000000000000800000000000000000000100000000000002000000000000000000000000000000000000000000000080000000000000000000000000000000000000001000000000000000000000000000000000000000200000002000000000000080000000000000000000000000000000000000004000000100000000000001000000000000000004000400000000100000000000002000200800000000040000000000000000000000000000000000000000100000",
      "type": "0x2",
      "transactionHash": "0x8e35f161fdea1d98693629e2381bd1dd95e0fface868688b1711604e69a64b43",
      "transactionIndex": "0x2d",
      "blockHash": "0xd0e4631a32c09df872af1a4fe4820b6f4a20b7a3ce4e209763a480b465644ec7",
      "blockNumber": "0x4443cc8",
      "gasUsed": "0xb3ac",
      "effectiveGasPrice": "0xbe1d2db42",
      "from": "0x1aa44c933a6718a4bc44064f0067a853c34be9b0",
      "to": "0x4d97dcd97ec945f40cf65f87097ace5ea0476045",
      "contractAddress": null
    },
    {
      "status": "0x1",
      "cumulativeGasUsed": "0x6ef9b5",
      "logs": [
        {
          "address": "0x4d97dcd97ec945f40cf65f87097ace5ea0476045",
          "topics": [
            "0x17307eab39ab6107e8899845ad3d59bd9653f200f220920489ca2b5937696c31",
            "0x000000000000000000000000a91588e1a9bf25edb78889cdf72aea577524e279",
            "0x0000000000000000000000004d97dcd97ec945f40cf65f87097ace5ea0476045"
          ],
          "data": "0x0000000000000000000000000000000000000000000000000000000000000001",
          "blockHash": "0xd0e4631a32c09df872af1a4fe4820b6f4a20b7a3ce4e209763a480b465644ec7",
          "blockNumber": "0x4443cc8",
          "transactionHash": "0xaea581b8541cf4748990b85b47b1e999d2878bccc104c3f8de14464345a70ff6",
          "transactionIndex": "0x2e",
          "logIndex": "0xfb",
          "removed": false
        },
        {
          "address": "0x2791bca1f2de4661ed88a30c99a7a9449aa84174",
          "topics": [
            "0x8c5be1e5ebec7d5bd14f71427d1e84f3dd0314c0f7b2291e5b200ac8c7c3b925",
            "0x000000000000000000000000a91588e1a9bf25edb78889cdf72aea577524e279",
            "0x0000000000000000000000004d97dcd97ec945f40cf65f87097ace5ea0476045"
          ],
          "data": "0xffffffffffffffffffffffffffffffffffffffffffffffffffffffffffffffff",
          "blockHash": "0xd0e4631a32c09df872af1a4fe4820b6f4a20b7a3ce4e209763a480b465644ec7",
          "blockNumber": "0x4443cc8",
          "transactionHash": "0xaea581b8541cf4748990b85b47b1e999d2878bccc104c3f8de14464345a70ff6",
          "transactionIndex": "0x2e",
          "logIndex": "0xfc",
          "removed": false
        },
        {
          "address": "0x6024df39713146fd17a19a96fb86271fb1c4aa93",
          "topics": [
            "0x750538103f64f9b5e2db539e5c1f7552a63aa9e68e07396b2b4b58f7cfef18ab",
            "0x000000000000000000000000a91588e1a9bf25edb78889cdf72aea577524e279"
          ],
          "data": "0x000000000000000000000000000000000000000000000000000000000000004000000000000000000000000000000000000000000000000000000000000000e00000000000000000000000000000000000000000000000000000000000000004a3d592d6002f1d275821d74d4dc1b736e054edb4f4f503fc7daf64433f3a8783b765739b68f91a6b8343c453dd500db1fd1211730bcfa6c0cf8dd2458871a3efbe87dd6f32f14ea56a7a67271dc7cba3e29a480106e24a00f7f05a055a397145f3eb7f4cd29dc80955819251ae49aae29ec5d4a4a9f1b19b1bfb87edd552069000000000000000000000000000000000000000000000000000000000000000053531375570000000000000000000000000000000000000000000000000000000",
          "blockHash": "0xd0e4631a32c09df872af1a4fe4820b6f4a20b7a3ce4e209763a480b465644ec7",
          "blockNumber": "0x4443cc8",
          "transactionHash": "0xaea581b8541cf4748990b85b47b1e999d2878bccc104c3f8de14464345a70ff6",
          "transactionIndex": "0x2e",
          "logIndex": "0xfd",
          "removed": false
        },
        {
          "address": "0x0000000000000000000000000000000000001010",
          "topics": [
            "0x4dfe1bbbcf077ddc3e01291eea2d5c70c2b422b415d95645b9adcfd678cb1d63",
            "0x0000000000000000000000000000000000000000000000000000000000001010",
            "0x0000000000000000000000001aa44c933a6718a4bc44064f0067a853c34be9b0",
            "0x0000000000000000000000001efecb61a2f80aa34d3b9218b564a64d05946290"
          ],
          "data": "0x00000000000000000000000000000000000000000000000000415de4ea8b047a0000000000000000000000000000000000000000000000005a4748f50d5f1a42000000000000000000000000000000000000000000003ab7ec275319616e39310000000000000000000000000000000000000000000000005a05eb1022d415c8000000000000000000000000000000000000000000003ab7ec68b0fe4bf93dab",
          "blockHash": "0xd0e4631a32c09df872af1a4fe4820b6f4a20b7a3ce4e209763a480b465644ec7",
          "blockNumber": "0x4443cc8",
          "transactionHash": "0xaea581b8541cf4748990b85b47b1e999d2878bccc104c3f8de14464345a70ff6",
          "transactionIndex": "0x2e",
          "logIndex": "0xfe",
          "removed": false
        }
      ],
      "logsBloom": "0x00000000800020000000000000000000000000000000000000010000000040000000000000000000000000000000000010008000000000000000000000200020200000000000000000000000000200800000000000000000000100000000000002000000000000000000000000000000000000000000008180000000000000000001000000000000000000001000000000001000000000000000000000000000220000000400000000000080000001000000000000000000000000000000804000000100000000000001000000000000000084000000000000100000000000002010208800000000040000000000000000000000000000000000000000100000",
      "type": "0x2",
      "transactionHash": "0xaea581b8541cf4748990b85b47b1e999d2878bccc104c3f8de14464345a70ff6",
      "transactionIndex": "0x2e",
      "blockHash": "0xd0e4631a32c09df872af1a4fe4820b6f4a20b7a3ce4e209763a480b465644ec7",
      "blockNumber": "0x4443cc8",
      "gasUsed": "0xa3daa",
      "effectiveGasPrice": "0xbe1d2db42",
      "from": "0x1aa44c933a6718a4bc44064f0067a853c34be9b0",
      "to": "0x6024df39713146fd17a19a96fb86271fb1c4aa93",
      "contractAddress": null
    },
    {
      "status": "0x1",
      "cumulativeGasUsed": "0x6fde03",
      "logs": [
        {
          "address": "0x2791bca1f2de4661ed88a30c99a7a9449aa84174",
          "topics": [
            "0x8c5be1e5ebec7d5bd14f71427d1e84f3dd0314c0f7b2291e5b200ac8c7c3b925",
            "0x0000000000000000000000001aa44c933a6718a4bc44064f0067a853c34be9b0",
            "0x000000000000000000000000a91588e1a9bf25edb78889cdf72aea577524e279"
          ],
          "data": "0xffffffffffffffffffffffffffffffffffffffffffffffffffffffffffffffff",
          "blockHash": "0xd0e4631a32c09df872af1a4fe4820b6f4a20b7a3ce4e209763a480b465644ec7",
          "blockNumber": "0x4443cc8",
          "transactionHash": "0x3dfdde275a11bdcb791455c3fb86a7438366010da22e705c384ef25f7e8aeccb",
          "transactionIndex": "0x2f",
          "logIndex": "0xff",
          "removed": false
        },
        {
          "address": "0x0000000000000000000000000000000000001010",
          "topics": [
            "0x4dfe1bbbcf077ddc3e01291eea2d5c70c2b422b415d95645b9adcfd678cb1d63",
            "0x0000000000000000000000000000000000000000000000000000000000001010",
            "0x0000000000000000000000001aa44c933a6718a4bc44064f0067a853c34be9b0",
            "0x0000000000000000000000001efecb61a2f80aa34d3b9218b564a64d05946290"
          ],
          "data": "0x0000000000000000000000000000000000000000000000000005b140a347df3e00000000000000000000000000000000000000000000000059cd9a054886c66e000000000000000000000000000000000000000000003ab7ec68b0fe4bf93dab00000000000000000000000000000000000000000000000059c7e8c4a53ee730000000000000000000000000000000000000000000003ab7ec6e623eef411ce9",
          "blockHash": "0xd0e4631a32c09df872af1a4fe4820b6f4a20b7a3ce4e209763a480b465644ec7",
          "blockNumber": "0x4443cc8",
          "transactionHash": "0x3dfdde275a11bdcb791455c3fb86a7438366010da22e705c384ef25f7e8aeccb",
          "transactionIndex": "0x2f",
          "logIndex": "0x100",
          "removed": false
        }
      ],
      "logsBloom": "0x00000000000020000000000000000000000000000000000000010000000000000000000000000000000000000000000000008000000000000000000000200000200000000000000000000000000000800000000000000000000100000000000000000000000000000000000000000000000000000000008180000000000000000001000000000000000000001000000000000000000000000000000000000000220000000000000000000080000000000000000000000000000000000000804000000100000000000001000000000000000000000000000000100000000000002010008000000000000000000000000000000000000000000000000000100000",
      "type": "0x2",
      "transactionHash": "0x3dfdde275a11bdcb791455c3fb86a7438366010da22e705c384ef25f7e8aeccb",
      "transactionIndex": "0x2f",
      "blockHash": "0xd0e4631a32c09df872af1a4fe4820b6f4a20b7a3ce4e209763a480b465644ec7",
      "blockNumber": "0x4443cc8",
      "gasUsed": "0xe44e",
      "effectiveGasPrice": "0xbe1d2db42",
      "from": "0x1aa44c933a6718a4bc44064f0067a853c34be9b0",
      "to": "0x2791bca1f2de4661ed88a30c99a7a9449aa84174",
      "contractAddress": null
    },
    {
      "status": "0x1",
      "cumulativeGasUsed": "0x7091af",
      "logs": [
        {
          "address": "0x4d97dcd97ec945f40cf65f87097ace5ea0476045",
          "topics": [
            "0x17307eab39ab6107e8899845ad3d59bd9653f200f220920489ca2b5937696c31",
            "0x0000000000000000000000001aa44c933a6718a4bc44064f0067a853c34be9b0",
            "0x000000000000000000000000a91588e1a9bf25edb78889cdf72aea577524e279"
          ],
          "data": "0x0000000000000000000000000000000000000000000000000000000000000001",
          "blockHash": "0xd0e4631a32c09df872af1a4fe4820b6f4a20b7a3ce4e209763a480b465644ec7",
          "blockNumber": "0x4443cc8",
          "transactionHash": "0x8380376f5c2b9083eb0ffac63d245f7ce1854674db4b4a0b30024ab86c603d7a",
          "transactionIndex": "0x30",
          "logIndex": "0x101",
          "removed": false
        },
        {
          "address": "0x0000000000000000000000000000000000001010",
          "topics": [
            "0x4dfe1bbbcf077ddc3e01291eea2d5c70c2b422b415d95645b9adcfd678cb1d63",
            "0x0000000000000000000000000000000000000000000000000000000000001010",
            "0x0000000000000000000000001aa44c933a6718a4bc44064f0067a853c34be9b0",
            "0x0000000000000000000000001efecb61a2f80aa34d3b9218b564a64d05946290"
          ],
          "data": "0x00000000000000000000000000000000000000000000000000047ad52da2de0c00000000000000000000000000000000000000000000000059c30146af013052000000000000000000000000000000000000000000003ab7ec6e623eef411ce900000000000000000000000000000000000000000000000059be8671815e5246000000000000000000000000000000000000000000003ab7ec72dd141ce3faf5",
          "blockHash": "0xd0e4631a32c09df872af1a4fe4820b6f4a20b7a3ce4e209763a480b465644ec7",
          "blockNumber": "0x4443cc8",
          "transactionHash": "0x8380376f5c2b9083eb0ffac63d245f7ce1854674db4b4a0b30024ab86c603d7a",
          "transactionIndex": "0x30",
          "logIndex": "0x102",
          "removed": false
        }
      ],
      "logsBloom": "0x00000000000020000000000000000000000000000000000000010000000040000000000000000000000000000000000000008000000000000000000000000000200000000000000000000000000000800000000000000000000100000000000002000000000000000000000000000000000000000000008080000000000000000000000000000000000000001000000000000000000000000000000000000000200000000000000000000080000000000000000000000000000000000000804000000100000000000001000000000000000004000000000000100000000000002000200800000000040000000000000000000000000000000000000000100000",
      "type": "0x2",
      "transactionHash": "0x8380376f5c2b9083eb0ffac63d245f7ce1854674db4b4a0b30024ab86c603d7a",
      "transactionIndex": "0x30",
      "blockHash": "0xd0e4631a32c09df872af1a4fe4820b6f4a20b7a3ce4e209763a480b465644ec7",
      "blockNumber": "0x4443cc8",
      "gasUsed": "0xb3ac",
      "effectiveGasPrice": "0xbe1d2db42",
      "from": "0x1aa44c933a6718a4bc44064f0067a853c34be9b0",
      "to": "0x4d97dcd97ec945f40cf65f87097ace5ea0476045",
      "contractAddress": null
    },
    {
      "status": "0x1",
      "cumulativeGasUsed": "0x78f11a",
      "logs": [
        {
          "address": "0x2791bca1f2de4661ed88a30c99a7a9449aa84174",
          "topics": [
            "0xddf252ad1be2c89b69c2b068fc378daa952ba7f163c4a11628f55a4df523b3ef",
            "0x0000000000000000000000001aa44c933a6718a4bc44064f0067a853c34be9b0",
            "0x000000000000000000000000a91588e1a9bf25edb78889cdf72aea577524e279"
          ],
          "data": "0x00000000000000000000000000000000000000000000000000000000007a1200",
          "blockHash": "0xd0e4631a32c09df872af1a4fe4820b6f4a20b7a3ce4e209763a480b465644ec7",
          "blockNumber": "0x4443cc8",
          "transactionHash": "0x2108ebaa176caad3b11e356619950f43b699ef0719bab3248ec658889f24e6c7",
          "transactionIndex": "0x31",
          "logIndex": "0x103",
          "removed": false
        },
        {
          "address": "0x2791bca1f2de4661ed88a30c99a7a9449aa84174",
          "topics": [
            "0x8c5be1e5ebec7d5bd14f71427d1e84f3dd0314c0f7b2291e5b200ac8c7c3b925",
            "0x0000000000000000000000001aa44c933a6718a4bc44064f0067a853c34be9b0",
            "0x000000000000000000000000a91588e1a9bf25edb78889cdf72aea577524e279"
          ],
          "data": "0xffffffffffffffffffffffffffffffffffffffffffffffffffffffffff85edff",
          "blockHash": "0xd0e4631a32c09df872af1a4fe4820b6f4a20b7a3ce4e209763a480b465644ec7",
          "blockNumber": "0x4443cc8",
          "transactionHash": "0x2108ebaa176caad3b11e356619950f43b699ef0719bab3248ec658889f24e6c7",
          "transactionIndex": "0x31",
          "logIndex": "0x104",
          "removed": false
        },
        {
          "address": "0x2791bca1f2de4661ed88a30c99a7a9449aa84174",
          "topics": [
            "0xddf252ad1be2c89b69c2b068fc378daa952ba7f163c4a11628f55a4df523b3ef",
            "0x000000000000000000000000a91588e1a9bf25edb78889cdf72aea577524e279",
            "0x0000000000000000000000004d97dcd97ec945f40cf65f87097ace5ea0476045"
          ],
          "data": "0x00000000000000000000000000000000000000000000000000000000001e8480",
          "blockHash": "0xd0e4631a32c09df872af1a4fe4820b6f4a20b7a3ce4e209763a480b465644ec7",
          "blockNumber": "0x4443cc8",
          "transactionHash": "0x2108ebaa176caad3b11e356619950f43b699ef0719bab3248ec658889f24e6c7",
          "transactionIndex": "0x31",
          "logIndex": "0x105",
          "removed": false
        },
        {
          "address": "0x2791bca1f2de4661ed88a30c99a7a9449aa84174",
          "topics": [
            "0x8c5be1e5ebec7d5bd14f71427d1e84f3dd0314c0f7b2291e5b200ac8c7c3b925",
            "0x000000000000000000000000a91588e1a9bf25edb78889cdf72aea577524e279",
            "0x0000000000000000000000004d97dcd97ec945f40cf65f87097ace5ea0476045"
          ],
          "data": "0xffffffffffffffffffffffffffffffffffffffffffffffffffffffffffe17b7f",
          "blockHash": "0xd0e4631a32c09df872af1a4fe4820b6f4a20b7a3ce4e209763a480b465644ec7",
          "blockNumber": "0x4443cc8",
          "transactionHash": "0x2108ebaa176caad3b11e356619950f43b699ef0719bab3248ec658889f24e6c7",
          "transactionIndex": "0x31",
          "logIndex": "0x106",
          "removed": false
        },
        {
          "address": "0x4d97dcd97ec945f40cf65f87097ace5ea0476045",
          "topics": [
            "0x4a39dc06d4c0dbc64b70af90fd698a233a518aa5d07e595d983b8c0526c8f7fb",
            "0x000000000000000000000000a91588e1a9bf25edb78889cdf72aea577524e279",
            "0x0000000000000000000000000000000000000000000000000000000000000000",
            "0x000000000000000000000000a91588e1a9bf25edb78889cdf72aea577524e279"
          ],
          "data": "0x000000000000000000000000000000000000000000000000000000000000004000000000000000000000000000000000000000000000000000000000000000a00000000000000000000000000000000000000000000000000000000000000002f3eb7f4cd29dc80955819251ae49aae29ec5d4a4a9f1b19b1bfb87edd55206907bfc2a104e5c430be513e7d7d4a9792b6df8c227f4df2c741542b1942a1605d1000000000000000000000000000000000000000000000000000000000000000200000000000000000000000000000000000000000000000000000000001e848000000000000000000000000000000000000000000000000000000000001e8480",
          "blockHash": "0xd0e4631a32c09df872af1a4fe4820b6f4a20b7a3ce4e209763a480b465644ec7",
          "blockNumber": "0x4443cc8",
          "transactionHash": "0x2108ebaa176caad3b11e356619950f43b699ef0719bab3248ec658889f24e6c7",
          "transactionIndex": "0x31",
          "logIndex": "0x107",
          "removed": false
        },
        {
          "address": "0x4d97dcd97ec945f40cf65f87097ace5ea0476045",
          "topics": [
            "0x2e6bb91f8cbcda0c93623c54d0403a43514fabc40084ec96b6d5379a74786298",
            "0x000000000000000000000000a91588e1a9bf25edb78889cdf72aea577524e279",
            "0x0000000000000000000000000000000000000000000000000000000000000000",
            "0x3cade829b69b30436629ac0c2494d475211ba6f7e00e192a920653ba00b7db36"
          ],
          "data": "0x0000000000000000000000002791bca1f2de4661ed88a30c99a7a9449aa84174000000000000000000000000000000000000000000000000000000000000006000000000000000000000000000000000000000000000000000000000001e8480000000000000000000000000000000000000000000000000000000000000000200000000000000000000000000000000000000000000000000000000000000010000000000000000000000000000000000000000000000000000000000000002",
          "blockHash": "0xd0e4631a32c09df872af1a4fe4820b6f4a20b7a3ce4e209763a480b465644ec7",
          "blockNumber": "0x4443cc8",
          "transactionHash": "0x2108ebaa176caad3b11e356619950f43b699ef0719bab3248ec658889f24e6c7",
          "transactionIndex": "0x31",
          "logIndex": "0x108",
          "removed": false
        },
        {
          "address": "0x2791bca1f2de4661ed88a30c99a7a9449aa84174",
          "topics": [
            "0xddf252ad1be2c89b69c2b068fc378daa952ba7f163c4a11628f55a4df523b3ef",
            "0x000000000000000000000000a91588e1a9bf25edb78889cdf72aea577524e279",
            "0x0000000000000000000000004d97dcd97ec945f40cf65f87097ace5ea0476045"
          ],
          "data": "0x00000000000000000000000000000000000000000000000000000000001e8480",
          "blockHash": "0xd0e4631a32c09df872af1a4fe4820b6f4a20b7a3ce4e209763a480b465644ec7",
          "blockNumber": "0x4443cc8",
          "transactionHash": "0x2108ebaa176caad3b11e356619950f43b699ef0719bab3248ec658889f24e6c7",
          "transactionIndex": "0x31",
          "logIndex": "0x109",
          "removed": false
        },
        {
          "address": "0x2791bca1f2de4661ed88a30c99a7a9449aa84174",
          "topics": [
            "0x8c5be1e5ebec7d5bd14f71427d1e84f3dd0314c0f7b2291e5b200ac8c7c3b925",
            "0x000000000000000000000000a91588e1a9bf25edb78889cdf72aea577524e279",
            "0x0000000000000000000000004d97dcd97ec945f40cf65f87097ace5ea0476045"
          ],
          "data": "0xffffffffffffffffffffffffffffffffffffffffffffffffffffffffffc2f6ff",
          "blockHash": "0xd0e4631a32c09df872af1a4fe4820b6f4a20b7a3ce4e209763a480b465644ec7",
          "blockNumber": "0x4443cc8",
          "transactionHash": "0x2108ebaa176caad3b11e356619950f43b699ef0719bab3248ec658889f24e6c7",
          "transactionIndex": "0x31",
          "logIndex": "0x10a",
          "removed": false
        },
        {
          "address": "0x4d97dcd97ec945f40cf65f87097ace5ea0476045",
          "topics": [
            "0x4a39dc06d4c0dbc64b70af90fd698a233a518aa5d07e595d983b8c0526c8f7fb",
            "0x000000000000000000000000a91588e1a9bf25edb78889cdf72aea577524e279",
            "0x0000000000000000000000000000000000000000000000000000000000000000",
            "0x000000000000000000000000a91588e1a9bf25edb78889cdf72aea577524e279"
          ],
          "data": "0x000000000000000000000000000000000000000000000000000000000000004000000000000000000000000000000000000000000000000000000000000000a00000000000000000000000000000000000000000000000000000000000000002be87dd6f32f14ea56a7a67271dc7cba3e29a480106e24a00f7f05a055a39714555525a430e83ffbdb1b501cfde45aaadbe93869da7cd596ff6249f452bd7c0bb000000000000000000000000000000000000000000000000000000000000000200000000000000000000000000000000000000000000000000000000001e848000000000000000000000000000000000000000000000000000000000001e8480",
          "blockHash": "0xd0e4631a32c09df872af1a4fe4820b6f4a20b7a3ce4e209763a480b465644ec7",
          "blockNumber": "0x4443cc8",
          "transactionHash": "0x2108ebaa176caad3b11e356619950f43b699ef0719bab3248ec658889f24e6c7",
          "transactionIndex": "0x31",
          "logIndex": "0x10b",
          "removed": false
        },
        {
          "address": "0x4d97dcd97ec945f40cf65f87097ace5ea0476045",
          "topics": [
            "0x2e6bb91f8cbcda0c93623c54d0403a43514fabc40084ec96b6d5379a74786298",
            "0x000000000000000000000000a91588e1a9bf25edb78889cdf72aea577524e279",
            "0x0000000000000000000000000000000000000000000000000000000000000000",
            "0x553728bcacf78928f84c20141df3927eba4e76846d67db8d354a111619501a6b"
          ],
          "data": "0x0000000000000000000000002791bca1f2de4661ed88a30c99a7a9449aa84174000000000000000000000000000000000000000000000000000000000000006000000000000000000000000000000000000000000000000000000000001e8480000000000000000000000000000000000000000000000000000000000000000200000000000000000000000000000000000000000000000000000000000000010000000000000000000000000000000000000000000000000000000000000002",
          "blockHash": "0xd0e4631a32c09df872af1a4fe4820b6f4a20b7a3ce4e209763a480b465644ec7",
          "blockNumber": "0x4443cc8",
          "transactionHash": "0x2108ebaa176caad3b11e356619950f43b699ef0719bab3248ec658889f24e6c7",
          "transactionIndex": "0x31",
          "logIndex": "0x10c",
          "removed": false
        },
        {
          "address": "0x2791bca1f2de4661ed88a30c99a7a9449aa84174",
          "topics": [
            "0xddf252ad1be2c89b69c2b068fc378daa952ba7f163c4a11628f55a4df523b3ef",
            "0x000000000000000000000000a91588e1a9bf25edb78889cdf72aea577524e279",
            "0x0000000000000000000000004d97dcd97ec945f40cf65f87097ace5ea0476045"
          ],
          "data": "0x00000000000000000000000000000000000000000000000000000000001e8480",
          "blockHash": "0xd0e4631a32c09df872af1a4fe4820b6f4a20b7a3ce4e209763a480b465644ec7",
          "blockNumber": "0x4443cc8",
          "transactionHash": "0x2108ebaa176caad3b11e356619950f43b699ef0719bab3248ec658889f24e6c7",
          "transactionIndex": "0x31",
          "logIndex": "0x10d",
          "removed": false
        },
        {
          "address": "0x2791bca1f2de4661ed88a30c99a7a9449aa84174",
          "topics": [
            "0x8c5be1e5ebec7d5bd14f71427d1e84f3dd0314c0f7b2291e5b200ac8c7c3b925",
            "0x000000000000000000000000a91588e1a9bf25edb78889cdf72aea577524e279",
            "0x0000000000000000000000004d97dcd97ec945f40cf65f87097ace5ea0476045"
          ],
          "data": "0xffffffffffffffffffffffffffffffffffffffffffffffffffffffffffa4727f",
          "blockHash": "0xd0e4631a32c09df872af1a4fe4820b6f4a20b7a3ce4e209763a480b465644ec7",
          "blockNumber": "0x4443cc8",
          "transactionHash": "0x2108ebaa176caad3b11e356619950f43b699ef0719bab3248ec658889f24e6c7",
          "transactionIndex": "0x31",
          "logIndex": "0x10e",
          "removed": false
        },
        {
          "address": "0x4d97dcd97ec945f40cf65f87097ace5ea0476045",
          "topics": [
            "0x4a39dc06d4c0dbc64b70af90fd698a233a518aa5d07e595d983b8c0526c8f7fb",
            "0x000000000000000000000000a91588e1a9bf25edb78889cdf72aea577524e279",
            "0x0000000000000000000000000000000000000000000000000000000000000000",
            "0x000000000000000000000000a91588e1a9bf25edb78889cdf72aea577524e279"
          ],
          "data": "0x000000000000000000000000000000000000000000000000000000000000004000000000000000000000000000000000000000000000000000000000000000a00000000000000000000000000000000000000000000000000000000000000002b765739b68f91a6b8343c453dd500db1fd1211730bcfa6c0cf8dd2458871a3ef274f483d89eae851d2dd7b8510d21a8b160bf24c4086684b5ffb997d9c84973d000000000000000000000000000000000000000000000000000000000000000200000000000000000000000000000000000000000000000000000000001e848000000000000000000000000000000000000000000000000000000000001e8480",
          "blockHash": "0xd0e4631a32c09df872af1a4fe4820b6f4a20b7a3ce4e209763a480b465644ec7",
          "blockNumber": "0x4443cc8",
          "transactionHash": "0x2108ebaa176caad3b11e356619950f43b699ef0719bab3248ec658889f24e6c7",
          "transactionIndex": "0x31",
          "logIndex": "0x10f",
          "removed": false
        },
        {
          "address": "0x4d97dcd97ec945f40cf65f87097ace5ea0476045",
          "topics": [
            "0x2e6bb91f8cbcda0c93623c54d0403a43514fabc40084ec96b6d5379a74786298",
            "0x000000000000000000000000a91588e1a9bf25edb78889cdf72aea577524e279",
            "0x0000000000000000000000000000000000000000000000000000000000000000",
            "0x354b6793f25222186de8d3c9ca1e444e71a6d7b7db276bf1aa50b95b8d47cb65"
          ],
          "data": "0x0000000000000000000000002791bca1f2de4661ed88a30c99a7a9449aa84174000000000000000000000000000000000000000000000000000000000000006000000000000000000000000000000000000000000000000000000000001e8480000000000000000000000000000000000000000000000000000000000000000200000000000000000000000000000000000000000000000000000000000000010000000000000000000000000000000000000000000000000000000000000002",
          "blockHash": "0xd0e4631a32c09df872af1a4fe4820b6f4a20b7a3ce4e209763a480b465644ec7",
          "blockNumber": "0x4443cc8",
          "transactionHash": "0x2108ebaa176caad3b11e356619950f43b699ef0719bab3248ec658889f24e6c7",
          "transactionIndex": "0x31",
          "logIndex": "0x110",
          "removed": false
        },
        {
          "address": "0x2791bca1f2de4661ed88a30c99a7a9449aa84174",
          "topics": [
            "0xddf252ad1be2c89b69c2b068fc378daa952ba7f163c4a11628f55a4df523b3ef",
            "0x000000000000000000000000a91588e1a9bf25edb78889cdf72aea577524e279",
            "0x0000000000000000000000004d97dcd97ec945f40cf65f87097ace5ea0476045"
          ],
          "data": "0x00000000000000000000000000000000000000000000000000000000001e8480",
          "blockHash": "0xd0e4631a32c09df872af1a4fe4820b6f4a20b7a3ce4e209763a480b465644ec7",
          "blockNumber": "0x4443cc8",
          "transactionHash": "0x2108ebaa176caad3b11e356619950f43b699ef0719bab3248ec658889f24e6c7",
          "transactionIndex": "0x31",
          "logIndex": "0x111",
          "removed": false
        },
        {
          "address": "0x2791bca1f2de4661ed88a30c99a7a9449aa84174",
          "topics": [
            "0x8c5be1e5ebec7d5bd14f71427d1e84f3dd0314c0f7b2291e5b200ac8c7c3b925",
            "0x000000000000000000000000a91588e1a9bf25edb78889cdf72aea577524e279",
            "0x0000000000000000000000004d97dcd97ec945f40cf65f87097ace5ea0476045"
          ],
          "data": "0xffffffffffffffffffffffffffffffffffffffffffffffffffffffffff85edff",
          "blockHash": "0xd0e4631a32c09df872af1a4fe4820b6f4a20b7a3ce4e209763a480b465644ec7",
          "blockNumber": "0x4443cc8",
          "transactionHash": "0x2108ebaa176caad3b11e356619950f43b699ef0719bab3248ec658889f24e6c7",
          "transactionIndex": "0x31",
          "logIndex": "0x112",
          "removed": false
        },
        {
          "address": "0x4d97dcd97ec945f40cf65f87097ace5ea0476045",
          "topics": [
            "0x4a39dc06d4c0dbc64b70af90fd698a233a518aa5d07e595d983b8c0526c8f7fb",
            "0x000000000000000000000000a91588e1a9bf25edb78889cdf72aea577524e279",
            "0x0000000000000000000000000000000000000000000000000000000000000000",
            "0x000000000000000000000000a91588e1a9bf25edb78889cdf72aea577524e279"
          ],
          "data": "0x000000000000000000000000000000000000000000000000000000000000004000000000000000000000000000000000000000000000000000000000000000a00000000000000000000000000000000000000000000000000000000000000002a3d592d6002f1d275821d74d4dc1b736e054edb4f4f503fc7daf64433f3a878335d451cc82492f4ab9d2489892038bfe00ce089d310f513bd95d5755fa75851f000000000000000000000000000000000000000000000000000000000000000200000000000000000000000000000000000000000000000000000000001e848000000000000000000000000000000000000000000000000000000000001e8480",
          "blockHash": "0xd0e4631a32c09df872af1a4fe4820b6f4a20b7a3ce4e209763a480b465644ec7",
          "blockNumber": "0x4443cc8",
          "transactionHash": "0x2108ebaa176caad3b11e356619950f43b699ef0719bab3248ec658889f24e6c7",
          "transactionIndex": "0x31",
          "logIndex": "0x113",
          "removed": false
        },
        {
          "address": "0x4d97dcd97ec945f40cf65f87097ace5ea0476045",
          "topics": [
            "0x2e6bb91f8cbcda0c93623c54d0403a43514fabc40084ec96b6d5379a74786298",
            "0x000000000000000000000000a91588e1a9bf25edb78889cdf72aea577524e279",
            "0x0000000000000000000000000000000000000000000000000000000000000000",
            "0x5bf33c43674b2bc7452acca8d971ff8a84ccee5fbce29b9d4b75f8f895aa52c2"
          ],
          "data": "0x0000000000000000000000002791bca1f2de4661ed88a30c99a7a9449aa84174000000000000000000000000000000000000000000000000000000000000006000000000000000000000000000000000000000000000000000000000001e8480000000000000000000000000000000000000000000000000000000000000000200000000000000000000000000000000000000000000000000000000000000010000000000000000000000000000000000000000000000000000000000000002",
          "blockHash": "0xd0e4631a32c09df872af1a4fe4820b6f4a20b7a3ce4e209763a480b465644ec7",
          "blockNumber": "0x4443cc8",
          "transactionHash": "0x2108ebaa176caad3b11e356619950f43b699ef0719bab3248ec658889f24e6c7",
          "transactionIndex": "0x31",
          "logIndex": "0x114",
          "removed": false
        },
        {
          "address": "0xa91588e1a9bf25edb78889cdf72aea577524e279",
          "topics": [
            "0xddf252ad1be2c89b69c2b068fc378daa952ba7f163c4a11628f55a4df523b3ef",
            "0x0000000000000000000000000000000000000000000000000000000000000000",
            "0x0000000000000000000000001aa44c933a6718a4bc44064f0067a853c34be9b0"
          ],
          "data": "0x00000000000000000000000000000000000000000000000000000000001e8480",
          "blockHash": "0xd0e4631a32c09df872af1a4fe4820b6f4a20b7a3ce4e209763a480b465644ec7",
          "blockNumber": "0x4443cc8",
          "transactionHash": "0x2108ebaa176caad3b11e356619950f43b699ef0719bab3248ec658889f24e6c7",
          "transactionIndex": "0x31",
          "logIndex": "0x115",
          "removed": false
        },
        {
          "address": "0xa91588e1a9bf25edb78889cdf72aea577524e279",
          "topics": [
            "0xe1fffcc4923d04b559f4d29a8bfc6cda04eb5b0d3c460751c2402c5c5cc9109c",
            "0x0000000000000000000000001aa44c933a6718a4bc44064f0067a853c34be9b0"
          ],
          "data": "0x00000000000000000000000000000000000000000000000000000000001e8480",
          "blockHash": "0xd0e4631a32c09df872af1a4fe4820b6f4a20b7a3ce4e209763a480b465644ec7",
          "blockNumber": "0x4443cc8",
          "transactionHash": "0x2108ebaa176caad3b11e356619950f43b699ef0719bab3248ec658889f24e6c7",
          "transactionIndex": "0x31",
          "logIndex": "0x116",
          "removed": false
        },
        {
          "address": "0x0000000000000000000000000000000000001010",
          "topics": [
            "0x4dfe1bbbcf077ddc3e01291eea2d5c70c2b422b415d95645b9adcfd678cb1d63",
            "0x0000000000000000000000000000000000000000000000000000000000001010",
            "0x0000000000000000000000001aa44c933a6718a4bc44064f0067a853c34be9b0",
            "0x0000000000000000000000001efecb61a2f80aa34d3b9218b564a64d05946290"
          ],
          "data": "0x000000000000000000000000000000000000000000000000003571489986de0300000000000000000000000000000000000000000000000059baaa648606b9fa000000000000000000000000000000000000000000003ab7ec72dd141ce3faf50000000000000000000000000000000000000000000000005985391bec7fdbf7000000000000000000000000000000000000000000003ab7eca84e5cb66ad8f8",
          "blockHash": "0xd0e4631a32c09df872af1a4fe4820b6f4a20b7a3ce4e209763a480b465644ec7",
          "blockNumber": "0x4443cc8",
          "transactionHash": "0x2108ebaa176caad3b11e356619950f43b699ef0719bab3248ec658889f24e6c7",
          "transactionIndex": "0x31",
          "logIndex": "0x117",
          "removed": false
        }
      ],
      "logsBloom": "0x00000000000060000000000000400000000000000000000000010000000040000000000000000000010000002000000000008000000000000000000000200000200000000000000000000008000200800000000000000000000100008000000000040000020000000001000000000800000000000800008180000010000000000001000000000000000000001000000000000001000000000000000040000000220001000400000000000080000001000000000100000000000000001000804000000102000008000001000000000000000404080000000000100000800020002110008080004000040000000000000000000000000000400000010002100000",
      "type": "0x2",
      "transactionHash": "0x2108ebaa176caad3b11e356619950f43b699ef0719bab3248ec658889f24e6c7",
      "transactionIndex": "0x31",
      "blockHash": "0xd0e4631a32c09df872af1a4fe4820b6f4a20b7a3ce4e209763a480b465644ec7",
      "blockNumber": "0x4443cc8",
      "gasUsed": "0x85f6b",
      "effectiveGasPrice": "0xbe1d2db42",
      "from": "0x1aa44c933a6718a4bc44064f0067a853c34be9b0",
      "to": "0xa91588e1a9bf25edb78889cdf72aea577524e279",
      "contractAddress": null
    }
  ],
  "libraries": [],
  "pending": [],
  "returns": {},
  "timestamp": 1747385841,
  "chain": 137,
  "commit": "d6a2b0f"
}