{
  "transactions": [
    {
      "hash": "0xa94b876420457662028f47c4963e1244e6fc89abe6e2fa536a1d9dec4e896eca",
      "transactionType": "CALL",
      "contractName": null,
      "contractAddress": "0x2791bca1f2de4661ed88a30c99a7a9449aa84174",
      "function": "approve(address,uint256)",
      "arguments": [
        "0x4D97DCd97eC945f40cF65F87097ACe5EA0476045",
        "115792089237316195423570985008687907853269984665640564039457584007913129639935"
      ],
      "transaction": {
        "from": "0x1aa44c933a6718a4bc44064f0067a853c34be9b0",
        "to": "0x2791bca1f2de4661ed88a30c99a7a9449aa84174",
        "gas": "0xdc35",
        "value": "0x0",
        "input": "0x095ea7b30000000000000000000000004d97dcd97ec945f40cf65f87097ace5ea0476045ffffffffffffffffffffffffffffffffffffffffffffffffffffffffffffffff",
        "nonce": "0xc8",
        "chainId": "0x89"
      },
      "additionalContracts": [],
      "isFixedGasLimit": false
    },
    {
      "hash": "0xeb9507fdf9881b832ad9612d1b17ade3586683d0a1957dc3e26cdfcd4e95b2e5",
      "transactionType": "CALL",
      "contractName": null,
      "contractAddress": "0x4d97dcd97ec945f40cf65f87097ace5ea0476045",
      "function": "setApprovalForAll(address,bool)",
      "arguments": [
        "0xC01BbFC94C41F0D8Fc242cFe8465ea4dcD4f20C5",
        "true"
      ],
      "transaction": {
        "from": "0x1aa44c933a6718a4bc44064f0067a853c34be9b0",
        "to": "0x4d97dcd97ec945f40cf65f87097ace5ea0476045",
        "gas": "0x8ccd",
        "value": "0x0",
        "input": "0xa22cb465000000000000000000000000c01bbfc94c41f0d8fc242cfe8465ea4dcd4f20c50000000000000000000000000000000000000000000000000000000000000001",
        "nonce": "0xc9",
        "chainId": "0x89"
      },
      "additionalContracts": [],
      "isFixedGasLimit": false
    },
    {
      "hash": "0x3072ecd8fbe4933e784e204d12ccd4d69742c3fc90c6e0190e0744a0c0835c9d",
      "transactionType": "CALL",
      "contractName": null,
      "contractAddress": "0xc01bbfc94c41f0d8fc242cfe8465ea4dcd4f20c5",
      "function": "createIndex((address,bytes32[],uint256[],bytes,address),bytes)",
      "arguments": [
        "(0x7bcd278Bb230fF014149cE32c5a9663812Da9810, [0x7d98815be880769be11a63b4df815b9bdcbf6ae007a8caaba9a2909816a8d1c6, 0x8904b9db5aff6b1b84f9daaa0f8038b661be40d883050553b5675d30002c7abc, 0xe87bd5cdc398599a9348d7a56c612948cb83a42faa1e2934343058bd604dc099, 0x54416d15d2428ec5fb1e6f2e646f0fd570f367be80d9dd285c479c8e9ce238a6], [1, 1, 1, 1], 0x0000000000000000000000000000000000000000000000000000000000000020000000000000000000000000000000000000000000000000000000000000001a506f6c796e616e63652d41492d52616e646f6d2d73656c656374000000000000, 0x3De278A5acdD0123eD668478ac8cCd2E178510BC)",
        "0x"
      ],
      "transaction": {
        "from": "0x1aa44c933a6718a4bc44064f0067a853c34be9b0",
        "to": "0xc01bbfc94c41f0d8fc242cfe8465ea4dcd4f20c5",
        "gas": "0x106aa0",
        "value": "0x0",
        "input": "0xd2f72136000000000000000000000000000000000000000000000000000000000000004000000000000000000000000000000000000000000000000000000000000002a00000000000000000000000007bcd278bb230ff014149ce32c5a9663812da981000000000000000000000000000000000000000000000000000000000000000a0000000000000000000000000000000000000000000000000000000000000014000000000000000000000000000000000000000000000000000000000000001e00000000000000000000000003de278a5acdd0123ed668478ac8ccd2e178510bc00000000000000000000000000000000000000000000000000000000000000047d98815be880769be11a63b4df815b9bdcbf6ae007a8caaba9a2909816a8d1c68904b9db5aff6b1b84f9daaa0f8038b661be40d883050553b5675d30002c7abce87bd5cdc398599a9348d7a56c612948cb83a42faa1e2934343058bd604dc09954416d15d2428ec5fb1e6f2e646f0fd570f367be80d9dd285c479c8e9ce238a60000000000000000000000000000000000000000000000000000000000000004000000000000000000000000000000000000000000000000000000000000000100000000000000000000000000000000000000000000000000000000000000010000000000000000000000000000000000000000000000000000000000000001000000000000000000000000000000000000000000000000000000000000000100000000000000000000000000000000000000000000000000000000000000600000000000000000000000000000000000000000000000000000000000000020000000000000000000000000000000000000000000000000000000000000001a506f6c796e616e63652d41492d52616e646f6d2d73656c6563740000000000000000000000000000000000000000000000000000000000000000000000000000",
        "nonce": "0xca",
        "chainId": "0x89"
      },
      "additionalContracts": [
        {
          "transactionType": "CREATE2",
          "address": "0x0557eceead263249368b07e12e9f6c1fc59878eb",
          "initCode": "0x6103cd3d81600a3d39f3363d3d373d3d3d363d737bcd278bb230ff014149ce32c5a9663812da98105af43d82803e903d91602b57fd5bf30000000000000000000000000000000000000000000000000000000000000020000000000000000000000000000000000000000000000000000000000000012000000000000000000000000000000000000000000000000000000000000001c000000000000000000000000000000000000000000000000000000000000002600000000000000000000000000000000000000000000000000000000000000300000000000000000000000000c01bbfc94c41f0d8fc242cfe8465ea4dcd4f20c50000000000000000000000004d97dcd97ec945f40cf65f87097ace5ea04760450000000000000000000000002791bca1f2de4661ed88a30c99a7a9449aa841740000000000000000000000007bcd278bb230ff014149ce32c5a9663812da98100000000000000000000000003de278a5acdd0123ed668478ac8ccd2e178510bc00000000000000000000000000000000000000000000000000000000000000041e50f3ac63a65fe7a076dc904e72e9fb904bd5b75ce40adb2b6aa8f859bb5fd0287d8e28b0969500785d137706cc4cf0ac406b2a92d44ad226efde922d4c660a30ba754e82d4d0ebed6e2f93b6d83b4e23087e9db5d0abcbcc98b1dd61d6cdad8a707a5380305bf68bc6e589ec4597aeec8ab0eb84ec661c47eff81cf283af6800000000000000000000000000000000000000000000000000000000000000047d98815be880769be11a63b4df815b9bdcbf6ae007a8caaba9a2909816a8d1c68904b9db5aff6b1b84f9daaa0f8038b661be40d883050553b5675d30002c7abce87bd5cdc398599a9348d7a56c612948cb83a42faa1e2934343058bd604dc09954416d15d2428ec5fb1e6f2e646f0fd570f367be80d9dd285c479c8e9ce238a60000000000000000000000000000000000000000000000000000000000000004000000000000000000000000000000000000000000000000000000000000000100000000000000000000000000000000000000000000000000000000000000010000000000000000000000000000000000000000000000000000000000000001000000000000000000000000000000000000000000000000000000000000000100000000000000000000000000000000000000000000000000000000000000600000000000000000000000000000000000000000000000000000000000000020000000000000000000000000000000000000000000000000000000000000001a506f6c796e616e63652d41492d52616e646f6d2d73656c656374000000000000"
        }
      ],
      "isFixedGasLimit": false
    },
    {
      "hash": "0x29bcf6e07fbc591d3438cd526cad5d34338a0ea4d0a7244bb787dcba2eab52a8",
      "transactionType": "CALL",
      "contractName": null,
      "contractAddress": "0x2791bca1f2de4661ed88a30c99a7a9449aa84174",
      "function": "approve(address,uint256)",
      "arguments": [
        "0x0557EceeAD263249368B07E12e9f6C1FC59878eB",
        "115792089237316195423570985008687907853269984665640564039457584007913129639935"
      ],
      "transaction": {
        "from": "0x1aa44c933a6718a4bc44064f0067a853c34be9b0",
        "to": "0x2791bca1f2de4661ed88a30c99a7a9449aa84174",
        "gas": "0x13b57",
        "value": "0x0",
        "input": "0x095ea7b30000000000000000000000000557eceead263249368b07e12e9f6c1fc59878ebffffffffffffffffffffffffffffffffffffffffffffffffffffffffffffffff",
        "nonce": "0xcb",
        "chainId": "0x89"
      },
      "additionalContracts": [],
      "isFixedGasLimit": false
    },
    {
      "hash": "0x2b7b244caa92146d1fcb8cf1e2a07a710da306b2c0b9429688509b786684a144",
      "transactionType": "CALL",
      "contractName": null,
      "contractAddress": "0x4d97dcd97ec945f40cf65f87097ace5ea0476045",
      "function": "setApprovalForAll(address,bool)",
      "arguments": [
        "0x0557EceeAD263249368B07E12e9f6C1FC59878eB",
        "true"
      ],
      "transaction": {
        "from": "0x1aa44c933a6718a4bc44064f0067a853c34be9b0",
        "to": "0x4d97dcd97ec945f40cf65f87097ace5ea0476045",
        "gas": "0xf82b",
        "value": "0x0",
        "input": "0xa22cb4650000000000000000000000000557eceead263249368b07e12e9f6c1fc59878eb0000000000000000000000000000000000000000000000000000000000000001",
        "nonce": "0xcc",
        "chainId": "0x89"
      },
      "additionalContracts": [],
      "isFixedGasLimit": false
    },
    {
      "hash": "0xac11db5e8a92c252cf1603c1ee0dc91f65f6561f7b0c8b0e299f7e5a79fc8175",
      "transactionType": "CALL",
      "contractName": null,
      "contractAddress": "0x0557eceead263249368b07e12e9f6c1fc59878eb",
      "function": "deposit(uint256)",
      "arguments": [
        "4000000"
      ],
      "transaction": {
        "from": "0x1aa44c933a6718a4bc44064f0067a853c34be9b0",
        "to": "0x0557eceead263249368b07e12e9f6c1fc59878eb",
        "gas": "0xc5c90",
        "value": "0x0",
        "input": "0xb6b55f2500000000000000000000000000000000000000000000000000000000003d0900",
        "nonce": "0xcd",
        "chainId": "0x89"
      },
      "additionalContracts": [],
      "isFixedGasLimit": false
    }
  ],
  "receipts": [
    {
      "status": "0x1",
      "cumulativeGasUsed": "0x6abbe7",
      "logs": [
        {
          "address": "0x2791bca1f2de4661ed88a30c99a7a9449aa84174",
          "topics": [
            "0x8c5be1e5ebec7d5bd14f71427d1e84f3dd0314c0f7b2291e5b200ac8c7c3b925",
            "0x0000000000000000000000001aa44c933a6718a4bc44064f0067a853c34be9b0",
            "0x0000000000000000000000004d97dcd97ec945f40cf65f87097ace5ea0476045"
          ],
          "data": "0xffffffffffffffffffffffffffffffffffffffffffffffffffffffffffffffff",
          "blockHash": "0x495557dc396ad6a36a3c2c6a160481dfc8cb6454aacadd3c12d376ff8cc84e86",
          "blockNumber": "0x444854a",
          "transactionHash": "0xa94b876420457662028f47c4963e1244e6fc89abe6e2fa536a1d9dec4e896eca",
          "transactionIndex": "0x30",
          "logIndex": "0x11e",
          "removed": false
        },
        {
          "address": "0x0000000000000000000000000000000000001010",
          "topics": [
            "0x4dfe1bbbcf077ddc3e01291eea2d5c70c2b422b415d95645b9adcfd678cb1d63",
            "0x0000000000000000000000000000000000000000000000000000000000001010",
            "0x0000000000000000000000001aa44c933a6718a4bc44064f0067a853c34be9b0",
            "0x000000000000000000000000794e44d1334a56fea7f4df12633b88820d0c5888"
          ],
          "data": "0x0000000000000000000000000000000000000000000000000003c7856aea3f8a0000000000000000000000000000000000000000000000004917fee89a9fb1540000000000000000000000000000000000000000000005eddb8858280f3872bd000000000000000000000000000000000000000000000000491437632fb571ca0000000000000000000000000000000000000000000005eddb8c1fad7a22b247",
          "blockHash": "0x495557dc396ad6a36a3c2c6a160481dfc8cb6454aacadd3c12d376ff8cc84e86",
          "blockNumber": "0x444854a",
          "transactionHash": "0xa94b876420457662028f47c4963e1244e6fc89abe6e2fa536a1d9dec4e896eca",
          "transactionIndex": "0x30",
          "logIndex": "0x11f",
          "removed": false
        }
      ],
      "logsBloom": "0x00000000000020000000000000000000000000000000000000000000000000000000000000001000000000000000000000008000000000000000000000200000000000000000000000000000000200800000000000000000000100020000000000000000000000000000000000000000000000000000000180000000000000000001000000000000000000001000000000000000000000000000000000000000220000000400000000000080000001000000000000000000000000000000004000000000000000000001000000000000000000000000000000100000000000000010008000000000000000000000000000000000000000000000000020100000",
      "type": "0x2",
      "transactionHash": "0xa94b876420457662028f47c4963e1244e6fc89abe6e2fa536a1d9dec4e896eca",
      "transactionIndex": "0x30",
      "blockHash": "0x495557dc396ad6a36a3c2c6a160481dfc8cb6454aacadd3c12d376ff8cc84e86",
      "blockNumber": "0x444854a",
      "gasUsed": "0x9692",
      "effectiveGasPrice": "0x66cfb54bd",
      "from": "0x1aa44c933a6718a4bc44064f0067a853c34be9b0",
      "to": "0x2791bca1f2de4661ed88a30c99a7a9449aa84174",
      "contractAddress": null
    },
    {
      "status": "0x1",
      "cumulativeGasUsed": "0x6b21d7",
      "logs": [
        {
          "address": "0x4d97dcd97ec945f40cf65f87097ace5ea0476045",
          "topics": [
            "0x17307eab39ab6107e8899845ad3d59bd9653f200f220920489ca2b5937696c31",
            "0x0000000000000000000000001aa44c933a6718a4bc44064f0067a853c34be9b0",
            "0x000000000000000000000000c01bbfc94c41f0d8fc242cfe8465ea4dcd4f20c5"
          ],
          "data": "0x0000000000000000000000000000000000000000000000000000000000000001",
          "blockHash": "0x495557dc396ad6a36a3c2c6a160481dfc8cb6454aacadd3c12d376ff8cc84e86",
          "blockNumber": "0x444854a",
          "transactionHash": "0xeb9507fdf9881b832ad9612d1b17ade3586683d0a1957dc3e26cdfcd4e95b2e5",
          "transactionIndex": "0x31",
          "logIndex": "0x120",
          "removed": false
        },
        {
          "address": "0x0000000000000000000000000000000000001010",
          "topics": [
            "0x4dfe1bbbcf077ddc3e01291eea2d5c70c2b422b415d95645b9adcfd678cb1d63",
            "0x0000000000000000000000000000000000000000000000000000000000001010",
            "0x0000000000000000000000001aa44c933a6718a4bc44064f0067a853c34be9b0",
            "0x000000000000000000000000794e44d1334a56fea7f4df12633b88820d0c5888"
          ],
          "data": "0x00000000000000000000000000000000000000000000000000028f0554014430000000000000000000000000000000000000000000000000491437632fa29f8a0000000000000000000000000000000000000000000005eddb8c1fad7a22b2470000000000000000000000000000000000000000000000004911a85ddba15b5a0000000000000000000000000000000000000000000005eddb8eaeb2ce23f677",
          "blockHash": "0x495557dc396ad6a36a3c2c6a160481dfc8cb6454aacadd3c12d376ff8cc84e86",
          "blockNumber": "0x444854a",
          "transactionHash": "0xeb9507fdf9881b832ad9612d1b17ade3586683d0a1957dc3e26cdfcd4e95b2e5",
          "transactionIndex": "0x31",
          "logIndex": "0x121",
          "removed": false
        }
      ],
      "logsBloom": "0x00000000000020000000000000000000000000000000000000000000000040000000000000001000000000000000000000008000000000000000000000000000000000000000000000200000000000800000000000000000000100020000000002000000000000000000000000000000000000000000000080001000000000000000000000000000000000001000000000000000000000000000000000000000200000000000000000000080000000000000000000000000000000000000004000000000000000000001000000000000000004000000000000100000000000000000200800000000040000000000000000000000000000000000000020100000",
      "type": "0x2",
      "transactionHash": "0xeb9507fdf9881b832ad9612d1b17ade3586683d0a1957dc3e26cdfcd4e95b2e5",
      "transactionIndex": "0x31",
      "blockHash": "0x495557dc396ad6a36a3c2c6a160481dfc8cb6454aacadd3c12d376ff8cc84e86",
      "blockNumber": "0x444854a",
      "gasUsed": "0x65f0",
      "effectiveGasPrice": "0x66cfb54bd",
      "from": "0x1aa44c933a6718a4bc44064f0067a853c34be9b0",
      "to": "0x4d97dcd97ec945f40cf65f87097ace5ea0476045",
      "contractAddress": null
    },
    {
      "status": "0x1",
      "cumulativeGasUsed": "0x770477",
      "logs": [
        {
          "address": "0x4d97dcd97ec945f40cf65f87097ace5ea0476045",
          "topics": [
            "0x17307eab39ab6107e8899845ad3d59bd9653f200f220920489ca2b5937696c31",
            "0x0000000000000000000000000557eceead263249368b07e12e9f6c1fc59878eb",
            "0x0000000000000000000000004d97dcd97ec945f40cf65f87097ace5ea0476045"
          ],
          "data": "0x0000000000000000000000000000000000000000000000000000000000000001",
          "blockHash": "0x495557dc396ad6a36a3c2c6a160481dfc8cb6454aacadd3c12d376ff8cc84e86",
          "blockNumber": "0x444854a",
          "transactionHash": "0x3072ecd8fbe4933e784e204d12ccd4d69742c3fc90c6e0190e0744a0c0835c9d",
          "transactionIndex": "0x32",
          "logIndex": "0x122",
          "removed": false
        },
        {
          "address": "0x2791bca1f2de4661ed88a30c99a7a9449aa84174",
          "topics": [
            "0x8c5be1e5ebec7d5bd14f71427d1e84f3dd0314c0f7b2291e5b200ac8c7c3b925",
            "0x0000000000000000000000000557eceead263249368b07e12e9f6c1fc59878eb",
            "0x0000000000000000000000004d97dcd97ec945f40cf65f87097ace5ea0476045"
          ],
          "data": "0xffffffffffffffffffffffffffffffffffffffffffffffffffffffffffffffff",
          "blockHash": "0x495557dc396ad6a36a3c2c6a160481dfc8cb6454aacadd3c12d376ff8cc84e86",
          "blockNumber": "0x444854a",
          "transactionHash": "0x3072ecd8fbe4933e784e204d12ccd4d69742c3fc90c6e0190e0744a0c0835c9d",
          "transactionIndex": "0x32",
          "logIndex": "0x123",
          "removed": false
        },
        {
          "address": "0xc01bbfc94c41f0d8fc242cfe8465ea4dcd4f20c5",
          "topics": [
            "0x750538103f64f9b5e2db539e5c1f7552a63aa9e68e07396b2b4b58f7cfef18ab",
            "0x0000000000000000000000000557eceead263249368b07e12e9f6c1fc59878eb"
          ],
          "data": "0x000000000000000000000000000000000000000000000000000000000000004000000000000000000000000000000000000000000000000000000000000000e000000000000000000000000000000000000000000000000000000000000000041e50f3ac63a65fe7a076dc904e72e9fb904bd5b75ce40adb2b6aa8f859bb5fd0287d8e28b0969500785d137706cc4cf0ac406b2a92d44ad226efde922d4c660a30ba754e82d4d0ebed6e2f93b6d83b4e23087e9db5d0abcbcc98b1dd61d6cdad8a707a5380305bf68bc6e589ec4597aeec8ab0eb84ec661c47eff81cf283af6800000000000000000000000000000000000000000000000000000000000000600000000000000000000000000000000000000000000000000000000000000020000000000000000000000000000000000000000000000000000000000000001a506f6c796e616e63652d41492d52616e646f6d2d73656c656374000000000000",
          "blockHash": "0x495557dc396ad6a36a3c2c6a160481dfc8cb6454aacadd3c12d376ff8cc84e86",
          "blockNumber": "0x444854a",
          "transactionHash": "0x3072ecd8fbe4933e784e204d12ccd4d69742c3fc90c6e0190e0744a0c0835c9d",
          "transactionIndex": "0x32",
          "logIndex": "0x124",
          "removed": false
        },
        {
          "address": "0x0000000000000000000000000000000000001010",
          "topics": [
            "0x4dfe1bbbcf077ddc3e01291eea2d5c70c2b422b415d95645b9adcfd678cb1d63",
            "0x0000000000000000000000000000000000000000000000000000000000001010",
            "0x0000000000000000000000001aa44c933a6718a4bc44064f0067a853c34be9b0",
            "0x000000000000000000000000794e44d1334a56fea7f4df12633b88820d0c5888"
          ],
          "data": "0x000000000000000000000000000000000000000000000000004c5f06a0867c200000000000000000000000000000000000000000000000004911a85ddb949d5a0000000000000000000000000000000000000000000005eddb8eaeb2ce23f67700000000000000000000000000000000000000000000000048c549573b0e213a0000000000000000000000000000000000000000000005eddbdb0db96eaa7297",
          "blockHash": "0x495557dc396ad6a36a3c2c6a160481dfc8cb6454aacadd3c12d376ff8cc84e86",
          "blockNumber": "0x444854a",
          "transactionHash": "0x3072ecd8fbe4933e784e204d12ccd4d69742c3fc90c6e0190e0744a0c0835c9d",
          "transactionIndex": "0x32",
          "logIndex": "0x125",
          "removed": false
        }
      ],
      "logsBloom": "0x00000000000020000000000000000000000000000000000000000000000040000000000000001000000000000000080010008000000000000000000000200000000000004000000000000000000200800000000000040000020100020000000002000040000000000000000000000000000000000000000180000000000000000001000000000000000000001000000000001000000000000000000000000000220000010400000000000080000001000000000000000000000000000000004000000000000000000001000000000000000004000000000000100000000000000010208800000000040000000000000000000000000000000000000020100000",
      "type": "0x2",
      "transactionHash": "0x3072ecd8fbe4933e784e204d12ccd4d69742c3fc90c6e0190e0744a0c0835c9d",
      "transactionIndex": "0x32",
      "blockHash": "0x495557dc396ad6a36a3c2c6a160481dfc8cb6454aacadd3c12d376ff8cc84e86",
      "blockNumber": "0x444854a",
      "gasUsed": "0xbe2a0",
      "effectiveGasPrice": "0x66cfb54bd",
      "from": "0x1aa44c933a6718a4bc44064f0067a853c34be9b0",
      "to": "0xc01bbfc94c41f0d8fc242cfe8465ea4dcd4f20c5",
      "contractAddress": null
    },
    {
      "status": "0x1",
      "cumulativeGasUsed": "0x77e8c5",
      "logs": [
        {
          "address": "0x2791bca1f2de4661ed88a30c99a7a9449aa84174",
          "topics": [
            "0x8c5be1e5ebec7d5bd14f71427d1e84f3dd0314c0f7b2291e5b200ac8c7c3b925",
            "0x0000000000000000000000001aa44c933a6718a4bc44064f0067a853c34be9b0",
            "0x0000000000000000000000000557eceead263249368b07e12e9f6c1fc59878eb"
          ],
          "data": "0xffffffffffffffffffffffffffffffffffffffffffffffffffffffffffffffff",
          "blockHash": "0x495557dc396ad6a36a3c2c6a160481dfc8cb6454aacadd3c12d376ff8cc84e86",
          "blockNumber": "0x444854a",
          "transactionHash": "0x29bcf6e07fbc591d3438cd526cad5d34338a0ea4d0a7244bb787dcba2eab52a8",
          "transactionIndex": "0x33",
          "logIndex": "0x126",
          "removed": false
        },
        {
          "address": "0x0000000000000000000000000000000000001010",
          "topics": [
            "0x4dfe1bbbcf077ddc3e01291eea2d5c70c2b422b415d95645b9adcfd678cb1d63",
            "0x0000000000000000000000000000000000000000000000000000000000001010",
            "0x0000000000000000000000001aa44c933a6718a4bc44064f0067a853c34be9b0",
            "0x000000000000000000000000794e44d1334a56fea7f4df12633b88820d0c5888"
          ],
          "data": "0x0000000000000000000000000000000000000000000000000005bb050bef9bd600000000000000000000000000000000000000000000000048c549573991cd3a0000000000000000000000000000000000000000000005eddbdb0db96eaa729700000000000000000000000000000000000000000000000048bf8e522da231640000000000000000000000000000000000000000000005eddbe0c8be7a9a0e6d",
          "blockHash": "0x495557dc396ad6a36a3c2c6a160481dfc8cb6454aacadd3c12d376ff8cc84e86",
          "blockNumber": "0x444854a",
          "transactionHash": "0x29bcf6e07fbc591d3438cd526cad5d34338a0ea4d0a7244bb787dcba2eab52a8",
          "transactionIndex": "0x33",
          "logIndex": "0x127",
          "removed": false
        }
      ],
      "logsBloom": "0x00000000000020000000000000000000000000000000000000000000000000000000000000001000000000000000080000008000000000000000000000200000000000000000000000000000000000800000000000040000000100020000000000000000000000000000000000000000000000000000000180000000000000000001000000000000000000001000000000000000000000000000000000000000220000010000000000000080000000000000000000000000000000000000004000000000000000000001000000000000000000000000000000100000000000000010008000000000000000000000000000000000000000000000000020100000",
      "type": "0x2",
      "transactionHash": "0x29bcf6e07fbc591d3438cd526cad5d34338a0ea4d0a7244bb787dcba2eab52a8",
      "transactionIndex": "0x33",
      "blockHash": "0x495557dc396ad6a36a3c2c6a160481dfc8cb6454aacadd3c12d376ff8cc84e86",
      "blockNumber": "0x444854a",
      "gasUsed": "0xe44e",
      "effectiveGasPrice": "0x66cfb54bd",
      "from": "0x1aa44c933a6718a4bc44064f0067a853c34be9b0",
      "to": "0x2791bca1f2de4661ed88a30c99a7a9449aa84174",
      "contractAddress": null
    },
    {
      "status": "0x1",
      "cumulativeGasUsed": "0x789c71",
      "logs": [
        {
          "address": "0x4d97dcd97ec945f40cf65f87097ace5ea0476045",
          "topics": [
            "0x17307eab39ab6107e8899845ad3d59bd9653f200f220920489ca2b5937696c31",
            "0x0000000000000000000000001aa44c933a6718a4bc44064f0067a853c34be9b0",
            "0x0000000000000000000000000557eceead263249368b07e12e9f6c1fc59878eb"
          ],
          "data": "0x0000000000000000000000000000000000000000000000000000000000000001",
          "blockHash": "0x495557dc396ad6a36a3c2c6a160481dfc8cb6454aacadd3c12d376ff8cc84e86",
          "blockNumber": "0x444854a",
          "transactionHash": "0x2b7b244caa92146d1fcb8cf1e2a07a710da306b2c0b9429688509b786684a144",
          "transactionIndex": "0x34",
          "logIndex": "0x128",
          "removed": false
        },
        {
          "address": "0x0000000000000000000000000000000000001010",
          "topics": [
            "0x4dfe1bbbcf077ddc3e01291eea2d5c70c2b422b415d95645b9adcfd678cb1d63",
            "0x0000000000000000000000000000000000000000000000000000000000001010",
            "0x0000000000000000000000001aa44c933a6718a4bc44064f0067a853c34be9b0",
            "0x000000000000000000000000794e44d1334a56fea7f4df12633b88820d0c5888"
          ],
          "data": "0x00000000000000000000000000000000000000000000000000048284f506a07c00000000000000000000000000000000000000000000000048bf8e522d85a7a40000000000000000000000000000000000000000000005eddbe0c8be7a9a0e6d00000000000000000000000000000000000000000000000048bb0bcd387f07280000000000000000000000000000000000000000000005eddbe54b436fa0aee9",
          "blockHash": "0x495557dc396ad6a36a3c2c6a160481dfc8cb6454aacadd3c12d376ff8cc84e86",
          "blockNumber": "0x444854a",
          "transactionHash": "0x2b7b244caa92146d1fcb8cf1e2a07a710da306b2c0b9429688509b786684a144",
          "transactionIndex": "0x34",
          "logIndex": "0x129",
          "removed": false
        }
      ],
      "logsBloom": "0x00000000000020000000000000000000000000000000000000000000000040000000000000001000000000000000080000008000000000000000000000000000000000000000000000000000000000800000000000040000000100020000000002000000000000000000000000000000000000000000000080000000000000000000000000000000000000001000000000000000000000000000000000000000200000010000000000000080000000000000000000000000000000000000004000000000000000000001000000000000000004000000000000100000000000000000200800000000040000000000000000000000000000000000000020100000",
      "type": "0x2",
      "transactionHash": "0x2b7b244caa92146d1fcb8cf1e2a07a710da306b2c0b9429688509b786684a144",
      "transactionIndex": "0x34",
      "blockHash": "0x495557dc396ad6a36a3c2c6a160481dfc8cb6454aacadd3c12d376ff8cc84e86",
      "blockNumber": "0x444854a",
      "gasUsed": "0xb3ac",
      "effectiveGasPrice": "0x66cfb54bd",
      "from": "0x1aa44c933a6718a4bc44064f0067a853c34be9b0",
      "to": "0x4d97dcd97ec945f40cf65f87097ace5ea0476045",
      "contractAddress": null
    },
    {
      "status": "0x1",
      "cumulativeGasUsed": "0x818f88",
      "logs": [
        {
          "address": "0x2791bca1f2de4661ed88a30c99a7a9449aa84174",
          "topics": [
            "0xddf252ad1be2c89b69c2b068fc378daa952ba7f163c4a11628f55a4df523b3ef",
            "0x0000000000000000000000001aa44c933a6718a4bc44064f0067a853c34be9b0",
            "0x0000000000000000000000000557eceead263249368b07e12e9f6c1fc59878eb"
          ],
          "data": "0x00000000000000000000000000000000000000000000000000000000003d0900",
          "blockHash": "0x495557dc396ad6a36a3c2c6a160481dfc8cb6454aacadd3c12d376ff8cc84e86",
          "blockNumber": "0x444854a",
          "transactionHash": "0xac11db5e8a92c252cf1603c1ee0dc91f65f6561f7b0c8b0e299f7e5a79fc8175",
          "transactionIndex": "0x35",
          "logIndex": "0x12a",
          "removed": false
        },
        {
          "address": "0x2791bca1f2de4661ed88a30c99a7a9449aa84174",
          "topics": [
            "0x8c5be1e5ebec7d5bd14f71427d1e84f3dd0314c0f7b2291e5b200ac8c7c3b925",
            "0x0000000000000000000000001aa44c933a6718a4bc44064f0067a853c34be9b0",
            "0x0000000000000000000000000557eceead263249368b07e12e9f6c1fc59878eb"
          ],
          "data": "0xffffffffffffffffffffffffffffffffffffffffffffffffffffffffffc2f6ff",
          "blockHash": "0x495557dc396ad6a36a3c2c6a160481dfc8cb6454aacadd3c12d376ff8cc84e86",
          "blockNumber": "0x444854a",
          "transactionHash": "0xac11db5e8a92c252cf1603c1ee0dc91f65f6561f7b0c8b0e299f7e5a79fc8175",
          "transactionIndex": "0x35",
          "logIndex": "0x12b",
          "removed": false
        },
        {
          "address": "0x2791bca1f2de4661ed88a30c99a7a9449aa84174",
          "topics": [
            "0xddf252ad1be2c89b69c2b068fc378daa952ba7f163c4a11628f55a4df523b3ef",
            "0x0000000000000000000000000557eceead263249368b07e12e9f6c1fc59878eb",
            "0x0000000000000000000000004d97dcd97ec945f40cf65f87097ace5ea0476045"
          ],
          "data": "0x00000000000000000000000000000000000000000000000000000000000f4240",
          "blockHash": "0x495557dc396ad6a36a3c2c6a160481dfc8cb6454aacadd3c12d376ff8cc84e86",
          "blockNumber": "0x444854a",
          "transactionHash": "0xac11db5e8a92c252cf1603c1ee0dc91f65f6561f7b0c8b0e299f7e5a79fc8175",
          "transactionIndex": "0x35",
          "logIndex": "0x12c",
          "removed": false
        },
        {
          "address": "0x2791bca1f2de4661ed88a30c99a7a9449aa84174",
          "topics": [
            "0x8c5be1e5ebec7d5bd14f71427d1e84f3dd0314c0f7b2291e5b200ac8c7c3b925",
            "0x0000000000000000000000000557eceead263249368b07e12e9f6c1fc59878eb",
            "0x0000000000000000000000004d97dcd97ec945f40cf65f87097ace5ea0476045"
          ],
          "data": "0xfffffffffffffffffffffffffffffffffffffffffffffffffffffffffff0bdbf",
          "blockHash": "0x495557dc396ad6a36a3c2c6a160481dfc8cb6454aacadd3c12d376ff8cc84e86",
          "blockNumber": "0x444854a",
          "transactionHash": "0xac11db5e8a92c252cf1603c1ee0dc91f65f6561f7b0c8b0e299f7e5a79fc8175",
          "transactionIndex": "0x35",
          "logIndex": "0x12d",
          "removed": false
        },
        {
          "address": "0x4d97dcd97ec945f40cf65f87097ace5ea0476045",
          "topics": [
            "0x4a39dc06d4c0dbc64b70af90fd698a233a518aa5d07e595d983b8c0526c8f7fb",
            "0x0000000000000000000000000557eceead263249368b07e12e9f6c1fc59878eb",
            "0x0000000000000000000000000000000000000000000000000000000000000000",
            "0x0000000000000000000000000557eceead263249368b07e12e9f6c1fc59878eb"
          ],
          "data": "0x000000000000000000000000000000000000000000000000000000000000004000000000000000000000000000000000000000000000000000000000000000a0000000000000000000000000000000000000000000000000000000000000000230ba754e82d4d0ebed6e2f93b6d83b4e23087e9db5d0abcbcc98b1dd61d6cdad0da051d4afcdb636a4c6caedb8c63a2329b90106aa0e12b2a0ec83d55d620201000000000000000000000000000000000000000000000000000000000000000200000000000000000000000000000000000000000000000000000000000f424000000000000000000000000000000000000000000000000000000000000f4240",
          "blockHash": "0x495557dc396ad6a36a3c2c6a160481dfc8cb6454aacadd3c12d376ff8cc84e86",
          "blockNumber": "0x444854a",
          "transactionHash": "0xac11db5e8a92c252cf1603c1ee0dc91f65f6561f7b0c8b0e299f7e5a79fc8175",
          "transactionIndex": "0x35",
          "logIndex": "0x12e",
          "removed": false
        },
        {
          "address": "0x4d97dcd97ec945f40cf65f87097ace5ea0476045",
          "topics": [
            "0x2e6bb91f8cbcda0c93623c54d0403a43514fabc40084ec96b6d5379a74786298",
            "0x0000000000000000000000000557eceead263249368b07e12e9f6c1fc59878eb",
            "0x0000000000000000000000000000000000000000000000000000000000000000",
            "0x7d98815be880769be11a63b4df815b9bdcbf6ae007a8caaba9a2909816a8d1c6"
          ],
          "data": "0x0000000000000000000000002791bca1f2de4661ed88a30c99a7a9449aa84174000000000000000000000000000000000000000000000000000000000000006000000000000000000000000000000000000000000000000000000000000f4240000000000000000000000000000000000000000000000000000000000000000200000000000000000000000000000000000000000000000000000000000000010000000000000000000000000000000000000000000000000000000000000002",
          "blockHash": "0x495557dc396ad6a36a3c2c6a160481dfc8cb6454aacadd3c12d376ff8cc84e86",
          "blockNumber": "0x444854a",
          "transactionHash": "0xac11db5e8a92c252cf1603c1ee0dc91f65f6561f7b0c8b0e299f7e5a79fc8175",
          "transactionIndex": "0x35",
          "logIndex": "0x12f",
          "removed": false
        },
        {
          "address": "0x2791bca1f2de4661ed88a30c99a7a9449aa84174",
          "topics": [
            "0xddf252ad1be2c89b69c2b068fc378daa952ba7f163c4a11628f55a4df523b3ef",
            "0x0000000000000000000000000557eceead263249368b07e12e9f6c1fc59878eb",
            "0x0000000000000000000000004d97dcd97ec945f40cf65f87097ace5ea0476045"
          ],
          "data": "0x00000000000000000000000000000000000000000000000000000000000f4240",
          "blockHash": "0x495557dc396ad6a36a3c2c6a160481dfc8cb6454aacadd3c12d376ff8cc84e86",
          "blockNumber": "0x444854a",
          "transactionHash": "0xac11db5e8a92c252cf1603c1ee0dc91f65f6561f7b0c8b0e299f7e5a79fc8175",
          "transactionIndex": "0x35",
          "logIndex": "0x130",
          "removed": false
        },
        {
          "address": "0x2791bca1f2de4661ed88a30c99a7a9449aa84174",
          "topics": [
            "0x8c5be1e5ebec7d5bd14f71427d1e84f3dd0314c0f7b2291e5b200ac8c7c3b925",
            "0x0000000000000000000000000557eceead263249368b07e12e9f6c1fc59878eb",
            "0x0000000000000000000000004d97dcd97ec945f40cf65f87097ace5ea0476045"
          ],
          "data": "0xffffffffffffffffffffffffffffffffffffffffffffffffffffffffffe17b7f",
          "blockHash": "0x495557dc396ad6a36a3c2c6a160481dfc8cb6454aacadd3c12d376ff8cc84e86",
          "blockNumber": "0x444854a",
          "transactionHash": "0xac11db5e8a92c252cf1603c1ee0dc91f65f6561f7b0c8b0e299f7e5a79fc8175",
          "transactionIndex": "0x35",
          "logIndex": "0x131",
          "removed": false
        },
        {
          "address": "0x4d97dcd97ec945f40cf65f87097ace5ea0476045",
          "topics": [
            "0x4a39dc06d4c0dbc64b70af90fd698a233a518aa5d07e595d983b8c0526c8f7fb",
            "0x0000000000000000000000000557eceead263249368b07e12e9f6c1fc59878eb",
            "0x0000000000000000000000000000000000000000000000000000000000000000",
            "0x0000000000000000000000000557eceead263249368b07e12e9f6c1fc59878eb"
          ],
          "data": "0x000000000000000000000000000000000000000000000000000000000000004000000000000000000000000000000000000000000000000000000000000000a00000000000000000000000000000000000000000000000000000000000000002287d8e28b0969500785d137706cc4cf0ac406b2a92d44ad226efde922d4c660a2950c06add7f1917fdf7ea9de714e272e6a82216d1931ce7ac2540ccd8291484000000000000000000000000000000000000000000000000000000000000000200000000000000000000000000000000000000000000000000000000000f424000000000000000000000000000000000000000000000000000000000000f4240",
          "blockHash": "0x495557dc396ad6a36a3c2c6a160481dfc8cb6454aacadd3c12d376ff8cc84e86",
          "blockNumber": "0x444854a",
          "transactionHash": "0xac11db5e8a92c252cf1603c1ee0dc91f65f6561f7b0c8b0e299f7e5a79fc8175",
          "transactionIndex": "0x35",
          "logIndex": "0x132",
          "removed": false
        },
        {
          "address": "0x4d97dcd97ec945f40cf65f87097ace5ea0476045",
          "topics": [
            "0x2e6bb91f8cbcda0c93623c54d0403a43514fabc40084ec96b6d5379a74786298",
            "0x0000000000000000000000000557eceead263249368b07e12e9f6c1fc59878eb",
            "0x0000000000000000000000000000000000000000000000000000000000000000",
            "0x8904b9db5aff6b1b84f9daaa0f8038b661be40d883050553b5675d30002c7abc"
          ],
          "data": "0x0000000000000000000000002791bca1f2de4661ed88a30c99a7a9449aa84174000000000000000000000000000000000000000000000000000000000000006000000000000000000000000000000000000000000000000000000000000f4240000000000000000000000000000000000000000000000000000000000000000200000000000000000000000000000000000000000000000000000000000000010000000000000000000000000000000000000000000000000000000000000002",
          "blockHash": "0x495557dc396ad6a36a3c2c6a160481dfc8cb6454aacadd3c12d376ff8cc84e86",
          "blockNumber": "0x444854a",
          "transactionHash": "0xac11db5e8a92c252cf1603c1ee0dc91f65f6561f7b0c8b0e299f7e5a79fc8175",
          "transactionIndex": "0x35",
          "logIndex": "0x133",
          "removed": false
        },
        {
          "address": "0x2791bca1f2de4661ed88a30c99a7a9449aa84174",
          "topics": [
            "0xddf252ad1be2c89b69c2b068fc378daa952ba7f163c4a11628f55a4df523b3ef",
            "0x0000000000000000000000000557eceead263249368b07e12e9f6c1fc59878eb",
            "0x0000000000000000000000004d97dcd97ec945f40cf65f87097ace5ea0476045"
          ],
          "data": "0x00000000000000000000000000000000000000000000000000000000000f4240",
          "blockHash": "0x495557dc396ad6a36a3c2c6a160481dfc8cb6454aacadd3c12d376ff8cc84e86",
          "blockNumber": "0x444854a",
          "transactionHash": "0xac11db5e8a92c252cf1603c1ee0dc91f65f6561f7b0c8b0e299f7e5a79fc8175",
          "transactionIndex": "0x35",
          "logIndex": "0x134",
          "removed": false
        },
        {
          "address": "0x2791bca1f2de4661ed88a30c99a7a9449aa84174",
          "topics": [
            "0x8c5be1e5ebec7d5bd14f71427d1e84f3dd0314c0f7b2291e5b200ac8c7c3b925",
            "0x0000000000000000000000000557eceead263249368b07e12e9f6c1fc59878eb",
            "0x0000000000000000000000004d97dcd97ec945f40cf65f87097ace5ea0476045"
          ],
          "data": "0xffffffffffffffffffffffffffffffffffffffffffffffffffffffffffd2393f",
          "blockHash": "0x495557dc396ad6a36a3c2c6a160481dfc8cb6454aacadd3c12d376ff8cc84e86",
          "blockNumber": "0x444854a",
          "transactionHash": "0xac11db5e8a92c252cf1603c1ee0dc91f65f6561f7b0c8b0e299f7e5a79fc8175",
          "transactionIndex": "0x35",
          "logIndex": "0x135",
          "removed": false
        },
        {
          "address": "0x4d97dcd97ec945f40cf65f87097ace5ea0476045",
          "topics": [
            "0x4a39dc06d4c0dbc64b70af90fd698a233a518aa5d07e595d983b8c0526c8f7fb",
            "0x0000000000000000000000000557eceead263249368b07e12e9f6c1fc59878eb",
            "0x0000000000000000000000000000000000000000000000000000000000000000",
            "0x0000000000000000000000000557eceead263249368b07e12e9f6c1fc59878eb"
          ],
          "data": "0x000000000000000000000000000000000000000000000000000000000000004000000000000000000000000000000000000000000000000000000000000000a000000000000000000000000000000000000000000000000000000000000000028a707a5380305bf68bc6e589ec4597aeec8ab0eb84ec661c47eff81cf283af68479394f948dec2d8d0efdeb3589a87f1472d52b749c19bed002234f0764ee1fb000000000000000000000000000000000000000000000000000000000000000200000000000000000000000000000000000000000000000000000000000f424000000000000000000000000000000000000000000000000000000000000f4240",
          "blockHash": "0x495557dc396ad6a36a3c2c6a160481dfc8cb6454aacadd3c12d376ff8cc84e86",
          "blockNumber": "0x444854a",
          "transactionHash": "0xac11db5e8a92c252cf1603c1ee0dc91f65f6561f7b0c8b0e299f7e5a79fc8175",
          "transactionIndex": "0x35",
          "logIndex": "0x136",
          "removed": false
        },
        {
          "address": "0x4d97dcd97ec945f40cf65f87097ace5ea0476045",
          "topics": [
            "0x2e6bb91f8cbcda0c93623c54d0403a43514fabc40084ec96b6d5379a74786298",
            "0x0000000000000000000000000557eceead263249368b07e12e9f6c1fc59878eb",
            "0x0000000000000000000000000000000000000000000000000000000000000000",
            "0xe87bd5cdc398599a9348d7a56c612948cb83a42faa1e2934343058bd604dc099"
          ],
          "data": "0x0000000000000000000000002791bca1f2de4661ed88a30c99a7a9449aa84174000000000000000000000000000000000000000000000000000000000000006000000000000000000000000000000000000000000000000000000000000f4240000000000000000000000000000000000000000000000000000000000000000200000000000000000000000000000000000000000000000000000000000000010000000000000000000000000000000000000000000000000000000000000002",
          "blockHash": "0x495557dc396ad6a36a3c2c6a160481dfc8cb6454aacadd3c12d376ff8cc84e86",
          "blockNumber": "0x444854a",
          "transactionHash": "0xac11db5e8a92c252cf1603c1ee0dc91f65f6561f7b0c8b0e299f7e5a79fc8175",
          "transactionIndex": "0x35",
          "logIndex": "0x137",
          "removed": false
        },
        {
          "address": "0x2791bca1f2de4661ed88a30c99a7a9449aa84174",
          "topics": [
            "0xddf252ad1be2c89b69c2b068fc378daa952ba7f163c4a11628f55a4df523b3ef",
            "0x0000000000000000000000000557eceead263249368b07e12e9f6c1fc59878eb",
            "0x0000000000000000000000004d97dcd97ec945f40cf65f87097ace5ea0476045"
          ],
          "data": "0x00000000000000000000000000000000000000000000000000000000000f4240",
          "blockHash": "0x495557dc396ad6a36a3c2c6a160481dfc8cb6454aacadd3c12d376ff8cc84e86",
          "blockNumber": "0x444854a",
          "transactionHash": "0xac11db5e8a92c252cf1603c1ee0dc91f65f6561f7b0c8b0e299f7e5a79fc8175",
          "transactionIndex": "0x35",
          "logIndex": "0x138",
          "removed": false
        },
        {
          "address": "0x2791bca1f2de4661ed88a30c99a7a9449aa84174",
          "topics": [
            "0x8c5be1e5ebec7d5bd14f71427d1e84f3dd0314c0f7b2291e5b200ac8c7c3b925",
            "0x0000000000000000000000000557eceead263249368b07e12e9f6c1fc59878eb",
            "0x0000000000000000000000004d97dcd97ec945f40cf65f87097ace5ea0476045"
          ],
          "data": "0xffffffffffffffffffffffffffffffffffffffffffffffffffffffffffc2f6ff",
          "blockHash": "0x495557dc396ad6a36a3c2c6a160481dfc8cb6454aacadd3c12d376ff8cc84e86",
          "blockNumber": "0x444854a",
          "transactionHash": "0xac11db5e8a92c252cf1603c1ee0dc91f65f6561f7b0c8b0e299f7e5a79fc8175",
          "transactionIndex": "0x35",
          "logIndex": "0x139",
          "removed": false
        },
        {
          "address": "0x4d97dcd97ec945f40cf65f87097ace5ea0476045",
          "topics": [
            "0x4a39dc06d4c0dbc64b70af90fd698a233a518aa5d07e595d983b8c0526c8f7fb",
            "0x0000000000000000000000000557eceead263249368b07e12e9f6c1fc59878eb",
            "0x0000000000000000000000000000000000000000000000000000000000000000",
            "0x0000000000000000000000000557eceead263249368b07e12e9f6c1fc59878eb"
          ],
          "data": "0x000000000000000000000000000000000000000000000000000000000000004000000000000000000000000000000000000000000000000000000000000000a000000000000000000000000000000000000000000000000000000000000000021e50f3ac63a65fe7a076dc904e72e9fb904bd5b75ce40adb2b6aa8f859bb5fd0dbded53a6ea3390943bc38a31324fc912e4f67bd387bdbefbb6dece11948f385000000000000000000000000000000000000000000000000000000000000000200000000000000000000000000000000000000000000000000000000000f424000000000000000000000000000000000000000000000000000000000000f4240",
          "blockHash": "0x495557dc396ad6a36a3c2c6a160481dfc8cb6454aacadd3c12d376ff8cc84e86",
          "blockNumber": "0x444854a",
          "transactionHash": "0xac11db5e8a92c252cf1603c1ee0dc91f65f6561f7b0c8b0e299f7e5a79fc8175",
          "transactionIndex": "0x35",
          "logIndex": "0x13a",
          "removed": false
        },
        {
          "address": "0x4d97dcd97ec945f40cf65f87097ace5ea0476045",
          "topics": [
            "0x2e6bb91f8cbcda0c93623c54d0403a43514fabc40084ec96b6d5379a74786298",
            "0x0000000000000000000000000557eceead263249368b07e12e9f6c1fc59878eb",
            "0x0000000000000000000000000000000000000000000000000000000000000000",
            "0x54416d15d2428ec5fb1e6f2e646f0fd570f367be80d9dd285c479c8e9ce238a6"
          ],
          "data": "0x0000000000000000000000002791bca1f2de4661ed88a30c99a7a9449aa84174000000000000000000000000000000000000000000000000000000000000006000000000000000000000000000000000000000000000000000000000000f4240000000000000000000000000000000000000000000000000000000000000000200000000000000000000000000000000000000000000000000000000000000010000000000000000000000000000000000000000000000000000000000000002",
          "blockHash": "0x495557dc396ad6a36a3c2c6a160481dfc8cb6454aacadd3c12d376ff8cc84e86",
          "blockNumber": "0x444854a",
          "transactionHash": "0xac11db5e8a92c252cf1603c1ee0dc91f65f6561f7b0c8b0e299f7e5a79fc8175",
          "transactionIndex": "0x35",
          "logIndex": "0x13b",
          "removed": false
        },
        {
          "address": "0x0557eceead263249368b07e12e9f6c1fc59878eb",
          "topics": [
            "0xddf252ad1be2c89b69c2b068fc378daa952ba7f163c4a11628f55a4df523b3ef",
            "0x0000000000000000000000000000000000000000000000000000000000000000",
            "0x0000000000000000000000001aa44c933a6718a4bc44064f0067a853c34be9b0"
          ],
          "data": "0x00000000000000000000000000000000000000000000000000000000000f4240",
          "blockHash": "0x495557dc396ad6a36a3c2c6a160481dfc8cb6454aacadd3c12d376ff8cc84e86",
          "blockNumber": "0x444854a",
          "transactionHash": "0xac11db5e8a92c252cf1603c1ee0dc91f65f6561f7b0c8b0e299f7e5a79fc8175",
          "transactionIndex": "0x35",
          "logIndex": "0x13c",
          "removed": false
        },
        {
          "address": "0x0557eceead263249368b07e12e9f6c1fc59878eb",
          "topics": [
            "0xe1fffcc4923d04b559f4d29a8bfc6cda04eb5b0d3c460751c2402c5c5cc9109c",
            "0x0000000000000000000000001aa44c933a6718a4bc44064f0067a853c34be9b0"
          ],
          "data": "0x00000000000000000000000000000000000000000000000000000000000f4240",
          "blockHash": "0x495557dc396ad6a36a3c2c6a160481dfc8cb6454aacadd3c12d376ff8cc84e86",
          "blockNumber": "0x444854a",
          "transactionHash": "0xac11db5e8a92c252cf1603c1ee0dc91f65f6561f7b0c8b0e299f7e5a79fc8175",
          "transactionIndex": "0x35",
          "logIndex": "0x13d",
          "removed": false
        },
        {
          "address": "0x0000000000000000000000000000000000001010",
          "topics": [
            "0x4dfe1bbbcf077ddc3e01291eea2d5c70c2b422b415d95645b9adcfd678cb1d63",
            "0x0000000000000000000000000000000000000000000000000000000000001010",
            "0x0000000000000000000000001aa44c933a6718a4bc44064f0067a853c34be9b0",
            "0x000000000000000000000000794e44d1334a56fea7f4df12633b88820d0c5888"
          ],
          "data": "0x000000000000000000000000000000000000000000000000003981e100cda11b00000000000000000000000000000000000000000000000048bb0bcd386891a80000000000000000000000000000000000000000000005eddbe54b436fa0aee9000000000000000000000000000000000000000000000000488189ec379af08d0000000000000000000000000000000000000000000005eddc1ecd24706e5004",
          "blockHash": "0x495557dc396ad6a36a3c2c6a160481dfc8cb6454aacadd3c12d376ff8cc84e86",
          "blockNumber": "0x444854a",
          "transactionHash": "0xac11db5e8a92c252cf1603c1ee0dc91f65f6561f7b0c8b0e299f7e5a79fc8175",
          "transactionIndex": "0x35",
          "logIndex": "0x13e",
          "removed": false
        }
      ],
      "logsBloom": "0x00000000002020000000000000000000000000000000000000000000000040000000000000001000010000002000188000008000000000000000000000200000000000000000000000000008000200c00000000000040000000100028000008000000000020000000001000000000800000000000800000180000010000000000001000000000000000000001000000000040001000000000000000000000000220000010420000000000080000003000000000000000000000000000000004000000002000002000001000000000000000404000000000000100100000020000010008000000000040000000000008400000000000000400000000122100000",
      "type": "0x2",
      "transactionHash": "0xac11db5e8a92c252cf1603c1ee0dc91f65f6561f7b0c8b0e299f7e5a79fc8175",
      "transactionIndex": "0x35",
      "blockHash": "0x495557dc396ad6a36a3c2c6a160481dfc8cb6454aacadd3c12d376ff8cc84e86",
      "blockNumber": "0x444854a",
      "gasUsed": "0x8f317",
      "effectiveGasPrice": "0x66cfb54bd",
      "from": "0x1aa44c933a6718a4bc44064f0067a853c34be9b0",
      "to": "0x0557eceead263249368b07e12e9f6c1fc59878eb",
      "contractAddress": null
    }
  ],
  "libraries": [],
  "pending": [],
  "returns": {},
  "timestamp": 1747425319,
  "chain": 137,
  "commit": "d6a2b0f"
}