{
  "transactions": [
    {
      "hash": "0x069cdc1f490b1bc1b5fee7f561beba9235718d7dc44fdb54177298fd07828545",
      "transactionType": "CALL",
      "contractName": null,
      "contractAddress": "0x2791bca1f2de4661ed88a30c99a7a9449aa84174",
      "function": "approve(address,uint256)",
      "arguments": [
        "0x4D97DCd97eC945f40cF65F87097ACe5EA0476045",
        "115792089237316195423570985008687907853269984665640564039457584007913129639935"
      ],
      "transaction": {
        "from": "0x1aa44c933a6718a4bc44064f0067a853c34be9b0",
        "to": "0x2791bca1f2de4661ed88a30c99a7a9449aa84174",
        "gas": "0xdc35",
        "value": "0x0",
        "input": "0x095ea7b30000000000000000000000004d97dcd97ec945f40cf65f87097ace5ea0476045ffffffffffffffffffffffffffffffffffffffffffffffffffffffffffffffff",
        "nonce": "0xab",
        "chainId": "0x89"
      },
      "additionalContracts": [],
      "isFixedGasLimit": false
    },
    {
      "hash": "0x435d2569075d90f83d59b686e93acba6914edef6da3f969cd44d57d2da0ab0fb",
      "transactionType": "CALL",
      "contractName": null,
      "contractAddress": "0x4d97dcd97ec945f40cf65f87097ace5ea0476045",
      "function": "setApprovalForAll(address,bool)",
      "arguments": [
        "0xC01BbFC94C41F0D8Fc242cFe8465ea4dcD4f20C5",
        "true"
      ],
      "transaction": {
        "from": "0x1aa44c933a6718a4bc44064f0067a853c34be9b0",
        "to": "0x4d97dcd97ec945f40cf65f87097ace5ea0476045",
        "gas": "0x8ccd",
        "value": "0x0",
        "input": "0xa22cb465000000000000000000000000c01bbfc94c41f0d8fc242cfe8465ea4dcd4f20c50000000000000000000000000000000000000000000000000000000000000001",
        "nonce": "0xac",
        "chainId": "0x89"
      },
      "additionalContracts": [],
      "isFixedGasLimit": false
    },
    {
      "hash": "0x0810cae5ff0782f2f4ced602cbe0670b91262114c077306e68777277ad92cd69",
      "transactionType": "CALL",
      "contractName": null,
      "contractAddress": "0xc01bbfc94c41f0d8fc242cfe8465ea4dcd4f20c5",
      "function": "createIndex((address,bytes32[],uint256[],bytes,address),bytes)",
      "arguments": [
        "(0x7bcd278Bb230fF014149cE32c5a9663812Da9810, [0xa64b6a05ed2aa20d2cb6c373314c0d9931acbd24e7fe95bd1920784b23ab9da0, 0x5ce0d897bd66142c43a38204a67ad85bc3e0643382258411a5aa58ca3e825082, 0x23e8024f638844fc16d0ccde8416fdcfb91b2261c19a33a9325aa130d907d78c, 0x42d229e920b4b940905d0b2cc293e5c596b765360e261ea7d0fbe748ca4f7020], [1, 1, 1, 1], 0x00000000000000000000000000000000000000000000000000000000000000200000000000000000000000000000000000000000000000000000000000000025537570706f7274696e6720726f6c6573206272696e6720737461626c652070726f66697473000000000000000000000000000000000000000000000000000000, 0x3De278A5acdD0123eD668478ac8cCd2E178510BC)",
        "0x"
      ],
      "transaction": {
        "from": "0x1aa44c933a6718a4bc44064f0067a853c34be9b0",
        "to": "0xc01bbfc94c41f0d8fc242cfe8465ea4dcd4f20c5",
        "gas": "0x1307a6",
        "value": "0x0",
        "input": "0xd2f72136000000000000000000000000000000000000000000000000000000000000004000000000000000000000000000000000000000000000000000000000000002c00000000000000000000000007bcd278bb230ff014149ce32c5a9663812da981000000000000000000000000000000000000000000000000000000000000000a0000000000000000000000000000000000000000000000000000000000000014000000000000000000000000000000000000000000000000000000000000001e00000000000000000000000003de278a5acdd0123ed668478ac8ccd2e178510bc0000000000000000000000000000000000000000000000000000000000000004a64b6a05ed2aa20d2cb6c373314c0d9931acbd24e7fe95bd1920784b23ab9da05ce0d897bd66142c43a38204a67ad85bc3e0643382258411a5aa58ca3e82508223e8024f638844fc16d0ccde8416fdcfb91b2261c19a33a9325aa130d907d78c42d229e920b4b940905d0b2cc293e5c596b765360e261ea7d0fbe748ca4f702000000000000000000000000000000000000000000000000000000000000000040000000000000000000000000000000000000000000000000000000000000001000000000000000000000000000000000000000000000000000000000000000100000000000000000000000000000000000000000000000000000000000000010000000000000000000000000000000000000000000000000000000000000001000000000000000000000000000000000000000000000000000000000000008000000000000000000000000000000000000000000000000000000000000000200000000000000000000000000000000000000000000000000000000000000025537570706f7274696e6720726f6c6573206272696e6720737461626c652070726f666974730000000000000000000000000000000000000000000000000000000000000000000000000000000000000000000000000000000000000000000000",
        "nonce": "0xad",
        "chainId": "0x89"
      },
      "additionalContracts": [
        {
          "transactionType": "CREATE2",
          "address": "0x787de5d30d327ed20b3cae7227f0aecacda2852e",
          "initCode": "0x6103ed3d81600a3d39f3363d3d373d3d3d363d737bcd278bb230ff014149ce32c5a9663812da98105af43d82803e903d91602b57fd5bf30000000000000000000000000000000000000000000000000000000000000020000000000000000000000000000000000000000000000000000000000000012000000000000000000000000000000000000000000000000000000000000001c000000000000000000000000000000000000000000000000000000000000002600000000000000000000000000000000000000000000000000000000000000300000000000000000000000000c01bbfc94c41f0d8fc242cfe8465ea4dcd4f20c50000000000000000000000004d97dcd97ec945f40cf65f87097ace5ea04760450000000000000000000000002791bca1f2de4661ed88a30c99a7a9449aa841740000000000000000000000007bcd278bb230ff014149ce32c5a9663812da98100000000000000000000000003de278a5acdd0123ed668478ac8ccd2e178510bc000000000000000000000000000000000000000000000000000000000000000415bf81a330bf158157d4d0685e9917523ee982106f26417d8ea4ccf281bc9dc3ac9f35c8cbe893c258d4f3053ef0eee3f5b7871d9cd99f0a83a8cb42c56a3bd7ceac2e16fa28c00ab8ed1d9ab44fd63de0186c3a56d6a5356039ec5e8461b5f9d827e6e1c4c64199c19b34d81f683cfa5f0156f04c01b875dab90c749b2bcb750000000000000000000000000000000000000000000000000000000000000004a64b6a05ed2aa20d2cb6c373314c0d9931acbd24e7fe95bd1920784b23ab9da05ce0d897bd66142c43a38204a67ad85bc3e0643382258411a5aa58ca3e82508223e8024f638844fc16d0ccde8416fdcfb91b2261c19a33a9325aa130d907d78c42d229e920b4b940905d0b2cc293e5c596b765360e261ea7d0fbe748ca4f702000000000000000000000000000000000000000000000000000000000000000040000000000000000000000000000000000000000000000000000000000000001000000000000000000000000000000000000000000000000000000000000000100000000000000000000000000000000000000000000000000000000000000010000000000000000000000000000000000000000000000000000000000000001000000000000000000000000000000000000000000000000000000000000008000000000000000000000000000000000000000000000000000000000000000200000000000000000000000000000000000000000000000000000000000000025537570706f7274696e6720726f6c6573206272696e6720737461626c652070726f66697473000000000000000000000000000000000000000000000000000000"
        }
      ],
      "isFixedGasLimit": false
    }
  ],
  "receipts": [
    {
      "status": "0x1",
      "cumulativeGasUsed": "0x4f9ae2",
      "logs": [
        {
          "address": "0x2791bca1f2de4661ed88a30c99a7a9449aa84174",
          "topics": [
            "0x8c5be1e5ebec7d5bd14f71427d1e84f3dd0314c0f7b2291e5b200ac8c7c3b925",
            "0x0000000000000000000000001aa44c933a6718a4bc44064f0067a853c34be9b0",
            "0x0000000000000000000000004d97dcd97ec945f40cf65f87097ace5ea0476045"
          ],
          "data": "0xffffffffffffffffffffffffffffffffffffffffffffffffffffffffffffffff",
          "blockHash": "0x2eb6c98d89a0610bc52ce92bc06dd3f5ef8073ea9140c08a0ea4c4b4edb0489d",
          "blockNumber": "0x4444743",
          "transactionHash": "0x069cdc1f490b1bc1b5fee7f561beba9235718d7dc44fdb54177298fd07828545",
          "transactionIndex": "0x34",
          "logIndex": "0xb2",
          "removed": false
        },
        {
          "address": "0x0000000000000000000000000000000000001010",
          "topics": [
            "0x4dfe1bbbcf077ddc3e01291eea2d5c70c2b422b415d95645b9adcfd678cb1d63",
            "0x0000000000000000000000000000000000000000000000000000000000001010",
            "0x0000000000000000000000001aa44c933a6718a4bc44064f0067a853c34be9b0",
            "0x0000000000000000000000001efecb61a2f80aa34d3b9218b564a64d05946290"
          ],
          "data": "0x0000000000000000000000000000000000000000000000000003d5de8c14312e0000000000000000000000000000000000000000000000004ec79a6961f45559000000000000000000000000000000000000000000003ac4b712f782d999bf950000000000000000000000000000000000000000000000004ec3c48ad5e0242b000000000000000000000000000000000000000000003ac4b716cd6165adf0c3",
          "blockHash": "0x2eb6c98d89a0610bc52ce92bc06dd3f5ef8073ea9140c08a0ea4c4b4edb0489d",
          "blockNumber": "0x4444743",
          "transactionHash": "0x069cdc1f490b1bc1b5fee7f561beba9235718d7dc44fdb54177298fd07828545",
          "transactionIndex": "0x34",
          "logIndex": "0xb3",
          "removed": false
        }
      ],
      "logsBloom": "0x00000000000020000000000000000000000000000000000000000000000000000000000000000000000000000000000000008000000000000000000000200000200000000000000000000000000200800000000000000000000100000000000000000000000000000000000000000000000000000000000180000000000000000001000000000000000000001000000000000000000000000000000000000000220000000400000000000080000001000000000000000000000000000000004000000100000000000001000000000000000000000000000000100000000000002010008000000000000000000000000000000000000000000000000000100000",
      "type": "0x2",
      "transactionHash": "0x069cdc1f490b1bc1b5fee7f561beba9235718d7dc44fdb54177298fd07828545",
      "transactionIndex": "0x34",
      "blockHash": "0x2eb6c98d89a0610bc52ce92bc06dd3f5ef8073ea9140c08a0ea4c4b4edb0489d",
      "blockNumber": "0x4444743",
      "gasUsed": "0x9692",
      "effectiveGasPrice": "0x1251b5ac7e",
      "from": "0x1aa44c933a6718a4bc44064f0067a853c34be9b0",
      "to": "0x2791bca1f2de4661ed88a30c99a7a9449aa84174",
      "contractAddress": null
    },
    {
      "status": "0x1",
      "cumulativeGasUsed": "0x5000d2",
      "logs": [
        {
          "address": "0x4d97dcd97ec945f40cf65f87097ace5ea0476045",
          "topics": [
            "0x17307eab39ab6107e8899845ad3d59bd9653f200f220920489ca2b5937696c31",
            "0x0000000000000000000000001aa44c933a6718a4bc44064f0067a853c34be9b0",
            "0x000000000000000000000000c01bbfc94c41f0d8fc242cfe8465ea4dcd4f20c5"
          ],
          "data": "0x0000000000000000000000000000000000000000000000000000000000000001",
          "blockHash": "0x2eb6c98d89a0610bc52ce92bc06dd3f5ef8073ea9140c08a0ea4c4b4edb0489d",
          "blockNumber": "0x4444743",
          "transactionHash": "0x435d2569075d90f83d59b686e93acba6914edef6da3f969cd44d57d2da0ab0fb",
          "transactionIndex": "0x35",
          "logIndex": "0xb4",
          "removed": false
        },
        {
          "address": "0x0000000000000000000000000000000000001010",
          "topics": [
            "0x4dfe1bbbcf077ddc3e01291eea2d5c70c2b422b415d95645b9adcfd678cb1d63",
            "0x0000000000000000000000000000000000000000000000000000000000001010",
            "0x0000000000000000000000001aa44c933a6718a4bc44064f0067a853c34be9b0",
            "0x0000000000000000000000001efecb61a2f80aa34d3b9218b564a64d05946290"
          ],
          "data": "0x000000000000000000000000000000000000000000000000000298bc122a8c100000000000000000000000000000000000000000000000004ebcd4165546217d000000000000000000000000000000000000000000003ac4b716cd6165adf0c30000000000000000000000000000000000000000000000004eba3b5a431b956d000000000000000000000000000000000000000000003ac4b719661d77d87cd3",
          "blockHash": "0x2eb6c98d89a0610bc52ce92bc06dd3f5ef8073ea9140c08a0ea4c4b4edb0489d",
          "blockNumber": "0x4444743",
          "transactionHash": "0x435d2569075d90f83d59b686e93acba6914edef6da3f969cd44d57d2da0ab0fb",
          "transactionIndex": "0x35",
          "logIndex": "0xb5",
          "removed": false
        }
      ],
      "logsBloom": "0x00000000000020000000000000000000000000000000000000000000000040000000000000000000000000000000000000008000000000000000000000000000200000000000000000200000000000800000000000000000000100000000000002000000000000000000000000000000000000000000000080001000000000000000000000000000000000001000000000000000000000000000000000000000200000000000000000000080000000000000000000000000000000000000004000000100000000000001000000000000000004000000000000100000000000002000200800000000040000000000000000000000000000000000000000100000",
      "type": "0x2",
      "transactionHash": "0x435d2569075d90f83d59b686e93acba6914edef6da3f969cd44d57d2da0ab0fb",
      "transactionIndex": "0x35",
      "blockHash": "0x2eb6c98d89a0610bc52ce92bc06dd3f5ef8073ea9140c08a0ea4c4b4edb0489d",
      "blockNumber": "0x4444743",
      "gasUsed": "0x65f0",
      "effectiveGasPrice": "0x1251b5ac7e",
      "from": "0x1aa44c933a6718a4bc44064f0067a853c34be9b0",
      "to": "0x4d97dcd97ec945f40cf65f87097ace5ea0476045",
      "contractAddress": null
    },
    {
      "status": "0x1",
      "cumulativeGasUsed": "0x5d03dd",
      "logs": [
        {
          "address": "0x4d97dcd97ec945f40cf65f87097ace5ea0476045",
          "topics": [
            "0x17307eab39ab6107e8899845ad3d59bd9653f200f220920489ca2b5937696c31",
            "0x000000000000000000000000787de5d30d327ed20b3cae7227f0aecacda2852e",
            "0x0000000000000000000000004d97dcd97ec945f40cf65f87097ace5ea0476045"
          ],
          "data": "0x0000000000000000000000000000000000000000000000000000000000000001",
          "blockHash": "0x2eb6c98d89a0610bc52ce92bc06dd3f5ef8073ea9140c08a0ea4c4b4edb0489d",
          "blockNumber": "0x4444743",
          "transactionHash": "0x0810cae5ff0782f2f4ced602cbe0670b91262114c077306e68777277ad92cd69",
          "transactionIndex": "0x36",
          "logIndex": "0xb6",
          "removed": false
        },
        {
          "address": "0x2791bca1f2de4661ed88a30c99a7a9449aa84174",
          "topics": [
            "0x8c5be1e5ebec7d5bd14f71427d1e84f3dd0314c0f7b2291e5b200ac8c7c3b925",
            "0x000000000000000000000000787de5d30d327ed20b3cae7227f0aecacda2852e",
            "0x0000000000000000000000004d97dcd97ec945f40cf65f87097ace5ea0476045"
          ],
          "data": "0xffffffffffffffffffffffffffffffffffffffffffffffffffffffffffffffff",
          "blockHash": "0x2eb6c98d89a0610bc52ce92bc06dd3f5ef8073ea9140c08a0ea4c4b4edb0489d",
          "blockNumber": "0x4444743",
          "transactionHash": "0x0810cae5ff0782f2f4ced602cbe0670b91262114c077306e68777277ad92cd69",
          "transactionIndex": "0x36",
          "logIndex": "0xb7",
          "removed": false
        },
        {
          "address": "0xc01bbfc94c41f0d8fc242cfe8465ea4dcd4f20c5",
          "topics": [
            "0x750538103f64f9b5e2db539e5c1f7552a63aa9e68e07396b2b4b58f7cfef18ab",
            "0x000000000000000000000000787de5d30d327ed20b3cae7227f0aecacda2852e"
          ],
          "data": "0x000000000000000000000000000000000000000000000000000000000000004000000000000000000000000000000000000000000000000000000000000000e0000000000000000000000000000000000000000000000000000000000000000415bf81a330bf158157d4d0685e9917523ee982106f26417d8ea4ccf281bc9dc3ac9f35c8cbe893c258d4f3053ef0eee3f5b7871d9cd99f0a83a8cb42c56a3bd7ceac2e16fa28c00ab8ed1d9ab44fd63de0186c3a56d6a5356039ec5e8461b5f9d827e6e1c4c64199c19b34d81f683cfa5f0156f04c01b875dab90c749b2bcb75000000000000000000000000000000000000000000000000000000000000008000000000000000000000000000000000000000000000000000000000000000200000000000000000000000000000000000000000000000000000000000000025537570706f7274696e6720726f6c6573206272696e6720737461626c652070726f66697473000000000000000000000000000000000000000000000000000000",
          "blockHash": "0x2eb6c98d89a0610bc52ce92bc06dd3f5ef8073ea9140c08a0ea4c4b4edb0489d",
          "blockNumber": "0x4444743",
          "transactionHash": "0x0810cae5ff0782f2f4ced602cbe0670b91262114c077306e68777277ad92cd69",
          "transactionIndex": "0x36",
          "logIndex": "0xb8",
          "removed": false
        },
        {
          "address": "0x0000000000000000000000000000000000001010",
          "topics": [
            "0x4dfe1bbbcf077ddc3e01291eea2d5c70c2b422b415d95645b9adcfd678cb1d63",
            "0x0000000000000000000000000000000000000000000000000000000000001010",
            "0x0000000000000000000000001aa44c933a6718a4bc44064f0067a853c34be9b0",
            "0x0000000000000000000000001efecb61a2f80aa34d3b9218b564a64d05946290"
          ],
          "data": "0x0000000000000000000000000000000000000000000000000054d9bcfba5f2950000000000000000000000000000000000000000000000004eb588ad0de6b55d000000000000000000000000000000000000000000003ac4b719661d77d87cd30000000000000000000000000000000000000000000000004e60aef01240c2c8000000000000000000000000000000000000000000003ac4b76e3fda737e6f68",
          "blockHash": "0x2eb6c98d89a0610bc52ce92bc06dd3f5ef8073ea9140c08a0ea4c4b4edb0489d",
          "blockNumber": "0x4444743",
          "transactionHash": "0x0810cae5ff0782f2f4ced602cbe0670b91262114c077306e68777277ad92cd69",
          "transactionIndex": "0x36",
          "logIndex": "0xb9",
          "removed": false
        }
      ],
      "logsBloom": "0x00000000000020000000000000000000000000000000000000000000000040000000000000000000000000000000000012008000000000000000000000200000200000004000000000000000000200800000000000000000020100000000000002000040000000000000000000000000000000000000000180000000000000000001000000000000000040001000000000001000000000000000000000000000220000040400000000000080000001000000000000000000000000000000004000000100000000000001000000000000000004000000000000100000000000002010208800000000040000000000000000000000000000000000000000100000",
      "type": "0x2",
      "transactionHash": "0x0810cae5ff0782f2f4ced602cbe0670b91262114c077306e68777277ad92cd69",
      "transactionIndex": "0x36",
      "blockHash": "0x2eb6c98d89a0610bc52ce92bc06dd3f5ef8073ea9140c08a0ea4c4b4edb0489d",
      "blockNumber": "0x4444743",
      "gasUsed": "0xd030b",
      "effectiveGasPrice": "0x1251b5ac7e",
      "from": "0x1aa44c933a6718a4bc44064f0067a853c34be9b0",
      "to": "0xc01bbfc94c41f0d8fc242cfe8465ea4dcd4f20c5",
      "contractAddress": null
    }
  ],
  "libraries": [],
  "pending": [],
  "returns": {},
  "timestamp": 1747391544,
  "chain": 137,
  "commit": "d6a2b0f"
}