{
  "transactions": [
    {
      "hash": "0x6ecc30b197d0deed45fdf91beaf527803a7a8a27cd983a07597b289afc085c13",
      "transactionType": "CALL",
      "contractName": null,
      "contractAddress": "0x2791bca1f2de4661ed88a30c99a7a9449aa84174",
      "function": "approve(address,uint256)",
      "arguments": [
        "0x4D97DCd97eC945f40cF65F87097ACe5EA0476045",
        "115792089237316195423570985008687907853269984665640564039457584007913129639935"
      ],
      "transaction": {
        "from": "0x1aa44c933a6718a4bc44064f0067a853c34be9b0",
        "to": "0x2791bca1f2de4661ed88a30c99a7a9449aa84174",
        "gas": "0xec34",
        "value": "0x0",
        "input": "0x095ea7b30000000000000000000000004d97dcd97ec945f40cf65f87097ace5ea0476045ffffffffffffffffffffffffffffffffffffffffffffffffffffffffffffffff",
        "nonce": "0x84",
        "chainId": "0x89"
      },
      "additionalContracts": [],
      "isFixedGasLimit": false
    },
    {
      "hash": "0x69c3ff68a29a30824fffbd7fd3478ad7277c4aee0786d00ce3b284dd860c55d2",
      "transactionType": "CALL",
      "contractName": null,
      "contractAddress": "0x4d97dcd97ec945f40cf65f87097ace5ea0476045",
      "function": "setApprovalForAll(address,bool)",
      "arguments": [
        "0x5716a3E76825F7DdA052ec4139af4A086d824D5a",
        "true"
      ],
      "transaction": {
        "from": "0x1aa44c933a6718a4bc44064f0067a853c34be9b0",
        "to": "0x4d97dcd97ec945f40cf65f87097ace5ea0476045",
        "gas": "0xf82b",
        "value": "0x0",
        "input": "0xa22cb4650000000000000000000000005716a3e76825f7dda052ec4139af4a086d824d5a0000000000000000000000000000000000000000000000000000000000000001",
        "nonce": "0x85",
        "chainId": "0x89"
      },
      "additionalContracts": [],
      "isFixedGasLimit": false
    },
    {
      "hash": "0x8c1253c165e7c1635a3634e940525755fc38c896dca4e72e117fc6457db2c4e9",
      "transactionType": "CALL",
      "contractName": null,
      "contractAddress": "0x5716a3e76825f7dda052ec4139af4a086d824d5a",
      "function": "createIndex((address,bytes32[],uint256[],bytes,address),bytes)",
      "arguments": [
        "(0xA624F35Eb7955283758c7a790B0Ebc2f3cf31386, [0x3cade829b69b30436629ac0c2494d475211ba6f7e00e192a920653ba00b7db36, 0x553728bcacf78928f84c20141df3927eba4e76846d67db8d354a111619501a6b, 0x354b6793f25222186de8d3c9ca1e444e71a6d7b7db276bf1aa50b95b8d47cb65, 0x5bf33c43674b2bc7452acca8d971ff8a84ccee5fbce29b9d4b75f8f895aa52c2], [1, 1, 1, 1], 0x3531375570, 0x6D09e37d05245BA1614f20b0cCfD1912DA2D146a)",
        "0x"
      ],
      "transaction": {
        "from": "0x1aa44c933a6718a4bc44064f0067a853c34be9b0",
        "to": "0x5716a3e76825f7dda052ec4139af4a086d824d5a",
        "gas": "0xde2cc",
        "value": "0x0",
        "input": "0xd2f7213600000000000000000000000000000000000000000000000000000000000000400000000000000000000000000000000000000000000000000000000000000260000000000000000000000000a624f35eb7955283758c7a790b0ebc2f3cf3138600000000000000000000000000000000000000000000000000000000000000a0000000000000000000000000000000000000000000000000000000000000014000000000000000000000000000000000000000000000000000000000000001e00000000000000000000000006d09e37d05245ba1614f20b0ccfd1912da2d146a00000000000000000000000000000000000000000000000000000000000000043cade829b69b30436629ac0c2494d475211ba6f7e00e192a920653ba00b7db36553728bcacf78928f84c20141df3927eba4e76846d67db8d354a111619501a6b354b6793f25222186de8d3c9ca1e444e71a6d7b7db276bf1aa50b95b8d47cb655bf33c43674b2bc7452acca8d971ff8a84ccee5fbce29b9d4b75f8f895aa52c200000000000000000000000000000000000000000000000000000000000000040000000000000000000000000000000000000000000000000000000000000001000000000000000000000000000000000000000000000000000000000000000100000000000000000000000000000000000000000000000000000000000000010000000000000000000000000000000000000000000000000000000000000001000000000000000000000000000000000000000000000000000000000000000535313755700000000000000000000000000000000000000000000000000000000000000000000000000000000000000000000000000000000000000000000000",
        "nonce": "0x86",
        "chainId": "0x89"
      },
      "additionalContracts": [
        {
          "transactionType": "CREATE2",
          "address": "0xae1d7366e68affd52d0f83865e137d94904b91e3",
          "initCode": "0x61038d3d81600a3d39f3363d3d373d3d3d363d73a624f35eb7955283758c7a790b0ebc2f3cf313865af43d82803e903d91602b57fd5bf30000000000000000000000000000000000000000000000000000000000000020000000000000000000000000000000000000000000000000000000000000012000000000000000000000000000000000000000000000000000000000000001c0000000000000000000000000000000000000000000000000000000000000026000000000000000000000000000000000000000000000000000000000000003000000000000000000000000005716a3e76825f7dda052ec4139af4a086d824d5a0000000000000000000000004d97dcd97ec945f40cf65f87097ace5ea04760450000000000000000000000002791bca1f2de4661ed88a30c99a7a9449aa84174000000000000000000000000a624f35eb7955283758c7a790b0ebc2f3cf313860000000000000000000000006d09e37d05245ba1614f20b0ccfd1912da2d146a0000000000000000000000000000000000000000000000000000000000000004a3d592d6002f1d275821d74d4dc1b736e054edb4f4f503fc7daf64433f3a8783b765739b68f91a6b8343c453dd500db1fd1211730bcfa6c0cf8dd2458871a3efbe87dd6f32f14ea56a7a67271dc7cba3e29a480106e24a00f7f05a055a397145f3eb7f4cd29dc80955819251ae49aae29ec5d4a4a9f1b19b1bfb87edd552069000000000000000000000000000000000000000000000000000000000000000043cade829b69b30436629ac0c2494d475211ba6f7e00e192a920653ba00b7db36553728bcacf78928f84c20141df3927eba4e76846d67db8d354a111619501a6b354b6793f25222186de8d3c9ca1e444e71a6d7b7db276bf1aa50b95b8d47cb655bf33c43674b2bc7452acca8d971ff8a84ccee5fbce29b9d4b75f8f895aa52c20000000000000000000000000000000000000000000000000000000000000004000000000000000000000000000000000000000000000000000000000000000100000000000000000000000000000000000000000000000000000000000000010000000000000000000000000000000000000000000000000000000000000001000000000000000000000000000000000000000000000000000000000000000100000000000000000000000000000000000000000000000000000000000000053531375570000000000000000000000000000000000000000000000000000000"
        }
      ],
      "isFixedGasLimit": false
    }
  ],
  "receipts": [
    {
      "status": "0x1",
      "cumulativeGasUsed": "0x87daa8",
      "logs": [
        {
          "address": "0x2791bca1f2de4661ed88a30c99a7a9449aa84174",
          "topics": [
            "0x8c5be1e5ebec7d5bd14f71427d1e84f3dd0314c0f7b2291e5b200ac8c7c3b925",
            "0x0000000000000000000000001aa44c933a6718a4bc44064f0067a853c34be9b0",
            "0x0000000000000000000000004d97dcd97ec945f40cf65f87097ace5ea0476045"
          ],
          "data": "0xffffffffffffffffffffffffffffffffffffffffffffffffffffffffffffffff",
          "blockHash": "0xa93d2e88d580a761bd0326bf06217264d32f4c2c2638ac3fbcc334e9ad6983fe",
          "blockNumber": "0x4443a7b",
          "transactionHash": "0x6ecc30b197d0deed45fdf91beaf527803a7a8a27cd983a07597b289afc085c13",
          "transactionIndex": "0x39",
          "logIndex": "0x150",
          "removed": false
        },
        {
          "address": "0x0000000000000000000000000000000000001010",
          "topics": [
            "0x4dfe1bbbcf077ddc3e01291eea2d5c70c2b422b415d95645b9adcfd678cb1d63",
            "0x0000000000000000000000000000000000000000000000000000000000001010",
            "0x0000000000000000000000001aa44c933a6718a4bc44064f0067a853c34be9b0",
            "0x00000000000000000000000067b94473d81d0cd00849d563c94d0432ac988b49"
          ],
          "data": "0x0000000000000000000000000000000000000000000000000003d1b402b70800000000000000000000000000000000000000000000000000620b47669de63e9e000000000000000000000000000000000000000000000d3965627e3181eda345000000000000000000000000000000000000000000000000620775b29b2f369e000000000000000000000000000000000000000000000d3965664fe584a4ab45",
          "blockHash": "0xa93d2e88d580a761bd0326bf06217264d32f4c2c2638ac3fbcc334e9ad6983fe",
          "blockNumber": "0x4443a7b",
          "transactionHash": "0x6ecc30b197d0deed45fdf91beaf527803a7a8a27cd983a07597b289afc085c13",
          "transactionIndex": "0x39",
          "logIndex": "0x151",
          "removed": false
        }
      ],
      "logsBloom": "0x00000000000020000000000000000000000000000000000000000000000000000000000000000000000000000000000000008000000000000000000000200000000000000000000000000000000200800000000000000000000100000000000000000000000000000000000000000000000000000000000180000000000000000001000000000000000000001000000000000000000000000000000000000000220000000400000000000080000001000000000000000000000000000000004000800000000000000001000000008000000000000000000000100000000000000010028000000000000000000000000000000000000000000000000000100000",
      "type": "0x2",
      "transactionHash": "0x6ecc30b197d0deed45fdf91beaf527803a7a8a27cd983a07597b289afc085c13",
      "transactionIndex": "0x39",
      "blockHash": "0xa93d2e88d580a761bd0326bf06217264d32f4c2c2638ac3fbcc334e9ad6983fe",
      "blockNumber": "0x4443a7b",
      "gasUsed": "0xa182",
      "effectiveGasPrice": "0xfd1f7a2de",
      "from": "0x1aa44c933a6718a4bc44064f0067a853c34be9b0",
      "to": "0x2791bca1f2de4661ed88a30c99a7a9449aa84174",
      "contractAddress": null
    },
    {
      "status": "0x1",
      "cumulativeGasUsed": "0x888e54",
      "logs": [
        {
          "address": "0x4d97dcd97ec945f40cf65f87097ace5ea0476045",
          "topics": [
            "0x17307eab39ab6107e8899845ad3d59bd9653f200f220920489ca2b5937696c31",
            "0x0000000000000000000000001aa44c933a6718a4bc44064f0067a853c34be9b0",
            "0x0000000000000000000000005716a3e76825f7dda052ec4139af4a086d824d5a"
          ],
          "data": "0x0000000000000000000000000000000000000000000000000000000000000001",
          "blockHash": "0xa93d2e88d580a761bd0326bf06217264d32f4c2c2638ac3fbcc334e9ad6983fe",
          "blockNumber": "0x4443a7b",
          "transactionHash": "0x69c3ff68a29a30824fffbd7fd3478ad7277c4aee0786d00ce3b284dd860c55d2",
          "transactionIndex": "0x3a",
          "logIndex": "0x152",
          "removed": false
        },
        {
          "address": "0x0000000000000000000000000000000000001010",
          "topics": [
            "0x4dfe1bbbcf077ddc3e01291eea2d5c70c2b422b415d95645b9adcfd678cb1d63",
            "0x0000000000000000000000000000000000000000000000000000000000001010",
            "0x0000000000000000000000001aa44c933a6718a4bc44064f0067a853c34be9b0",
            "0x00000000000000000000000067b94473d81d0cd00849d563c94d0432ac988b49"
          ],
          "data": "0x00000000000000000000000000000000000000000000000000043fa93c44b00000000000000000000000000000000000000000000000000062014c5140b7ebe2000000000000000000000000000000000000000000000d3965664fe584a4ab4500000000000000000000000000000000000000000000000061fd0ca804733be2000000000000000000000000000000000000000000000d39656a8f8ec0e95b45",
          "blockHash": "0xa93d2e88d580a761bd0326bf06217264d32f4c2c2638ac3fbcc334e9ad6983fe",
          "blockNumber": "0x4443a7b",
          "transactionHash": "0x69c3ff68a29a30824fffbd7fd3478ad7277c4aee0786d00ce3b284dd860c55d2",
          "transactionIndex": "0x3a",
          "logIndex": "0x153",
          "removed": false
        }
      ],
      "logsBloom": "0x00000000000020000000000000000000000000000000000000000000000040000000000000000000000000000000000000008000000000000000000000000000000000000000000000000000000000800000000000000000000100000000000002000000000000000000000000000000000000000000000180000000000000000000000000000040000000005000000000000000000000000000000000000000200000000000000000000080000000000000000000000000000000000000004000800000000000000001000000008000000004000000000000100000000000000000220800000000040000000000000000000000000000000000000000100000",
      "type": "0x2",
      "transactionHash": "0x69c3ff68a29a30824fffbd7fd3478ad7277c4aee0786d00ce3b284dd860c55d2",
      "transactionIndex": "0x3a",
      "blockHash": "0xa93d2e88d580a761bd0326bf06217264d32f4c2c2638ac3fbcc334e9ad6983fe",
      "blockNumber": "0x4443a7b",
      "gasUsed": "0xb3ac",
      "effectiveGasPrice": "0xfd1f7a2de",
      "from": "0x1aa44c933a6718a4bc44064f0067a853c34be9b0",
      "to": "0x4d97dcd97ec945f40cf65f87097ace5ea0476045",
      "contractAddress": null
    },
    {
      "status": "0x1",
      "cumulativeGasUsed": "0xa12967",
      "logs": [
        {
          "address": "0x4d97dcd97ec945f40cf65f87097ace5ea0476045",
          "topics": [
            "0x17307eab39ab6107e8899845ad3d59bd9653f200f220920489ca2b5937696c31",
            "0x000000000000000000000000ae1d7366e68affd52d0f83865e137d94904b91e3",
            "0x0000000000000000000000004d97dcd97ec945f40cf65f87097ace5ea0476045"
          ],
          "data": "0x0000000000000000000000000000000000000000000000000000000000000001",
          "blockHash": "0xa93d2e88d580a761bd0326bf06217264d32f4c2c2638ac3fbcc334e9ad6983fe",
          "blockNumber": "0x4443a7b",
          "transactionHash": "0x8c1253c165e7c1635a3634e940525755fc38c896dca4e72e117fc6457db2c4e9",
          "transactionIndex": "0x3c",
          "logIndex": "0x166",
          "removed": false
        },
        {
          "address": "0x5716a3e76825f7dda052ec4139af4a086d824d5a",
          "topics": [
            "0x750538103f64f9b5e2db539e5c1f7552a63aa9e68e07396b2b4b58f7cfef18ab",
            "0x000000000000000000000000ae1d7366e68affd52d0f83865e137d94904b91e3"
          ],
          "data": "0x000000000000000000000000000000000000000000000000000000000000004000000000000000000000000000000000000000000000000000000000000000e00000000000000000000000000000000000000000000000000000000000000004a3d592d6002f1d275821d74d4dc1b736e054edb4f4f503fc7daf64433f3a8783b765739b68f91a6b8343c453dd500db1fd1211730bcfa6c0cf8dd2458871a3efbe87dd6f32f14ea56a7a67271dc7cba3e29a480106e24a00f7f05a055a397145f3eb7f4cd29dc80955819251ae49aae29ec5d4a4a9f1b19b1bfb87edd552069000000000000000000000000000000000000000000000000000000000000000053531375570000000000000000000000000000000000000000000000000000000",
          "blockHash": "0xa93d2e88d580a761bd0326bf06217264d32f4c2c2638ac3fbcc334e9ad6983fe",
          "blockNumber": "0x4443a7b",
          "transactionHash": "0x8c1253c165e7c1635a3634e940525755fc38c896dca4e72e117fc6457db2c4e9",
          "transactionIndex": "0x3c",
          "logIndex": "0x167",
          "removed": false
        },
        {
          "address": "0x0000000000000000000000000000000000001010",
          "topics": [
            "0x4dfe1bbbcf077ddc3e01291eea2d5c70c2b422b415d95645b9adcfd678cb1d63",
            "0x0000000000000000000000000000000000000000000000000000000000001010",
            "0x0000000000000000000000001aa44c933a6718a4bc44064f0067a853c34be9b0",
            "0x00000000000000000000000067b94473d81d0cd00849d563c94d0432ac988b49"
          ],
          "data": "0x00000000000000000000000000000000000000000000000000397a1223bb880000000000000000000000000000000000000000000000000061f631e0077544ba000000000000000000000000000000000000000000000d3965c6098ab9cb9f4500000000000000000000000000000000000000000000000061bcb7cde3b9bcba000000000000000000000000000000000000000000000d3965ff839cdd872745",
          "blockHash": "0xa93d2e88d580a761bd0326bf06217264d32f4c2c2638ac3fbcc334e9ad6983fe",
          "blockNumber": "0x4443a7b",
          "transactionHash": "0x8c1253c165e7c1635a3634e940525755fc38c896dca4e72e117fc6457db2c4e9",
          "transactionIndex": "0x3c",
          "logIndex": "0x168",
          "removed": false
        }
      ],
      "logsBloom": "0x00000000000020000000000000000000000000000000000000000000000040000000000000000000000000000000000030008000000000000000000000000000000000000000000000000000000200800000000000000000000100000000000002000000000000000000000000000000000000000200000180000000000000000000000000000000000000021000040000001000000000000000000000000000200000000400000000000080000001000000000000000000000000000000004000800000000000000001000000008000000004000000000000100080000000000000220800000000040000000000000000000000000000000000000000100000",
      "type": "0x2",
      "transactionHash": "0x8c1253c165e7c1635a3634e940525755fc38c896dca4e72e117fc6457db2c4e9",
      "transactionIndex": "0x3c",
      "blockHash": "0xa93d2e88d580a761bd0326bf06217264d32f4c2c2638ac3fbcc334e9ad6983fe",
      "blockNumber": "0x4443a7b",
      "gasUsed": "0x97ea2",
      "effectiveGasPrice": "0xfd1f7a2de",
      "from": "0x1aa44c933a6718a4bc44064f0067a853c34be9b0",
      "to": "0x5716a3e76825f7dda052ec4139af4a086d824d5a",
      "contractAddress": null
    }
  ],
  "libraries": [],
  "pending": [],
  "returns": {},
  "timestamp": 1747384589,
  "chain": 137,
  "commit": "d6a2b0f"
}