{
  "transactions": [
    {
      "hash": "0x0e0220c3205c63229abf2b9f0ba54b0769f765123daaf8b79f7c66fb234d45b0",
      "transactionType": "CALL",
      "contractName": null,
      "contractAddress": "0x2791bca1f2de4661ed88a30c99a7a9449aa84174",
      "function": "approve(address,uint256)",
      "arguments": [
        "0x4D97DCd97eC945f40cF65F87097ACe5EA0476045",
        "115792089237316195423570985008687907853269984665640564039457584007913129639935"
      ],
      "transaction": {
        "from": "0x1aa44c933a6718a4bc44064f0067a853c34be9b0",
        "to": "0x2791bca1f2de4661ed88a30c99a7a9449aa84174",
        "gas": "0xdc35",
        "value": "0x0",
        "input": "0x095ea7b30000000000000000000000004d97dcd97ec945f40cf65f87097ace5ea0476045ffffffffffffffffffffffffffffffffffffffffffffffffffffffffffffffff",
        "nonce": "0xf8",
        "chainId": "0x89"
      },
      "additionalContracts": [],
      "isFixedGasLimit": false
    },
    {
      "hash": "0x45d94e88a8f594a05ec9e17c0f6dc446ee0f714c2b82ee5bdd678fab2ca7a4af",
      "transactionType": "CALL",
      "contractName": null,
      "contractAddress": "0xd189321231b8a71493506ec87b959bed191e8f4d",
      "function": "withdraw(uint256)",
      "arguments": [
        "46656"
      ],
      "transaction": {
        "from": "0x1aa44c933a6718a4bc44064f0067a853c34be9b0",
        "to": "0xd189321231b8a71493506ec87b959bed191e8f4d",
        "gas": "0x468da",
        "value": "0x0",
        "input": "0x2e1a7d4d000000000000000000000000000000000000000000000000000000000000b640",
        "nonce": "0xf9",
        "chainId": "0x89"
      },
      "additionalContracts": [],
      "isFixedGasLimit": false
    },
    {
      "hash": "0xce8f55f67c57ac3979fe954c7f499f96ab8b1d9de0b922b674a3beec51d51281",
      "transactionType": "CALL",
      "contractName": null,
      "contractAddress": "0x787de5d30d327ed20b3cae7227f0aecacda2852e",
      "function": "withdraw(uint256)",
      "arguments": [
        "46656"
      ],
      "transaction": {
        "from": "0x1aa44c933a6718a4bc44064f0067a853c34be9b0",
        "to": "0x787de5d30d327ed20b3cae7227f0aecacda2852e",
        "gas": "0x46954",
        "value": "0x0",
        "input": "0x2e1a7d4d000000000000000000000000000000000000000000000000000000000000b640",
        "nonce": "0xfa",
        "chainId": "0x89"
      },
      "additionalContracts": [],
      "isFixedGasLimit": false
    },
    {
      "hash": "0x7ade0c3bc735b5d4123149cb90a5c0af67a24494ae6af7ed573fd44e28c64ef0",
      "transactionType": "CALL",
      "contractName": null,
      "contractAddress": "0x0557eceead263249368b07e12e9f6c1fc59878eb",
      "function": "withdraw(uint256)",
      "arguments": [
        "46656"
      ],
      "transaction": {
        "from": "0x1aa44c933a6718a4bc44064f0067a853c34be9b0",
        "to": "0x0557eceead263249368b07e12e9f6c1fc59878eb",
        "gas": "0x2f7cc",
        "value": "0x0",
        "input": "0x2e1a7d4d000000000000000000000000000000000000000000000000000000000000b640",
        "nonce": "0xfb",
        "chainId": "0x89"
      },
      "additionalContracts": [],
      "isFixedGasLimit": false
    },
    {
      "hash": "0xe874ec7f5ab0d505e3077a7b7f1dfa00f42923810cdaa72303766760e29ea107",
      "transactionType": "CALL",
      "contractName": null,
      "contractAddress": "0x0557eceead263249368b07e12e9f6c1fc59878eb",
      "function": "withdraw(uint256)",
      "arguments": [
        "46656"
      ],
      "transaction": {
        "from": "0x1aa44c933a6718a4bc44064f0067a853c34be9b0",
        "to": "0x0557eceead263249368b07e12e9f6c1fc59878eb",
        "gas": "0x2f7cc",
        "value": "0x0",
        "input": "0x2e1a7d4d000000000000000000000000000000000000000000000000000000000000b640",
        "nonce": "0xfc",
        "chainId": "0x89"
      },
      "additionalContracts": [],
      "isFixedGasLimit": false
    },
    {
      "hash": "0x6359451daff3101731655af2f11b796f51fe039a5539e04545275627618599b0",
      "transactionType": "CALL",
      "contractName": null,
      "contractAddress": "0xd189321231b8a71493506ec87b959bed191e8f4d",
      "function": "withdraw(uint256)",
      "arguments": [
        "46656"
      ],
      "transaction": {
        "from": "0x1aa44c933a6718a4bc44064f0067a853c34be9b0",
        "to": "0xd189321231b8a71493506ec87b959bed191e8f4d",
        "gas": "0x2f7cc",
        "value": "0x0",
        "input": "0x2e1a7d4d000000000000000000000000000000000000000000000000000000000000b640",
        "nonce": "0xfd",
        "chainId": "0x89"
      },
      "additionalContracts": [],
      "isFixedGasLimit": false
    }
  ],
  "receipts": [
    {
      "status": "0x1",
      "cumulativeGasUsed": "0x402f82",
      "logs": [
        {
          "address": "0x2791bca1f2de4661ed88a30c99a7a9449aa84174",
          "topics": [
            "0x8c5be1e5ebec7d5bd14f71427d1e84f3dd0314c0f7b2291e5b200ac8c7c3b925",
            "0x0000000000000000000000001aa44c933a6718a4bc44064f0067a853c34be9b0",
            "0x0000000000000000000000004d97dcd97ec945f40cf65f87097ace5ea0476045"
          ],
          "data": "0xffffffffffffffffffffffffffffffffffffffffffffffffffffffffffffffff",
          "blockHash": "0x0257c3593b5ab32be47d3692534bf6a90ea8d8b8d9d5d123c54d684ec143ca3b",
          "blockNumber": "0x4448c63",
          "transactionHash": "0x0e0220c3205c63229abf2b9f0ba54b0769f765123daaf8b79f7c66fb234d45b0",
          "transactionIndex": "0x27",
          "logIndex": "0xaa",
          "removed": false
        },
        {
          "address": "0x0000000000000000000000000000000000001010",
          "topics": [
            "0x4dfe1bbbcf077ddc3e01291eea2d5c70c2b422b415d95645b9adcfd678cb1d63",
            "0x0000000000000000000000000000000000000000000000000000000000001010",
            "0x0000000000000000000000001aa44c933a6718a4bc44064f0067a853c34be9b0",
            "0x000000000000000000000000ce7fcb674ba27a952c71061b649fb5a5746f3b2b"
          ],
          "data": "0x0000000000000000000000000000000000000000000000000003a8e6c99b138200000000000000000000000000000000000000000000000044e3bb1970d9e381000000000000000000000000000000000000000000001d8f430057f8c164fc4400000000000000000000000000000000000000000000000044e01232a73ecfff000000000000000000000000000000000000000000001d8f430400df8b000fc6",
          "blockHash": "0x0257c3593b5ab32be47d3692534bf6a90ea8d8b8d9d5d123c54d684ec143ca3b",
          "blockNumber": "0x4448c63",
          "transactionHash": "0x0e0220c3205c63229abf2b9f0ba54b0769f765123daaf8b79f7c66fb234d45b0",
          "transactionIndex": "0x27",
          "logIndex": "0xab",
          "removed": false
        }
      ],
      "logsBloom": "0x00000000000020000000000000000000000000000000000000000000000000000000000000000000000000000000000000008000000000000000000000200000000000000000000000000000000200800000000000000000000120000000000000000000000000000000000000000000000000000000000180000000000000000001000000000000000000001080000000000000000000000000000000000000220000000400000000000080000001000000000000000000000000000000004000000000004000000001000000000000000000000000000000100000000000000010008000000000000000000000000000000000000000000000000000100000",
      "type": "0x2",
      "transactionHash": "0x0e0220c3205c63229abf2b9f0ba54b0769f765123daaf8b79f7c66fb234d45b0",
      "transactionIndex": "0x27",
      "blockHash": "0x0257c3593b5ab32be47d3692534bf6a90ea8d8b8d9d5d123c54d684ec143ca3b",
      "blockNumber": "0x4448c63",
      "gasUsed": "0x9692",
      "effectiveGasPrice": "0x638ec12d5",
      "from": "0x1aa44c933a6718a4bc44064f0067a853c34be9b0",
      "to": "0x2791bca1f2de4661ed88a30c99a7a9449aa84174",
      "contractAddress": null
    },
    {
      "status": "0x1",
      "cumulativeGasUsed": "0x4360c7",
      "logs": [
        {
          "address": "0xd189321231b8a71493506ec87b959bed191e8f4d",
          "topics": [
            "0xddf252ad1be2c89b69c2b068fc378daa952ba7f163c4a11628f55a4df523b3ef",
            "0x0000000000000000000000001aa44c933a6718a4bc44064f0067a853c34be9b0",
            "0x0000000000000000000000000000000000000000000000000000000000000000"
          ],
          "data": "0x000000000000000000000000000000000000000000000000000000000000b640",
          "blockHash": "0x0257c3593b5ab32be47d3692534bf6a90ea8d8b8d9d5d123c54d684ec143ca3b",
          "blockNumber": "0x4448c63",
          "transactionHash": "0x45d94e88a8f594a05ec9e17c0f6dc446ee0f714c2b82ee5bdd678fab2ca7a4af",
          "transactionIndex": "0x28",
          "logIndex": "0xac",
          "removed": false
        },
        {
          "address": "0x2791bca1f2de4661ed88a30c99a7a9449aa84174",
          "topics": [
            "0xddf252ad1be2c89b69c2b068fc378daa952ba7f163c4a11628f55a4df523b3ef",
            "0x000000000000000000000000d189321231b8a71493506ec87b959bed191e8f4d",
            "0x0000000000000000000000001aa44c933a6718a4bc44064f0067a853c34be9b0"
          ],
          "data": "0x0000000000000000000000000000000000000000000000000000000000000000",
          "blockHash": "0x0257c3593b5ab32be47d3692534bf6a90ea8d8b8d9d5d123c54d684ec143ca3b",
          "blockNumber": "0x4448c63",
          "transactionHash": "0x45d94e88a8f594a05ec9e17c0f6dc446ee0f714c2b82ee5bdd678fab2ca7a4af",
          "transactionIndex": "0x28",
          "logIndex": "0xad",
          "removed": false
        },
        {
          "address": "0x4d97dcd97ec945f40cf65f87097ace5ea0476045",
          "topics": [
            "0x4a39dc06d4c0dbc64b70af90fd698a233a518aa5d07e595d983b8c0526c8f7fb",
            "0x000000000000000000000000d189321231b8a71493506ec87b959bed191e8f4d",
            "0x000000000000000000000000d189321231b8a71493506ec87b959bed191e8f4d",
            "0x0000000000000000000000001aa44c933a6718a4bc44064f0067a853c34be9b0"
          ],
          "data": "0x000000000000000000000000000000000000000000000000000000000000004000000000000000000000000000000000000000000000000000000000000000e000000000000000000000000000000000000000000000000000000000000000041f3d12f7e50de8e5f679511a6241e6cfc60e6a58533027348470b6cc3ad86dfd3194161f48ddf3c0821047032dc0ae6395bb7220ed5d2100f65f68a74c4bd84534ce5249c3be97799029ce2befcd06c638bcd322d992ec088fbe9a634beabc395b79f88e2efa4fa33816dce55ffb3bfb3e85e1b0c5d529730eab6ff5050a61950000000000000000000000000000000000000000000000000000000000000004000000000000000000000000000000000000000000000000000000000000b640000000000000000000000000000000000000000000000000000000000000b640000000000000000000000000000000000000000000000000000000000000b640000000000000000000000000000000000000000000000000000000000000b640",
          "blockHash": "0x0257c3593b5ab32be47d3692534bf6a90ea8d8b8d9d5d123c54d684ec143ca3b",
          "blockNumber": "0x4448c63",
          "transactionHash": "0x45d94e88a8f594a05ec9e17c0f6dc446ee0f714c2b82ee5bdd678fab2ca7a4af",
          "transactionIndex": "0x28",
          "logIndex": "0xae",
          "removed": false
        },
        {
          "address": "0xd189321231b8a71493506ec87b959bed191e8f4d",
          "topics": [
            "0x884edad9ce6fa2440d8a54cc123490eb96d2768479d49ff9c7366125a9424364",
            "0x0000000000000000000000001aa44c933a6718a4bc44064f0067a853c34be9b0"
          ],
          "data": "0x000000000000000000000000000000000000000000000000000000000000b640",
          "blockHash": "0x0257c3593b5ab32be47d3692534bf6a90ea8d8b8d9d5d123c54d684ec143ca3b",
          "blockNumber": "0x4448c63",
          "transactionHash": "0x45d94e88a8f594a05ec9e17c0f6dc446ee0f714c2b82ee5bdd678fab2ca7a4af",
          "transactionIndex": "0x28",
          "logIndex": "0xaf",
          "removed": false
        },
        {
          "address": "0x0000000000000000000000000000000000001010",
          "topics": [
            "0x4dfe1bbbcf077ddc3e01291eea2d5c70c2b422b415d95645b9adcfd678cb1d63",
            "0x0000000000000000000000000000000000000000000000000000000000001010",
            "0x0000000000000000000000001aa44c933a6718a4bc44064f0067a853c34be9b0",
            "0x000000000000000000000000ce7fcb674ba27a952c71061b649fb5a5746f3b2b"
          ],
          "data": "0x0000000000000000000000000000000000000000000000000013dd56bf6174dd00000000000000000000000000000000000000000000000044e01232a72e5807000000000000000000000000000000000000000000001d8f430400df8b000fc600000000000000000000000000000000000000000000000044cc34dbe7cce32a000000000000000000000000000000000000000000001d8f4317de364a6184a3",
          "blockHash": "0x0257c3593b5ab32be47d3692534bf6a90ea8d8b8d9d5d123c54d684ec143ca3b",
          "blockNumber": "0x4448c63",
          "transactionHash": "0x45d94e88a8f594a05ec9e17c0f6dc446ee0f714c2b82ee5bdd678fab2ca7a4af",
          "transactionIndex": "0x28",
          "logIndex": "0xb0",
          "removed": false
        }
      ],
      "logsBloom": "0x00000000000020000000000000000000200000010000000000100000000040000000000040000000000000000000000000008000000000000001000000000000000000000000000000000008000000800000000000000000000120000000000000000000020000000000000000000800000000000800000180000010000004001001000000000000000000001080000000000000000000000000000000000000200000000000000000000080000000000000000000000000000000020000004000000002004000000001000000000000002404000000000000100000000020000000008000000000040000000000000000000000000000000000000002100000",
      "type": "0x2",
      "transactionHash": "0x45d94e88a8f594a05ec9e17c0f6dc446ee0f714c2b82ee5bdd678fab2ca7a4af",
      "transactionIndex": "0x28",
      "blockHash": "0x0257c3593b5ab32be47d3692534bf6a90ea8d8b8d9d5d123c54d684ec143ca3b",
      "blockNumber": "0x4448c63",
      "gasUsed": "0x33145",
      "effectiveGasPrice": "0x638ec12d5",
      "from": "0x1aa44c933a6718a4bc44064f0067a853c34be9b0",
      "to": "0xd189321231b8a71493506ec87b959bed191e8f4d",
      "contractAddress": null
    },
    {
      "status": "0x1",
      "cumulativeGasUsed": "0x469265",
      "logs": [
        {
          "address": "0x787de5d30d327ed20b3cae7227f0aecacda2852e",
          "topics": [
            "0xddf252ad1be2c89b69c2b068fc378daa952ba7f163c4a11628f55a4df523b3ef",
            "0x0000000000000000000000001aa44c933a6718a4bc44064f0067a853c34be9b0",
            "0x0000000000000000000000000000000000000000000000000000000000000000"
          ],
          "data": "0x000000000000000000000000000000000000000000000000000000000000b640",
          "blockHash": "0x0257c3593b5ab32be47d3692534bf6a90ea8d8b8d9d5d123c54d684ec143ca3b",
          "blockNumber": "0x4448c63",
          "transactionHash": "0xce8f55f67c57ac3979fe954c7f499f96ab8b1d9de0b922b674a3beec51d51281",
          "transactionIndex": "0x29",
          "logIndex": "0xb1",
          "removed": false
        },
        {
          "address": "0x2791bca1f2de4661ed88a30c99a7a9449aa84174",
          "topics": [
            "0xddf252ad1be2c89b69c2b068fc378daa952ba7f163c4a11628f55a4df523b3ef",
            "0x000000000000000000000000787de5d30d327ed20b3cae7227f0aecacda2852e",
            "0x0000000000000000000000001aa44c933a6718a4bc44064f0067a853c34be9b0"
          ],
          "data": "0x0000000000000000000000000000000000000000000000000000000000000000",
          "blockHash": "0x0257c3593b5ab32be47d3692534bf6a90ea8d8b8d9d5d123c54d684ec143ca3b",
          "blockNumber": "0x4448c63",
          "transactionHash": "0xce8f55f67c57ac3979fe954c7f499f96ab8b1d9de0b922b674a3beec51d51281",
          "transactionIndex": "0x29",
          "logIndex": "0xb2",
          "removed": false
        },
        {
          "address": "0x4d97dcd97ec945f40cf65f87097ace5ea0476045",
          "topics": [
            "0x4a39dc06d4c0dbc64b70af90fd698a233a518aa5d07e595d983b8c0526c8f7fb",
            "0x000000000000000000000000787de5d30d327ed20b3cae7227f0aecacda2852e",
            "0x000000000000000000000000787de5d30d327ed20b3cae7227f0aecacda2852e",
            "0x0000000000000000000000001aa44c933a6718a4bc44064f0067a853c34be9b0"
          ],
          "data": "0x000000000000000000000000000000000000000000000000000000000000004000000000000000000000000000000000000000000000000000000000000000e0000000000000000000000000000000000000000000000000000000000000000415bf81a330bf158157d4d0685e9917523ee982106f26417d8ea4ccf281bc9dc3ac9f35c8cbe893c258d4f3053ef0eee3f5b7871d9cd99f0a83a8cb42c56a3bd7ceac2e16fa28c00ab8ed1d9ab44fd63de0186c3a56d6a5356039ec5e8461b5f9d827e6e1c4c64199c19b34d81f683cfa5f0156f04c01b875dab90c749b2bcb750000000000000000000000000000000000000000000000000000000000000004000000000000000000000000000000000000000000000000000000000000b640000000000000000000000000000000000000000000000000000000000000b640000000000000000000000000000000000000000000000000000000000000b640000000000000000000000000000000000000000000000000000000000000b640",
          "blockHash": "0x0257c3593b5ab32be47d3692534bf6a90ea8d8b8d9d5d123c54d684ec143ca3b",
          "blockNumber": "0x4448c63",
          "transactionHash": "0xce8f55f67c57ac3979fe954c7f499f96ab8b1d9de0b922b674a3beec51d51281",
          "transactionIndex": "0x29",
          "logIndex": "0xb3",
          "removed": false
        },
        {
          "address": "0x787de5d30d327ed20b3cae7227f0aecacda2852e",
          "topics": [
            "0x884edad9ce6fa2440d8a54cc123490eb96d2768479d49ff9c7366125a9424364",
            "0x0000000000000000000000001aa44c933a6718a4bc44064f0067a853c34be9b0"
          ],
          "data": "0x000000000000000000000000000000000000000000000000000000000000b640",
          "blockHash": "0x0257c3593b5ab32be47d3692534bf6a90ea8d8b8d9d5d123c54d684ec143ca3b",
          "blockNumber": "0x4448c63",
          "transactionHash": "0xce8f55f67c57ac3979fe954c7f499f96ab8b1d9de0b922b674a3beec51d51281",
          "transactionIndex": "0x29",
          "logIndex": "0xb4",
          "removed": false
        },
        {
          "address": "0x0000000000000000000000000000000000001010",
          "topics": [
            "0x4dfe1bbbcf077ddc3e01291eea2d5c70c2b422b415d95645b9adcfd678cb1d63",
            "0x0000000000000000000000000000000000000000000000000000000000001010",
            "0x0000000000000000000000001aa44c933a6718a4bc44064f0067a853c34be9b0",
            "0x000000000000000000000000ce7fcb674ba27a952c71061b649fb5a5746f3b2b"
          ],
          "data": "0x0000000000000000000000000000000000000000000000000013df808973f72e00000000000000000000000000000000000000000000000044cc34dbe7737f9e000000000000000000000000000000000000000000001d8f4317de364a6184a300000000000000000000000000000000000000000000000044b8555b5dff8870000000000000000000000000000000000000000000001d8f432bbdb6d3d57bd1",
          "blockHash": "0x0257c3593b5ab32be47d3692534bf6a90ea8d8b8d9d5d123c54d684ec143ca3b",
          "blockNumber": "0x4448c63",
          "transactionHash": "0xce8f55f67c57ac3979fe954c7f499f96ab8b1d9de0b922b674a3beec51d51281",
          "transactionIndex": "0x29",
          "logIndex": "0xb5",
          "removed": false
        }
      ],
      "logsBloom": "0x00000000000020000000000000000000080000000000000000100000000040000000000000000000000000000000000002008000000000000000000000000000000000000000000000000008000000800000000000000000000120000000000008000000020000000000000000000800000000000800000180000010000004001001000000000000000040001080000000000000000000000000000000000000200000040000000000000080000000000000000000000000000000000000004000000002004000000001000000000000000404000000000000100000000020000000008000000000040000000000000000040000000000000000000002100000",
      "type": "0x2",
      "transactionHash": "0xce8f55f67c57ac3979fe954c7f499f96ab8b1d9de0b922b674a3beec51d51281",
      "transactionIndex": "0x29",
      "blockHash": "0x0257c3593b5ab32be47d3692534bf6a90ea8d8b8d9d5d123c54d684ec143ca3b",
      "blockNumber": "0x4448c63",
      "gasUsed": "0x3319e",
      "effectiveGasPrice": "0x638ec12d5",
      "from": "0x1aa44c933a6718a4bc44064f0067a853c34be9b0",
      "to": "0x787de5d30d327ed20b3cae7227f0aecacda2852e",
      "contractAddress": null
    },
    {
      "status": "0x1",
      "cumulativeGasUsed": "0x48b87a",
      "logs": [
        {
          "address": "0x0557eceead263249368b07e12e9f6c1fc59878eb",
          "topics": [
            "0xddf252ad1be2c89b69c2b068fc378daa952ba7f163c4a11628f55a4df523b3ef",
            "0x0000000000000000000000001aa44c933a6718a4bc44064f0067a853c34be9b0",
            "0x0000000000000000000000000000000000000000000000000000000000000000"
          ],
          "data": "0x000000000000000000000000000000000000000000000000000000000000b640",
          "blockHash": "0x0257c3593b5ab32be47d3692534bf6a90ea8d8b8d9d5d123c54d684ec143ca3b",
          "blockNumber": "0x4448c63",
          "transactionHash": "0x7ade0c3bc735b5d4123149cb90a5c0af67a24494ae6af7ed573fd44e28c64ef0",
          "transactionIndex": "0x2a",
          "logIndex": "0xb6",
          "removed": false
        },
        {
          "address": "0x2791bca1f2de4661ed88a30c99a7a9449aa84174",
          "topics": [
            "0xddf252ad1be2c89b69c2b068fc378daa952ba7f163c4a11628f55a4df523b3ef",
            "0x0000000000000000000000000557eceead263249368b07e12e9f6c1fc59878eb",
            "0x0000000000000000000000001aa44c933a6718a4bc44064f0067a853c34be9b0"
          ],
          "data": "0x0000000000000000000000000000000000000000000000000000000000000000",
          "blockHash": "0x0257c3593b5ab32be47d3692534bf6a90ea8d8b8d9d5d123c54d684ec143ca3b",
          "blockNumber": "0x4448c63",
          "transactionHash": "0x7ade0c3bc735b5d4123149cb90a5c0af67a24494ae6af7ed573fd44e28c64ef0",
          "transactionIndex": "0x2a",
          "logIndex": "0xb7",
          "removed": false
        },
        {
          "address": "0x4d97dcd97ec945f40cf65f87097ace5ea0476045",
          "topics": [
            "0x4a39dc06d4c0dbc64b70af90fd698a233a518aa5d07e595d983b8c0526c8f7fb",
            "0x0000000000000000000000000557eceead263249368b07e12e9f6c1fc59878eb",
            "0x0000000000000000000000000557eceead263249368b07e12e9f6c1fc59878eb",
            "0x0000000000000000000000001aa44c933a6718a4bc44064f0067a853c34be9b0"
          ],
          "data": "0x000000000000000000000000000000000000000000000000000000000000004000000000000000000000000000000000000000000000000000000000000000e000000000000000000000000000000000000000000000000000000000000000041e50f3ac63a65fe7a076dc904e72e9fb904bd5b75ce40adb2b6aa8f859bb5fd0287d8e28b0969500785d137706cc4cf0ac406b2a92d44ad226efde922d4c660a30ba754e82d4d0ebed6e2f93b6d83b4e23087e9db5d0abcbcc98b1dd61d6cdad8a707a5380305bf68bc6e589ec4597aeec8ab0eb84ec661c47eff81cf283af680000000000000000000000000000000000000000000000000000000000000004000000000000000000000000000000000000000000000000000000000000b640000000000000000000000000000000000000000000000000000000000000b640000000000000000000000000000000000000000000000000000000000000b640000000000000000000000000000000000000000000000000000000000000b640",
          "blockHash": "0x0257c3593b5ab32be47d3692534bf6a90ea8d8b8d9d5d123c54d684ec143ca3b",
          "blockNumber": "0x4448c63",
          "transactionHash": "0x7ade0c3bc735b5d4123149cb90a5c0af67a24494ae6af7ed573fd44e28c64ef0",
          "transactionIndex": "0x2a",
          "logIndex": "0xb8",
          "removed": false
        },
        {
          "address": "0x0557eceead263249368b07e12e9f6c1fc59878eb",
          "topics": [
            "0x884edad9ce6fa2440d8a54cc123490eb96d2768479d49ff9c7366125a9424364",
            "0x0000000000000000000000001aa44c933a6718a4bc44064f0067a853c34be9b0"
          ],
          "data": "0x000000000000000000000000000000000000000000000000000000000000b640",
          "blockHash": "0x0257c3593b5ab32be47d3692534bf6a90ea8d8b8d9d5d123c54d684ec143ca3b",
          "blockNumber": "0x4448c63",
          "transactionHash": "0x7ade0c3bc735b5d4123149cb90a5c0af67a24494ae6af7ed573fd44e28c64ef0",
          "transactionIndex": "0x2a",
          "logIndex": "0xb9",
          "removed": false
        },
        {
          "address": "0x0000000000000000000000000000000000001010",
          "topics": [
            "0x4dfe1bbbcf077ddc3e01291eea2d5c70c2b422b415d95645b9adcfd678cb1d63",
            "0x0000000000000000000000000000000000000000000000000000000000001010",
            "0x0000000000000000000000001aa44c933a6718a4bc44064f0067a853c34be9b0",
            "0x000000000000000000000000ce7fcb674ba27a952c71061b649fb5a5746f3b2b"
          ],
          "data": "0x000000000000000000000000000000000000000000000000000d5ecddb96ff2d00000000000000000000000000000000000000000000000044b8555b5da61b28000000000000000000000000000000000000000000001d8f432bbdb6d3d57bd100000000000000000000000000000000000000000000000044aaf68d820f1bfb000000000000000000000000000000000000000000001d8f43391c84af6c7afe",
          "blockHash": "0x0257c3593b5ab32be47d3692534bf6a90ea8d8b8d9d5d123c54d684ec143ca3b",
          "blockNumber": "0x4448c63",
          "transactionHash": "0x7ade0c3bc735b5d4123149cb90a5c0af67a24494ae6af7ed573fd44e28c64ef0",
          "transactionIndex": "0x2a",
          "logIndex": "0xba",
          "removed": false
        }
      ],
      "logsBloom": "0x00000000000020000000000000000000000000000000000000100000000040000000000000000000000000000000080000008000000000000000000000000000000000000000000000000008000000c00000000000040000000120000000008000000000020000000000000000000800000000000800000180000010000004001001000000000000000000001080000000000000000000000000000000000000200000010000000000000080000000000000000000000000000000000000004000000002004000000001000000000000000404000000000000100000000020000000008000000000040000000000000000000000000000000000000102100000",
      "type": "0x2",
      "transactionHash": "0x7ade0c3bc735b5d4123149cb90a5c0af67a24494ae6af7ed573fd44e28c64ef0",
      "transactionIndex": "0x2a",
      "blockHash": "0x0257c3593b5ab32be47d3692534bf6a90ea8d8b8d9d5d123c54d684ec143ca3b",
      "blockNumber": "0x4448c63",
      "gasUsed": "0x22615",
      "effectiveGasPrice": "0x638ec12d5",
      "from": "0x1aa44c933a6718a4bc44064f0067a853c34be9b0",
      "to": "0x0557eceead263249368b07e12e9f6c1fc59878eb",
      "contractAddress": null
    },
    {
      "status": "0x1",
      "cumulativeGasUsed": "0x4ade8f",
      "logs": [
        {
          "address": "0x0557eceead263249368b07e12e9f6c1fc59878eb",
          "topics": [
            "0xddf252ad1be2c89b69c2b068fc378daa952ba7f163c4a11628f55a4df523b3ef",
            "0x0000000000000000000000001aa44c933a6718a4bc44064f0067a853c34be9b0",
            "0x0000000000000000000000000000000000000000000000000000000000000000"
          ],
          "data": "0x000000000000000000000000000000000000000000000000000000000000b640",
          "blockHash": "0x0257c3593b5ab32be47d3692534bf6a90ea8d8b8d9d5d123c54d684ec143ca3b",
          "blockNumber": "0x4448c63",
          "transactionHash": "0xe874ec7f5ab0d505e3077a7b7f1dfa00f42923810cdaa72303766760e29ea107",
          "transactionIndex": "0x2b",
          "logIndex": "0xbb",
          "removed": false
        },
        {
          "address": "0x2791bca1f2de4661ed88a30c99a7a9449aa84174",
          "topics": [
            "0xddf252ad1be2c89b69c2b068fc378daa952ba7f163c4a11628f55a4df523b3ef",
            "0x0000000000000000000000000557eceead263249368b07e12e9f6c1fc59878eb",
            "0x0000000000000000000000001aa44c933a6718a4bc44064f0067a853c34be9b0"
          ],
          "data": "0x0000000000000000000000000000000000000000000000000000000000000000",
          "blockHash": "0x0257c3593b5ab32be47d3692534bf6a90ea8d8b8d9d5d123c54d684ec143ca3b",
          "blockNumber": "0x4448c63",
          "transactionHash": "0xe874ec7f5ab0d505e3077a7b7f1dfa00f42923810cdaa72303766760e29ea107",
          "transactionIndex": "0x2b",
          "logIndex": "0xbc",
          "removed": false
        },
        {
          "address": "0x4d97dcd97ec945f40cf65f87097ace5ea0476045",
          "topics": [
            "0x4a39dc06d4c0dbc64b70af90fd698a233a518aa5d07e595d983b8c0526c8f7fb",
            "0x0000000000000000000000000557eceead263249368b07e12e9f6c1fc59878eb",
            "0x0000000000000000000000000557eceead263249368b07e12e9f6c1fc59878eb",
            "0x0000000000000000000000001aa44c933a6718a4bc44064f0067a853c34be9b0"
          ],
          "data": "0x000000000000000000000000000000000000000000000000000000000000004000000000000000000000000000000000000000000000000000000000000000e000000000000000000000000000000000000000000000000000000000000000041e50f3ac63a65fe7a076dc904e72e9fb904bd5b75ce40adb2b6aa8f859bb5fd0287d8e28b0969500785d137706cc4cf0ac406b2a92d44ad226efde922d4c660a30ba754e82d4d0ebed6e2f93b6d83b4e23087e9db5d0abcbcc98b1dd61d6cdad8a707a5380305bf68bc6e589ec4597aeec8ab0eb84ec661c47eff81cf283af680000000000000000000000000000000000000000000000000000000000000004000000000000000000000000000000000000000000000000000000000000b640000000000000000000000000000000000000000000000000000000000000b640000000000000000000000000000000000000000000000000000000000000b640000000000000000000000000000000000000000000000000000000000000b640",
          "blockHash": "0x0257c3593b5ab32be47d3692534bf6a90ea8d8b8d9d5d123c54d684ec143ca3b",
          "blockNumber": "0x4448c63",
          "transactionHash": "0xe874ec7f5ab0d505e3077a7b7f1dfa00f42923810cdaa72303766760e29ea107",
          "transactionIndex": "0x2b",
          "logIndex": "0xbd",
          "removed": false
        },
        {
          "address": "0x0557eceead263249368b07e12e9f6c1fc59878eb",
          "topics": [
            "0x884edad9ce6fa2440d8a54cc123490eb96d2768479d49ff9c7366125a9424364",
            "0x0000000000000000000000001aa44c933a6718a4bc44064f0067a853c34be9b0"
          ],
          "data": "0x000000000000000000000000000000000000000000000000000000000000b640",
          "blockHash": "0x0257c3593b5ab32be47d3692534bf6a90ea8d8b8d9d5d123c54d684ec143ca3b",
          "blockNumber": "0x4448c63",
          "transactionHash": "0xe874ec7f5ab0d505e3077a7b7f1dfa00f42923810cdaa72303766760e29ea107",
          "transactionIndex": "0x2b",
          "logIndex": "0xbe",
          "removed": false
        },
        {
          "address": "0x0000000000000000000000000000000000001010",
          "topics": [
            "0x4dfe1bbbcf077ddc3e01291eea2d5c70c2b422b415d95645b9adcfd678cb1d63",
            "0x0000000000000000000000000000000000000000000000000000000000001010",
            "0x0000000000000000000000001aa44c933a6718a4bc44064f0067a853c34be9b0",
            "0x000000000000000000000000ce7fcb674ba27a952c71061b649fb5a5746f3b2b"
          ],
          "data": "0x000000000000000000000000000000000000000000000000000d5ecddb96ff2d00000000000000000000000000000000000000000000000044aaf68d81d2f1af000000000000000000000000000000000000000000001d8f43391c84af6c7afe000000000000000000000000000000000000000000000000449d97bfa63bf282000000000000000000000000000000000000000000001d8f43467b528b037a2b",
          "blockHash": "0x0257c3593b5ab32be47d3692534bf6a90ea8d8b8d9d5d123c54d684ec143ca3b",
          "blockNumber": "0x4448c63",
          "transactionHash": "0xe874ec7f5ab0d505e3077a7b7f1dfa00f42923810cdaa72303766760e29ea107",
          "transactionIndex": "0x2b",
          "logIndex": "0xbf",
          "removed": false
        }
      ],
      "logsBloom": "0x00000000000020000000000000000000000000000000000000100000000040000000000000000000000000000000080000008000000000000000000000000000000000000000000000000008000000c00000000000040000000120000000008000000000020000000000000000000800000000000800000180000010000004001001000000000000000000001080000000000000000000000000000000000000200000010000000000000080000000000000000000000000000000000000004000000002004000000001000000000000000404000000000000100000000020000000008000000000040000000000000000000000000000000000000102100000",
      "type": "0x2",
      "transactionHash": "0xe874ec7f5ab0d505e3077a7b7f1dfa00f42923810cdaa72303766760e29ea107",
      "transactionIndex": "0x2b",
      "blockHash": "0x0257c3593b5ab32be47d3692534bf6a90ea8d8b8d9d5d123c54d684ec143ca3b",
      "blockNumber": "0x4448c63",
      "gasUsed": "0x22615",
      "effectiveGasPrice": "0x638ec12d5",
      "from": "0x1aa44c933a6718a4bc44064f0067a853c34be9b0",
      "to": "0x0557eceead263249368b07e12e9f6c1fc59878eb",
      "contractAddress": null
    },
    {
      "status": "0x1",
      "cumulativeGasUsed": "0x4d04a4",
      "logs": [
        {
          "address": "0xd189321231b8a71493506ec87b959bed191e8f4d",
          "topics": [
            "0xddf252ad1be2c89b69c2b068fc378daa952ba7f163c4a11628f55a4df523b3ef",
            "0x0000000000000000000000001aa44c933a6718a4bc44064f0067a853c34be9b0",
            "0x0000000000000000000000000000000000000000000000000000000000000000"
          ],
          "data": "0x000000000000000000000000000000000000000000000000000000000000b640",
          "blockHash": "0x0257c3593b5ab32be47d3692534bf6a90ea8d8b8d9d5d123c54d684ec143ca3b",
          "blockNumber": "0x4448c63",
          "transactionHash": "0x6359451daff3101731655af2f11b796f51fe039a5539e04545275627618599b0",
          "transactionIndex": "0x2c",
          "logIndex": "0xc0",
          "removed": false
        },
        {
          "address": "0x2791bca1f2de4661ed88a30c99a7a9449aa84174",
          "topics": [
            "0xddf252ad1be2c89b69c2b068fc378daa952ba7f163c4a11628f55a4df523b3ef",
            "0x000000000000000000000000d189321231b8a71493506ec87b959bed191e8f4d",
            "0x0000000000000000000000001aa44c933a6718a4bc44064f0067a853c34be9b0"
          ],
          "data": "0x0000000000000000000000000000000000000000000000000000000000000000",
          "blockHash": "0x0257c3593b5ab32be47d3692534bf6a90ea8d8b8d9d5d123c54d684ec143ca3b",
          "blockNumber": "0x4448c63",
          "transactionHash": "0x6359451daff3101731655af2f11b796f51fe039a5539e04545275627618599b0",
          "transactionIndex": "0x2c",
          "logIndex": "0xc1",
          "removed": false
        },
        {
          "address": "0x4d97dcd97ec945f40cf65f87097ace5ea0476045",
          "topics": [
            "0x4a39dc06d4c0dbc64b70af90fd698a233a518aa5d07e595d983b8c0526c8f7fb",
            "0x000000000000000000000000d189321231b8a71493506ec87b959bed191e8f4d",
            "0x000000000000000000000000d189321231b8a71493506ec87b959bed191e8f4d",
            "0x0000000000000000000000001aa44c933a6718a4bc44064f0067a853c34be9b0"
          ],
          "data": "0x000000000000000000000000000000000000000000000000000000000000004000000000000000000000000000000000000000000000000000000000000000e000000000000000000000000000000000000000000000000000000000000000041f3d12f7e50de8e5f679511a6241e6cfc60e6a58533027348470b6cc3ad86dfd3194161f48ddf3c0821047032dc0ae6395bb7220ed5d2100f65f68a74c4bd84534ce5249c3be97799029ce2befcd06c638bcd322d992ec088fbe9a634beabc395b79f88e2efa4fa33816dce55ffb3bfb3e85e1b0c5d529730eab6ff5050a61950000000000000000000000000000000000000000000000000000000000000004000000000000000000000000000000000000000000000000000000000000b640000000000000000000000000000000000000000000000000000000000000b640000000000000000000000000000000000000000000000000000000000000b640000000000000000000000000000000000000000000000000000000000000b640",
          "blockHash": "0x0257c3593b5ab32be47d3692534bf6a90ea8d8b8d9d5d123c54d684ec143ca3b",
          "blockNumber": "0x4448c63",
          "transactionHash": "0x6359451daff3101731655af2f11b796f51fe039a5539e04545275627618599b0",
          "transactionIndex": "0x2c",
          "logIndex": "0xc2",
          "removed": false
        },
        {
          "address": "0xd189321231b8a71493506ec87b959bed191e8f4d",
          "topics": [
            "0x884edad9ce6fa2440d8a54cc123490eb96d2768479d49ff9c7366125a9424364",
            "0x0000000000000000000000001aa44c933a6718a4bc44064f0067a853c34be9b0"
          ],
          "data": "0x000000000000000000000000000000000000000000000000000000000000b640",
          "blockHash": "0x0257c3593b5ab32be47d3692534bf6a90ea8d8b8d9d5d123c54d684ec143ca3b",
          "blockNumber": "0x4448c63",
          "transactionHash": "0x6359451daff3101731655af2f11b796f51fe039a5539e04545275627618599b0",
          "transactionIndex": "0x2c",
          "logIndex": "0xc3",
          "removed": false
        },
        {
          "address": "0x0000000000000000000000000000000000001010",
          "topics": [
            "0x4dfe1bbbcf077ddc3e01291eea2d5c70c2b422b415d95645b9adcfd678cb1d63",
            "0x0000000000000000000000000000000000000000000000000000000000001010",
            "0x0000000000000000000000001aa44c933a6718a4bc44064f0067a853c34be9b0",
            "0x000000000000000000000000ce7fcb674ba27a952c71061b649fb5a5746f3b2b"
          ],
          "data": "0x000000000000000000000000000000000000000000000000000d5ecddb96ff2d000000000000000000000000000000000000000000000000449d97bfa5ffc836000000000000000000000000000000000000000000001d8f43467b528b037a2b000000000000000000000000000000000000000000000000449038f1ca68c909000000000000000000000000000000000000000000001d8f4353da20669a7958",
          "blockHash": "0x0257c3593b5ab32be47d3692534bf6a90ea8d8b8d9d5d123c54d684ec143ca3b",
          "blockNumber": "0x4448c63",
          "transactionHash": "0x6359451daff3101731655af2f11b796f51fe039a5539e04545275627618599b0",
          "transactionIndex": "0x2c",
          "logIndex": "0xc4",
          "removed": false
        }
      ],
      "logsBloom": "0x00000000000020000000000000000000200000010000000000100000000040000000000040000000000000000000000000008000000000000001000000000000000000000000000000000008000000800000000000000000000120000000000000000000020000000000000000000800000000000800000180000010000004001001000000000000000000001080000000000000000000000000000000000000200000000000000000000080000000000000000000000000000000020000004000000002004000000001000000000000002404000000000000100000000020000000008000000000040000000000000000000000000000000000000002100000",
      "type": "0x2",
      "transactionHash": "0x6359451daff3101731655af2f11b796f51fe039a5539e04545275627618599b0",
      "transactionIndex": "0x2c",
      "blockHash": "0x0257c3593b5ab32be47d3692534bf6a90ea8d8b8d9d5d123c54d684ec143ca3b",
      "blockNumber": "0x4448c63",
      "gasUsed": "0x22615",
      "effectiveGasPrice": "0x638ec12d5",
      "from": "0x1aa44c933a6718a4bc44064f0067a853c34be9b0",
      "to": "0xd189321231b8a71493506ec87b959bed191e8f4d",
      "contractAddress": null
    }
  ],
  "libraries": [],
  "pending": [],
  "returns": {},
  "timestamp": 1747429181,
  "chain": 137,
  "commit": "d6a2b0f"
}